:020000040800F2
:10000000082D002029020008451500087513000876
:10001000351500088D0E000873420008000000002E
:100020000000000000000000000000007127000830
:100030002510000800000000B7020008852800080D
:10004000430200084302000843020008430200087C
:10005000430200084302000843020008430200086C
:10006000430200084302000843020008430200085C
:10007000430200084302000843020008430200084C
:10008000430200084302000843020008430200083C
:10009000430200084302000843020008430200082C
:1000A000430200084302000843020008430200081C
:1000B0002D2C0008E92F00087D32000843020008BB
:1000C00043020008430200084302000843020008FC
:1000D00043020008C93E0008093F00084302000827
:1000E00029100008430200084302000843020008E8
:1000F00043020008430200084302000843020008CC
:1001000043020008430200081135000843020008BA
:1001100043020008430200084302000843020008AB
:10012000430200084302000843020008430200089B
:1001300000F002F800F068F80AA090E8000C824491
:100140008344AAF10107DA4501D100F05DF8AFF26E
:10015000090EBAE80F0013F0010F18BFFB1A43F0A5
:100160000103184714530000345300000A444FF0B1
:10017000000C10F8013B13F0070408BF10F8014B06
:100180001D1108BF10F8015B641E05D010F8016B4B
:10019000641E01F8016BF9D113F0080F1EBF10F8AF
:1001A000014BAD1C0C1B09D16D1E58BF01F801CBD2
:1001B000FAD505E014F8016B01F8016B6D1EF9D555
:1001C0009142D6D37047000000230024002500266A
:1001D000103A28BF78C1FBD8520728BF30C148BFAA
:1001E0000B607047752900F0BD80002070471FB577
:1001F00000F002FE04000020002104F0B3FE401CC9
:1002000060601FBD10B510BD00F0C8FD1146FFF7BE
:10021000EEFF04F0FFF900F0F3FD03B4FFF7F2FF87
:1002200003BC04F02FF80000094880470948004744
:10023000FEE7FEE7FEE7FEE7FEE7FEE7FEE7FEE796
:10024000FEE7FEE704480549054A064B70470000F3
:10025000952800083101000808270020082D0020FB
:100260000829002008290020EFF3108072B670479B
:1002700080F310887047204C204D25604FF000041B
:1002800084F309881E4C4FF0010525701D4C4FF07A
:100290008055256062B6FEE730B41A4C4FF08055A9
:1002A000256030BC704730B4164C4FF08055256047
:1002B00030BC704700BF72B6EFF3098028B1203818
:1002C00080E8F00F10490968086000B50F488047C2
:1002D0005DF804EB0E480F490A7802700A480E498F
:1002E0000A680260106890E8F00F203080F30988F7
:1002F0004EF0040E62B6704720ED00E00000FFFFF4
:100300008101002004ED00E088010020BD1B0008F1
:100310007B0100207C01002090010020704700003C
:100320000FB4044910B503AA029800F0E7FA10BC14
:100330005DF814FB4C0100200FB41CB5084B06AA55
:100340007B4469460090059800F0BFFA04460020FF
:10035000694600F0CDFA20461CBC5DF814FB000095
:10036000AD0500002DE9F04106460024106875290E
:10037000314615A510D0AFF30080002802DA4042C4
:1003800012A507E031688A0701D511A502E04907E7
:1003900004D510A5012401E0AFF3008000210A2359
:1003A00006F1240707E0B0FBF3F203FB1200303044
:1003B00078541046491C0028F5D123462A46304679
:1003C000BDE8F04100F022BA000000002D0000005E
:1003D0002B000000200000002DE9F05F8946044654
:1003E0004FF0000ADFF874B1FB44C0F820A02046AB
:1003F000E1688847002874D0252806D0D4E9012177
:100400009047206A401C2062F1E700265F462046A4
:10041000E16888472028054607DB312D05D2781989
:1004200010F8200C08B10643F1E7B00701D526F01B
:100430000406C4F81CA00027C4F818A02A2D09D06F
:10044000284603F018FF38B304EB8708303DC8F89E
:10045000185019E059F8041B204604EB87029161FB
:10046000E1688847012F054618D1E069002820DAA5
:1004700026F020061DE0D8F8180000EB800005EB00
:1004800040003038C8F818002046E1688847054623
:1004900003F0F1FE0028EED1012F0AD02E2D08D155
:1004A0002046E16888477F1C0546022F46F020065B
:1004B000C4DBA069002803DA404246F00106A061CF
:1004C000F00701D026F010066C2D0BD0682D09D056
:1004D0004C2D39D06A2D35D0742D35D07A2D33D0AE
:1004E00016E038E0E1682F4620468847B8420546C6
:1004F00009D16C2F26D04FF48060E1680643204676
:100500008847054604E06C2F1AD04FF480700643EC
:100510000DB3A5F14100192802D8203546F4006634
:100520004A462946204626604E46FFF75BFE80B1CC
:1005300001280BD0F61D26F0070000F1080956E748
:100540004020E4E78020D8E70020D6E706F1040940
:100550004DE7284652E7206ABDE8F09F7A50000038
:100560000FB400B58DB010A9099000910B904FF019
:10057000FF300A9000200C90064878440690064808
:1005800078446A4607900F9909A800F0DDF90DB08C
:100590005DF814FBEB030000030400002DE9FF5F8E
:1005A0001D464FF0FF3B91464FF000085F46D5E9EE
:1005B0000146A96901987F1C8847296A82468847B5
:1005C0000028F6D1BAF1FF3F0CD0002E24F4C0640D
:1005D00019DD600614D5BAF12B0F09D0BAF12D0F31
:1005E0000ED103E0584604B0BDE8F09F44F48064A7
:1005F000A96901987F1C8847761E8246002E02DD7D
:10060000BAF1300F03D0B9F1000F26D032E0A9695A
:10061000761E01987F1C44F400748847002E8246A1
:1006200005DDBAF1780F06D0BAF1580F03D0B9F151
:10063000000F10D01EE0B9F1000F02D0B9F1100F79
:1006400018D1A969761E01987F1C24F4007488478C
:100650008246102002E0082000E00A20814609E0DE
:10066000A96908FB0908761E01987F1C44F40074F0
:1006700088478246002E05DD4946504600F050F975
:100680000028EDDAE96901988847A00502D46FF0E7
:100690000100A8E7E00725D1600613D5600502D563
:1006A000C8F1000000E0404629680A1D2A60096878
:1006B000220501D5087015E0220701D5088011E058
:1006C00008600FE02868011D29600068210502D537
:1006D00080F8008006E0210702D5A0F8008001E044
:1006E000C0F8008038467EE7032A40F2308010F0E0
:1006F000030C00F0158011F8013BBCF1020F6244BD
:1007000098BF11F801CB00F8013B38BF11F8013B4D
:10071000A2F1040298BF00F801CB38BF00F8013BFA
:1007200011F0030300F04081083AC0F0088051F84E
:10073000043B083A51F804CBA0E80810F5E7121D75
:100740005CBF51F8043B40F8043BAFF30080D20794
:1007500024BF11F8013B11F801CB48BF11F8012B60
:1007600024BF00F8013B00F801CB48BF00F8012B83
:1007700070474FF000020429C0F0128010F0030C03
:1007800000F01B80CCF1040CBCF1020F18BF00F884
:10079000012BA8BF20F8022BA1EB0C0100F00DB833
:1007A0005FEAC17C24BF00F8012B00F8012B48BF91
:1007B00000F8012B70474FF0000200B51346944635
:1007C0009646203922BFA0E80C50A0E80C50B1F1A9
:1007D0002001BFF4F7AF090728BFA0E80C5048BFBD
:1007E0000CC05DF804EB890028BF40F8042B08BF5B
:1007F000704748BF20F8022B11F0804F18BF00F857
:10080000012B704770477047704770472DE9F047DC
:100810000D4699469246044600F124080168880670
:1008200004D5E06921F01001216000E00120A84218
:1008300001DD471B00E00027A1697A1902EB0900DE
:10084000081AA0612078C00602D42046AFF30080C9
:10085000002608E0D4E901211AF806009047206A32
:10086000401C761C20624E45F4DB2078C0060AD579
:100870002046AFF3008006E0D4E901213020904704
:10088000206A401C2062381EA7F10107F4DC07E053
:10089000D4E9012118F805009047206A401C206225
:1008A000281EA5F10105F3DC2046AFF30080207877
:1008B000000602D50220BDE8F0870120FBE700001A
:1008C00001694A1C02610878704700B58FB0CDE914
:1008D00001310021059105497944CDE90310114604
:1008E0006846FFF779FD0FB000BD0000E5FFFFFF90
:1008F0000A6802F8010B0A6070470000074B70B5E8
:100900000D467B44FFF7E1FF0446284600F03EFA1F
:1009100010B14FF0FF3070BD204670BDDF3C0000CD
:100920003A2800D2303820F02002412A01D3A2F127
:100930003700884201D34FF0FF30704702681144FE
:100940001378016018467047D160054979445161B8
:1009500004497944116200211161114600F060B828
:10096000EDFFFFFFB7000000426842B1016811F8D7
:10097000013B23B1521EC0E9001218467047012105
:10098000C160881E704742685AB1C368016843B9A4
:1009900083688B4205D0491E521CC0E9001200201A
:1009A00070474FF0FF30704710B5203AC0F00B8011
:1009B000B1E81850203AA0E81850B1E81850A0E863
:1009C0001850BFF4F5AF5FEA027C24BFB1E81850BD
:1009D000A0E8185044BF18C918C0BDE810405FEA2D
:1009E000827C24BF51F8043B40F8043B08BF7047A9
:1009F000D20728BF31F8023B48BF11F8012B28BFAE
:100A000020F8023B48BF00F8012B704710B50446A0
:100A100000F0EAF90068005D00F0010010BD000080
:100A20002DE9F34F4FF0000A0C4656468DB00120D9
:100A30000C9001F10C000B9062690B98012190471A
:100A400005002DD0252D2CD0216A8847C0B16269C0
:100A50000B9801219047216A88470028F7D16269E5
:100A6000411E0B98904700E0761CA1690D988847BD
:100A7000216A88470028F7D1E1690D988847DBE7AC
:100A8000A1690D988847A842074601D1761CD3E793
:100A9000E1690D9888477F1C02D1BAF1000F6FD031
:100AA00068E162690B9800273D46394690472A283D
:100AB00004D162690B98012190470125DFF8C882B3
:100AC00062690B9801219047A0F130010A290AD2EE
:100AD0004745E5DC07EB870100EB4107303FDFD4FA
:100AE00045F01005ECE7E90601D46FF000476C28EB
:100AF0000AD04C2814D0682815D06A280DD0742844
:100B00001CD07A281AD01DE062690B980121904709
:100B10006C2802D045F0040514E045F002050DE014
:100B200045F020050AE062690B980121904768288A
:100B300002D045F0080505E045F4006562690B98B0
:100B400001219047C4E9015765283DD019DC582898
:100B500077D00CDC452837D004DC252826D0412866
:100B60009ED131E046282FD0472899D12CE05B2830
:100B70007DD0612828D0632879D0642823D157E01C
:100B8000F3E06F2845D008DC66281DD067281BD00D
:100B9000692821D06E2816D127E0702842D073280A
:100BA00065D0752844D078280DD14AE0A1690D9808
:100BB0008847252805463FF469AFE1690D988847C5
:100BC0006D1C3FF46AAFD5E00D9923466A466FF07D
:100BD0000100AFF30080C2E045F0400023464FF033
:100BE00000026060A80733D43BE02068011D21604B
:100BF0000068290501D506701EE7290701D5068082
:100C00001AE7A90703D5F117C0E9006114E70660E8
:100C100012E745F0400023464FF008026060A80745
:100C200016D41EE040F60E0125EA0100606016E0D1
:100C300045F0400023464FF00A026060A80707D441
:100C40000FE045F040006060A80708D52346102259
:100C50000D996FF00100AFF3008080E007E01022F3
:100C600023460D996FF00100FFF798FC77E04FF0F5
:100C7000000963284F46C8464B46CB4602D05B2846
:100C800006D038E0E80601D40120A060012732E058
:100C90006269D4F80CB00B98012190475E2807D107
:100CA0004FF0010949466269D4F80CB00B9890479F
:100CB000216939B900210B4603AA42F82130491CA9
:100CC0000829FADBD8B3216949B308F10108626940
:100CD0000B98012190475D28F4D1B9F1000F09D09C
:100CE000002003A951F82020D24341F82020401CC5
:100CF0000828F7DB03AB2069002820794FEA407011
:100D00001ED05B462246CDF80080CDE901970D99B3
:100D100000286FF0010020DAAFF300801FE0C11758
:100D200000EBD16203A9531122F01F0201EB8301F2
:100D3000821A0B680120904003430B60C7E719E05B
:100D40000D99224600286FF00100009702DAAFF3F8
:100D5000008004E0AFF3008001E0AFF300800028E2
:100D60000ADA401C06D10C9820B14FF0FF300FB0CA
:100D7000BDE8F08F5046FAE7E90701D10AF1010A10
:100D8000064400200C9057E6CCCCCC0C007B00F045
:100D90008000704700487047A82600207546FFF77E
:100DA000F9FFAE4605006946534620F00700854628
:100DB00018B020B5FFF746FABDE820404FF0000616
:100DC0004FF000074FF000084FF0000B21F0070133
:100DD000AC46ACE8C009ACE8C009ACE8C009ACE876
:100DE000C0098D467047000010B500F005F8001DE1
:100DF00010BD00BF7141000000487047C8260020A8
:100E00000446AFF300802046FFF707FA4FF0013C9D
:100E100050F8042B51F8043B9A4221D1A2EB0C0369
:100E2000934313EACC1317D150F8042B51F8043B29
:100E30009A4215D1A2EB0C03934313EACC130BD1C6
:100E400050F8042B51F8043B9A4209D1A2EB0C0351
:100E5000934313EACC13DBD04FF00000704700BF80
:100E6000D01A01BAB1FA81F101F0180122FA01F0A9
:100E7000CB40C1F12001DBB2C0B2C01A2CFA01F3A1
:100E8000D11A914311EAC311E6D1704700BFFEE7C2
:100E900010B50121402001F0A5FB10BD01684FF6FF
:100EA000FE72114001600021016041608160C160FB
:100EB0004B49884208D14A490839496841F00F0135
:100EC000474A083A51608AE045491431884208D1BE
:100ED00043490839496841F0F001414A083A5160F4
:100EE0007DE03F492831884208D13D4908394968A9
:100EF00041F470613A4A083A516070E038493C3137
:100F0000884208D136490839496841F47041344A69
:100F1000083A516063E032495031884208D1304983
:100F20000839496841F470212D4A083A516056E069
:100F30002B496431884208D129490839496841F46C
:100F40007001274A083A516049E0254978318842C2
:100F500008D123490839496841F07061204A083AAC
:100F600051603CE01F49884206D1011F096841F0E9
:100F70000F01021F116032E01A491431884208D172
:100F80001849091F096841F0F001164A121F116043
:100F900025E014492831884208D11249091F0968FF
:100FA00041F470610F4A121F116018E00D493C3185
:100FB000884208D10B49091F096841F47041094A68
:100FC000121F11600BE007495031884207D10549D3
:100FD000091F096841F47021024A121F116070470D
:100FE000080002400804024010B50022026847F6DB
:100FF000F0739A430C6A8B6823430C6923434C6952
:1010000023438C692343CC6923434C6A23438C6A72
:1010100023431A430260CB6843600B6883604B68CC
:10102000C36010BD7047000010B500F01FFB4FF407
:10103000006000F049F8C8B14FF4006000F03EF8DD
:101040001B48006800F4805028B11A480068401C12
:101050001849086028E01648006800F4805018BB62
:1010600014480068401E134908601DE04FF400500A
:1010700000F02AF8C0B14FF4005000F01FF80C48FF
:10108000006800F4804028B10B480068401E0A49FF
:10109000086009E00648006800F4804020B906486E
:1010A0000068401C0449086000F0F2FA10BD00001E
:1010B000080C0140800000207C00002001490860ED
:1010C0007047000014040140014600200022074B35
:1010D0001B6803EA0102054B14331B680B4013B174
:1010E0000AB1012000E00020704700000004014028
:1010F000002123498279002A3AD00A4612680368FF
:101100009A430B461A600A1D126803689A430B1D26
:101110001A60027911440A6803681A430A60184A7F
:101120000832126803689A43154B08331A601A1D77
:10113000126803689A43124B0C331A604279102AE2
:101140000ED11A1F126803681A430D4B08331A6038
:101150001A1D126803681A43094B0C331A600DE01C
:101160000749427911440A6803681A430A6005E096
:10117000027911440A6803689A430A6070470000C4
:101180000004014030B500228B071C0F0F2303FA27
:1011900004F20B4B8C1053F824309343084C8D1001
:1011A00044F8253023468C1053F824308C07240F44
:1011B00000FA04F42343024C8D1044F8253030BD6E
:1011C000080001402DE9F0410246002500260020DC
:1011D00000230024002791F803C00CF00F0591F8BC
:1011E00003C00CF0100CBCF1000F03D091F802C04A
:1011F0004CEA050591F800C0BCF1000F31D014682D
:1012000000202BE04FF0010C0CFA00F3B1F800C005
:101210000CEA03069E4220D183004FF00F0C0CFA1B
:1012200003F7BC4305FA03FC4CEA040491F803C03D
:10123000BCF1280F06D14FF0010C0CFA00FCC2F8EB
:1012400014C00AE091F803C0BCF1480F05D14FF07B
:10125000010C0CFA00FCC2F810C0401C0828D1D3C5
:101260001460B1F800C0BCF1FF0F34DD54680020F9
:101270002EE000F1080C4FF0010808FA0CF3B1F869
:1012800000C00CEA03069E4221D183004FF00F0CF0
:101290000CFA03F7BC4305FA03FC4CEA040491F88A
:1012A00003C0BCF1280F05D100F1080C08FA0CF8B6
:1012B000C2F8148091F803C0BCF1480F07D100F1C7
:1012C000080C4FF0010808FA0CF8C2F81080401C16
:1012D0000828CED35460BDE8F0810000F0B50A467E
:1012E000002300240021002500F00046B6F1004F45
:1012F00002D11D4EF16901E01B4E7168C0F3034538
:1013000083B200F44016B6F5401F08D121F0706199
:10131000154E766826F07066134F7E6012E000F47A
:101320008016B6F5801F06D1032606FA05F4A14300
:1013300041F0706106E0460D360103FA06F6B1434E
:1013400041F0706122B1460D360103FA06F63143D1
:1013500000F00046B6F1004F02D1034EF16101E00A
:10136000014E7160F0BD0000000001404161704716
:101370000161704700BFFEE74CF6CC4001490860B0
:10138000704700000030004010B500F013F810BDA9
:1013900070B505460C4645F2555000F01FF828463A
:1013A00000F010F8204600F013F800F003F8FFF703
:1013B000E3FF70BD4AF6AA200149086070470000AB
:1013C0000030004001494860704700000030004094
:1013D0000149886070470000003000400149086002
:1013E000704700000030004008B50121092001F0DD
:1013F00029F91820ADF8000010208DF80300022014
:101400008DF8020069460648FFF7DCFE1821044803
:10141000FFF7AEFF01210348FFF760FF08BD0000A2
:10142000000C01400002300008B500200E49088081
:10143000488000F081F80121092001F003F94FF400
:101440007070ADF8000010208DF8030003208DF8B7
:10145000020069460548FFF7B5FE4FF47071034876
:10146000FFF784FF08BD000042010020000C01408E
:1014700010B5C0210148FFF77BFF10BD000C0140F3
:1014800010B580210348FFF773FF40210148FFF7A3
:101490006DFF10BD000C014010B540210348FFF75F
:1014A00067FF80210148FFF761FF10BD000C01407C
:1014B00040F6B731884201D9084601E000B9002062
:1014C000014A108070470000342C014010B54FF4E1
:1014D00040710248FFF74CFF10BD0000000C0140B6
:1014E00010B54FF480710448FFF742FF4FF40071CC
:1014F0000148FFF73BFF10BD000C014010B54FF451
:1015000000710448FFF734FF4FF480710148FFF782
:101510002DFF10BD000C014040F6B731884201D9C3
:10152000084601E000B90020014A10807047000021
:10153000402C014000BFFEE710B502F03FFC02F076
:10154000DFFB10BD704710B54FF4A06000F03AF813
:1015500010BD000070B5002100230F22C47804B331
:10156000154C246804F4E064C4F5E064210AC1F178
:101570000403CA40447804FA03F1847814402143F8
:1015800009010E4C0678A155047804F01F050124CA
:10159000AC4005786D11AD0005F1E025C5F80041BE
:1015A00009E0047804F01F050124AC40044D0678DE
:1015B000761145F8264070BD0CED00E000E400E037
:1015C00080E100E002490143024A116070470000D7
:1015D0000000FA050CED00E02DE9F04105460E464D
:1015E000144600271148007818B112202070BDE879
:1015F000F0812878012808D0022807D0032802D0DB
:10160000042804D100E000BF00BF00BF02E00120B9
:101610002070ECE700BFFEF727FE07462E61384634
:10162000FEF726FE0020207000BFE0E779010020D1
:1016300010B500F013F800F0CBFD00F0F3FD00F062
:1016400013FE00F095FD00F063FE00F03FFE00F099
:1016500049FE00F0ABFB00F007F810BD0020014987
:1016600008807047BC0100207047000006480078E1
:10167000012808D105480078FF2804D203480078E3
:10168000401C024908707047810100207901002048
:1016900010B5002417480078012829D1FEF7E4FD91
:1016A00004461548007820B113480078401E1249BE
:1016B000087011480078C0B910480078A8B900F047
:1016C00083FE0F480F49097850F821000E49086041
:1016D0000C4800780D490978884206D00C4800680B
:1016E000401C0B490860FEF7DEFD2046FEF7C0FDFA
:1016F00010BD000081010020790100207A01002046
:10170000742100207C010020900100207B0100203A
:101710006401002010B500240B480078012811D185
:10172000FEF7A2FD04460948007840B90848007851
:10173000FF2804D206480078401C0549087020465E
:10174000FEF796FD10BD0000810100207901002008
:101750007A01002010B5002413480078012821D117
:10176000FEF782FD044611480078C0B10F480078AA
:10177000401E0E4908700846007860B90C48007891
:1017800028B92046FEF774FD00F0EAFD0AE0204685
:10179000FEF76EFD06E02046FEF76AFD02E02046F9
:1017A000FEF766FD10BD0000810100207A010020D7
:1017B0007901002070B5054600261048007808B170
:1017C000002070BDFEF750FD06460D480468006815
:1017D00020B10B4800684068094908603046FEF7B0
:1017E00047FD4CB10320207025810020606005A0DA
:1017F0002061204600F0AEFC2046E2E7790100209F
:10180000680100203F0000002DE9F04105460E462A
:10181000144600272878032803D001202070BDE853
:10182000F0812F48007810B102202070F7E72D4892
:10183000007810B10D202070F1E7FEF715FD074686
:10184000288940B12889401E28813846FEF710FDBE
:1018500000202070E3E724480068007F40F001008A
:1018600021490968087700201F49096848771E4800
:1018700000688661284600F02FFC3846FEF7F8FC29
:1018800000F06EFDFEF7F0FC074617480068407F49
:1018900020B1012809D0022806D102E000202070E2
:1018A0000BE00E20207008E000BF29460E480068BB
:1018B00000F0E0FB0A20207000BF00BF00200A49B2
:1018C0000968087708490968487707490968C860BE
:1018D0000549096808613846FEF7CAFC00BF9EE763
:1018E000790100207A0100208801002070B50446AB
:1018F00000252078032801D0012070BDFEF7B4FC3C
:101900000546A07A60B1002301221946204600F066
:101910006BFB2846FEF7ACFC00F022FD0020ECE754
:1019200020894FF6FF71884207D22089401C208110
:101930002846FEF79DFC0020DFE72846FEF798FCCE
:101940003320DAE710B50B48007890B900F03CFD81
:10195000094800780949087009480749097850F88A
:101960002100084908600846006807490860FEF73A
:1019700082FC10BD810100207C0100207B01002041
:1019800074210020900100208801002010B500245F
:10199000022000F015F9FEF767FC044600200B4911
:1019A00008602046FEF764FC142000F009F9FEF7F9
:1019B0005BFC0446054800680549086001200549AC
:1019C00008702046FEF754FC10BD00008401002082
:1019D0007001002078010020704700002DE9FE4FC3
:1019E00006460F4690461C464FF00009FEF73CFCA9
:1019F00081461F48007828B14846FEF739FC3C2054
:101A0000BDE8FE8F1B4850F8240060BB0120194937
:101A100041F824004846FEF72BFC00234246394695
:101A2000304600F02EF882460020009001900346D8
:101A3000024651460290204600F0DCFC054635B9CE
:101A40000D48007801280CD100F08AFC09E0FEF76F
:101A50000BFC81460020074941F824004846FEF768
:101A600007FC2846CCE74846FEF702FC2820C7E7DB
:101A70007901002074210020810100207047704707
:101A8000704770B5044610464FF080750560051F1D
:101A900028462C606FF00106051F28462E604FF087
:101AA0001236051F28462E604FF00336051F2846C4
:101AB0002E604FF00236051F28462E607610051F57
:101AC00028462E60051F284629604FF01136051F55
:101AD00028462E604FF01036051F28462E604FF026
:101AE0000936051F28462E604FF00836051F284688
:101AF0002E604FF00736051F28462E604FF0063641
:101B0000051F28462E604FF00536051F28462E601B
:101B10004FF00436051F28462E6070BD2DE9F041B8
:101B200005464FF00008FEF79FFB8046FF2D04D1CD
:101B30001E480068857F012607E01C480068807FFA
:101B4000A84201D1012600E00026194850F825409E
:101B50002CB94046FEF78CFB4820BDE8F081012CF3
:101B600004D14046FEF784FB4320F6E794F820704A
:101B70001048C05D94F8211088430E49C8550846A6
:101B8000C05D30B994F822100B48007888430A49A8
:101B90000870207F40F0080020774046FEF768FB81
:101BA000012E01D100F0DCFB0020D6E788010020E7
:101BB000742100207E0100207D010020704700007C
:101BC00070B5054600261748007800B170BD16486C
:101BD000007800B1FAE71DB3FEF746FB064613484E
:101BE000006890F820401248005D1049096891F89B
:101BF000211088430E4908550846005D40B90B483E
:101C0000006890F822100B48007888430949087052
:101C10000648006885613046FEF72AFB00F0A0FB0D
:101C200000BFD3E7790100207A010020880100205D
:101C30007E0100207D0100202DE9F04104460D4683
:101C400016461F461248007810B15520BDE8F081B5
:101C50001048007808B13220F8E7B81CC821484382
:101C60004FF47A71B0FBF1F14FF461606043C5EB62
:101C7000051200EB8200304400EBC00202EB0010C2
:101C800001EBC0084046FFF79BFF0020DEE70000A5
:101C9000790100207A01002070B5002600F06CF870
:101CA000FEF7E2FA06462E480068401C2C49086000
:101CB0003046FEF7DDFA2B48007801284DD12A483E
:101CC000007820B1012804D0022809D103E00125C1
:101CD0000BE0002509E0012501202349087004E0FC
:101CE000012500202049087000BF00BF05B970BD64
:101CF0001E4804682EE0FEF7B7FA0646A06928B32E
:101D0000A069401EA061A06900BB207F00F03700E1
:101D100030B1207F00F0C80020770120607701E01B
:101D200000206077207F00F0080078B92034A07888
:101D30000F49097808430E49087020780D49085C5E
:101D40006178084314F820190A4A505464683046F0
:101D5000FEF78EFAA07F1428CDD100BFC7E70000A0
:101D6000A0010020810100209801002094010020A2
:101D70007D0100207E01002010B506480088401C2F
:101D8000044908800846008818B10020088000F047
:101D900003F810BDBC01002010B503480068FFF730
:101DA000A5FD0446204610BDB0010020F8B57821FD
:101DB000284800F0A3FA4021274800F09FFA0025A8
:101DC00014E0681C86B205EB8500224901EBC004D3
:101DD00006EB860001EBC00764202070002084F829
:101DE0002500E7601DA02062681C85B2022DE8D3A3
:101DF00005EB8500174901EBC0046420207000202A
:101E000084F82500E06015A02062002014490860D5
:101E1000144908800320144908800E4813490860BB
:101E20000120FFF7C7FC124908600020FFF7C2FC41
:101E3000104908606A4610A10D480068FFF7CCFB06
:101E40006A4612A10B480068FFF7C6FB00F028F8AD
:101E5000F8BD0000F0230020682600203F000000AD
:101E6000A8010020A6010020A4010020B401002048
:101E7000AC010020B001002075432F4F532D49497C
:101E800020546D724C6F636B0000000075432F4F40
:101E9000532D494920546D725369676E616C00007F
:101EA00010B50023024A19460248FFF797FD10BDFE
:101EB00064260020251F000870B50B46032580F816
:101EC0002550012B05D1154EC5693668354445614D
:101ED0000CE085692DB9114EC569366835444561F8
:101EE00004E00E4E8569366835444561057D05F090
:101EF00007040B4D05EBC4010D682DB908600025E2
:101F0000C56001258D8006E00A680860C260106126
:101F10008D886D1C8D800025056170BDA801002095
:101F20006826002008B500BF00BF6A4600211A4895
:101F30000068FFF769FCFFF7EDFB18480068401CDC
:101F4000164908600846007800F00708144800EBBE
:101F5000C8073C681AE0E668104960690968884269
:101F600013D1204600F01EF894F82400022804D172
:101F700001212046FFF7A0FF02E0022084F825009F
:101F8000656815B12046A168A8473446002CE2D107
:101F9000FFF7E0FBC9E70000B0010020A801002026
:101FA0006826002030B5057D05F007040D4D05EBD2
:101FB000C4031D68854205D1C168196039B1002587
:101FC0000D6104E00169C268CA6002B111610125B6
:101FD00080F825500025C56005619D886D1E9D8097
:101FE00030BD0000682600202DE9F04F05460F4661
:101FF00090469946A87A1B490E5C05F10B00805D5E
:1020000011F800B00BEBC60000F0FF0A164850F8BC
:102010002A400020A0616761207F20EA0800207725
:1020200084F81D90207F00F0080068B994F8220021
:102030000E49097808430D4908700D48805D94F8F1
:10204000211008430A4988552946204600F012F815
:10205000206920B12046216900F021F8E560504652
:10206000BDE8F08F66530008742100207D01002038
:102070007E01002010B590F8202001F10B039B5C3D
:1020800090F82140A34301F10B04A35423469B5C29
:1020900023B98B7A90F82240A3438B7210BDF0B520
:1020A000024612F8204F95785678203A0B46186869
:1020B0000FE000F10B073F5DB74300F10B0C0CF88C
:1020C000047067463F5D17B9877AAF4387721B1D5F
:1020D00018680028EDD1F0BD10B51B4A1268D06019
:1020E000194A126892F8203000F10B02D25C164BAC
:1020F0001B6893F821301A43134B1B6893F8204058
:1021000000F10B031A55827A0F4B1B6893F82230AB
:102110001A4382720C4A126892F820100B4A525CE1
:10212000094B1B6893F821309A43084B5A541A46BE
:10213000525C42B9044A126892F82230044A12787A
:102140009A43034B1A7010BD880100207E010020C5
:102150007D010020014600228A72002005E0002354
:1021600001F10B021354421CD0B20328F7D370477D
:1021700070B56421134800F0C1F8002411E0601C20
:1021800085B204EB84000F4901EB800305EB850069
:1021900001EB8006002018705E600BA01861601CC7
:1021A00084B2042CEBD304EB8400064901EB8003DA
:1021B00000201870586004A01861084603490860A0
:1021C00070BD0000101D00203F00000068010020CD
:1021D00000200A4908600A4908700A4908700A493B
:1021E00008700A4908700A4908600A4908600A49E3
:1021F00008600A4908600A4908707047A001002079
:10220000790100207A010020820100208101002054
:10221000640100208401002074010020700100206E
:102220007801002000210A4A1170002004E00021FA
:10223000084A1154411CC8B20328F8D30021064AA9
:102240001170064A1170064A1160064A1160704703
:102250007D0100207E0100207B0100207C01002008
:10226000900100208801002070B54FF4D871134808
:1022700000F044F85421124800F040F800230DE02B
:10228000581CC5B203EBC3000C4901EB800405EBFD
:10229000C50001EB80066660581CC3B20B2BEFD360
:1022A00003EBC300054901EB800400206060054991
:1022B000086002480449086070BD0000C821002081
:1022C00074210020940100208C01002010B51423FB
:1022D000024A00210248FFF781FB10BD7021002057
:1022E000F124000810B51323024A00210248FFF729
:1022F00075FB10BD701F00201925000804E00022A6
:1023000000F8012B4A1E91B20029F8D17047000055
:102310002DE9F04178211048FFF7F0FF00240DE08F
:10232000601C86B204EB44000B4901EBC00506EBD0
:10233000460001EBC0072F60601C84B2042CEFD371
:1023400004EB4400044901EBC00500202860084666
:1023500002490860BDE8F081782300209C0100203C
:1023600010B50024FDF780FF044610480078C0B97E
:102370000F480078A8B900F027F80E480E490978F0
:1023800050F821000D4908600B4800780C49097885
:10239000884206D00B480068401C0A490860FDF7D7
:1023A0007BFF2046FDF764FF10BD0000790100208F
:1023B0007A010020742100207C010020900100207F
:1023C0007B010020640100200649074A1278885CDE
:1023D0000649095C034A515C01EBC001044A1170D3
:1023E00070470000665300087D0100207E01002038
:1023F0007C0100202DE9F84F05460E461746984609
:10240000DDE90BABDDF8289000200090FDF72CFFF4
:10241000009031480468002C58D054F8040F2E491D
:1024200008600098FDF724FF44F8046CA5760020AE
:1024300020766076606100BF00BF00BF00BF00BFB4
:10244000E810207705F00700E076217F0120884022
:10245000A077E17E0120884060770020A060E060E6
:102460002061241F2046FFF7B7FA2046FFF706FB3E
:10247000FDF7FAFE0090194840F82540184800681A
:1024800060600020A0601648006810B11448006821
:102490008460134804602034A07812490978084306
:1024A0001049087020781049085C6178084314F8D6
:1024B00020190D4A50540D480078401C0B490870F3
:1024C0000098FDF7D5FE0020BDE8F88F0098FDF7D5
:1024D000CFFE4220F8E700008C010020742100208C
:1024E000940100207D0100207E0100208201002057
:1024F000002400BF00BFFDF7B7FE04460548006892
:10250000401C044908602046FDF7B2FEFFF7B7FA09
:10251000F1E7000084010020002400BF02E0282031
:10252000FFF74EFB184800780028F8D017480068DD
:102530006421B0FBF1F0154908600846006828B92D
:10254000002013490870FF20FFF7E8FA00BFFDF7ED
:102550008BFE04460F4800680F49086000200D49B3
:1025600008602046FDF784FE0B48006807490968AB
:10257000B0FBF1F0C0F1640005490870FFF780FA84
:102580001420FFF71DFBE2E7780100207001002016
:102590006C010020840100207401002008B5012195
:1025A000082000F04FF84FF46040ADF80000102014
:1025B0008DF8030003208DF8020069460848FEF7F5
:1025C00001FE4FF48050ADF8000028208DF8030084
:1025D00003208DF8020069460148FEF7F3FD08BDAF
:1025E000000C014029B1064A52690243044B5A616A
:1025F00004E0034A52698243014B5A61704700006C
:102600000010024029B1064AD2690243044BDA6144
:1026100004E0034AD2698243014BDA61704700004B
:102620000010024029B1064A12690243044B1A61A4
:1026300004E0034A12698243014B1A6170470000AB
:102640000010024029B1064A92690243044B9A6184
:1026500004E0034A92698243014B9A61704700008B
:102660000010024029B1064AD2680243044BDA60E6
:1026700004E0034AD2688243014BDA6070470000ED
:102680000010024030B500210022002400232D4D0F
:102690006D6805F00C0121B1042905D0082923D16A
:1026A00005E0294D056022E0274D05601FE0254D1E
:1026B0006D6805F47012234D6D6805F480340225B1
:1026C00005EB92421CB9214D554305600BE01D4DB1
:1026D0006D6805F400351DB11C4D5543056002E0E1
:1026E000194D5543056002E0174D056000BF00BF5E
:1026F000144D6D6805F0F0010909154D6B5C056816
:10270000DD4045600F4D6D6805F4E061090A104D2C
:102710006B5C4568DD4085600A4D6D6805F460516D
:10272000C90A0B4D6B5C4568DD40C560054D6D68A1
:1027300005F44041890B074D6B5CC568B5FBF3F5AB
:10274000056130BD0010024000127A0000093D0012
:10275000500100206001002010B547214FF6FF70A6
:1027600000F0E8F947214FF6FF7000F0B3FB10BD11
:10277000704710B500F002F810BD00000CB5002045
:10278000019000903348006840F48030314908607F
:1027900000BF3048006800F4003000900198401CF1
:1027A0000190009818B90198B0F5A06FF1D12948AF
:1027B000006800F4003010B10120009001E000201A
:1027C00000900098012843D12348006840F0100091
:1027D000214908600846006820F0030008600846A8
:1027E000006840F0020008601A48406819494860D3
:1027F0000846406848600846406840F48060486089
:102800000846406820F47C1048600846406840F460
:10281000E81048600846006840F08070086000BF1B
:102820000C48006800F000700028F9D009484068A2
:1028300020F00300074948600846406840F0020065
:10284000486000BF0348406800F00C000828F9D138
:102850000CBD00000010024000200240042808D1F6
:102860004FF0E021096941F004014FF0E0221161CD
:1028700007E04FF0E021096921F004014FF0E02268
:102880001161704710B5FEF7F1FEFFF705FAFEF78C
:10289000FFFE10BD10B51348006840F0010011495B
:1028A000086008464068104908400E4948600846DC
:1028B00000680E4908400B4908600846006820F48B
:1028C000802008600846406820F4FE0048604FF40D
:1028D0001F008860FFF74DFF4FF00060044908605B
:1028E00010BD0000001002400000FFF8FFFFF6FEE0
:1028F00008ED00E0F0B50C46154600220021068CDC
:102900004FF6FE773E400684028B018C4FF60C7624
:1029100032407E1C06EA03162E433243104EB0426C
:102920000ED0104EB0420BD0B0F1804F08D00E4EFA
:10293000B04205D00D4EB04202D00D4EB04206D18D
:102940004FF6FD76314044F00106314305E04FF685
:10295000F576314044F00106314302830184F0BD35
:10296000002C0140003401400004004000080040F9
:10297000000C0040F0B50C46154600220021002650
:10298000078C4FF6EF7C07EA0C070784028B018C5B
:102990004FF6FF7707EA041640F6FF473A404FF636
:1029A000FF7707EA03373A434FF6FF7707EA052731
:1029B0003A43114FB8420ED0104FB8420BD0B0F18D
:1029C000804F08D00E4FB84205D00E4FB84202D00B
:1029D0000D4FB84206D14FF6DF77394046F0100769
:1029E000394305E04FF65F77394044F0100739432B
:1029F00002830184F0BD0000002C0140003401403E
:102A00000004004000080040000C0040F0B50C46F7
:102A10001546002200210026078C4FF6FF6C07EABE
:102A20000C070784828B018C4FF6FF7707EA042698
:102A30004FF60C773A404FF6FF7707EA03172F431C
:102A40003A43114FB8420ED0104FB8420BD0B0F1FC
:102A5000804F08D00E4FB84205D00E4FB84202D07A
:102A60000D4FB84206D14FF6FF57394046F48077F4
:102A7000394305E04FF2FF57394044F4807739433A
:102A800082830184F0BD0000002C0140003401402D
:102A90000004004000080040000C0040F0B50C4667
:102AA0001546002200210026078C4EF6FF7C07EA1F
:102AB0000C070784828B018C4FF6FF7707EA0436F8
:102AC00040F6FF473A404FF6FF7707EA05273A43BB
:102AD0004FF6FF7707EA03373A43114FB8420ED05B
:102AE000104FB8420BD0B0F1804F08D00E4FB84213
:102AF00005D00E4FB84202D00D4FB84206D14DF668
:102B0000FF77394046F48057394305E047F6FF57D1
:102B1000394044F48057394382830184F0BD00007A
:102B2000002C014000340140000400400008004037
:102B3000000C004030B585B005460C460121084622
:102B4000FFF760FD01210420FFF77CFD0F20ADF8A9
:102B5000100028208DF8130004A93248FEF732FB3C
:102B60000F213048FEF702FCADF80850ADF80440E4
:102B70000020ADF80A00ADF8060001A94FF0804032
:102B800001F06CF8002028490880488001208880E6
:102B90000020C88008814FF0804000F04BFE0420E8
:102BA0002149088000204880012088800020C880BA
:102BB00008814FF0804000F03DFE08201A4908804F
:102BC00000204880012088800020C88008814FF0C4
:102BD000804000F02FFE0C20134908800020488020
:102BE000012088800020C88008814FF0804000F0DC
:102BF00021FE1C208DF8000000208DF801008DF8CA
:102C0000020001208DF803006846FEF7A3FC0122B4
:102C10001E21900700F064FE0121880700F0D1FD1D
:102C200005B030BD00080140541B002010B5FEF770
:102C30001DFD9748007800F08000002845D1022152
:102C4000480700F0E6FD00283FD00221480700F0C9
:102C5000B5FD8F48007800F0400030B34FF0804061
:102C600000F0CAFD8B490880084600888A49098817
:102C7000884204DA4FF6FF708849086002E00020BD
:102C8000864908608348008883490988401A834937
:102C9000098808448249088000207D490870002185
:102CA0004FF0804000F072FE0FE04FF0804000F0E7
:102CB000A3FD794908807648007840F040007449C7
:102CC00008700221480700F061FE7648007800F0A5
:102CD0008000002844D10421080700F09AFD70B359
:102CE0000421080700F06AFD6E48007800F04000FB
:102CF00030B34FF0804000F082FD6B4908800846F9
:102D000000886A490988884204DA4FF6FF706849EA
:102D1000086002E000206649086063480088634953
:102D20000988401A6249098808445D4948800020A2
:102D30005C49087000214FF0804000F08BFE0FE0EE
:102D40004FF0804000F05BFD5849088055480078FE
:102D500040F04000534908700221480700F07AFE15
:102D60005448007800F08000002844D10821C806AB
:102D700000F04FFD70B30821C80600F01FFD4D485C
:102D8000007800F0400030B34FF0804000F03AFD92
:102D9000494908800846008848490988884204DA79
:102DA0004FF6FF704649086002E000204449086081
:102DB0004148008841490988401A41490988084426
:102DC0003749888000203B49087000214FF080403F
:102DD00000F0AAFE0FE04FF0804000F013FD3749ED
:102DE00008803448007840F04000324908700221E1
:102DF000480700F099FE3348007800F0800098BB47
:102E00001021880600F005FD70B31021880600F03F
:102E1000D5FC2C48007800F0400030B34FF08040E3
:102E200000F0F3FC284908800846008827490988F3
:102E3000884204DA4FF6FF702549086002E000205E
:102E4000234908602048008820490988401A204901
:102E5000098808441249C88000201A4908700021D6
:102E60004FF0804000F0B4FE0FE04FF0804000F0E3
:102E7000CCFC164908801348007840F04000114906
:102E800008700221480700F0A3FEFEF701FC10BD08
:102E9000B0000020B4000020B2000020A0000020FC
:102EA000341B0020B6000020BA000020B80000202B
:102EB000A4000020BC000020C0000020BE000020B4
:102EC000A8000020C2000020C6000020C40000208E
:102ED000AC00002030B585B005460C46012102202B
:102EE000FFF790FB01210C20FFF7ACFBC020ADF8F1
:102EF000100028208DF8130004A93748FEF762F966
:102F0000C0213548FEF732FA0320ADF81000282022
:102F10008DF8130004A93148FEF754F903212F4816
:102F2000FEF724FAADF80850ADF804400020ADF8E3
:102F30000A00ADF8060001A9294800F08FFE002024
:102F4000284908804880012088800020C8800881A6
:102F5000234800F06FFC04202249088000204880AC
:102F6000012088800020C88008811D4800F062FC94
:102F700008201C490880002048800120888000200B
:102F8000C8800881164800F055FC0C2015490880BF
:102F900000204880012088800020C88008811048D7
:102FA00000F048FC1D208DF8000000208DF8010085
:102FB0008DF8020001208DF803006846FEF7CAFA7A
:102FC00001221E21064800F08BFC0121044800F07C
:102FD000F8FB05B030BD000000080140000C0140C6
:102FE000000400405E1B002010B5FEF73FFB914837
:102FF000007800F08000002842D102218E4800F0C5
:1030000008FC00283CD002218B4800F0D7FB8948FF
:10301000007800F0400020B3874800F0EDFB8749BE
:1030200008800846008886490988884204DA4FF6F5
:10303000FF708449086002E00020824908607F48F0
:1030400000887F490988401A7E49098808447E49DA
:1030500008810020774908700021774800F096FC2D
:103060000EE0754800F0C8FB75490880714800788B
:1030700040F040006F49087002216F4800F086FC64
:103080007248007800F08000002841D104216A488D
:1030900000F0BFFB60B30421674800F08FFB6B4872
:1030A000007800F0400020B3634800F0A8FB6849B6
:1030B00008800846008867490988884204DA4FF684
:1030C000FF706549086002E00020634908606048BD
:1030D000008860490988401A5F49098808445A49AC
:1030E00048810020594908700021534800F0B2FC83
:1030F0000EE0514800F083FB5649088053480078A1
:1031000040F040005149087002214B4800F0A2FCF9
:103110005248007800F08000002841D1082146483C
:1031200000F077FB60B30821434800F047FB4B48B1
:10313000007800F0400020B33F4800F063FB4849AE
:1031400008800846008847490988884204DA4FF613
:10315000FF704549086002E000204349086040488C
:10316000008840490988401A3F490988084436497F
:10317000888100203949087000212F4800F0D4FCD4
:103180000EE02D4800F03EFB3649088033480078B9
:1031900040F04000314908700221274800F0C4FC8B
:1031A0003248007800F0800088BB1021224800F0EF
:1031B00030FB60B31021204800F000FB2B48007862
:1031C00000F0400020B31C4800F01FFB2849088095
:1031D0000846008827490988884204DA4FF6FF70BC
:1031E0002549086002E00020234908602048008843
:1031F00020490988401A2049098808441249C88191
:1032000000201A49087000210B4800F0E1FC0EE094
:10321000094800F0FAFA174908801448007840F08D
:103220004000124908700221034800F0D1FCFEF76B
:103230002FFA10BDD800002000040040DC00002060
:10324000DA000020C8000020341B0020DE0000202F
:10325000E2000020E0000020CC000020E40000207C
:10326000E8000020E6000020D0000020EA00002056
:10327000EE000020EC000020D400002010B5FEF786
:10328000F5F99148007800F08000002842D1022131
:103290008E4800F0BEFA00283CD002218B4800F096
:1032A0008DFA8948007800F0400020B3874800F08C
:1032B000A3FA874908800846008886490988884219
:1032C00004DA4FF6FF708449086002E0002082496A
:1032D00008607F4800887F490988401A7E4909882C
:1032E00008447E4908820020774908700021774809
:1032F00000F04CFB0EE0754800F07EFA754908803E
:103300007148007840F040006F49087002216F4812
:1033100000F03CFB7248007800F08000002841D1AA
:1033200004216A4800F075FA60B30421674800F090
:1033300045FA6B48007800F0400020B3634800F085
:103340005EFA68490880084600886749098888420B
:1033500004DA4FF6FF706549086002E00020634917
:1033600008606048008860490988401A5F490988F8
:1033700008445A494882002059490870002153489E
:1033800000F068FB0EE0514800F039FA5649088019
:103390005348007840F040005149087002214B48E2
:1033A00000F058FB5248007800F08000002841D11E
:1033B0000821464800F02DFA60B30821434800F088
:1033C000FDF94B48007800F0400020B33F4800F082
:1033D00019FA484908800846008847490988884200
:1033E00004DA4FF6FF704549086002E000204349C7
:1033F00008604048008840490988401A3F490988C8
:1034000008443649888200203949087000212F4835
:1034100000F08AFB0EE02D4800F0F4F936490880F0
:103420003348007840F040003149087002212748B5
:1034300000F07AFB3248007800F0800088BB102151
:10344000224800F0E6F960B31021204800F0B6F9F8
:103450002B48007800F0400020B31C4800F0D5F95C
:10346000284908800846008827490988884204DAE4
:103470004FF6FF702549086002E0002023490860EC
:103480002048008820490988401A204909880844B2
:103490001249C88200201A49087000210B4800F028
:1034A00097FB0EE0094800F0B0F91749088014486E
:1034B000007840F04000124908700221034800F0F3
:1034C00087FBFEF7E5F810BD000100200008004072
:1034D0000401002002010020F0000020341B002025
:1034E000060100200A01002008010020F40000204D
:1034F0000C010020100100200E010020F800002027
:10350000120100201601002014010020FC00002000
:1035100010B5FEF7ABF89148007800F08000002865
:1035200042D102218E4800F074F900283CD00221DB
:103530008B4800F043F98948007800F0400020B340
:10354000874800F059F9874908800846008886496D
:103550000988884204DA4FF6FF708449086002E067
:103560000020824908607F4800887F490988401A06
:103570007E49098808447E490883002077490870FD
:103580000021774800F002FA0EE0754800F034F9A7
:10359000754908807148007840F040006F49087014
:1035A00002216F4800F0F2F97248007800F08000C4
:1035B000002841D104216A4800F02BF960B30421AE
:1035C000674800F0FBF86B48007800F0400020B33B
:1035D000634800F014F96849088008460088674984
:1035E0000988884204DA4FF6FF706549086002E0F6
:1035F0000020634908606048008860490988401AD3
:103600005F49098808445A4948830020594908708D
:103610000021534800F01EFA0EE0514800F0EFF888
:10362000564908805348007840F0400051490870DE
:1036300002214B4800F00EFA5248007800F080005A
:10364000002841D10821464800F0E3F860B3082182
:10365000434800F0B3F84B48007800F0400020B336
:103660003F4800F0CFF8484908800846008847499D
:103670000988884204DA4FF6FF704549086002E085
:103680000020434908604048008840490988401AA2
:103690003F49098808443649888300203949087021
:1036A00000212F4800F040FA0EE02D4800F0AAF863
:1036B000364908803348007840F0400031490870AE
:1036C0000221274800F030FA3248007800F08000EC
:1036D00088BB1021224800F09CF860B310212048DC
:1036E00000F06CF82B48007800F0400020B31C4834
:1036F00000F08BF828490880084600882749098887
:10370000884204DA4FF6FF702549086002E0002085
:10371000234908602048008820490988401A204928
:10372000098808441249C88300201A4908700021FA
:103730000B4800F04DFA0EE0094800F066F8174912
:1037400008801448007840F04000124908700221B7
:10375000034800F03DFAFDF79BFF10BD2801002053
:10376000000C00402C0100202A010020180100203C
:10377000341B00202E0100203201002030010020E7
:103780001C010020340100203801002036010020F7
:10379000200100203A0100203E0100203C010020D1
:1037A0002401002021B1028842F08002028004E05E
:1037B00002884FF67F731A4002807047CA43028224
:1037C000704721B1028842F00102028004E00288C1
:1037D0004FF6FE731A400280704731B1B0F84420B2
:1037E00042F40042A0F8442005E0B0F84420C2F3BF
:1037F0000E02A0F8442070470146888E70470146AB
:10380000088F70470146888F70470146B1F8400025
:10381000704730B50246002000230024158A05EACF
:103820000103958905EA010413B10CB1012000E000
:10383000002030BD70B505460C46244885420ED0A8
:10384000234885420BD0B5F1804F08D021488542EE
:1038500005D02148854202D02048854200D100E0B1
:1038600000BF208850B92389A28861882846FFF7C5
:1038700041F8E188284600F0C5F925E020880428B1
:103880000AD12389A28861882846FFF773F8E18866
:10389000284600F0C0F917E0208808280AD12389BB
:1038A000A28861882846FFF7B1F8E188284600F031
:1038B000BFF909E02389A28861882846FFF7EEF85E
:1038C000E188284600F0BDF970BD0000002C0140E1
:1038D000003401400004004000080040000C00409B
:1038E0001AB183890B43838102E083898B438381EF
:1038F0007047000070B5002400220023058C4FF6AD
:10390000FE7635400584028C8388048B4FF68F75D4
:103910002C40B51E2C400D882C43751E2A400D8965
:103920002A434D882A43144DA8420BD0134DA84278
:1039300008D0134DA84205D0124DA84202D0124D16
:10394000A84213D14FF6F7752A404D892A434FF606
:10395000FB752A408D882A434FF6FF652B404FF6B2
:10396000FF552B408D892B43CD892B4383800483C6
:10397000CD888586028470BD002C01400034014052
:103980000040014000440140004801400A46002137
:10399000018C4FF6FD7319401143018470470A46AC
:1039A0000021018B4FF6F7731940114301837047D3
:1039B00070B5002400220023058C4FF6EF763540C9
:1039C0000584028C8388048B48F6FF752C404FF6E3
:1039D000FF452C400D884FF6FF7606EA05252C435F
:1039E0004FF6DF752A400D8906EA05152A434D88F2
:1039F00006EA05152A43154DA84202D0144DA842E7
:103A00001DD14FF67F752A404D894FF6FF7606EAA5
:103A100005152A434FF6BF752A408D8806EA05151D
:103A20002A434FF6FF352B404FF2FF752B408D890F
:103A300006EA85052B43CD8906EA85052B4383805D
:103A40000483CD880587028470BD0000002C0140EE
:103A5000003401400A460021018C4FF6DF73194003
:103A60004FF6FF7303EA02131943018470470A46B5
:103A70000021018B4FF2FF7319404FF6FF7303EAE9
:103A8000022319430183704770B5002400220023EC
:103A9000058C4FF6FF6635400584028C8388848B45
:103AA0004FF68F752C404FF6FC752C400D882C433B
:103AB0004FF6FF552A400D894FF6FF7606EA052599
:103AC0002A434D8806EA05252A43154DA84202D00F
:103AD000144DA8421DD14FF2FF752A404D894FF673
:103AE000FF7606EA05252A434FF6FF352A408D88E2
:103AF00006EA05252A434EF6FF752B404DF6FF7565
:103B00002B408D8906EA05152B43CD8906EA05155C
:103B10002B4383808483CD888587028470BD000019
:103B2000002C0140003401400A460021018C4FF670
:103B3000FF5319404FF6FF7303EA02231943018430
:103B400070470A460021818B4FF6F77319401143E5
:103B50008183704770B5002200230024058C4EF647
:103B6000FF7635400584038C8488828B48F6FF7588
:103B70002A404FF6FF452A400D884FF6FF7606EAA9
:103B800005252A434DF6FF752B400D8906EA0535BC
:103B90002B434D8806EA05352B430B4DA84202D036
:103BA0000A4DA84208D14BF6FF752C408D894FF67F
:103BB000FF7606EA85152C4384808283CD88A0F8A1
:103BC0004050038470BD0000002C014000340140CF
:103BD0000A460021018C4DF6FF7319404FF6FF7322
:103BE00003EA02331943018470470A460021818B9E
:103BF0004FF2FF7319404FF6FF7303EA0223194394
:103C000081837047028B4FF6F3731A400283028B55
:103C10000A4302837047028B4FF2FF331A4002833C
:103C2000028B4FF6FF7303EA01231A4302837047A6
:103C3000828B4FF6F3731A408283828B0A4382830E
:103C40007047828B4FF2FF331A408283828B4FF68C
:103C5000FF7303EA01231A4382837047002202881C
:103C60001D4B98420ED01D4B98420BD0B0F1804FA7
:103C700008D01B4B984205D01A4B984202D01A4BE1
:103C8000984204D14FF68F731A404B881A43174B52
:103C9000984207D0164B984204D04FF6FF431A4083
:103CA000CB881A4302808B8883850B8803850A4B57
:103CB00098420BD0094B984208D00E4B984205D041
:103CC0000D4B984202D00D4B984201D10B7A0386DE
:103CD0000123838270470000002C01400034014022
:103CE0000004004000080040000C004000100040AC
:103CF00000140040004001400044014000480140E1
:103D000010B588B0002401210520FEF79BFC4FF47C
:103D10001060ADF8000003208DF8020018208DF827
:103D2000030069462348FDF74DFA0121C802FEF75A
:103D300089FC472440F6B730ADF81800ADF81440C0
:103D40000020ADF81A00ADF8160005A91A48FFF7D3
:103D500085FF6020ADF804000120ADF806000020CA
:103D6000ADF80800ADF80A00ADF80C00ADF80E0093
:103D7000ADF81000ADF8120001A90F48FFF7BAFD29
:103D800008210D48FFF70BFE01A90B48FFF7E2FEE3
:103D900008210948FFF729FF01210748FFF702FD25
:103DA00001210548FFF70DFD01210348FFF715FD2F
:103DB00008B010BD00080140002C014010B588B0CB
:103DC000002401210920FEF73DFC4FF47070ADF88E
:103DD000000003208DF8020018208DF803006946CA
:103DE0002548FDF7EFF901210420FEF70BFC4724DD
:103DF00040F6B730ADF81800ADF814400020ADF82B
:103E00001A00ADF8160005A91C48FFF727FF60202F
:103E1000ADF804000120ADF806000020ADF80A005E
:103E2000ADF80C0001A91548FFF764FD08211348FF
:103E3000FFF7B5FD01A91148FFF7BAFD08210F48AA
:103E4000FFF715FE01A90D48FFF71EFE08210B48DC
:103E5000FFF777FE01A90948FFF77CFE0821074814
:103E6000FFF7C3FE01210548FFF79CFC0121034831
:103E7000FFF7A7FC08B010BD000C0140000800408F
:103E800070B58CB006460C46154601210846FEF773
:103E9000A9FB3046FDF702F801940295102003902B
:103EA0000020049005908020069000200790089044
:103EB00009904FF480500A9000200B9001A93046E1
:103EC000FDF792F80CB070BD10B50024FDF7CEFBE5
:103ED00040F225510A4800F00BF968B1084800F09B
:103EE000C3F9C4B2204600F0D7FB012804D105482D
:103EF0000088401C03490880FDF7CAFB10BD000084
:103F0000003801408800002010B540F225510E48CD
:103F100000F0EEF8B0B10C4800F0A6F9C4B20B48BE
:103F20000088C82808DA094801880088401C074A28
:103F300010800748445405E00448008840F40040DD
:103F40000249088010BD00000044004040010020EC
:103F5000481C002010B586B0044601210420FEF75D
:103F600071FB01214804FEF74DFB2A4800F072F86E
:103F70000420ADF8100003208DF8120018208DF8F1
:103F8000130004A92448FDF71DF90820ADF810001E
:103F900004208DF8130004A91F48FDF713F90094BD
:103FA0000020ADF80400ADF80600ADF80800ADF84B
:103FB0000C000C20ADF80A006946164800F0E8F83D
:103FC00001228021134800F03BF8144A1149091DD1
:103FD0001348FFF755FF01210E4800F025F8012294
:103FE00040F225510B4800F0ADF826208DF8140062
:103FF00002208DF8150003208DF8160001208DF8A1
:10400000170005A8FDF7A6FA00200649088006B0AB
:1040100010BD00000044004000080140801B00204B
:10402000800002404001002021B1828942F4005208
:10403000828104E082894DF6FF731A4082817047C5
:104040001AB1838A0B43838202E0838A8B43838283
:104050007047000010B504462048844209D1012170
:104060008803FEF7FFFA00214FF48040FEF7FAFACA
:1040700032E01B48844209D101214804FEF7D2FAFC
:1040800000214FF40030FEF7CDFA25E015488442B8
:1040900009D101218804FEF7C5FA00214FF48020E0
:1040A000FEF7C0FA18E01048844209D10121C80483
:1040B000FEF7B8FA00214FF40020FEF7B3FA0BE048
:1040C0000A48844208D101210805FEF7ABFA002115
:1040D0004FF48010FEF7A6FA10BD00000038014032
:1040E0000044004000480040004C004000500040A8
:1040F00070B50246002400230025002040F66A1611
:10410000B14200D100BFC1F3421501F01F030126E7
:1041100006FA03F3012D02D19689334006E0022D01
:1041200002D1168A334001E0968A33400C120126F0
:1041300006FA04F41688344013B10CB1012000E0F3
:10414000002070BDF0B503460024002600250020A5
:1041500040F66A17B94200D100BF1846C1F34214B5
:1041600001F01F06012707FA06F5012C01D10C30DA
:1041700004E0022C01D1103000E014301AB10768BD
:104180002F43076002E00768AF430760F0BD0000FF
:104190002DE9F04786B005460E460024A24600BF32
:1041A000A1460027B08900B100BF2F462C8A4CF6EB
:1041B000FF700440F08804432C82AC894EF6F31063
:1041C0000440B08831890843718908430443AC81B5
:1041D000AC8A4FF6FF400440B0890443AC8201A88A
:1041E000FEF750FA1F48874202D1DDF810A001E027
:1041F000DDF80CA0A88900F4004040B10AEBCA0029
:1042000000EB0A1031684900B0FBF1F807E00AEB57
:10421000CA0000EB0A1031688900B0FBF1F8642095
:10422000B8FBF0F004012009642101FB1089A88982
:1042300000F4004040B1322000EBC900B0FBF1F0C7
:1042400000F00700044308E0322000EB091064216D
:10425000B0FBF1F000F00F0004432C8106B0BDE884
:10426000F08700000038014001468888C0F308004C
:10427000704700BFFEE730380A2801D2012070479E
:104280000020704700BF704710B50446084800681A
:1042900000F0FCFE074908600748006800F0F6FEE1
:1042A000064908600020024908600349086010BD03
:1042B0007C00002074000020800000207800002096
:1042C0002BE01423002211461046FDF7B5FC1348DD
:1042D000FFF7DAFF1248406802281AD110488068B8
:1042E00040F20E61884214D20D48806840F2AA5113
:1042F00088420ED90A48406940F20E61884208D2CD
:104300000748406940F2AA51884202D900F064FD92
:1043100001E000F013FEFDF737F8D2E70AD7A33C1F
:10432000C00100201CB54948408840F29E71884277
:1043300003DB0846464988600DE04448408840F267
:104340001A41884203DC08464149886003E03F483F
:1043500040883F4988603D48008840F29E7188420D
:1043600003DB08463A4948610DE03848008840F2CE
:104370001A41884203DC08463549486103E0334866
:104380000088334948613148808940F20E61884293
:1043900003DD01202E4908600CE02C48808940F2A2
:1043A000AA51884203DA00202949086002E002206D
:1043B000274908602548C08940F2D661884203DB5E
:1043C0000220234948600CE02048C08940F2E241C5
:1043D000884203DC00201E49486002E001201C499D
:1043E000486040F2DC50019000906B4601AA19A190
:1043F0001A48FCF7B5F840F29E710198884203D341
:104400000846134988610BE040F21A41019888423E
:1044100003D808460E49886102E00D490198886179
:1044200040F29E710098884203D308460849C8614B
:104430000BE040F21A410098884203D8084604492C
:10444000C86102E002490098C8611CBD341B00200D
:10445000C00100202564202564000000D007002052
:1044600010B56FF00400FEF7F9F910480068104924
:10447000B0FBF1F00F4908700C4800680C49B0FB24
:10448000F1F441F28830444305200B4908804FF095
:10449000E020006940F002004FF0E021086108468A
:1044A0004461006940F00100086110BD8C000020EB
:1044B00000127A00460100204801002070B5044631
:1044C0000E480078012811D10D480088844206DB8F
:1044D0000B48008894FBF0F52846FDF771FB08486F
:1044E000008894FBF0F100FB114084B24FF47A7124
:1044F00004FB01F000F006F870BD0000810100200F
:104500004801002070B5034600224FF0E02675698F
:104510000E4E367803FB06F400BF4FF0E026B1697B
:1045200010E04FF0E026B06988420BD0884202D2FA
:104530000E1A324402E02E1A0E4432440146A242C0
:1045400000D300E0EDE700BF70BD00004601002091
:1045500008B53AE07823002211461046FDF76CFBBF
:10456000FCF712FF19484068A0B91848406800904D
:104570001648436916A182681848FBF7DDFE84B22D
:104580002146164800F038F9012802D11448FBF7FB
:10459000C7FE1AE00D48406800900C4843690CA122
:1045A00082680E48FBF7C8FE84B221460B4800F033
:1045B00023F9012802D10A48FBF7B2FEC8230022E2
:1045C00011461046FDF738FB00BFC3E7C0010020CD
:1045D000257520257520257500000000E0050020C8
:1045E0004406002000BF054A128802F04002002A5B
:1045F000F9D0C2B2014B1B1D1A8070470038014030
:1046000007E03223002211461046FDF715FBFCF7A8
:10461000BBFEF6E710B5FFF723FFFCF794FFFDF7AD
:1046200007F80A23044A00210448FDF7D7F9FDF7EB
:1046300089F9002010BD0000300B0020194C000843
:104640000122124B1A8000201CE00021104A42F87F
:10465000200013E00E4A12F8202002F0010212B1ED
:104660000C4A126800E00022094B53F8203082EA1D
:104670005302074B43F820204A1C11B20829E9DBFA
:10468000421C10B2FF28E0DD7047000068000020E7
:10469000E0010020640000202DE9F041CCB0054687
:1046A0005248007828B97D2D03D000204CB0BDE8D9
:1046B000F0814E4801780078401C4C4A1070C620AA
:1046C00091FBF0F200FB121049496AB20A547E2DA8
:1046D00001D00020EAE7002444480078C62801DD24
:1046E0000020E3E7012035E04149095C7F2907D03C
:1046F0003F490B5C2146621C94B233AA535427E015
:104700003B4A411C515C41B97D232146621C94B255
:1047100033AA5354411C88B21AE0354A411C515CFB
:10472000012908D17E232146621C94B233AA535436
:10473000411C88B20CE02E4A411C515C022907D171
:104740007F232146621C94B233AA5354411C88B281
:10475000411C88B225490978491E8142C4DCC82120
:1047600001A8FCF728F800267D223146761C01A816
:104770004254002008E033A90B5C3146721C96B20B
:1047800001AA5354411C88B2211F8142F3DC7E22CE
:104790003046711C8EB201A90A5432B2002000F0DA
:1047A0002FFB0746201F33A9085C0106E01E33AA31
:1047B000105C41EA0041A01E105C41EA0020611E2D
:1047C000515C40EA0108B84505D1224633A90948A1
:1047D000FBF78AFF03E000200449087066E7002029
:1047E000044908550149087001205FE76B0000206B
:1047F0000A070020D00700202DE9F043B3B004469B
:104800008946002609F10600642803DD002033B044
:10481000BDE8F083C82101A8FBF7CDFF4FF00008E9
:104820007D22414608F1010801A8425409E03046C2
:10483000711C8EB2225C4046411C1FFA81F801A90E
:104840000A54A05D0028F2D17E224046411C1FFA86
:1048500081F801A90A540FFA88F2002000F0D0FA7A
:1048600007463A0E3046711C8EB22254C7F30742F7
:104870003046711C8EB22254C7F307223046711C99
:104880008EB222543046711C8EB22754C6212C4859
:10489000FBF76FFF7D202A4908700125002041E0C9
:1048A000215C7D290DD0215C7E290AD0215C7F29E5
:1048B00007D0215C4BB229466A1C95B2204A53545A
:1048C0002EE0215C7D290CD17F2329466A1C95B2FC
:1048D0001B4A5354002329466A1C95B2184A535464
:1048E0001EE0215C7E290CD17F2329466A1C95B2EB
:1048F000134A5354012329466A1C95B2104A535453
:104900000EE0215C7F290BD17F2329466A1C95B2DA
:104910000B4A5354022329466A1C95B2084A535441
:10492000411C88B2B042BBDB7E222946681C85B29E
:1049300003484254002002494855012067E700001F
:10494000440600202DE9F84F07460C4640F20E6061
:1049500087425FD3A7F20E6000F0B0FB8146AC48FF
:104960000168484600F0BEFB804600F073FB05B2CC
:10497000A7F20E6000F0A2FB8146A54801684846F8
:1049800000F0B0FB804600F065FB06B240F2AA5092
:1049900084421BD20146081B00F090FB83469C48D2
:1049A00001684FF07E5000F09DFB5946009000F0EA
:1049B00099FB8146304600F069FB8246494600F08B
:1049C0005DFC804600F046FB06B21EE040F20E6041
:1049D00084421AD9A4F20E6000F070FB82468C4823
:1049E00001684FF07E5000F07DFB8346514600F099
:1049F00079FB8146284600F049FB4946009000F0CB
:104A00003DFC804600F026FB05B2684205B27042CC
:104A100006B2AFE040F2AA5087425CD80146C81BFC
:104A200000F04CFB81467A480168484600F05AFB8A
:104A3000804600F00FFB05B240F2AA51C81B00F0FF
:104A40003DFB814672480168484600F04BFB8046BA
:104A500000F000FB06B240F2AA5084421BD201468D
:104A6000081B00F02BFB8246694801684FF07E501E
:104A700000F038FB8346514600F034FB8146304657
:104A800000F004FB4946009000F0F8FB804600F07F
:104A9000E1FA06B26EE040F20E6084426AD9A4F2F6
:104AA0000E6000F00BFB8346594801684FF07E50C2
:104AB00000F018FB5946009000F014FB8146284690
:104AC00000F0E4FA8246494600F0D8FB804600F048
:104AD000C1FA05B24EE040F2AA50844220D201460B
:104AE000081B00F0EBFA814649480168484600F08F
:104AF000F9FA804600F0AEFA05B240F2AA51081B5E
:104B000000F0DCFA82464248006880F000495146D5
:104B1000484600F0E7FA804600F09CFA06B229E029
:104B200040F20E6084421FD9A4F20E6000F0C6FA73
:104B300082463748006880F000495146484600F0F8
:104B4000D1FA804600F086FA05B2A4F20E6000F0B9
:104B5000B5FA81462E480168484600F0C3FA8046FF
:104B600000F078FA06B205E000250026FCF780FC8C
:104B7000FCF7ACFC002D02DDFCF78EFC06E0002DFE
:104B800002DAFCF77DFC01E0FCF772FC002E02DD8E
:104B9000FCF7B4FC06E0002E02DAFCF7A1FC01E011
:104BA000FCF794FC281E01DB014600E0414240F680
:104BB000B732914203DD10461649088007E0281EEF
:104BC00001DB014600E0414209B2124A1180301E69
:104BD00001DB014600E0414240F6B732914203DB7F
:104BE00010460C49488007E0301E01DB014600E01A
:104BF000414209B2074A51800649B1F90000FCF769
:104C000057FC0449B1F90200FCF786FCBDE8F88FB7
:104C1000040000204201002070B50446002500BFBA
:104C2000FCF7B4FEFBF720FB05460623124A0021E1
:104C30001248FCF7D3FE0523114A00211148FCF766
:104C4000CDFE0723104A00211048FCF7C7FE0923B8
:104C50000F4A00210F48FCF7C1FE0020FCF7AAFD17
:104C60000D49086000F07EF80A20FCF757FF28463F
:104C7000FBF7FEFA70BD0000300F0020014600086F
:104C800030130020C1420008301700209D4C00085E
:104C9000301B002051450008840000200CE007482C
:104CA0000088074908800020044908800023012269
:104CB00019461846FCF7C0FFF1E700008800002005
:104CC0008A00002010B586B00446012144F2040099
:104CD000FDF7B8FC4FF40070ADF8140003208DF818
:104CE000160018208DF8170005A91C48FCF76AFA71
:104CF0004FF48060ADF8140004208DF8170005A96A
:104D00001648FCF75FFA25208DF8000003208DF887
:104D100001008DF8020001208DF803006846FCF7C1
:104D200019FC01940020ADF80800ADF80A00ADF8B8
:104D30000C00ADF810000C20ADF80E0001A90848D9
:104D4000FFF726FA012240F225510548FFF7FAF94C
:104D500001210348FFF768F906B010BD00080140C3
:104D60000038014010B5FDF795FD4FF4A060FCF749
:104D700029FCFFF775FBFCF737FB1E20FFF79EFBB6
:104D8000FCF752FBFDF70AFCFCF782F8FDF7E4FCA8
:104D900040F271210420FCF7FBFA0848084908603A
:104DA00000F04CF84FF4E130FFF78CFF4FF4E130A6
:104DB000FFF7D0F803A0FBF7B3FA10BD85EBEF4087
:104DC00004000020496E697469616C697A65206F1E
:104DD000766572210D0A000010B5FFF7A3FA0748A7
:104DE0000068012805D1054AD1699069FFF7AAFD3D
:104DF00003E0FCF73DFBFCF769FB10BDC0010020A0
:104E000070B504460D4616460A48008808B9FFF7F3
:104E100017FCE443002009E0295C6140C9B2064A5E
:104E200052F8211081EA1424411C08B2B042F3DB8D
:104E3000E04370BD68000020E00100201FB50121A3
:104E40000920FDF7FFFB4FF4C050ADF80C002820FF
:104E50008DF80F0003208DF80E0003A93648FCF7EB
:104E6000B1F94FF4C040ADF80C0028208DF80F00C8
:104E700003208DF80E0003A92F48FCF7A3F94FF487
:104E80008050ADF80C0028208DF80F0003208DF81D
:104E90000E0003A92848FCF795F94FF48040ADF8BF
:104EA0000C0028208DF80F0003208DF80E0003A9B8
:104EB0002148FCF787F90B210120FCF763F94FF437
:104EC0000060FCF7FBF800208DF808000C208DF83E
:104ED00009004FF40060019001208DF80A0001A83C
:104EE000FCF706F90D210120FCF74CF94FF40050B6
:104EF000FCF7E4F800208DF808000C208DF809007C
:104F00004FF40050019001208DF80A0001A8FCF731
:104F1000EFF828208DF8000003208DF80100002014
:104F20008DF8020001208DF803006846FCF712FBA3
:104F30006846FCF70FFB1FBD000C014010B5FFF7E2
:104F4000F1F907480068012805D1054A51699068C0
:104F5000FFF7F8FC03E0FCF78BFAFCF7B7FA10BD9B
:104F6000C001002010B500290AD00878002807D019
:104F700005487844FBF74AFF002801D0002010BD07
:104F80000248784410BD0000260500001E05000000
:104F900090EA010F48BF81F0004100F17681421A8A
:104FA0003CBF801A89184FEAD0524FF07F4C1CEA60
:104FB000410FA2EBD15318BF9CEA026F00F03B8077
:104FC0004FF0004C4CEA00204CEA012121FA03FC8E
:104FD00010EB0C0C1ED202F1FF325FEA1C2040EBFA
:104FE000C25038BF70471CF07F0F4FEA400C18BF0B
:104FF000BCF17F4F38BF7047C3F12003994008BF11
:1050000020F00100BCF17F4F38BF7047A0F1C040D5
:1050100000F02FB94FEA3C00000A40EBC25028BF15
:105020001CF0FF0F4FEA400CE6D018BFBCF17F4FD9
:1050300038BF7047EAE79CEA026F05D010EA5C0FC0
:1050400008BF00F00040704710B500F0CCF800BF7A
:1050500064FBBE3E41000B0ED3F19E0208D950F412
:1050600000034FEA032323FA02F048BF404270478F
:1050700010B500F0B8F800BF4992248000207047B6
:105080006FF0004282EA20007047000010F00041FB
:1050900048BF4042B0FA80F310FA03F2C3F19D0317
:1050A0000BD051EAC35101EB1220530638BF7047B1
:1050B00000F1010008BF20F001007047B0FA80F352
:1050C00010FA03F2C3F19D030AD0D90501EB1220B7
:1050D000530638BF704700F1010008BF20F00100FF
:1050E000704700004FF47F0C1CEAD0121EBF1CEA70
:1050F000D11392EA0C0F93EA0C0F00F0478090EA6C
:10510000010F48BF42F480724FF0004C4CEA00207F
:105110004CEA012102EB0302A0FB0113A2F50002FD
:10512000002918BF43F001035B0028BF4FEA330397
:1051300042EB22425FEA132C4CEBC2502EBFBCEB79
:10514000436FB2F57C0F70474FEA036CBCF1004F20
:1051500008BF20F00100B2F57C0F38BF70470BD5B7
:1051600082F0FF0212F5803FC8BF704700F1C040D7
:10517000D8BF00F00040704700F5000C5FEA4C0C0F
:1051800048BF7047B0F1C04000F073B890EA010F1B
:105190000CEAD11348BF42F48072624538BF6345C0
:1051A00004D280EA010000F00040704710B500F022
:1051B0001AF800BF8900013E00F007B800F009B8F6
:1051C0005FEA410C5FEA1C6C08D080EA010000F045
:1051D00050B85FEA400C5FEA1C6CF6D14FF000401B
:1051E000A0F5800070470EF1020E2EF0030E5EF85F
:1051F000044B244204D44FEA4102B2F17F4F11D84C
:105200004FEA4003B3F17F4F0CD80ED14FEAD07C68
:10521000B2F17F4F0CEB4C0C0CF1020C08BF4CEBC5
:10522000D17C04E04FF0080C01E04FEAD17C0CEB9C
:105230004C0324FA03F404F00704B4F1040C06D27E
:105240000EEB840CBDE810404CF0010C6047DFE829
:105250000CF0070802024FF00040A0F5800010BDDE
:105260000846420018BFD2F1807288BF00F00040AB
:1052700010BDFF2141EAD050C005704790EA010FF0
:1052800048BF81F000413FF58AAE421A04D882F04F
:105290000042A0EB020011444FEAD0524FF07F4C85
:1052A0001CEA410FA2EBD15318BF9CEA026F4AD00F
:1052B0004FF0004C4CEA00204CEA012121FA03FC9B
:1052C000B0EB0C0C0FD412F0FE0F36D05FEA4C009E
:1052D0001DD5001240EBC25038BF70471CF03F0F85
:1052E00018BF70470BE0A2F101025FEA1C2040EBFF
:1052F000C25038BF70471CF07F0F18BF7047C3F112
:105300002003994014BF401E20F001007047800820
:105310004FEA122308BF7047B0FA80FCA2EB0C02E0
:10532000CCF1280C60FA0CF093EA122F04BF00EBCA
:10533000C25070474FEAC3707047130A5FEADC102F
:1053400008BF7047F6E79CEA026F04D010EA5C0FD2
:1053500008BF0020704710B5FFF745FF40DFF63E5D
:1053600081F00040704700000100020001000300CE
:10537000010002000100040001000200010003001E
:10538000010002000100050001000200010003000D
:1053900001000200010004000100020001000300FE
:1053A00001000200010006000100020001000300EC
:1053B00001000200010004000100020001000300DE
:1053C00001000200010005000100020001000300CD
:1053D00001000200010004000100020001000300BE
:1053E00001000200010007000100020001000300AB
:1053F000010002000100040001000200010003009E
:10540000010002000100050001000200010003008C
:10541000010002000100040001000200010003007D
:10542000010002000100060001000200010003006B
:10543000010002000100040001000200010003005D
:10544000010002000100050001000200010003004C
:10545000010002000100040001000200010003003D
:10546000010002000100040000080000000000002C
:105470000002000100001000A855000800000020F4
:10548000C00100006C010008D8550008C0010020D0
:10549000482B0000C8010008100100004300000074
:1054A000F8FFFFFF00404040404040404040414145
:1054B00041414140404040404040404040404040E9
:1054C0004040404040050202020202020202020283
:1054D0000202020202202020202020202020200280
:1054E0000202020202029090909090901010101010
:1054F00010101010101010101010101010101010AC
:10550000020202020202888888888888080808083F
:10551000080808080808080808080808080808080B
:105520000202020240000000000000000000000033
:10553000000000000000000000000000000000006B
:10554000000000000000000000000000000000005B
:10555000000000000000000000000000000000004B
:10556000000000000000000000000000000000003B
:10557000000000000000000000000000000000002B
:10558000000000000000000000000000000000001B
:10559000000000000000000000000000000000000B
:1055A0000000000000000000012A0B36803F2C455F
:1055B0002083B8ED25E1953A3E0319C84284A24AFA
:1055C000040009B4010203040607080929BC69C0E4
:0855D000055C0204060800005E
:0400000508000131BD
:00000001FF
