:020000040800F2
:100000004813002015020008ED230008891A000893
:10001000B1220008810A0008C9440008000000005D
:10002000000000000000000000000000452E000855
:10003000510F0008000000002D2A00085930000868
:100040002F0200082F0200082F0200082F020008CC
:100050002F0200082F0200082F0200082F020008BC
:100060002F0200082F0200082F0200082F020008AC
:100070002F0200082F0200082F0200082F0200089C
:100080002F0200082F0200082F0200082F0200088C
:10009000514400082F0200082F0200082F02000818
:1000A0002F0200082F0200082F0200082F0200086C
:1000B000FD32000815330008E13500082F02000862
:1000C0002F0200082F0200082F0200082F0200084C
:1000D0002F020008514000082F02000801410008CB
:1000E000550F00082F0200082F0200082F020008F9
:1000F0002F0200082F0200082F0200082F0200081C
:100100002F0200082F020008F93500082F0200080E
:100110002F020008D53E00082F0200082F02000819
:100120002F0200082F0200082F0200082F020008EB
:1001300000F002F800F05FF80AA090E8000C82449A
:100140008344AAF10107DA4501D100F054F8AFF277
:10015000090EBAE80F0013F0010F18BFFB1A43F0A5
:10016000010318473CB100005CB100000A444FF0A5
:10017000000C10F8013B13F0070408BF10F8014B06
:100180001D1108BF10F8015B641E05D010F8016B4B
:10019000641E01F8016BF9D113F0080F1EBF10F8AF
:1001A000014BAD1C0C1B09D16D1E58BF01F801CBD2
:1001B000FAD505E014F8016B01F8016B6D1EF9D555
:1001C0009142D6D37047000000230024002500266A
:1001D000103A28BF78C1FBD8520728BF30C148BFAA
:1001E0000B607047642900F09B80002070471FB5AA
:1001F0001FBD10B510BD00F0D7FA1146FFF7F7FF8D
:1002000006F070F800F0F5FA03B4FFF7F2FF03BC54
:1002100004F0F0F90948804709480047FEE7FEE787
:10022000FEE7FEE7FEE7FEE7FEE7FEE7FEE7FEE7A6
:1002300004480549054A064B704700005D30000838
:1002400031010008480D002048130020480F00200D
:10025000480F0020704710B54C1084EA530404D5B1
:100260004042C1F1000138BF491E1B4204D5524231
:10027000C3F1000338BF5B1E00F084F914F0804F17
:1002800004D04042C1F1000138BF491E14F0004FB4
:1002900004D05242C3F1000338BF5B1E10BD000002
:1002A0000FB4044910B503AA029800F047FA10BC35
:1002B0005DF814FBEC0000202DE9F0410E460446E9
:1002C000002020622046E168884730B3252805D009
:1002D000D4E901219047206A401CF2E7E1682046FA
:1002E00000278847050018D0A5F14100192802D839
:1002F00020354FF400673246294620462760FFF735
:1003000071FF40B1012804D0F61D26F0070608361B
:10031000D8E7361DD6E72846DAE7206ABDE8F0813F
:100320002DE9F0410646002410687529314615A5CF
:1003300010D0AFF30080002802DA404212A507E097
:1003400031688A0701D511A502E0490704D510A537
:10035000012401E0AFF3008000210A2306F1240705
:1003600007E0B0FBF3F203FB120030307854104684
:10037000491C0028F5D123462A463046BDE8F04105
:1003800000F082B9000000002D0000002B000000EA
:100390002000000040EA010310B59B070FD1042A9A
:1003A0000DD310C808C9121F9C42F8D020BA19BA40
:1003B000884201D9012010BD4FF0FF3010BD1AB1A5
:1003C000D30703D0521C07E0002010BD10F8013BFA
:1003D00011F8014B1B1B07D110F8013B11F8014B21
:1003E0001B1B01D1921EF1D1184610BD032A40F209
:1003F000308010F0030C00F0158011F8013BBCF1C7
:10040000020F624498BF11F801CB00F8013B38BFDE
:1004100011F8013BA2F1040298BF00F801CB38BFEC
:1004200000F8013B11F0030300F02580083AC0F00A
:10043000088051F8043B083A51F804CBA0E80810B2
:10044000F5E7121D5CBF51F8043B40F8043BAFF3E5
:100450000080D20724BF11F8013B11F801CB48BF3F
:1004600011F8012B24BF00F8013B00F801CB48BF75
:1004700000F8012B704710B5203AC0F00B80B1E8AE
:100480001850203AA0E81850B1E81850A0E81850C9
:10049000BFF4F5AF5FEA027C24BFB1E81850A0E8D2
:1004A000185044BF18C918C0BDE810405FEA827CEC
:1004B00024BF51F8043B40F8043B08BF7047D20703
:1004C00028BF31F8023B48BF11F8012B28BF20F8A4
:1004D000023B48BF00F8012B704702F0FF0343EADC
:1004E000032242EA024200F002B84FF0000204295F
:1004F000C0F0128010F0030C00F01B80CCF1040C53
:10050000BCF1020F18BF00F8012BA8BF20F8022B86
:10051000A1EB0C0100F00DB85FEAC17C24BF00F82C
:10052000012B00F8012B48BF00F8012B70474FF05A
:10053000000200B5134694469646203922BFA0E833
:100540000C50A0E80C50B1F12001BFF4F7AF09073F
:1005500028BFA0E80C5048BF0CC05DF804EB890030
:1005600028BF40F8042B08BF704748BF20F8022B73
:1005700011F0804F18BF00F8012B7047704770478B
:100580007047704753EA020C00F069802DE9F04B88
:100590004FF00006002B1FBFB3FA83F503FA05F4F2
:1005A00024FA05F65E4012BF1643B2FA82F502FA4B
:1005B00005F4C5F120051EBF22FA05FC44EA0C042F
:1005C000203556EA044C4FEA144418BF641C4FF01F
:1005D00000084FF00009904271EB030C39D3002959
:1005E00019BFB1FA81F701FA07F6B0FA80F700FAFD
:1005F00007F6C7F120071EBF20FA07FC46EA0C06E3
:100600002037B6FBF4FCA7EB0507103F07F01F0BE4
:10061000CBF120060CFA0BFB2CFA06F644BFB346CE
:100620000026202FA4BF5E464FF0000B5BEA060CAD
:1006300008BF4FF0010B19EB0B09ABFB027C48EB39
:100640000608C01B06FB02CC0BFB03CC71EB0C01B4
:10065000C1E70B46024641464846BDE8F08B13B55C
:100660004FF000004FF00001AFF30080BDE81C40E8
:10067000704710B500F074F8006810BD10B504465E
:1006800000F06EF8046010BD2DE9F0470D46994664
:100690009246044600F124080168880604D5E06902
:1006A00021F01001216000E00120A84201DD471B7C
:1006B00000E00027A1697A1902EB0900081AA0617D
:1006C0002078C00602D42046AFF30080002608E060
:1006D000D4E901211AF806009047206A401C761CD4
:1006E00020624E45F4DB2078C0060AD52046AFF3E1
:1006F000008006E0D4E9012130209047206A401CA8
:100700002062381EA7F10107F4DC07E0D4E90121DB
:1007100018F805009047206A401C2062281EA5F1A9
:100720000105F3DC2046AFF300802078000602D5F7
:100730000220BDE8F0870120FBE70000074B70B501
:100740000D467B4400F015F80446284600F024F8D6
:1007500010B14FF0FF3070BD204670BDFB5300005C
:1007600000487047E40C002001694A1C02610878C7
:10077000704700B58FB0CDE90131002105910549E1
:100780007944CDE9031011466846FFF795FD0FB097
:1007900000BD0000E5FFFFFF007B00F08000704718
:1007A00000487047E40C00207546FFF7F9FFAE469D
:1007B00005006946534620F00700854618B020B56D
:1007C000FFF736FDBDE820404FF000064FF0000770
:1007D0004FF000084FF0000B21F00701AC46ACE8E9
:1007E000C009ACE8C009ACE8C009ACE8C0098D4656
:1007F00070470446AFF300802046FFF705FD21B1A6
:10080000826842F00102826003E0826822F0010205
:100810008260704710B504461248844208D1012115
:10082000401502F031F90021601502F02DF917E0B2
:100830000D48844208D10121001502F025F900215C
:10084000201502F021F90BE00848844208D101216B
:10085000C80302F019F900214FF4004002F014F926
:1008600010BD00000024014000280140003C014070
:10087000014600208A6802F004020AB1012000E06B
:10088000002070470146C86C80B2704702460020C5
:1008900013680B400BB1012000E0002070470146B7
:1008A00000208A6802F008020AB1012000E000205E
:1008B0007047000030B502460020002350680F4CFE
:1008C00020400D790C6844EA05242043506090686C
:1008D0000B4C2040D1E902542C434D7944EA4504A5
:1008E00020439060D06A20F470000C7C641EE4B257
:1008F000234340EA0350D06230BD0000FFFEF0FF0A
:10090000FDF7F1FFF0B504460D4600200021092D4A
:1009100011DDE068A5F10A0606EB4607072606FA90
:1009200007F18843A5F10A0606EB460603FA06F12D
:100930000843E0600CE0206905EB4507072606FA4E
:1009400007F1884305EB450603FA06F108432061E9
:10095000072A0FDA606B561E06EB86071F2606FA7B
:1009600007F18843561E06EB860605FA06F1084392
:10097000606322E00D2A0FDA206BD61F06EB860794
:100980001F2606FA07F18843D61F06EB860605FAEE
:1009900006F10843206310E0E06AA2F10D0606EBC1
:1009A00086071F2606FA07F18843A2F10D0606EB1B
:1009B000860605FA06F10843E062F0BD816841F061
:1009C00008018160704721B1826842F4A002826010
:1009D00003E0826822F4A00282607047816841F0DF
:1009E000040181607047000000B587B001214FF419
:1009F000047002F039F84FF4004002F019F81220A8
:100A0000ADF8040000208DF8070001A9174800F098
:100A1000BFFC1748FFF7FEFE002002908DF80C0087
:100A20008DF80D004FF46020049000200590012007
:100A30008DF8180002A90E48FFF73CFF01210C4871
:100A4000FFF7DDFE0A48FFF7B9FF00BF0848FFF7D0
:100A500026FF0028FAD10648FFF7C0FF00BF044870
:100A6000FFF706FF0028FAD107B000BD00100140D3
:100A700000240140014908607047000000860D42D3
:100A800000BFFEE72DE9F84304460D4616461F4613
:100A9000DDF820904FF0000814B10DB106B117B980
:100AA0000120BDE8F883601EC4B2681EC5B2701E86
:100AB000C6B2781E87B20121084601F0D5FF012198
:100AC000082001F0D1FF0121480601F0BDFF0121FE
:100AD0004FF4EA1000F0E8FC4FF40070ADF80000AD
:100AE00003208DF8020018208DF8030069465B484A
:100AF00000F04EFC4FF48070ADF8000048208DF8F7
:100B000003006946554800F043FC00205449086042
:100B10000846006840F00100086008E008F10100A4
:100B20001FFA80F8B8F1640F01DD0220B9E74C48E4
:100B3000001D006800F001000028EFD04848006860
:100B40004749086008460068086008460068086071
:100B50000846006840F01000086008460068086019
:100B600008460068086000203D491C3108600846BE
:100B7000006840EA897008600846006840EA04603E
:100B800008600846006840EA0550086008460068AA
:100B900040EA06400860084600683843086030486C
:100BA000006820F001002E49086009E008F101000A
:100BB0001FFA80F84FF6F070804501DD032070E7E2
:100BC0002748001D006800F001000028EED12548EC
:100BD000006840F001002349086022481C3000688A
:100BE00020F001001F491C3108601E480C300068CD
:100BF00040F001001B490C3108601A48001D0068D4
:100C00001849091D08601748143000681549143147
:100C10000860002013494031086000211148443029
:100C2000016010481C30006840F001000D491C3183
:100C300008600C48006800200A4908600848143021
:100C4000006840F0020006491431086002231422B3
:100C50000021012001F0DCFA002022E7000C014015
:100C60000064004000660040F0B5DDE90554324EF6
:100C700006EB0016366806F004061670167836B9CC
:100C80002D4E06EB00163668760D0E6005E02A4EF6
:100C900006EB00163668F6080E60274E06EB0016C7
:100CA000366806F002061E70234E06EB00167668C4
:100CB00006F00F062E70204E06EB0016B668267062
:100CC0001D4E06EB0016B668360A66701A4E06EB25
:100CD0000016B668360CA670174E06EB0016B668FE
:100CE000360EE670144E06EB0016F6682671124EAC
:100CF00006EB0016F668360A66710F4E06EB001614
:100D0000F668360CA6710C4E06EB0016F668360E29
:100D1000E67130B9094E366846F02006074F3E604E
:100D200009E0012807D1054E361D366846F0200639
:100D3000024F3F1D3E60F0BDB06500400C640040B6
:100D400038B5002000906B4601227521682005F01F
:100D500023FA2CA0FFF7A4FA9DF8000068280ED013
:100D600000BF3148006800F4E06030490843001DCE
:100D70002D490860BFF3408F00BF00BFFEE705F0BC
:100D800053FC00283CD1782006F058FA10B91DA079
:100D9000FFF786FA782005F035FB10B924A0FFF79D
:100DA0007FFAC82006F0FCF910B92BA0FFF778FAFB
:100DB00004F01CFA10B932A0FFF772FA3D4805F0B2
:100DC00056FA044604F06CFC10B93BA0FFF768FA31
:100DD00040F2731004F0B2F810B941A0FFF760FAC6
:100DE000C82004F08DFB10B947A0FFF759FA07F0AF
:100DF000E5F8012006F0D0F810B94CA0FFF750FA42
:100E000038BD00006D70755F7365745F73656E73D8
:100E10006F7220636F6D706C657465202E2E2E2EA0
:100E20002E2E0D0A000000000CED00E00000FA0577
:100E30006D70755F636F6E6669677572655F666911
:100E4000666F20636F6D706C657465202E2E2E2E7C
:100E50002E2E0D0A000000006D70755F7365745FC3
:100E600073616D706C655F7261746520636F6D7026
:100E70006C657465202E2E2E2E2E2E0D0A0000007D
:100E8000646D705F6C6F61645F6D6F74696F6E5FCE
:100E90006472697665725F6669726D7761726520EA
:100EA000636F6D706C657465202E2E2E2E2E2E0DA8
:100EB0000A000000F4010020646D705F7365745FC8
:100EC0006F7269656E746174696F6E20636F6D70A7
:100ED0006C657465202E2E2E2E2E2E0D0A0000001D
:100EE000646D705F656E61626C655F666561747587
:100EF000726520636F6D706C657465202E2E2E2ECA
:100F00002E2E0D0A00000000646D705F7365745F23
:100F10006669666F5F7261746520636F6D706C6582
:100F20007465202E2E2E2E2E2E0D0A006D70755FEC
:100F30007365745F646D705F737461746520636F53
:100F40006D706C657465202E2E2E2E2E2E0D0A00CF
:100F50007047000070B56648006800287DD14FF4E6
:100F60000040644908606448007808B9012000E046
:100F70000020614908706148007801280BD1604861
:100F80000078401CC0B25E490870022803D10020DE
:100F900008705A4908705848007801283BD15948D0
:100FA000007848B958480078012805D15748584971
:100FB0000A6802604968416001F0FAFD01F048F8F2
:100FC00000F032FD054608F0E5FA04465148016894
:100FD000204608F03FF94F4908604FF07E514E48D7
:100FE000006808F037F94C49044608604B4908F09E
:100FF00061FA0ED149494748006808F099F904465A
:1010000008F08CFA464908600020424908604249CD
:101010000860002070BD43480068401C41490860DA
:1010200008460068642804DB01F06EF800203D49A2
:10103000086001F0BDFD042001F0E8FE404200B26E
:1010400039490880022001F0E1FE00B237490880EA
:1010500000F08CFA3248006800E047E002F01EFF22
:10106000E8BB334801680068401C314A10603148D1
:101070000068814210DD00212C48B0F9000000F02A
:101080000FFF2D49086000212748B0F9000000F04B
:101090005DFF2A49086011E0294801682348B0F93A
:1010A000000000F0FDFE24490860264801681E4843
:1010B000B0F9000000F04AFF2049086041F6F42032
:1010C00003F004FA2048006808F028FA0446224693
:1010D0001A4801681848006801F076FF06E0FFE74B
:1010E00040F2DC520021084601F06EFF002091E73B
:1010F0003C81214214040140600100202D000020A9
:101100002C000020400000203F0000202E00002086
:101110003600002068010020640100200000C84261
:1011200028000020740100200A0000200800002090
:10113000BC000020B80000200C000020100000209F
:101140001400002018000020240000200021234962
:101150008279002A3AD00A46126803689A430B46FD
:101160001A600A1D126803689A430B1D1A600279FF
:1011700011440A6803681A430A60184A0832126860
:1011800003689A43154B08331A601A1D12680368E6
:101190009A43124B0C331A604279102A0ED11A1F4F
:1011A000126803681A430D4B08331A601A1D12683F
:1011B00003681A43094B0C331A600DE00749427962
:1011C00011440A6803681A430A6005E00279114471
:1011D0000A6803689A430A607047000000040140EF
:1011E00000B587B00121084601F03EFC0121084608
:1011F00001F02AFC0121042001F036FC0121082025
:1012000001F032FC0121284800F04EF94FF4004073
:10121000ADF8000004208DF803006946234800F073
:10122000B7F80820ADF8000004208DF803006946E7
:101230001F4800F0ADF804A802F026FE0020ADF82B
:1012400010004FF6FF70ADF814000020ADF8160046
:10125000ADF8120004A94FF0804002F0C3FD002356
:101260001A4603214FF0804002F05FFB01A802F014
:10127000F1FB0A20ADF80C0001A9400702F094FB35
:101280000121880702F030FB01221146900702F08D
:10129000EAFB00214FF0804002F076FD0121880733
:1012A00002F028FB07B000BD000118000008014053
:1012B000000C014000B587B00121042001F0C4FBFF
:1012C0000121082001F0D0FBC020ADF8000004206F
:1012D0008DF8030069461C4800F05AF804A802F093
:1012E000D3FD0020ADF810004FF6FF70ADF81400EC
:1012F0000020ADF81600ADF8120004A9134802F062
:1013000071FD00231A460321104802F00EFB01A8CC
:1013100002F0A0FB0A20ADF80C0001A90B4802F076
:1013200043FB0121094802F0DFFA01221146074878
:1013300002F099FB0021054802F026FD0121034837
:1013400002F0D8FA07B000BD000C014000080040D0
:1013500030B500228B071C0F0F2303FA04F20B4B4E
:101360008C1053F824309343084C8D1044F82530EA
:1013700023468C1053F824308C07240F00FA04F411
:101380002343024C8D1044F8253030BD0800014045
:101390002DE9F0410246002500260020002300240C
:1013A000002791F803C00CF00F0591F803C00CF072
:1013B000100CBCF1000F03D091F802C04CEA0505F7
:1013C00091F800C0BCF1000F31D0146800202BE070
:1013D0004FF0010C0CFA00F3B1F800C00CEA030660
:1013E0009E4220D183004FF00F0C0CFA03F7BC4350
:1013F00005FA03FC4CEA040491F803C0BCF1280F81
:1014000006D14FF0010C0CFA00FCC2F814C00AE03F
:1014100091F803C0BCF1480F05D14FF0010C0CFA54
:1014200000FCC2F810C0401C0828D1D31460B1F8E9
:1014300000C0BCF1FF0F34DD546800202EE000F145
:10144000080C4FF0010808FA0CF3B1F800C00CEAE0
:1014500003069E4221D183004FF00F0C0CFA03F7D4
:10146000BC4305FA03FC4CEA040491F803C0BCF148
:10147000280F05D100F1080C08FA0CF8C2F8148006
:1014800091F803C0BCF1480F07D100F1080C4FF0F0
:10149000010808FA0CF8C2F81080401C0828CED3C6
:1014A0005460BDE8F0810000F0B50A460023002436
:1014B0000021002500F00046B6F1004F02D11D4E7C
:1014C000F16901E01B4E7168C0F3034583B200F47B
:1014D0004016B6F5401F08D121F07061154E7668B0
:1014E00026F07066134F7E6012E000F48016B6F5A9
:1014F000801F06D1032606FA05F4A14341F070616E
:1015000006E0460D360103FA06F6B14341F070617C
:1015100022B1460D360103FA06F6314300F00046CB
:10152000B6F1004F02D1034EF16101E0014E71604E
:10153000F0BD00000000014010B504460723012261
:1015400021460948FFF7DEF901210748FFF73BFA7A
:1015500000BF02210448FFF799F90028F9D002489A
:10156000FFF790F910BD0000002401402DE9F04F75
:101570008BB002200A90F848007800287ED1F74806
:1015800000780028FAD1F6480078002877D1F5488D
:10159000007818B1F34800780A2805D10020F249F4
:1015A0000860F24908609BE0EE480078012809D104
:1015B000EF48006807F0EEFFEB4908600020EB49B8
:1015C00008608DE0E7480078022810D1E8480068FC
:1015D00007F0E0FFE4490860E5480068444204EB96
:1015E000D471481007F0D6FFE049086078E0DD4884
:1015F000007803280DD10020DB490860DC48006832
:10160000444204EBD471481007F0C4FFD749086086
:1016100066E0D4480078042810D1D54800684042DC
:1016200007F0B8FFD0490860D148046804EBD471D2
:10163000481007F0AFFFCD49086051E0C948007875
:1016400005280AD1CA480068404207F0A3FFC649EE
:1016500008600020C549086042E0C24800780628BA
:1016600014D1C3480068404207F094FFBE490860A7
:10167000BF480068444204EBD47101E0A4E152E0A9
:10168000481007F087FFB949086029E0B54800789D
:1016900007280CD10020B4490860B548046804EB61
:1016A000D471481007F076FFB049086018E0AD48E3
:1016B000007808280FD1AE48006807F06BFFAA49F0
:1016C0000860AB48046804EBD471481007F062FF6F
:1016D000A649086004E00020A3490860A349086007
:1016E0000021A248006807F0E5FE1BD1A149A248ED
:1016F000006808F07BF815D2A0499F48006807F001
:1017000075FFF8D29E49B1F90410484207F0FFF97D
:1017100006469C4A9C4B07F061FA044606F082FF9D
:101720009249086011E18E48007801287BD19749E1
:101730000968A1F1800007F02DFF0990944909681C
:10174000A1F1800007F026FF089092490968A1F1F5
:10175000800007F01FFF07900A98404207F01AFF29
:101760000446099907F042FF09D20A9807F012FFD0
:101770000446099908F03AF801D2002009900A9825
:10178000404207F007FF0446089907F02FFF09D2EF
:101790000A9807F0FFFE0446089908F027F801D2DE
:1017A000002008904FF08141079807F0C1FD0646E0
:1017B000099880F000454FF08141284607F0B8FDB8
:1017C0000446314608F044F867490860089880F0FC
:1017D00000447149204607F0ABFD644908600021D0
:1017E0006248006807F066FE9CD162496248006862
:1017F00007F0FCFF96D261495F48006807F0F6FEEB
:1018000090D25F49B1F90410484207F080F90646CA
:101810005C4A624B07F0E2F9044606F003FF5349C5
:10182000086092E0FFE74E480078022835D153481F
:101830004D4908605A490988A1F1400007F0AAFE05
:1018400058490860584801685648006808F000F890
:1018500007464FF0804107F0FDFE064607F0CEFC3C
:1018600004460D464F48006880F00040069007F09F
:10187000C5FC06464D4A4E4B07F0B0F9804622465D
:101880002B4607F0D1FB824606F0CCFE37490860B4
:10189000444800684449086057E03148007803280C
:1018A00053D136483049086042490968C1F16400A3
:1018B00007F070FE3B4908603B4801683948006802
:1018C00007F0C6FF81463C4907F0C4FE804607F09A
:1018D00095FCCDE904013348006807F08FFC804691
:1018E000364A374B07F07AF9CDE902012D480068F6
:1018F00007F014FE0690002801DB069901E0069926
:101900004942084607F046FE0090264801680098C4
:1019100007F0A0FE019007F071FC8046194A294BA0
:1019200007F05CF98246DDE9022306F0ADFE0646CB
:10193000DDE9042306F0A8FE044606F073FE0B4919
:101940000860184800681849086008480168064897
:10195000006800F0A9FB5DE03E0000203F00002091
:1019600003000020020000201C00002020000020B6
:101970006C000020000034C25800002000003442F7
:10198000D4010020FCA9F1D24D62603F7400002018
:10199000780000207C0000200000C0404D62503FD5
:1019A0008400002090010020940100209A999999C8
:1019B0009999D93F94000020000040407B14AE4725
:1019C000E17AB43F4D62803F01201449096889786B
:1019D000012905D1114909680988114A116005E0FA
:1019E0000E490968098849420D4A11600B49096886
:1019F0004979012906D109490968B1F80310094A52
:101A0000116006E005490968B1F803104942054A2A
:101A1000116000BF0BB0BDE8F08F00005C0100203A
:101A200014000020180000202DE9F04F85B00E2092
:101A3000FFF782FD019007F081F84FF066320E4B00
:101A4000CDE9020107F0CAF8804600220B4B07F0EF
:101A5000C5F8064600220A4B07F0C0F804460022EB
:101A6000084B06F0CDFE824607F022F80490049859
:101A700005B0BDE8F08F000066660A400000264011
:101A8000000059400000B04000BFFEE770B50546B9
:101A90000E46002400F0EAF8284600F0B5F8641C71
:101AA00000F03CF9304600F0AFF8641C00F036F965
:101AB00000F0DCF8691CC8B200F0A6F8641C00F065
:101AC0002DF9002000F068F8044600F003F92046E4
:101AD00070BD000010B500200E4908600E48006877
:101AE00020F470400C4908600846006840F44050FB
:101AF000086000200949C1F8AC01012003F0DAF9BF
:101B000001200449086003F0D5F900200349C1F819
:101B1000A80110BDA8812142040C0140008021428F
:101B200008B50121082000F09FFF4FF44060ADF898
:101B3000000010208DF8030002208DF80200694695
:101B40000148FFF725FC08BD000C014010B500203E
:101B50000E4908600E48006820F470400C49086087
:101B60000846006840F44050086001200949C1F867
:101B7000AC0103F09FF901200449086003F09AF9D1
:101B800000200449C1F8A80110BD0000A88121422D
:101B9000040C01400080214270B50546002417481E
:101BA000006820F47040154908600846006840F459
:101BB00000400860002616E000201149086002205D
:101BC00003F078F901200F49C1F8A8016006040E5E
:101BD0000B487C38006808B1601CC4B2022003F0D6
:101BE00069F9701CC6B2082EE6DB15B1FFF772FF6B
:101BF00001E0FFF7ABFF204670BD0000040C014080
:101C0000A88121420080214270B504461448006832
:101C100020F47040124908600846006840F44050C3
:101C2000086000200F490860002516E0E0090D4912
:101C3000091D08606006040E012003F03BF9012035
:101C40000949C1F8A80103F035F9002005490860E9
:101C5000012003F02FF9681CC5B2082DE6DB70BD2A
:101C6000040C0140A88121420080214210B5164891
:101C7000006820F47040144908600846006840F489
:101C8000405008600120114908601148D0F82C012B
:101C900008B9002010BD01200C49091F086003F09D
:101CA00009F900200A49C1F8AC01084880380068E9
:101CB00008B10020EEE7012003F0FCF80020034902
:101CC000091F08600120E5E7040C0140AC812142B6
:101CD0000080214210B50E48006820F470400C4985
:101CE00008600846006840F4405008600020094938
:101CF00008600949C1F8AC01012003F0DBF80120BC
:101D0000044908600449C1F8AC0103F0D3F810BDE0
:101D1000040C0140A88121420080214210B500241A
:101D20001548006820F470401349086008460068B0
:101D300040F40040086001201049086003F0BAF840
:101D400001200F49C1F8A80103F0B4F80AE0601CB3
:101D5000C4B2322C03DDFFF7BDFF002010BD01200F
:101D600003F0A8F80548803800680028EFD103493F
:101D7000091F08600120F1E7040C0140AC812142F9
:101D80000080214270B505460E461446314628466D
:101D9000FFF77CFE2070012070BDF8B506460F46A7
:101DA00014461D466A4639463046FFF7EBFF2DB113
:101DB0000120A0409DF80010084305E00120A0404C
:101DC0009DF8001021EA0000C0B200909DF80020AC
:101DD0003946304600F036F8F8BD2DE9F84307469D
:101DE000884614461D46089E6A4641463846FFF717
:101DF000C9FF28B3601CFF2101FA00F0C4F10801FB
:101E00002944491EFF220A41104300F0FF09C5F191
:101E1000080006FA00F0C6B2C4F1070006419DF8BA
:101E2000000000EA090000909DF800003043009097
:101E30009DF800204146384600F004F8BDE8F883DC
:101E40000020FBE737B504460D4602AB01222946C8
:101E5000204600F001F83EBD2DE9F04180460D46D8
:101E600016461F460024FFF701FF4046FFF7CCFE51
:101E7000FFF754FF2846FFF7C7FEFFF74FFF00BFED
:101E800006E0385DFFF7C0FEFFF748FF601CC4B2F4
:101E9000B442F6DBFFF71EFF0120BDE8F081000031
:101EA0002DE9F05F04460D46601B22490860084694
:101EB000006807F06FFB83461F480168584607F02B
:101EC000C9FB80461B4909681C4A1268881A07F03A
:101ED00061FB83461A480168584607F0BBFB814600
:101EE000414607F0B7F907461648006807F052FB6D
:101EF0008246394607F0AEF9064607F00FFB114956
:101F0000086008460068B0F5E15F02DD4FF4E1507B
:101F100008600C48006810F5E15F02DA0A480949D8
:101F20000860044800680549086006480068BDE884
:101F3000F09F000078010020680000208001002050
:101F4000640000207C010020E0E3FFFF2DE9F05F4A
:101F500004460D46601B224908600846006807F0E9
:101F600019FB83461F480168584607F073FB8046FB
:101F70001B4909681C4A1268881A07F00BFB834644
:101F80001A480168584607F065FB8146414607F04C
:101F900061F907461648006807F0FCFA82463946A0
:101FA00007F058F9064607F0B9FA114908600846E3
:101FB0000068B0F5E15F02DD4FF4E15008600C48C5
:101FC000006810F5E15F02DA0A4809490860044830
:101FD00000680549086006480068BDE8F09F0000F9
:101FE00084010020680000208C0100206400002093
:101FF00088010020E0E3FFFF01464906084A926994
:1020000042F00102064B9A61064A526822F0E062F1
:10201000044B5A601A4652680A435A6070470000DF
:10202000001002400000014008B50121082000F026
:102030001BFD4FF48040ADF8000048208DF80300F0
:1020400069460248FFF7A4F908BD0000000C0140F2
:1020500070B5322002F04CFE0546012D07D1104824
:10206000007808B9012000E000200D490870022D19
:1020700007D10C48007808B9012000E00020094988
:10208000087000F04DF80446012C07D1054800788F
:1020900008B9012000E000200249087070BD00006E
:1020A000050000200600002070B504460D462946B4
:1020B000204607F0CDFB064607F030FA05490860D8
:1020C0002946204607F0C6F8064607F027FA0249D7
:1020D000086070BD140000201800002008B5012120
:1020E000082000F0C1FC4FF40050ADF800001020B3
:1020F0008DF8030003208DF8020069460148FFF7C0
:1021000047F908BD000C014003480068C04303497B
:10211000C1F8B40170470000B4812142008021421F
:102120001148008840B91148006828B91048008853
:10213000401C0F49088002E000200D4908800C482F
:102140000088C82807DD01200749088000200849C9
:1021500008800120704704480088012802D100202F
:10216000014908800020F5E708010020388121425C
:102170000601002010B5022000F010F8032000F046
:1021800021F8002000F014F8002000F037F80020BB
:1021900000F02BF8002000F01FF810BD38B5044601
:1021A000032302226B21D0200094FFF716FE38BDD6
:1021B00038B50446022304221C21D0200094FFF7E6
:1021C0000CFE38BD38B50446022304221B21D02062
:1021D0000094FFF702FE38BD10B5044623460122E5
:1021E0003721D020FFF7D9FD10BD10B50446234696
:1021F00005226A21D020FFF7D0FD10BD10B504469E
:10220000234606226B21D020FFF7C7FD10BD00003A
:102210002DE9F0410746884614461D46284600F041
:1022200033F8C5F1040007FA00F60F20284100EA50
:102230000800064306F00F06E21704EBD2625211C3
:10224000920002F1E022D2F800212146E31704EBCC
:10225000D3635B11A4EB431C012303FA0CF31A4371
:102260002046E31704EBD3635B119B0003F1E023EB
:10227000C3F800210348005D40EA061001490855F3
:10228000BDE8F08100E400E00146072323EA0102F3
:102290001202054B18684FF6FF031840034B184312
:1022A0001043014B186070470CED00E00000FA0588
:1022B00000BFFEE71FB50121084600F0D5FB012154
:1022C000082000F0D1FB4FF40040ADF80C0048208E
:1022D0008DF80F0003A91248FFF75AF80F210120CB
:1022E000FFF736F84FF40040019000208DF8080009
:1022F0000C208DF8090001208DF80A0001A8FEF7D6
:1023000025FF28208DF8000001208DF801008DF8B0
:1023100002008DF80300684600F06AF81FBD000057
:10232000000C014030B589B005460C460121480338
:1023300000F09AFB0121102000F096FB4FF4707022
:10234000ADF8200018208DF8230003208DF822001E
:1023500008A92448FFF71CF8ADF81850ADF8144050
:102360000020ADF81A00ADF8160005A91E4801F0CE
:1023700039FD6020ADF804000120ADF80600002012
:10238000ADF80A00ADF80C0001A9174801F074FB84
:1023900001A9154801F0CEFB01A9134801F036FC54
:1023A00001A9114801F098FC01210F4801F0AEFA93
:1023B00008210D4801F0B5FB08210B4801F019FC7C
:1023C0000821094801F07FFC0821074801F0CFFCF3
:1023D0000121054801F07CFA0121034801F08AFA45
:1023E00009B030BD001001400034014070470000CA
:1023F00070B5002100230F22C47804B3154C246863
:1024000004F4E064C4F5E064210AC1F10403CA40A5
:10241000447804FA03F184781440214309010E4CF6
:102420000678A155047804F01F050124AC40057816
:102430006D11AD0005F1E025C5F8004109E0047813
:1024400004F01F050124AC40044D0678761145F8D0
:10245000264070BD0CED00E000E400E080E100E00B
:1024600030B500240CE0002506E00020074901EB10
:10247000C5010855681CC5B2802DF6DB601CC4B2CE
:10248000082CF0DB00F0D2F830BD00004A0200203A
:10249000F0B5144600267F2801DC3F2900DDF0BDA1
:1024A0000B46CF1701EB5777FF10C7F10707FAB2BA
:1024B000CF1701EB5777FF10A1EBC707FDB2C5F1AE
:1024C00007070123BB40DEB24CB10A4B03EBC0034C
:1024D0009B5C3343074F07EBC007BB5408E0054B39
:1024E00003EBC0039B5CB343024F07EBC007BB5435
:1024F00000BFD4E74A02002008B50121102000F0F7
:10250000B3FA0121084600F0AFFA4EF20100ADF82F
:10251000000010208DF8030002208DF802006946AB
:102520003F48FEF735FF012000F07AFA002000F066
:1025300025FB0020FEF79EFA002000F071FA002033
:1025400038490860642002F08FFC01203649C1F848
:10255000BC010021AE2000F005F90021D52000F0DB
:1025600001F90021502000F0FDF80021A82000F022
:10257000F9F800213F2000F0F5F80021D32000F009
:10258000F1F80021084600F0EDF80021402000F0AD
:10259000E9F800218D2000F0E5F80021142000F07A
:1025A000E1F80021202000F0DDF80021022000F0F9
:1025B000D9F80021A12000F0D5F80021C02000F0BA
:1025C000D1F80021DA2000F0CDF80021122000F02F
:1025D000C9F80021812000F0C5F80021EF2000F0AB
:1025E000C1F80021D92000F0BDF80021F12000F051
:1025F000B9F80021DB2000F0B5F80021302000F010
:10260000B1F80021A42000F0ADF80021A62000F0D0
:10261000A9F80021AF2000F0A5F8FFF721FF08BDC1
:1026200000100140BC0122420000224230B50024CB
:102630001CE004F1B001C8B2002100F093F80021C1
:10264000084600F08FF80021102000F08BF80025DC
:1026500008E0084901EBC501085D012100F082F89E
:10266000681CC5B2802DF4DB601CC4B2082CE0DB12
:1026700030BD00004A0200202DE9F04F80460C4694
:1026800015461E46A346A5F12000C5B200273EE030
:102690000C2E07D105EB45001F4901EB800010F817
:1026A000079004E01D4800EB051010F807904FF06C
:1026B000000A26E009F0800028B121464046099A28
:1026C000FFF7E6FE09E0099808B9012000E00020C4
:1026D000024621464046FFF7DBFE4FEA49604FEADB
:1026E0001069601CC4B2A4EB0B00B04205D15C467B
:1026F00008F1010000F0FF0806E00AF1010000F017
:10270000FF0ABAF1080FD5DB00BF781CC7B2B74289
:10271000BEDBBDE8F08F00002A9A00089E9E0008EC
:1027200078B505460E46144618E07A2D03DD0025DF
:1027300006F11000C6B23A2E04DD0020054606461A
:10274000FFF78EFE0120009022780C2331462846A8
:10275000FFF792FF05F10800C5B2641C207800283D
:10276000E3D178BD10B50A461AB10123124C23609B
:1027700002E00023104C2360002116E000230E4CE1
:102780003434236000F080031BB10123241D236037
:1027900003E00023084C383423600123064C343412
:1027A00023604306180E4B1CD9B20829E6DB01232F
:1027B000014C236010BD00008001224238B5044660
:1027C0000120009000201D494870012000902DE05C
:1027D000BDF80000204018B101201949086002E04E
:1027E000002017490860012016490860052002F002
:1027F00061FB00201449C1F8B001052002F05AFB2A
:1028000001201149C1F8B0011048D0F8100130B1D1
:102810000A484078BDF80010084308494870BDF8E0
:1028200000004FF6FF7101EA40000090BDF8000083
:10283000FF28CDDD102002F03DFB38BD4A06002008
:1028400094812142B00121420000214200802142B6
:1028500010B5002013490860102002F02BFB012066
:10286000FFF7ACFF4320FFF7A9FF0020FFF7A6FF0B
:102870000120FFF7A3FF0020FFF7A0FF0020FFF7D4
:102880009DFF0020FFF79AFF0020FFF797FF002031
:10289000FFF794FF01200449C1F89401102002F0D1
:1028A00009FB10BD940121420000214210B5002017
:1028B00013490860102002F0FDFA0120FFF77EFFA7
:1028C0004320FFF77BFF0020FFF778FF0020FFF792
:1028D00075FF5A20FFF772FF5A20FFF76FFF5A204B
:1028E000FFF76CFF5A20FFF769FF5A20FFF766FFDA
:1028F00001200449C1F89401102002F0DBFA10BD58
:10290000940121420000214208B501210C2000F071
:10291000ABF81020ADF8000048208DF803006946A0
:102920000F48FEF735FD4FF48150ADF80000102040
:102930008DF8030003208DF8020069460948FEF770
:1029400027FD2020ADF8000010208DF803000320A3
:102950008DF8020069460248FEF71AFD08BD000026
:10296000000C01400008014010B500F00BF800F029
:1029700009F800F007F8FFF76BFF00F025F8FFF704
:1029800095FF10BD10B500200D490860102002F021
:1029900091FA0120FFF712FF4220FFF70FFF0020FE
:1029A000FFF70CFF0020FFF709FF0020FFF706FFED
:1029B00001200449C1F89401102002F07BFA10BDF7
:1029C000940121420000214210B500201249086004
:1029D0000120FFF7F3FE4420FFF7F0FE0020FFF791
:1029E000EDFE0120FFF7EAFE0320FFF7E7FE0020DF
:1029F000FFF7E4FE0020FFF7E1FE0020FFF7DEFE18
:102A00000020FFF7DBFE01200449C1F894011020EB
:102A100002F050FA10BD0000940121420000214252
:102A2000014908627047000000000E427047000034
:102A300001460020034A506820F44040084350609B
:102A4000704700000010024029B1064AD2690243D3
:102A5000044BDA6104E0034AD2698243014BDA6134
:102A6000704700000010024029B1064A92690243F3
:102A7000044B9A6104E0034A92698243014B9A61D4
:102A8000704700000010024029B1064AD268024394
:102A9000044BDA6004E0034AD2688243014BDA60F7
:102AA000704700000010024030B5002100220024D1
:102AB00000232D4D6D6805F00C0121B1042905D0CE
:102AC000082923D105E0294D056022E0274D056046
:102AD0001FE0254D6D6805F47012234D6D6805F4F7
:102AE0008034022505EB92421CB9214D5543056007
:102AF0000BE01D4D6D6805F400351DB11C4D5543AF
:102B0000056002E0194D5543056002E0174D056070
:102B100000BF00BF144D6D6805F0F0010909154DA7
:102B20006B5C0568DD4045600F4D6D6805F4E06144
:102B3000090A104D6B5C4568DD4085600A4D6D6883
:102B400005F46051C90A0B4D6B5C4568DD40C560FA
:102B5000054D6D6805F44041890B074D6B5CC568F8
:102B6000B5FBF3F5056130BD0010024000127A009C
:102B700000093D00D4000020E400002000210B4AA1
:102B800011700A4A203A82F82010012802D0042845
:102B900008D103E00121054A117004E00521034A30
:102BA000117000E000BF00BF70470000201002401D
:102BB0002DE9F04F8FB00CA889490DAB08AACDE9DB
:102BC00000108849884802F01DFB8548008800F401
:102BD000807000287ED0089806F0DCFC04464FF098
:102BE0009D4106F0A5FB81490860099806F0D2FCDA
:102BF00004464FF09D4106F09BFB7D4908600A9812
:102C000006F0C8FC04464FF09D4106F091FB79495F
:102C100008600B9806F0BEFC04464FF09D4106F09C
:102C200087FB75490860714801684FF0804006F0E5
:102C300011FD06906F480168069806F00BFD82466C
:102C40006B4801684FF0404006F004FD06906A486A
:102C50000168069806F0FEFC8346514606F0FAFA33
:102C6000079006F0CBFA804601F01CFD06464FF0B7
:102C70006632624B05F0B2FF044605F0D3FC6049B2
:102C800008605C4801684FF0804006F0E3FC039068
:102C900058480168039806F0DDFC824654480168F4
:102CA0004FF0404006F0D6FC03905148016803986D
:102CB00006F0D0FC8346514606F0CAFD81464FF02F
:102CC0007E5106F0C7FA044606F098FACDE90401F1
:102CD000464800E081E001684FF0804006F0BAFC11
:102CE000834643480168584606F0B4FC8146414893
:102CF00001684FF0804006F0ADFC83463E48016815
:102D0000584606F0A7FC8246494606F0A3FA044658
:102D100006F074FA0746DDE9042301F013FF4FF0D3
:102D20006632364BCDE9060105F058FF054605F041
:102D300079FC3449086030480168006806F08AFC74
:102D400003902C480168006806F084FC0290284833
:102D50000168006806F07EFC83462448016800682C
:102D600006F078FC5946019006F074FA8246029902
:102D700006F06EFD8146039906F06AFD044606F0F2
:102D80003DFACDE904011C4801681848006806F0C6
:102D900061FC8246174801681548006806F05AFC35
:102DA0008346514606F056FA81464FF0804106F0C0
:102DB00051FC044606F022FA0746DDE9042301F03F
:102DC000C1FE4FF066320D4BCDE9060105F006FF5E
:102DD000054605F027FC0C4908600FB0BDE8F08FF0
:102DE000E0010020DA010020D4010020E4010020ED
:102DF000E8010020EC010020F001002066A64C4014
:102E000054000020580000205C00002001460229E8
:102E100002D0042910D108E04FF08042928C10B209
:102E200000224FF080439A8408E0054A128810B2CD
:102E30000022034B1A8001E0002000BF00BF704752
:102E4000240800407047000030B589B005460C46A4
:102E50000121C802FFF708FE01210420FFF704FE4C
:102E60004FF48070ADF8200018208DF82300032067
:102E70008DF8220008A91848FEF78AFAADF8185014
:102E8000ADF814400020ADF81A00ADF8160005A901
:102E9000124800F0A7FF6020ADF804000120ADF853
:102EA00006000020ADF80A00ADF80C0001A90B489F
:102EB00000F0E2FD0121094800F028FD0821074843
:102EC00000F02FFE0121054800F002FD012103481A
:102ED00000F010FD09B030BD00080140002C014099
:102EE00010B500F001F810BD0CB500200190009065
:102EF0003348006840F480303149086000BF3048F2
:102F0000006800F4003000900198401C0190009887
:102F100018B90198B0F5A06FF1D12948006800F404
:102F2000003010B10120009001E0002000900098D6
:102F3000012843D12348006840F01000214908606F
:102F40000846006820F0030008600846006840F06A
:102F5000020008601A4840681949486008464068FD
:102F600048600846406840F4806048600846406811
:102F700020F47C1048600846406840F4E81048603F
:102F80000846006840F08070086000BF0C48006888
:102F900000F000700028F9D00948406820F00300D4
:102FA000074948600846406840F00200486000BF9A
:102FB0000348406800F00C000828F9D10CBD00005F
:102FC000001002400020024010B5002809DD4FF437
:102FD000E153154C2380C0F5E153134C083C23808A
:102FE00008E04FF4E153104C083C238000F5E15316
:102FF0000D4C238000290ADD4FF4E1530A4C241DB7
:103000002380C1F5E153084C241F238009E04FF4CD
:10301000E153054C241F238001F5E153024C241D8C
:103020002380024C228010BD3C340140342C0140EE
:10303000042808D14FF0E021096941F004014FF064
:10304000E022116107E04FF0E021096921F004015D
:103050004FF0E022116170477047000010B513482F
:10306000006840F0010011490860084640681049B6
:1030700008400E494860084600680E4908400B4960
:1030800008600846006820F4802008600846406810
:1030900020F4FE0048604FF41F008860FFF720FF17
:1030A0004FF000600449086010BD000000100240AD
:1030B0000000FFF8FFFFF6FE08ED00E0F0B50C465B
:1030C000154600220021068C4FF6FE773E4006840E
:1030D000028B018C4FF60C7632407E1C06EA0316FA
:1030E0002E433243104EB0420ED0104EB0420BD0A1
:1030F000B0F1804F08D00E4EB04205D00D4EB04218
:1031000002D00D4EB04206D14FF6FD76314044F06C
:103110000106314305E04FF6F576314044F00106F3
:10312000314302830184F0BD002C01400034014092
:103130000004004000080040000C0040F0B50C46C0
:103140001546002200210026078C4FF6EF7C07EA87
:103150000C070784028B018C4FF6FF7707EA0416F1
:1031600040F6FF473A404FF6FF7707EA03373A4306
:103170004FF6FF7707EA05273A43114FB8420ED0C2
:10318000104FB8420BD0B0F1804F08D00E4FB8426C
:1031900005D00E4FB84202D00D4FB84206D14FF6BF
:1031A000DF77394046F01007394305E04FF65F7787
:1031B000394044F01007394302830184F0BD000018
:1031C000002C014000340140000400400008004091
:1031D000000C0040F0B50C461546002200210026E8
:1031E000078C4FF6FF6C07EA0C070784828B018C73
:1031F0004FF6FF7707EA04264FF60C773A404FF672
:10320000FF7707EA03172F433A43114FB8420ED016
:10321000104FB8420BD0B0F1804F08D00E4FB842DB
:1032200005D00E4FB84202D00D4FB84206D14FF62E
:10323000FF57394046F48077394305E04FF2FF5796
:10324000394044F48077394382830184F0BD000023
:10325000002C014000340140000400400008004000
:10326000000C0040F0B50C46154600220021002657
:10327000078C4EF6FF7C07EA0C070784828B018CD3
:103280004FF6FF7707EA043640F6FF473A404FF61D
:10329000FF7707EA05273A434FF6FF7707EA033738
:1032A0003A43114FB8420ED0104FB8420BD0B0F194
:1032B000804F08D00E4FB84205D00E4FB84202D012
:1032C0000D4FB84206D14DF6FF77394046F480578E
:1032D000394305E047F6FF57394044F480573943F6
:1032E00082830184F0BD0000002C014000340140C5
:1032F0000004004000080040000C00404FF08040F7
:10330000008A4FF08040008A20F001004FF0804199
:103310000882704710B59948007800F080000028B6
:1033200046D10221964800F02EFB002840D0022111
:10333000934800F0DCFA9148007800F0400040B378
:103340008F4800F013FB8F490880084600888E499B
:103350000988884204DA4FF6FF708C49086002E061
:1033600000208A4908608748008887490988401AF0
:103370008649096808448649086008460068854906
:10338000086000207D49087000217D4800F0C0FBE6
:103390000EE07B4800F0EAFA7B4908807748007825
:1033A00040F04000754908700221754800F0B0FBFC
:1033B0007948007800F08000002846D10421704848
:1033C00000F0E1FA002840D004216D4800F08FFAA7
:1033D0007148007800F0400040B3694800F0C9FA35
:1033E0006E490880084600886D490988884204DAD9
:1033F0004FF6FF706B49086002E0002069490860E1
:103400006648008866490988401A66490968084480
:1034100065490860084600686449086000205E4904
:1034200008700021564800F0D7FB0EE0544800F029
:10343000A0FA5B4908805848007840F0400056499F
:10344000087002214E4800F0C7FB5948007800F090
:103450008000002845D10821494800F094FA80B343
:103460000821474800F043FA5148007800F0400036
:1034700040B3434800F080FA4E490880084600886F
:103480004D490988884204DA4FF6FF704B490860BD
:1034900002E00020494908604648008846490988FA
:1034A000401A4649096808444549086008460068CA
:1034B0004449086000203E4908700021304800F06F
:1034C000F5FB0EE02E4800F057FA3B4908803848DB
:1034D000007840F04000364908700221284800F08A
:1034E000E5FB3948007800F08000A8BB1021244893
:1034F00000F049FA80B31021214800F0F8F9324871
:10350000007800F0400040B31D4800F038FA2F4921
:103510000880084600882E490988884204DA4FF658
:10352000FF702C49086002E000202A490860274803
:10353000008827490988401A26490968084426490D
:103540000860084600682549086000201E49087088
:1035500000210B4800F0FEFB0EE0094800F00FFAD6
:103560001B4908801848007840F040001649087050
:103570000221034800F0EEFB10BD000024010020F2
:103580000004004028010020260100203C0100200A
:10359000980000204C0100202A0100202E0100206C
:1035A0002C010020400100209C0000205001002040
:1035B00030010020340100203201002044010020AD
:1035C000A000002054010020360100203A01002014
:1035D0003801002048010020A400002058010020EC
:1035E000044800880348008820F001000149088051
:1035F0007047000010080040AC490888AC490978C1
:1036000001F0800100294ED100F00101D1B1A8499B
:10361000097801F04001A9B1A549097801F03F01FD
:103620003F290AD1A249098841F08001A04A1180AE
:103630004FF6FF719F4A118004E09D490988491C9B
:103640009B4A118000F0020169B39949097801F0A1
:10365000400199B19649098841F08001944A11804E
:10366000924924310988934A118090491031098880
:1036700021F002018D4A1032118014E000218C4AA1
:1036800011808C4A11808A49098841F04001884A9A
:1036900011800021854A14321180111F098841F0E0
:1036A0000201121F11808449097801F0800100296C
:1036B0004ED100F00101D1B17F49097801F04001FC
:1036C000A9B17D49097801F03F013F290AD17A4922
:1036D000098841F08001784A11804FF6FF71774ADE
:1036E000118004E074490988491C734A118000F074
:1036F000040169B37049097801F0400199B16E493C
:10370000098841F080016C4A118068492831098894
:103710006A4A118065491031098821F02001634A05
:103720001032118014E00021634A1180634A118035
:103730006149098841F040015F4A118000215B4ADC
:1037400014321180111F098841F02001121F1180CD
:103750005B49097801F0800100294ED100F0010198
:10376000D1B15749097801F04001A9B1544909780C
:1037700001F03F013F290AD15149098841F08001F8
:103780004F4A11804FF6FF714E4A118004E04C49B8
:103790000988491C4A4A118000F0080169B3484968
:1037A000097801F0400199B14549098841F080014B
:1037B000434A11803D492C310988424A11803B49D6
:1037C0001031098821F40071384A1032118014E058
:1037D00000213B4A11803B4A11803949098841F058
:1037E0004001374A11800021304A14321180111FE4
:1037F000098841F40071121F11803349097801F0E2
:103800008001C1BB00F00101D1B12F49097801F05D
:103810004001A9B12C49097801F03F013F290AD1A3
:103820002949098841F08001274A11804FF6FF712C
:10383000264A118004E024490988491C224A118043
:1038400000F01001B9B12049097801F0400199B1A7
:103850001D49098841F080011B4A1180134930310C
:1038600009881A4A118011491031098821F4005140
:103870000E4A1032118014E00021134A1180134ABD
:1038800011801149098841F040010F4A118000213F
:10389000064A14321180111F098841F40051121F89
:1038A00011800021014A118070470000100C004077
:1038B0001401002016010020180100201A01002028
:1038C0001C0100201E0100202001002022010020F8
:1038D00021B1028842F08002028004E002884FF6A3
:1038E0007F731A4002807047CA4302827047CA43FE
:1038F0000282704721B1028842F00102028004E096
:1039000002884FF6FE731A400280704731B1B0F85A
:10391000442042F40042A0F8442005E0B0F84420DE
:10392000C2F30E02A0F844207047F0B50C461546CD
:103930001E460021002200230189028B038C4FF6D2
:10394000F877394021434FF6FC473A4040F20117DF
:103950003A434FF6DD773B404FF6FF7707EA06170D
:103960002F433B43018102830384F0BD0146888ECF
:1039700070470146088F70470146888F704701469F
:10398000B1F84000704730B5024600200023002403
:10399000158A05EA0103958905EA010413B10CB102
:1039A000012000E0002030BD70B505460C462448DB
:1039B00085420ED0234885420BD0B5F1804F08D008
:1039C0002148854205D02148854202D020488542C1
:1039D00000D100E000BF208850B92389A288618807
:1039E0002846FFF76BFBE188284600F0CFF925E079
:1039F000208804280AD12389A28861882846FFF7F5
:103A00009DFBE188284600F0CAF917E020880828C5
:103A10000AD12389A28861882846FFF7DBFBE18869
:103A2000284600F0C9F909E02389A2886188284660
:103A3000FFF718FCE188284600F0C7F970BD0000C8
:103A4000002C014000340140000400400008004008
:103A5000000C004000210180418001218180002173
:103A6000C180018170471AB183890B43838102E0D1
:103A700083898B438381704770B500240022002323
:103A8000058C4FF6FE7635400584028C8388048BC6
:103A90004FF68F752C40B51E2C400D882C43751E9B
:103AA0002A400D892A434D882A43144DA8420BD041
:103AB000134DA84208D0134DA84205D0124DA8427C
:103AC00002D0124DA84213D14FF6F7752A404D8906
:103AD0002A434FF6FB752A408D882A434FF6FF652F
:103AE0002B404FF6FF552B408D892B43CD892B431F
:103AF00083800483CD888586028470BD002C0140BC
:103B000000340140004001400044014000480140B1
:103B10000A460021018C4FF6FD73194011430184C0
:103B200070470A460021018B4FF6F7731940114385
:103B30000183704770B5002400220023058C4FF6E6
:103B4000EF7635400584028C8388048B48F6FF7538
:103B50002C404FF6FF452C400D884FF6FF7606EAC5
:103B600005252C434FF6DF752A400D8906EA051519
:103B70002A434D8806EA05152A43154DA84202D06E
:103B8000144DA8421DD14FF67F752A404D894FF63E
:103B9000FF7606EA05152A434FF6BF752A408D8841
:103BA00006EA05152A434FF6FF352B404FF2FF7505
:103BB0002B408D8906EA85052B43CD8906EA8505CC
:103BC0002B4383800483CD880587028470BD000069
:103BD000002C0140003401400A460021018C4FF6C0
:103BE000DF7319404FF6FF7303EA02131943018490
:103BF00070470A460021018B4FF2FF7319404FF6C0
:103C0000FF7303EA022319430183704770B5002450
:103C100000220023058C4FF6FF6635400584028C98
:103C20008388848B4FF68F752C404FF6FC752C40A3
:103C30000D882C434FF6FF552A400D894FF6FF762D
:103C400006EA05252A434D8806EA05252A43154D2F
:103C5000A84202D0144DA8421DD14FF2FF752A4050
:103C60004D894FF6FF7606EA05252A434FF6FF35C4
:103C70002A408D8806EA05252A434EF6FF752B401B
:103C80004DF6FF752B408D8906EA05152B43CD892E
:103C900006EA05152B4383808483CD8885870284BB
:103CA00070BD0000002C0140003401400A46002194
:103CB000018C4FF6FF5319404FF6FF7303EA0223BE
:103CC0001943018470470A460021818B4FF6F77330
:103CD000194011438183704770B5002200230024EE
:103CE000058C4EF6FF7635400584038C8488828BE4
:103CF00048F6FF752A404FF6FF452A400D884FF6DB
:103D0000FF7606EA05252A434DF6FF752B400D89FF
:103D100006EA05352B434D8806EA05352B430B4D46
:103D2000A84202D00A4DA84208D14BF6FF752C409C
:103D30008D894FF6FF7606EA85152C4384808283B1
:103D4000CD88A0F84050038470BD0000002C0140D5
:103D5000003401400A460021018C4DF6FF731940E2
:103D60004FF6FF7303EA02331943018470470A4692
:103D70000021818B4FF2FF7319404FF6FF7303EA66
:103D8000022319438183704781847047028B4FF669
:103D9000F3731A400283028B0A4302837047028B3B
:103DA0004FF2FF331A400283028B4FF6FF7303EA90
:103DB00001231A4302837047828B4FF6F3731A4034
:103DC0008283828B0A4382837047828B4FF2FF3358
:103DD0001A408283828B4FF6FF7303EA01231A4352
:103DE00082837047002202881D4B98420ED01D4BE3
:103DF00098420BD0B0F1804F08D01B4B984205D0B1
:103E00001A4B984202D01A4B984204D14FF68F7346
:103E10001A404B881A43174B984207D0164B9842CA
:103E200004D04FF6FF431A40CB881A4302808B8898
:103E300083850B8803850A4B98420BD0094B984227
:103E400008D00E4B984205D00D4B984202D00D4B36
:103E5000984201D10B7A03860123838270470000C8
:103E6000002C0140003401400004004000080040E4
:103E7000000C0040001000400014004000400140D1
:103E800000440140004801404FF6FF71818000214D
:103E90000180C1804180017270470000014640F2FC
:103EA0005642914203DB094A1278012A0BD10120C4
:103EB0000022074B1A801B1D1A80054B083B1A80F5
:103EC0001B1D1A8000E00020704700000500002044
:103ED0003C34014010B540F225510C4800F0F6F991
:103EE00098B10A4800F0AEFA44B2E0B203F0B6FF6F
:103EF000012809D1064908700649087000200649C2
:103F0000086006480649086000BF10BD0050004028
:103F1000400000203F000020BC000020800C00205A
:103F20005C01002070B53F48B0F90000002801DDB9
:103F3000002507E03B48B0F90000002801DA02251F
:103F400000E001253848B0F90000002801DD002616
:103F500007E03548B0F90000002801DA022600E049
:103F600001263248006805F049F9314A1060516075
:103F70003048006805F042F92D4A0832106051605F
:103F80002D48006805F03AF9294A10321060516056
:103F90002A480088A2F11601C8832848408808846E
:103FA0002648808848842648008888842448408899
:103FB000C88423488088088568B288701949B1F997
:103FC0000000002801DB014600E0414209B2184A26
:103FD000921F118070B2114648711349B1F9000067
:103FE000002801DB014600E0414209B2104A921F5D
:103FF000A2F8031013480088114648852C24224655
:104000001148FCF7F3F900210F4A601C11542146B6
:10401000104604F0ADF8012803D1C6210B4804F086
:104020001DFA70BD080000200A0000205C0000207E
:10403000590600205800002054000020DA0100201A
:10404000D401002028000020900A0020F40A00205B
:1040500010B540F22551224800F038F900283DD033
:104060002049097851B920490978491CC9B21E4A2A
:1040700011700A2902DD01211A4A11701849091D1F
:104080000988C8B21949097869B919490978FE2916
:1040900009D118490978FF2905D10121134A117066
:1040A0000021154A11701149097801290FD11349CE
:1040B000114A1278885410490978491C0E4A117027
:1040C00011460978082902D10021084A11700849CF
:1040D0000978084A11700649087000BF002010BD19
:1040E000003801403F000020F40000204000002084
:1040F000F2000020F3000020F10000203600002034
:104100002DE9FF5F40F225515D4800F0DFF80028FF
:104110007ED05B48001D00885A4908700846007828
:10412000412809DB08460078482805DC0846007865
:1041300040385549087002E0002053490870514842
:1041400000787B2802D10120504908704D48007842
:104150007D2802D102204D4908704C480078012882
:104160000AD1484800784A494A4A1278885449484E
:104170000078401C474908704448007802287CD1E8
:104180004348C078502803D101204349087067E0B4
:104190003F484078232863D03E4800783F49087064
:1041A00034E03C4909783D4A1278881A04F0AFFCA3
:1041B000804642460B460020394903F05FF9044629
:1041C0000D4636490978491E314A515CA1F130004B
:1041D00004F09DFC064622462B4604F0FFFC824676
:1041E0008B463048006805F009F852465B46CDE939
:1041F000000104F049FACDE9020104F013FA29495B
:10420000086026480078401E24490870234800E0D2
:1042100033E000780428C4DA1D4840783038092893
:104220001DD2DFE800F0050C11161718191A1B0033
:104230001C48006805F072F91B4908600FE0194836
:1042400000681A4908600AE01648006818490860C2
:1042500005E004E003E002E001E000E000BF00BF91
:1042600000200A4908700B4908700C4908700D4974
:10427000086032210648FCF738F9BDE8FF9F0000CE
:1042800000480040F000002002000020F50000205F
:1042900018020020F600002041000020F700002056
:1042A00000002440F80000206C0000206400002082
:1042B0006800002021B1828942F40052828104E02A
:1042C00082894DF6FF731A408281704770B50246AD
:1042D000002400230025002040F66A16B14200D1D8
:1042E00000BFC1F3421501F01F03012606FA03F3D4
:1042F000012D02D19689334006E0022D02D1168AA3
:10430000334001E0968A33400C12012606FA04F489
:104310001688344013B10CB1012000E0002070BDBC
:10432000F0B50346002400260025002040F66A1759
:10433000B94200D100BF1846C1F3421401F01F0674
:10434000012707FA06F5012C01D10C3004E0022CFC
:1043500001D1103000E014301AB107682F43076014
:1043600002E00768AF430760F0BD00002DE9F047A9
:1043700086B005460E460024A24600BFA14600278F
:10438000B08900B100BF2F462C8A4CF6FF70044064
:10439000F08804432C82AC894EF6F3100440B088B8
:1043A00031890843718908430443AC81AC8A4FF6D4
:1043B000FF400440B0890443AC8201A8FEF774FBBF
:1043C0001F48874202D1DDF810A001E0DDF80CA003
:1043D000A88900F4004040B10AEBCA0000EB0A10C3
:1043E00031684900B0FBF1F807E00AEBCA0000EBC6
:1043F0000A1031688900B0FBF1F86420B8FBF0F0D6
:1044000004012009642101FB1089A88900F40040FF
:1044100040B1322000EBC900B0FBF1F000F0070022
:10442000044308E0322000EB09106421B0FBF1F0F6
:1044300000F00F0004432C8106B0BDE8F0870000B7
:104440000038014001468888C0F30800704700002A
:1044500010B58AB018A103C9CDE9040102A806A9C4
:1044600007AB08AACDE9001009A90020FCF7FCFB66
:1044700000240FE0072C04D102A8005D1049087049
:104480000AE002A8005D04A9095D884200D003E0AB
:10449000601CC4B2072CEDDD00BF40F22111099869
:1044A000884207D10648007820B106480299016089
:1044B000039941600AB010BD0A0C0F13181E2500A5
:1044C0003E0000202E00002000BFFEE70E490968D4
:1044D0004242914202DA41420B4A11600A4909689C
:1044E000814201DD08490860084909684242914259
:1044F00002DA4142054A116004490968814201DD3E
:1045000002490860704700000C00002010000020E5
:10451000490050EAC12018BF04204A0D18BF40F0DE
:10452000010040F2FF72B2EB515F08BF40F00200A1
:10453000012808BF052070472DE9F0414F1E00EB10
:10454000C7010446D1E9000115461E4637F00602B0
:104550000DD02A46334604F041FB7F1E04EBC7030F
:10456000D3E9002304F090F837F00602F1D1022FCE
:1045700025D0042F13D0062F18BFBDE8F0812A469E
:10458000334604F02BFBD4E90A2304F07DF82A46D5
:10459000334604F023FBD4E9082304F075F82A46D7
:1045A000334604F01BFBD4E9062304F06DF82A46D9
:1045B000334604F013FBD4E9042304F065F82A46DB
:1045C000334604F00BFBD4E9022304F05DF82A46DD
:1045D000334604F003FBD4E90023BDE8F04104F0C6
:1045E00053B80000024A0020110705F0D8B90000B6
:1045F00001FDFFFF00BF70472DE9FE4F07468846CB
:104600000026684601F0AAFA002444E057F8240086
:1046100058F82410A0EB010ABAF1000F01DB514653
:1046200001E0CAF10001084604F0B4FF83464FF0F0
:104630008F4104F07DFE81465DF82400002104F0E6
:1046400039FF18D05DF82410484604F071FE824608
:104650004FF07E5105F0FCF8054600BF25F0004004
:1046600082460F48416A504605F0C0F812D2012038
:10467000A04006430EE00A48C169484604F0B6FF70
:1046800005D30748016A484605F0B0F802D2012078
:10469000A0400643641C032CB8DB3046BDE8FE8F07
:1046A000B8A400082DE9F04D904F21F0004A86B0E3
:1046B00005460C46BA4530DBAAEB070028430CD070
:1046C0008B48824501DC1CD1DDB106B02846BDE82F
:1046D000F04D4FF0010205F062B9864A864B28463C
:1046E00004F07CFA07460E46844A854B284621464C
:1046F00004F074FA06B03A463346BDE8F04D03F0D4
:10470000C3BF0120FBF7BAFF06B00022BDE8F04DA1
:1047100013461046114604F073B87A48824542DACF
:10472000BAF1795F0BDA2846FFF7F2FE042808BFDA
:10473000FFF758FF284606B02146BDE8F08D2A460F
:104740000B46104604F04AFA834602466E480E466F
:104750000B4606217844FFF7EFFE5A46334604F035
:104760003DFA804669488A465A46334604217844D1
:10477000FFF7E2FE5A46334604F030FA00223B4689
:1047800003F082FF02460B464046514604F038F8DB
:104790002A46234604F022FA06B02A462346BDE8FC
:1047A000F04D03F071BF284624F0004100223D4641
:1047B0003B4604F047FB4FF0FF3205F0F0F80646A9
:1047C000024653480F460B4606217844FFF7B4FED5
:1047D00032463B4604F002FACDE900014D4832462C
:1047E0003B4604217844FFF7A7FE32463B4604F0DF
:1047F000F5F900222B4603F047FF8346029130462D
:10480000394603F0A9FD804643480D46504517DC64
:10481000DDE900015A46029B03F0F2FF42462B46B7
:1048200004F0DCF942462B4603F02EFF012205F08E
:10483000B6F8304A304B04F0F7FB304A304B4CE0CE
:104840004FF0000A52460B46404603F01DFFCDE9EB
:10485000031052462B461046194604F0BFF9324663
:104860003B4604F0EFFADDE9033203F0C9FF0646E8
:104870000F46DDE900015A46029B03F0C1FF834663
:10488000009101223046394605F089F8194A1A4B41
:1048900004F0D8FA06460F4601224046294605F0A4
:1048A0007EF85A46009B04F099F932463B4604F0E4
:1048B000BBFB07460E4601225046294605F06FF81D
:1048C0000E4DDFF858802A46434604F0BBFA3A46BC
:1048D000334604F0B7FA2A46434604F0B3FA002CF4
:1048E000D8BF81F0004106B0BDE8F08D0000F03F78
:1048F0000000F07F075C143326A6913C182D445429
:10490000FB21F93F0000E03F80690000966900004C
:104910000A690000206900003333EF3FFB21E93FC3
:104920002DE9F84F04460D4621F0004000917449EE
:10493000814213DC7349884201DC08D13CB1204636
:104940002946BDE8F84F4FF0010205F028B86E483F
:10495000002DCCBF6D496E49BDE8F88F6D4981428D
:1049600011DD6D498142D8BF4FF0FF366DDD204625
:104970002946FFF7CDFD042808BFFFF733FE204688
:104980002946BDE8F88F6549654F25F0004581420D
:1049900033DD6449814219DD002632464FF0804301
:1049A0002046294603F070FE80468A4601222046B2
:1049B000294604F0F4FF00223B4604F035FB424652
:1049C000534603F01DFF04460D463EE0012600223B
:1049D000BA463B462046294603F056FE80460F461F
:1049E000002253462046294604F01EFB42463B4621
:1049F00003F006FF04460D4627E04B4981421BDDCC
:104A0000DFF828810226002243462046294604F08A
:104A1000E5F800223B4603F037FE07468A460022AF
:104A200043462046294604F0FFFA3A46534603F02F
:104A3000E7FE04460D4608E0032622462B460020EA
:104A40003B4903F0DDFE04460D4622462B46104648
:104A5000194604F0C3F88B46824602460B4604F022
:104A6000BDF807460246334888460B46062178447F
:104A7000FFF762FD52465B4604F0B0F882462E48CE
:104A80008B463A46434605217844FFF755FD3A46A2
:104A9000434604F0A3F802460B46002E5046594602
:104AA0000CDA03F0F1FD22462B4604F097F801B032
:104AB00022462B46BDE8F04F04F0C4B903F0E4FDF4
:104AC00022462B4604F08AF81C4A7A4402EBC603BD
:104AD000D3E9002304F0A8FA22462B4604F0A4FAF6
:104AE000174A7A4402EBC603D3E9002304F0AAF97B
:104AF000009A002AB8BF81F00041BDE8F88F00009D
:104B0000000010440000F07F182D4454FB21F93FB1
:104B1000FB21F9BF0000DC3F0000203E0000F33F16
:104B20000000F03F0000E63F008003400000F83F37
:104B30000000F0BFA6670000646700000267000085
:104B4000CA6600002DE9F04D9446CCF1000423F034
:104B500000464CEA0404524F46EAD4749A4688460A
:104B600021F00042BC4206D8454240EA050442EA30
:104B7000D474BC4204D9BDE8F04D624603F084BD54
:104B8000AAF14055A5F17F6555EA0C040BD002242B
:104B900004EAAA74434DDFF810E144EAD87452EAFB
:104BA000000B04D00CE0BDE8F04DFFF7B9BE002CBF
:104BB00014BF012CBDE8F08D022C30D0032C32D074
:104BC00056EA0C0B0AD0BE4220D1BA4209D126F0D7
:104BD000804622F080423346114617E000291ADB56
:104BE00025E0DFF8C8B0FB44002C04BFDBE900017E
:104BF000BDE8F08D012C02BFDBE9000181F000412E
:104C0000BDE8F08D022C0AD0032C0CD0BA4212D190
:104C1000B8F1000F0BDA23482549BDE8F08D28468E
:104C20002449BDE8F08D28467146BDE8F08D1D4849
:104C30002149BDE8F08D921B12153C2AC4BF1948CA
:104C40001D490EDCBAF1000FBEBF12F13C0F00206F
:104C5000014606DB624603F0D3FD21F00041FFF779
:104C60005FFE002C08BFBDE8F08D012C04BF81F071
:104C70000041BDE8F08D114A114B022C07D004F021
:104C8000D3F92A46BDE8F04D0A4B04F0CDB904F043
:104C9000CBF92A46BDE8F04D064B04F0D3B800002E
:104CA0000000F07F182D4454FB2109C05E6600000F
:104CB000FB21F9BFFB210940FB21F93F075C1433BD
:104CC00026A6A13C08B501211020FDF7CDFE0C2041
:104CD000ADF8000010208DF8030002208DF80200CE
:104CE00069460248FCF754FB08BD00000010014073
:104CF00001462D48006828B92C480088401C2B4AE2
:104D0000108002E00020294A10802748006828B956
:104D10002748007810B90120254A107025480078EE
:104D2000B0B923480078012807D123480078401CF7
:104D3000214A107001201F4A10701F480078022875
:104D400006D100201C4A10701C4A108002207047B7
:104D500015480068012804D10020154A1070154A32
:104D600010701548007801281CD114480088401C98
:104D7000124A10801046008888420ADD0B480088DD
:104D8000884206DA00200C4A10700C4A108001207C
:104D9000DDE706480088884204DD0020064A1070DE
:104DA000064A10800020D2E738812142020100200B
:104DB000FC000020FD000020FE000020000100207B
:104DC0002DE9F0410446E07800F0C006E07800F0FC
:104DD0003F05607800F0010098B1EF102846E91710
:104DE00005EB5171C910A5EBC101491C01F0FF0889
:104DF0000B48006820B10A4841460268384690478F
:104E000000BF607800F0080030B10548406818B174
:104E1000B011034A516888470020BDE8F0810000C6
:104E20008006002010B56FF00400FEF701F90A4873
:104E300000680A49B0FBF1F009490870084600789B
:104E400000EB4001C1EBC0104FF6FF7101EAC0005A
:104E50000449088010BD0000C000002000127A0044
:104E6000E8000020EA0000200146114A12884A4367
:104E70004FF0E0235A6100229A611A46126942F00B
:104E800001021A6100BF4FF0E022106900F0010238
:104E90001AB100F48032002AF5D04FF0E0221269F6
:104EA00022F001024FF0E0231A6100229A6170475C
:104EB000EA0000200146114A12784A434FF0E023ED
:104EC0005A6100229A611A46126942F001021A617F
:104ED00000BF4FF0E022106900F001021AB100F4A7
:104EE0008032002AF5D04FF0E022126922F0010250
:104EF0004FF0E0231A6100229A617047E800002019
:104F000038B5044664B120208DF8000028208DF8C3
:104F1000010030208DF8020038208DF8030004E0F5
:104F2000A32204216846FBF7D8FA6A46042140F61A
:104F30009E2002F0EBF901F0DBFD38BD3EB50446E2
:104F400002208DF80000CA208DF80100E3208DF8C2
:104F5000020009208DF803006A460421682002F04F
:104F6000D5F9A3208DF8000004F0400048B1C0201E
:104F70008DF80100C8208DF80200C2208DF80300D2
:104F800006E0A3208DF801008DF802008DF80300E3
:104F900004F4C07048B1C4208DF80400CC208DF812
:104FA0000500C6208DF8060006E0A3208DF8040059
:104FB0008DF805008DF80600A3208DF807008DF808
:104FC00008008DF809006A460A2140F6A72002F081
:104FD0009DF904F0030018B120208DF8000002E0D4
:104FE000D8208DF800006A46012140F6B62002F074
:104FF0008DF904F0200018B1012000F0ADF802E0B6
:10500000002000F0A9F804F4C07008B304F4807024
:1050100060B1B2208DF800008B208DF80100B62021
:105020008DF802009B208DF803000BE0B0208DF876
:10503000000080208DF80100B4208DF8020090203F
:105040008DF803006A46042140F6A22002F05EF9C2
:1050500004F0010020B3F8208DF800006A46012119
:105060004FF40B6002F052F9FA21072000F02CFCFB
:10507000072000F0F3FB012000F013FC642000F097
:10508000F3FC4FF4FA7000F002FDC821304800F044
:10509000A3FB282000F0BCFB0A2000F0CCFB08E0BA
:1050A000D8208DF800006A4601214FF40B6002F011
:1050B0002DF904F0020018B1D9208DF8000002E0AB
:1050C000D8208DF800006A46012140F23D7002F0C0
:1050D0001DF904F0040018B1012000F069F802E0A5
:1050E000002000F065F804F0100018B10120FFF76F
:1050F00007FF02E00020FFF703FF44F00800154916
:10510000488101F0F5FC00201249887304F040004A
:1051100018B10846807B801D887304F4C07020B1EC
:105120000C48807B801D0B49887304F0140020B16B
:105130000848807B10300749887304F0030020B1D1
:105140000448807B001D0349887300203EBD000099
:1051500009E3CA02800600203EB504466CB10EA1E8
:10516000D1E900208968CDE9002002916A46092131
:105170004FF4976002F0CAF83EBD0AA2D2E90010CF
:105180009268CDE9010200916A4609214FF49760C7
:1051900002F0BCF8F0E70000B8AAB38DB4980D3562
:1051A0005D000000B8AAAAAAB088C3C5C700000065
:1051B00038B5044664B1C0208DF80000C2208DF8D7
:1051C0000100C4208DF80200C6208DF8030004E021
:1051D0008B2204216846FBF780F96A46042140F6D9
:1051E000982002F093F801F083FC38BD10B5C82375
:1051F0004FF48062024940F6F63001F00DFB10BD1D
:10520000E0A400082DE9F04F8DB00746884615460A
:105210009946DDE9166B0024002030806B49887BBD
:105220005A4605A901F0C4FB18B1601E0DB0BDE8D7
:10523000F08F6648807A00F01400002867D09DF84F
:10524000140000069DF8151040EA01409DF8161064
:1052500040EA01209DF81710084328609DF81800C7
:1052600000069DF8191040EA01409DF81A1040EA26
:1052700001209DF81B10084368609DF81C00000683
:105280009DF81D1040EA01409DF81E1040EA0120E3
:105290009DF81F100843A8609DF8200000069DF8A7
:1052A000211040EA01409DF8221040EA01209DF8BB
:1052B00023100843E86004F11000C4B22868001409
:1052C0000190686800140290A86800140390E868D0
:1052D0000014049001984043029901FB01000399D6
:1052E00001FB0100049901FB010ABAF1706F02DBB6
:1052F000BAF1885F05DD01F0FBFB00203080401E25
:1053000094E7B6F9000040F48070308000BF2F4869
:10531000807A00F0400020B305A9601C085C095D9C
:1053200040EA012000B2A8F8000005A9E01C095CD1
:1053300005AAA01C105C41EA002000B2A8F80200F7
:1053400005A9601D095C201D105C41EA002000B227
:10535000A8F80400A01DC4B2B6F9000040F008008F
:1053600030801A48408900F4C07008B305A9601C59
:10537000085C095D40EA012000B2388005A9E01C04
:10538000095C05AAA01C105C41EA002000B27880EC
:1053900005A9601D095C201D105C41EA002000B2D7
:1053A000B880A01DC4B2B6F9000040F07000308093
:1053B0000648807A00F0030018B105A90819FFF724
:1053C000FFFC484601F0E2FF00202FE780060020A6
:1053D00070B588B0064601A801F072F8BDF8040067
:1053E0000021C90341EA5045C4034448007A00F053
:1053F000030056F8200005904048007A00F00400B1
:1054000010B10598404205903C48007AC0F3C100B5
:1054100056F8200006903948007A00F0200010B1BC
:105420000698404206903548007AC0F3811056F83D
:10543000200007903148008900F4807010B107986F
:10544000404207900598C117A0FB042301FB0431DB
:1054500000FB0510810041EA927005900698C11783
:10546000A0FB042301FB043100FB0510810041EA8D
:10547000927006900798C117A0FB042301FB04312A
:1054800000FB0510810041EA927007900598000E1C
:105490008DF808000598000C8DF809000598000AA1
:1054A0008DF80A000598C0B28DF80B000698000E22
:1054B0008DF80C000698000C8DF80D000698000A77
:1054C0008DF80E000698C0B28DF80F000798000EF8
:1054D0008DF810000798000C8DF811000798000A4D
:1054E0008DF812000798C0B28DF8130002AA0C21A3
:1054F0004FF4257001F00AFF08B070BD800600204F
:1055000030B585B0044616A207CA02AB07C3C82C43
:1055100003DD4FF0FF3005B030BDC82090FBF4F044
:10552000401E85B2280A8DF80000E8B28DF801000F
:105530006A46022140F2162001F0E8FE10B14FF059
:10554000FF30E8E702AA0C2140F6C12001F0DEFEA0
:1055500010B14FF0FF30DEE7044884810020DAE725
:10556000FEF2ABC4AAF1DFDFBBAFDFDF80060020B5
:105570001FB504464848007A00F0030054F82000A4
:1055800001904548007A00F0040010B101984042B3
:1055900001904148007AC0F3C10054F82000029005
:1055A0003D48007A00F0200010B10298404202907D
:1055B0003948007AC0F3811054F82000039036482F
:1055C000008900F4807010B1039840420390334981
:1055D000019880FB0101800F40EA810001902F4972
:1055E000029880FB0110820042EA917002902B49E0
:1055F000039880FB0110820042EA917003900198A9
:10560000000E8DF800000198000C8DF80100019843
:10561000000A8DF802000198C0B28DF803006A46B6
:1056200004214FF4747001F071FE18B14FF0FF3097
:1056300004B010BD0298000E8DF800000298000C16
:105640008DF801000298000A8DF802000298C0B29D
:105650008DF803006A4604214FF4757001F056FE80
:1056600010B14FF0FF30E3E70398000E8DF8000013
:105670000398000C8DF801000398000A8DF80200D1
:105680000398C0B28DF803006A4604214FF4767087
:1056900001F03CFECCE700008006002009E3CA02CE
:1056A00010B586B0044647A00068039046A0006885
:1056B000029046A00068019045A00068009004F0A8
:1056C000030003A9085C8DF8140003A8C4F3C1010A
:1056D000405C8DF8150003A8C4F38111405C8DF87F
:1056E000160004F0030002A9085C8DF8100002A85F
:1056F000C4F3C101405C8DF8110002A8C4F381110C
:10570000405C8DF8120005AA032140F2264001F00A
:10571000FDFD18B14FF0FF3006B010BD04AA032103
:1057200040F22A4001F0F2FD10B14FF0FF30F3E7F4
:10573000019805900098049004F0040058B19DF879
:10574000140040F001008DF814009DF8100040F0A6
:1057500001008DF8100004F0200058B19DF81500EC
:1057600040F001008DF815009DF8110040F0010097
:105770008DF8110004F4807058B19DF8160040F0C7
:1057800001008DF816009DF8120040F001008DF820
:10579000120005AA03214FF4886001F0B7FD10B193
:1057A0004FF0FF30B8E704AA032140F2314001F086
:1057B000ADFD10B14FF0FF30AEE706480481002088
:1057C000AAE700004CCD6C000CC92C0036567600C0
:1057D0002646660080060020F8B505460E464FF4C2
:1057E0007A7095FBF0F000FB06F4200E8DF80000B7
:1057F000200C8DF80100200A8DF80200E0B28DF82F
:1058000003006A4604214FF4AE7001F07FFDF8BD3D
:1058100038B50446052094FBF0F084B220128DF8D0
:105820000000E0B28DF801006A4602214FF4AD702D
:1058300001F06CFD38BD38B50446052094FBF0F04E
:1058400084B220128DF80000E0B28DF801006A46A3
:1058500002214FF4AC7001F059FD38BD38B5044653
:105860000020009004F0010020B19DF8000040F0FD
:105870003000009004F0020020B19DF8000040F0DC
:105880000C00009004F0040020B19DF8000040F0EE
:10589000030000906A4601214FF4A47001F036FD28
:1058A00038BD38B50446012C01DA012402E0042C8D
:1058B00000DD0424601EC0B200906A46012140F25F
:1058C0004F1001F023FD38BD2DE9FC4706460F4679
:1058D00006F0070010B1B7F5C86F03DD4FF0FF30D9
:1058E000BDE8FC87384603F06DFE8146594903F058
:1058F0001FFD8046684600F0BDFD9DF800000228AF
:1059000006D0042816D0082826D0102848D135E023
:105910004FF08D41404603F09DFE814603F01AFE94
:1059200084B24D49404603F095FE814603F012FED5
:1059300085B238E04FF08C41404603F08BFE814643
:1059400003F008FE84B24549404603F083FE8146D9
:1059500003F000FE85B226E04FF08B41404603F095
:1059600079FE814603F0F6FD84B23D49404603F0DE
:1059700071FE814603F0EEFD85B214E04FF08A41DE
:10598000404603F067FE814603F0E4FD84B23549EA
:10599000404603F05FFE814603F0DCFD85B202E085
:1059A0004FF0FF309CE700BF20128DF80400E0B2FA
:1059B0008DF8050028128DF80600E8B28DF8070072
:1059C00006F00100A0B101AA02214FF4EA7001F033
:1059D0009DFC10B14FF0FF3082E70DF1060202216D
:1059E0004FF4927001F092FC10B14FF0FF3077E766
:1059F00006F00200A0B101AA02214FF4EC7001F000
:105A000085FC10B14FF0FF306AE70DF1060202216C
:105A10004FF4947001F07AFC10B14FF0FF305FE763
:105A200006F00400A0B101AA02214FF4EE7001F0CB
:105A30006DFC10B14FF0FF3052E70DF1060202216C
:105A40004FF4967001F062FC10B14FF0FF3047E761
:105A5000002045E700004843000040460000C045E4
:105A6000000040450000C04438B50446052094FBC2
:105A7000F0F085B228128DF80000E8B28DF8010030
:105A80006A4602214FF4EF7001F040FC38BD38B592
:105A90000446052094FBF0F085B228128DF8000032
:105AA000E8B28DF801006A4602214FF4ED7001F072
:105AB0002DFC38BD00B587B001214FF40470FCF710
:105AC000D3FF4FF40040FCF7B3FF0C20ADF8040007
:105AD00000208DF8070001A91748FBF759FC17486B
