:020000040800F2
:10000000182D0020B90200082D2A00085D280008DC
:100010001D2A0008732300085B5700080000000039
:10002000000000000000000000000000593C000833
:100030000D25000800000000470300086D3D000882
:10004000D3020008D3020008D3020008D30200083C
:10005000D3020008D3020008D3020008D30200082C
:10006000D3020008D3020008D3020008D30200081C
:10007000D3020008D3020008D3020008D30200080C
:10008000D3020008D3020008D3020008D3020008FC
:10009000D3020008D3020008D3020008D3020008EC
:1000A000D3020008D3020008D3020008D3020008DC
:1000B00015410008D144000865470008D302000834
:1000C000D3020008D3020008D3020008D3020008BC
:1000D000D3020008B1530008F1530008D30200080E
:1000E00011250008D3020008D3020008D30200083B
:1000F000D3020008D3020008D3020008D30200088C
:10010000D3020008D3020008F9490008D30200080E
:10011000D3020008D3020008D3020008D30200086B
:10012000D3020008D3020008D3020008D30200085B
:1001300000F002F800F0B0F80AA090E8000C824449
:100140008344AAF10107DA4501D100F0A5F8AFF226
:10015000090EBAE80F0013F0010F18BFFB1A43F0A5
:1001600001031847D4690000F46900000A444FF005
:10017000000C10F8013B13F0070408BF10F8014B06
:100180001D1108BF10F8015B641E05D010F8016B4B
:10019000641E01F8016BF9D113F0080F1EBF10F8AF
:1001A000014BAD1C0C1B09D16D1E58BF01F801CBD2
:1001B000FAD505E014F8016B01F8016B6D1EF9D555
:1001C0009142D6D37047000000230024002500266A
:1001D000103A28BF78C1FBD8520728BF30C148BFAA
:1001E0000B6070476E2900F02284702900F077853B
:1001F000662906F09E83652906F09B83672906F031
:100200009883612906F0978303681B0A28BF41F091
:100210008001692900F0FA80642900F0F7807529CF
:1002200000F0F4806F2900F00585782900F04385FF
:10023000E92900F09F84E42900F09C84F52900F06E
:100240009984EF2900F00285F82900F042850368BF
:10025000DB0928BF41F08001632901F0A5817329E2
:1002600001F0AA81E32901F0B581F32901F0BA81F7
:10027000002070471FB501F0C9FB040000200021D9
:1002800006F056F9401C60600020002106F03AF9A3
:10029000E0601FBD10B510BD01F08AFB1146FFF7ED
:1002A000E9FF05F087FC01F063FC03B4FFF7F2FF00
:1002B00003BC05F06FFA0000094880470948004771
:1002C000FEE7FEE7FEE7FEE7FEE7FEE7FEE7FEE706
:1002D000FEE7FEE704480549054A064B7047000063
:1002E0007D3D00083101000818270020182D00204E
:1002F0001829002018290020EFF3108072B67047EB
:1003000080F310887047204C204D25604FF000048A
:1003100084F309881E4C4FF0010525701D4C4FF0E9
:100320008055256062B6FEE730B41A4C4FF0805518
:10033000256030BC704730B4164C4FF080552560B6
:1003400030BC704700BF72B6EFF3098028B1203887
:1003500080E8F00F10490968086000B50F48804731
:100360005DF804EB0E480F490A7802700A480E49FE
:100370000A680260106890E8F00F203080F3098866
:100380004EF0040E62B6704720ED00E00000FFFF63
:100390009501002004ED00E09C010020A53000083C
:1003A0008F01002090010020A40100207047000070
:1003B0000FB4044910B503AA029800F06BFB10BCFF
:1003C0005DF814FB600100200FB4044910B503AAC6
:1003D000029800F05FFB10BC5DF814FB6001002088
:1003E0000FB41CB5084B06AA7B44694600900598DB
:1003F00000F037FB04460020694600F045FB20462C
:100400001CBC5DF814FB00009D0600002DE9F041C6
:100410000646002410687529314616A510D000F054
:1004200072FA002802DA404213A507E031688A0711
:1004300001D512A502E0490704D511A5012401E068
:1004400000F06AFA00210A2206F1240709E0B0FB55
:10045000F2FCB0FBF2F302FB1C003030785418467B
:10046000491C0028F3D123462A463046BDE8F04116
:1004700000F084BA000000002D0000002B000000F6
:10048000200000002DE9F05F894604464FF0000A85
:10049000DFF874B1FB44C0F820A02046E16888472B
:1004A000002874D0252806D0D4E901219047206A7D
:1004B000401C2062F1E700265F462046E16888473D
:1004C0002028054607DB312D05D2781910F8200CBD
:1004D00008B10643F1E7B00701D526F00406C4F8D9
:1004E0001CA00027C4F818A02A2D09D0284605F022
:1004F0004AF938B304EB8708303DC8F8185019E0C2
:1005000059F8041B204604EB87029161E168884793
:10051000012F054618D1E069002820DA26F02006D0
:100520001DE0D8F8180000EB800005EB40003038E3
:10053000C8F818002046E1688847054605F023F909
:100540000028EED1012F0AD02E2D08D12046E168D7
:1005500088477F1C0546022F46F02006C4DBA069B1
:10056000002803DA404246F00106A061F00701D0FE
:1005700026F010066C2D0BD0682D09D04C2D39D0EB
:100580006A2D35D0742D35D07A2D33D016E038E071
:10059000E1682F4620468847B842054609D16C2FAE
:1005A00026D04FF48060E168064320468847054620
:1005B00004E06C2F1AD04FF4807006430DB3A5F100
:1005C0004100192802D8203546F400664A462946DB
:1005D000204626604E46FFF705FE80B101280BD06D
:1005E000F61D26F0070000F1080956E74020E4E771
:1005F0008020D8E70020D6E706F104094DE7284619
:1006000052E7206ABDE8F09FA26500000FB400B574
:100610008DB010A9099000910B904FF0FF300A9017
:1006200000200C90064878440690064878446A46B4
:1006300007900F9909A800F071FB0DB05DF814FB4D
:10064000130700002B0700002DE9FF5F1D464FF048
:10065000FF3B91464FF000085F46D5E90146A96986
:1006600001987F1C8847296A824688470028F6D16E
:10067000BAF1FF3F0CD0002E24F4C06419DD6006EF
:1006800014D5BAF12B0F09D0BAF12D0F0ED103E01A
:10069000584604B0BDE8F09F44F48064A96901980D
:1006A0007F1C8847761E8246002E02DDBAF1300F8D
:1006B00003D0B9F1000F26D032E0A969761E019867
:1006C0007F1C44F400748847002E824605DDBAF191
:1006D000780F06D0BAF1580F03D0B9F1000F10D03F
:1006E0001EE0B9F1000F02D0B9F1100F18D1A969BD
:1006F000761E01987F1C24F40074884782461020DF
:1007000002E0082000E00A20814609E0A96908FB10
:100710000908761E01987F1C44F4007488478246BD
:10072000002E05DD4946504600F0E4FA0028EDDAD7
:10073000E96901988847A00502D46FF00100A8E795
:10074000E00725D1600613D5600502D5C8F1000089
:1007500000E0404629680A1D2A600968220501D583
:10076000087015E0220701D5088011E008600FE04D
:100770002868011D29600068210502D580F80080E5
:1007800006E0210702D5A0F8008001E0C0F8008053
:1007900038467EE7032A40F2308010F0030C00F068
:1007A000158011F8013BBCF1020F624498BF11F8AB
:1007B00001CB00F8013B38BF11F8013BA2F1040264
:1007C00098BF00F801CB38BF00F8013B11F00303DC
:1007D00000F0D482083AC0F0088051F8043B083A8F
:1007E00051F804CBA0E80810F5E7121D5CBF51F8E2
:1007F000043B40F8043BAFF30080D20724BF11F85C
:10080000013B11F801CB48BF11F8012B24BF00F8C0
:10081000013B00F801CB48BF00F8012B70474FF0B7
:1008200000020429C0F0128010F0030C00F01B80BD
:10083000CCF1040CBCF1020F18BF00F8012BA8BFCB
:1008400020F8022BA1EB0C0100F00DB85FEAC17C8F
:1008500024BF00F8012B00F8012B48BF00F8012B42
:1008600070474FF0000200B5134694469646203973
:1008700022BFA0E80C50A0E80C50B1F12001BFF459
:10088000F7AF090728BFA0E80C5048BF0CC05DF8BF
:1008900004EB890028BF40F8042B08BF704748BF0D
:1008A00020F8022B11F0804F18BF00F8012B704781
:1008B000704770477047704770B504468569006897
:1008C000C10601D5302600E02026C00707D070BD44
:1008D000D4E9012130469047206A401C20626D1EF9
:1008E000F6D570BD70B5044685690078C00707D19C
:1008F00070BDD4E9012120209047206A401C20626D
:100900006D1EF6D570BD09684A0501D540B2704725
:10091000C905FCD500B2704709684A0501D5C0B2C7
:100920007047C905FCD580B2704770B50C460546C6
:10093000012A05D02878800600D5EA69002302E064
:10094000012305E05B1C934202D2E05C0028F9D150
:10095000A869E618C01AA861286A184428622846BF
:10096000FFF7AAFF04E0D5E9012114F8010B904735
:10097000B442F8D32846FFF7B5FF70BD2DE9F04724
:100980000D4699469246044600F1240801688806FF
:1009900004D5E06921F01001216000E00120A842A7
:1009A00001DD471B00E00027A1697A1902EB09006D
:1009B000081AA0612078C00602D42046FFF77CFF09
:1009C000002608E0D4E901211AF806009047206AC1
:1009D000401C761C20624E45F4DB2078C0060AD508
:1009E0002046FFF769FF06E0D4E901213020904757
:1009F000206A401C2062381EA7F10107F4DC07E0E2
:100A0000D4E9012118F805009047206A401C2062B3
:100A1000281EA5F10105F3DC2046FFF763FF2078CF
:100A2000000602D50220BDE8F0870120FBE711682F
:100A30000268006A530501D508700AE0D30501D5A4
:100A4000088006E0130603D5C217C1E9000200E0E2
:100A5000086001207047000001694A1C02610878A3
:100A6000704700B58FB0CDE90131002105910549EE
:100A70007944CDE9031011466846FFF703FD0FB036
:100A800000BD0000E5FFFFFF0A6802F8010B0A60E5
:100A900070470000074B70B50D467B44FFF7E1FF40
:100AA0000446284600F05CFF10B14FF0FF3070BDE7
:100AB000204670BDE75000002DE9FF5F15468A46CD
:100AC0000446DFF8AC80F8440027D8E900103E4621
:100AD000CDE9001010E03AF816106A4602A800F0BE
:100AE00043FF411C07D02178890603D5E2693918F4
:100AF00091420DD80744761C2078800602D5E06923
:100B0000B84205DDAE42E6DB3AF816000028E2D135
:100B1000A069C01BA0612046FFF7CEFED8E90010F7
:100B2000CDE90010002017E03AF818106A4602A834
:100B300000F01AFFB0F1FF3F81460BD000250DF108
:100B4000080B05E0D4E901211BF8050090476D1C56
:100B50004D45F7D308F10100B0428046E4DB206A3E
:100B6000384420622046FFF7BDFEBDE8FF9F00002D
:100B7000825F00002DE9F0418046D21D22F007027D
:100B80000025D2E90002F52915A614D0011E72F144
:100B9000000106DA0023D0EB030063EB020211A68A
:100BA00008E0D8F800108B0701D50FA602E049072E
:100BB00001D50EA601251146002408F1240704E002
:100BC00000F00EF930323A55641C50EA0102F7D1B8
:100BD0002B46324621464046BDE8F041FFF7CEBEE7
:100BE000000000002D0000002B000000200000008D
:100BF00030B4002100F1240408E002F00705D20817
:100C0000303542EA4372DB086554491C52EA030559
:100C1000F3D10468002310A2250708D504F02004AE
:100C20000C4304D0C46901230CA2641EC46130BC0F
:100C3000FFF7A4BE10B5044621461068FFF76CFE0E
:100C400002462046BDE810400023D1E7D21D22F025
:100C50000701D1E90023CBE70000000030000000CD
:100C6000F0B40D460188090502D5214C7C4402E010
:100C70001F4C7C440E34002100F1240608E002F0F1
:100C80000F071209E75D42EA03721B097754491CFA
:100C900052EA0307F3D102780023120704D5702D1E
:100CA00006D009B1022311342246F0BCFFF766BE1C
:100CB00001231034F8E770B504460D46214610684C
:100CC000FFF72AFE024629462046BDE87040002371
:100CD000C6E7D21D22F00703D3E90023C0E703686B
:100CE000126843F0200303600823C3610023B7E7C1
:100CF000E45D00003A2800D2303820F02002412A7A
:100D000001D3A2F13700884201D34FF0FF30704782
:100D1000026811441378016018467047D160054994
:100D200079445161044979441162002111611146ED
:100D300000F05CBCEDFFFFFF41010000426842B1E2
:100D4000016811F8013B23B1521EC0E90012184698
:100D500070470121C160881E704742685AB1C3685C
:100D6000016843B983688B4205D0491E521CC0E913
:100D70000012002070474FF0FF30704710B5203A46
:100D8000C0F00B80B1E81850203AA0E81850B1E844
:100D90001850A0E81850BFF4F5AF5FEA027C24BFFA
:100DA000B1E81850A0E8185044BF18C918C0BDE8F1
:100DB00010405FEA827C24BF51F8043B40F8043BBA
:100DC00008BF7047D20728BF31F8023B48BF11F86F
:100DD000012B28BF20F8023B48BF00F8012B7047C9
:100DE00030B5B0F10A024FEA900E71F100034EEAFD
:100DF000817EB0EB0E0061EB91014FEA101E4EEACE
:100E0000017E10EB0E0041EB11114FEA102E4EEA5D
:100E1000016E10EB0E0041EB11214FEA104E4EEA2D
:100E2000014E10EB0E0041EB1141401841F1000161
:100E30004FEAD00040EA41704FEAD10110EB800543
:100E40004FEA810444EA907444EB01046D1944EBC9
:100E50000404521BA3414FF0000348BF0A3200D5DF
:100E600030BD401C41F1000130BD10B5044600F01A
:100E7000C5FD0068005D00F0010010BD70472DE960
:100E8000FF4F0C461E464FF0FF378BB0D2E90001F2
:100E9000DDF860800A908A46C1F30A5505B93D46DF
:100EA000002108464FF00000BAF1000F00F44000A6
:100EB00005DA00EB80004FF4400101EA50004FEAF0
:100EC0009059B9F1010F00DDB9460A9850EA4A007D
:100ED0000ED044F61050A5F2FF3545432F14B8F15B
:100EE000000F1ED07542291E1EDDC9F100021CE054
:100EF000B8F1010F4FF0000001D0302103E0F243C0
:100F000005E02154401CB042FBDB304600220021AA
:100F100021540B99C1F80880C1E900200FB0BDE849
:100F2000F08FBD1B6D1CDEE74A4600DA694206A859
:100F300000F0B0FD06AB93E8070003AB83E80700C1
:100F400050460A9900F05AFE8DE80700A0F50050BF
:100F50001F3800900398002D09DD42F21F014A4618
:100F6000084403A90390684601F0B9F808E0A0F529
:100F700000504A461F3803A90390684601F0C3F8A1
:100F80008DE807000004000C03D04FF0FF3041084B
:100F900000E01046B8F1000F03D000220092154681
:100FA0001EE0751E05D4FFF71BFF303262556D1E23
:100FB000F9D5B3460122084302D000227F1C04E089
:100FC0002078302801D100227F1E002A099786D080
:100FD0001DE0112D07DAFFF703FF303262556D1C5B
:100FE00050EA0102F5D1084302D00098C8B10EE0E2
:100FF0000021681E05E0235C625C63542254401E9D
:10100000491C8142F7DBAB46A81B401E099000201B
:1010100004F80B000B98099AC0F80880C0E9002B6F
:101020007CE711264FF0000859E72DE9F04F88467C
:101030000446D21D22F0070191B0D1E90001CDE9AB
:101040000A0104F08CFB02460B98C00F01D02D2042
:1010500007E02068810701D52B2002E0202101EA6A
:10106000C000032A099001D0072A05DB0346414648
:10107000204600F0CFFC0BE12078800601D5E06926
:1010800000E00620B8F1650F814606D0B8F1660F82
:1010900018D0B8F1670F70D131E00020B9F1110F0D
:1010A000009001DB112301E009F101030AAA01A963
:1010B0000CA8FFF7E4FEDDE90C70002609F101053C
:1010C000834647E001204B4600904FF000470AAAB4
:1010D00001A90CA8FFF7D3FEDDE90DB00C995D4620
:1010E000002610B909F101000D18B9EB050003D471
:1010F000C0F1FF3609F10105A5EB09002BE0B9F1BC
:10110000010F01DA4FF001090020B9F1110F009031
:10111000484601DD112300E003460AAA01A90CA8F4
:10112000FFF7ADFEDDE90C704D46002683462078C2
:1011300000070AD4AB4500DA5D4601A8012D04DDA5
:10114000411911F8011C302907D04F4502DA17F177
:10115000040F04DA012082460FE06D1EEEE7002F37
:1011600002DCED1B3E4403E0781CA84200DD7D1C40
:10117000B81B00F1010A4FF000472078000703D4A4
:10118000AA4501DB4FF0FF3A0021B7F1004F0DF106
:1011900043088DF8431024D002202B23002F01DABE
:1011A0007F422D230A21021EA0F1010000DC5FB165
:1011B00097FBF1FC97FBF1F201FB1C7C17460CF14D
:1011C000300C08F801CDEEE7A8F10100037021888A
:1011D000090501D5452100E06521A0F1010800F8CD
:1011E000011C09980FA9A1EB0807FF1D00B1012000
:1011F000411901EBEA70A1693844081A401EA06148
:101200002078C00602D42046FFF756FB099828B183
:10121000D4E901219047206A401C20622078C00652
:1012200022D52046FFF748FB1EE0002E04DBB34525
:1012300002DD01A8805D00E03020D4E90121904763
:10124000206A401C2062761CAAF101005FEA000AB5
:101250000AD100F0DBFBC0680168405CD4E90121E1
:101260009047206A401C2062281EA5F10105DCDCA5
:1012700007E0D4E9012118F8010B9047206A401CCF
:101280002062381EA7F10107F3DC2046FFF72AFB96
:10129000032011B043E600002DE9F04F04460D464F
:1012A000D21D22F0070089B0D0E9009248461746C7
:1012B000394604F054FA0246F80F01D02D2307E016
:1012C0002068810701D52B2302E0202101EAC00319
:1012D0008DF820300BB1012000E00020032A824667
:1012E00001D0072A04DB2946204600F093FB3DE1AC
:1012F0002078800601D40D2500E0E569C7F30A5681
:101300000D2D49DA00214FEA175B08464FF0000027
:10131000002F00F4400007DA00EB80004FF440019A
:1013200000EBD07001EA60008115012901DD4FF06A
:10133000FF3100224FEA850CBCF1180F06D313468B
:10134000ACF118004FF08052C24003E04FF480131C
:1013500023FA0CF30CF10C0CBCF1200F04D3ACF10C
:10136000200C09FA0CF001E007FA0CF000294FF00C
:10137000004801DD18B90FE00ED140450CD319EB40
:1013800002095F4121B9404502D19F4329EA020980
:10139000BBEB175F00D0761C2088000502D57B4888
:1013A000784402E079487844193808AA302302F8D2
:1013B0000A30037C0AF10101002E0AF1020A53549B
:1013C0006A4602DC4FF0300101E04FF031014FF08E
:1013D00001088DF8001002D0A6F2FF3603E059EAAA
:1013E000470100D06A4E002D02DC2178090704D5A0
:1013F0004FF002082E218DF80110C44600210BE0A9
:10140000C7F303433F01C35C491C6D1E02F808305B
:10141000052908F1010801DA002DF1DC00210CE0BA
:1014200000EB1973491C1B786D1E082902F808305F
:101430004FEA091908F1010801DA002DF0DC2178E2
:10144000890602D514E0A8F10108E04505DD02EBAC
:10145000080111F8011C3029F5D0B8F1000F07DDA3
:1014600002EB080111F8011C2E2901D1A8F1010895
:10147000002D05DD3E2102F808106D1E08F101085F
:10148000407C002E02F8080008F1010804DA2D2043
:10149000764202F8080002E02B2002F808000A2138
:1014A0004FF47A70864208F101080BDB96FBF0F3EB
:1014B000303302F8083096FBF0F308F1010800FB26
:1014C000136601E0642E0CDB642096FBF0F33033EE
:1014D00002F8083096FBF0F308F1010800FB1366F0
:1014E00001E00A2E06DB96FBF1F0303002F808002E
:1014F00008F1010896FBF1F001FB1060303002F8B2
:101500000800A16908F1010808EB050202EB0A00D6
:10151000081AA0612078C00602D42046FFF7CCF953
:10152000216A08AE01EB0A00206204E0D4E901213F
:1015300016F8010B9047BAF1010AF7D22078C006DD
:1015400002D52046FFF7B8F96E4609E016F8010B00
:101550003E280FD0D4E901219047206A401C206228
:10156000B8F10108F2D22046FFF7BCF909B0032018
:10157000BDE8F08F206A2844206203E0D4E901210D
:10158000302090476D1EEBD3F8E70000EB560000CB
:1015900002FCFFFF10B5436913B1AFF3008001E017
:1015A000FFF7C3F9012010BD127800F124010A7081
:1015B00000224A700122EDE711684FF0FF32E9E79F
:1015C00010B5436913B1AFF3008001E0FFF774FA7F
:1015D000012010BD128800F1240182840022C284FF
:1015E0000122EDE711684FF0FF32E9E72DE9F34FF3
:1015F0004FF0000A0C4656468DB001200C9001F1C8
:101600000C000B9062690B980121904705002DD0CA
:10161000252D2CD0216A8847C0B162690B98012121
:101620009047216A88470028F7D16269411E0B98CC
:10163000904700E0761CA1690D988847216A884789
:101640000028F7D1E1690D988847DBE7A1690D987B
:101650008847A842074601D1761CD3E7E1690D9877
:1016600088477F1C02D1BAF1000F6FD06BE162692D
:101670000B9800273D46394690472A2804D16269D5
:101680000B98012190470125DFF8D08262690B9801
:1016900001219047A0F130010A290AD24745E5DC33
:1016A00007EB870100EB4107303FDFD445F0100521
:1016B000ECE7E90601D46FF000476C280AD04C280B
:1016C00014D0682815D06A280DD074281CD07A2828
:1016D0001AD01DE062690B98012190476C2802D056
:1016E00045F0040514E045F002050DE045F0200545
:1016F0000AE062690B9801219047682802D045F002
:10170000080505E045F4006562690B9801219047E2
:10171000C4E9015765283DD019DC58287AD00CDC83
:10172000452837D004DC252826D041289ED131E039
:1017300046282FD0472899D12CE05B2877D0612804
:1017400028D063287CD0642823D15AE0F6E06F28A3
:1017500048D008DC66281DD067281BD0692821D016
:101760006E2816D127E0702845D0732868D07528D8
:1017700047D078280DD14DE0A1690D9888472528DC
:1017800005463FF469AFE1690D9888476D1C3FF449
:101790006AAFD8E00D9923466A466FF00100AFF3B7
:1017A0000080C5E045F0400023464FF00002606035
:1017B000A80736D43EE0E8077FF447AF2068011D54
:1017C00021600068290501D506701BE7290701D5AE
:1017D000068017E7A90703D5F117C0E9006111E7F3
:1017E00006600FE745F0400023464FF008026060B6
:1017F000A80716D41EE040F60E0125EA010060603D
:1018000016E045F0400023464FF00A026060A8074A
:1018100007D40FE045F040006060A80708D52346D4
:1018200010220D996FF00100AFF3008080E007E017
:10183000102223460D996FF00100FEF705FF77E0B7
:101840004FF0000963284F46C8464B46CB4602D0AE
:101850005B2806D038E0E80601D40120A06001270B
:1018600032E06269D4F80CB00B98012190475E28F1
:1018700007D14FF0010949466269D4F80CB00B98C2
:101880009047216939B900210A4603AB43F821206A
:10189000491C0829FADBD8B3216949B308F10108CA
:1018A00062690B98012190475D28F4D1B9F1000FCE
:1018B00009D0002003A951F82020D24341F820206C
:1018C000401C0828F7DB03AB2069002820794FEA89
:1018D00040701ED05B462246CDF80080CDE90197CE
:1018E0000D9900286FF0010020DAAFF300801FE0AF
:1018F000C11703AA00EBD1614B1121F01F0102EBCC
:101900008302411A13680120884003431360C7E72C
:1019100019E00D99224600286FF00100009702DAC5
:10192000AFF3008004E0AFF3008001E0AFF300808C
:1019300000280ADA401C06D10C9820B14FF0FF3085
:101940000FB0BDE8F08F5046FAE7E90701D10AF180
:10195000010A064400200C9054E60000CCCCCC0CCC
:10196000007B00F08000704770B516460C460546B7
:1019700000F044F8036893F80101012806D0FF2C19
:101980000FD8185D68B101202C7070BDD3F8070125
:101990003246214603F2071303442846BDE870404F
:1019A00018474FF0FF3070BD00487047B826002040
:1019B0007546FFF7F9FFAE4605006946534620F02D
:1019C0000700854618B020B5FEF784FCBDE820402E
:1019D0004FF000064FF000074FF000084FF0000BEB
:1019E00021F00701AC46ACE8C009ACE8C009ACE89E
:1019F000C009ACE8C0098D467047000010B500F082
:101A000005F8001D10BD00BF294B000000487047BD
:101A1000D82600202DE9F0411F4604460326016820
:101A2000072A01F4006004DB08B116A505E016A53D
:101A300003E008B115A500E015A521F01000206015
:101A4000A069C01EA0610FB1401EA0612046FEF734
:101A500033FF4FB1D4E9012138469047206A401C3A
:101A60002062C01C206206E0206AFAE7D4E9012166
:101A700015F8010B9047761EF8D22046FEF732FF8C
:101A8000BDE8F0814E414E006E616E00494E460049
:101A9000696E66002DE9F047814616468AB03348E4
:101AA00078440DC88DE80D0030487844801C03ACA4
:101AB0000DC884E80D0041F69B300844372190FBA7
:101AC000F1F290FBF1F5A5F1800501FB12041B3C3E
:101AD00002D56442012000E00020DFF890A080469B
:101AE0000027FA44AAF1BE0A0DE0E00709D0324609
:101AF000684607EB47010AEB810100F004FB8DE823
:101B0000070064107F1C002CEFD1184F7F44AC3FBE
:101B100018E0E80714D007EB04100DF1180A90E85C
:101B20000E008AE80E00C068F04201D198190890B2
:101B3000324606A903A800F0E6FA03AB83E80700E3
:101B40006D10641C002DE4D132466946B8F1000FD7
:101B500003A802D000F0C3FA01E000F0D4FAC9E90A
:101B60000001C9F808200AB0BDE8F0877C500000E9
:101B70000446AFF300802046FEF797FB4FF0013C90
:101B800050F8042B51F8043B9A4221D1A2EB0C03EC
:101B9000934313EACC1317D150F8042B51F8043BAC
:101BA0009A4215D1A2EB0C03934313EACC130BD149
:101BB00050F8042B51F8043B9A4209D1A2EB0C03D4
:101BC000934313EACC13DBD04FF00000704700BF03
:101BD000D01A01BAB1FA81F101F0180122FA01F02C
:101BE000CB40C1F12001DBB2C0B2C01A2CFA01F324
:101BF000D11A914311EAC311E6D170475FEA400C54
:101C000008BF91F0000F4FEA8C234FEAC12243EA4C
:101C100051514FEA1C5018BF00F5F0404FEA300018
:101C200018BF41F000415FEA6C5C00F02980BCF114
:101C3000FF3F08BF40F080407047130C06BF1204FE
:101C40004FF0100C4FF0000C130E04BF12020CF1F9
:101C5000080C130F04BF12010CF1040C930F04BF06
:101C600092000CF1020CD30F04BF52000CF1010CD6
:101C700011464FF00002A0F11F00A0EB0C007047CE
:101C800011F0004F08BF704731F000413FF4D5AF6D
:101C90000B0C06BF09044FF0100C4FF0000C0B0E9C
:101CA00004BF09020CF1080C0B0F04BF09010CF171
:101CB000040C8B0F04BF89000CF1020CCB0F04BF86
:101CC00049000CF1010CCCF12003A0EB0C0022FA2E
:101CD00003F302FA0CF241EA030100F1010070473C
:101CE00020F07F4C80EA030023F07F47ACEB070332
:101CF00003F57C5300F0004003F1FF032DE9804918
:101D00004FEA154B09B44FEA144325EA0B4E24EA77
:101D100003480FF2042606EB132749083E785FEAD2
:101D2000320203FB0667C7F5000707FB06F64FEA1A
:101D300054374FEAD64606F1020607FB066CCCF193
:101D4000005C4FEA1C472CEA074C07FB06F40CFB2F
:101D500006F504EB15464FEA961634BF00204FF007
:101D600000404FEAD13706FB07FC4FEA1C4C0CFB46
:101D70000BF7D21B03FB0CF761EB07010CFB0EF713
:101D8000B0EB074072EB17420CFB08F734BFA2EB35
:101D90000742B2EB074261EB17414FEA0C444FEAAE
:101DA000910706FB07FC4FEA1C4C0CFB0BF7B0EB52
:101DB000C74072EB573203FB0CF734BFA2EBC742AC
:101DC000B2EBC74261EB57310CFB0EF7B0EBC7002B
:101DD00072EB57720CFB08F734BFA2EBC702B2EBF1
:101DE000C70261EB5771039F4FEA816141EA92118B
:101DF00004EBCC044FEAD1374FEA826206FB07FCC2
:101E000042EA90124FEA80604FEA1C4C0CFB0BF741
:101E1000D21B03FB0CF761EB07010CFB0EF7B0EBD9
:101E2000074072EB17420CFB08F734BFA2EB0742E6
:101E3000B2EB074261EB17414FEA8C554FEA91072D
:101E400004EB9C2406FB07FC4FEA1C4C0CFB0BF735
:101E5000B0EBC74072EB573203FB0CF734BFA2EB79
:101E6000C742B2EBC74261EB57310CFB0EF7B0EB48
:101E7000C70072EB57720CFB08F734BFA2EBC70226
:101E8000B2EBC70261EB577115EB4C254FEA81614C
:101E900041EA92114FEA82624FEAD13742EA901248
:101EA00006FB07FC44F100044FEA80604FEA1C4C3B
:101EB0000CFB0BF7D21B03FB0CF761EB07010CFBD0
:101EC0000EF7B0EB074072EB17420CFB08F734BF7C
:101ED000A2EB0742B2EB074261EB174115EB1C1571
:101EE0004FEA813141EA92414FEA823242EA90421E
:101EF0004FEA80304FEA0C7644F1000448EA03438D
:101F00004EEA0B484FF0000EB2EB080C71EB0307E2
:101F100024BF624639464EEB0E0E4FF0000B001800
:101F2000524149414BEB0B0BB2EB080C71EB030731
:101F30007BF1000B24BF624639464EEB0E0E4FF08C
:101F4000000B0018524149414BEB0B0BB2EB080C54
:101F500071EB03077BF1000B24BF624639464EEB61
:101F60000E0E51EA020718BF46F0010616EB0E7678
:101F700055F1000254F1000103D5BDE88901BDE827
:101F80000088BDE88901BDE80048B619524141EB1F
:101F90000101A3F10103704780807F7E7D7C7B7A05
:101FA0007978777676757473727171706F6E6E6D05
:101FB0006C6C6B6A6A6968686766666564646363AB
:101FC00062616160605F5F5E5E5D5D5C5C5B5B5A31
:101FD0005A5959585857575656555555545453539E
:101FE00052525251515050504F4F4F4E4E4D4D4DF9
:101FF0004C4C4C4B4B4B4A4A4A4949494848484744
:102000004747474646464545454444444443434381
:102010004342424242414141002B26D4770021D025
:102020001CB54FEA370703B44FF010004FF0100112
:102030004FF000000FBCBDE810400BF1010BBBF1ED
:10204000010F08BF5FEA170722BF12F1010211F169
:1020500001014FF0004143F1000300F0004043EA6A
:1020600000007047F9D35708DAE746EA064613F14D
:10207000400F4FEA16461FDD13F1200FDFBF164356
:102080000A46002120335B42C8D0C3F1200746EA4C
:10209000064602FA07F74FEA164646EA0706C3F174
:1020A000200722FA03F201FA07F721FA03F14FF0B1
:1020B000000342EA0702B1E746EA020646EA06469C
:1020C0004FEA164646EA0106BCBF46EA0646360C0B
:1020D0004FF000034FF000024FF000019EE72DE9A2
:1020E000C048934630B491E8380007C831EA400C44
:1020F00048BF34EA430C03D5FFF7F2FDFFF78CFF2E
:10210000F0BCBDE800882DE9C048934630B491E8A2
:10211000380007C810F0804F08BF13F0804F03D17C
:1021200000F005F8FFF778FFF0BCBDE8008820F06C
:102130007F4780EA030023F07F4C07EB0C03A3F5F5
:102140007C5300F00040A3F1FE0392F0000F00F07A
:10215000B38095F0000F00F077802DE901494FEA38
:1021600011404FEA144621EA004800FB06FC24EA2D
:10217000064708FB06F607FB08F800FB07F718EB15
:1021800006484CEB164C4FEA124B18EB07484FEA47
:1021900015464CEB174022EA0B4E0BFB06FC25EADA
:1021A00006470EFB06F607FB0EFE0BFB07F71EEBC2
:1021B000064E4CEB164C4FF000061EEB074E4CEB58
:1021C000174B18EB0B0840F1000018EB0E0B58EB07
:1021D000000840F100008F1A4FF000013CBFC943D6
:1021E000661B14BFB5EB040C00213CBFC943F61BB2
:1021F0004FEA17444EEA8E0E27EA04454FEA1C4781
:1022000004FB07622CEA074C05FB07F70CFB05F6FD
:1022100004FB0CFC16EB074642EB174216EB0C4690
:1022200042EB1C421BEB060658EB0202414146EA18
:102230009E0601D5BDE80189B619524141EB010165
:10224000A3F10103BDE801894FEA14454FEA1147A4
:1022500024EA054621EA074C05FB07F406FB07F7CD
:102260000CFB06F105FB0CFC11EB074144EB17449A
:102270004FEA124711EB0C4144EB1C4422EA074C95
:1022800005FB07F206FB07F70CFB06F605FB0CFC4B
:1022900016EB074642EB174216EB0C4642EB1C4589
:1022A0006A1854F1000148BF7047B619524141EB1A
:1022B0000101A3F10103704795F0000F37D04FEAF9
:1022C00011424FEA144721EA024624EA074C02FB76
:1022D00007F106FB07F70CFB06F402FB0CFC14EB02
:1022E000074441EB17414FEA154714EB0C4441EB0F
:1022F0001C4125EA074C02FB07F506FB07F70CFB20
:1023000006F602FB0CFC16EB074645EB174516EBF1
:102310000C4645EB1C42121951F1000148BF7047B1
:10232000B619524141EB0101A3F1010370474FEA95
:1023300014454FEA114724EA054621EA074C05FBFC
:1023400007F106FB07F70CFB06F24FF0000605FB52
:102350000CFC12EB074241EB174112EB0C4251EB24
:102360001C4148BF7047921841EB0101A3F10103E2
:10237000704700BFFEE710B50121402001F0A6FB29
:1023800010BD000001684FF6FE721140016000218F
:10239000016041608160C1604B49884208D14A496F
:1023A0000839496841F00F01474A083A51608AE00C
:1023B00045491431884208D143490839496841F0F8
:1023C000F001414A083A51607DE03F492831884296
:1023D00008D13D490839496841F470613A4A083AE0
:1023E000516070E038493C31884208D1364908399B
:1023F000496841F47041344A083A516063E0324917
:102400005031884208D130490839496841F4702177
:102410002D4A083A516056E02B496431884208D170
:1024200029490839496841F47001274A083A51603E
:1024300049E025497831884208D12349083949685B
:1024400041F07061204A083A51603CE01F498842DF
:1024500006D1011F096841F00F01021F116032E02F
:102460001A491431884208D11849091F096841F0F6
:10247000F001164A121F116025E0144928318842E4
:1024800008D11249091F096841F470610F4A121FEF
:10249000116018E00D493C31884208D10B49091FF1
:1024A000096841F47041094A121F11600BE00749A5
:1024B0005031884207D10549091F096841F470214C
:1024C000024A121F116070470800024008040240CF
:1024D00010B50022026847F6F0739A430C6A8B68C5
:1024E00023430C6923434C6923438C692343CC6900
:1024F00023434C6A23438C6A23431A430260CB680C
:1025000043600B6883604B68C36010BD7047000078
:1025100010B500F01FFB4FF4006000F049F8C8B19F
:102520004FF4006000F03EF81B48006800F4805053
:1025300028B11A480068401C1849086028E016486D
:10254000006800F4805018BB14480068401E13490E
:1025500008601DE04FF4005000F02AF8C0B14FF4BD
:10256000005000F01FF80C48006800F4804028B1CB
:102570000B480068401E0A49086009E006480068E8
:1025800000F4804020B906480068401C04490860F7
:1025900000F0F2FA10BD0000080C01409400002089
:1025A00090000020014908607047000014040140B9
:1025B000014600200022074B1B6803EA0102054B7D
:1025C00014331B680B4013B10AB1012000E0002056
:1025D0007047000000040140002123498279002A4D
:1025E0003AD00A46126803689A430B461A600A1DDD
:1025F000126803689A430B1D1A60027911440A6835
:1026000003681A430A60184A0832126803689A433A
:10261000154B08331A601A1D126803689A43124B4F
:102620000C331A604279102A0ED11A1F12680368FF
:102630001A430D4B08331A601A1D126803681A43B7
:10264000094B0C331A600DE00749427911440A68BE
:1026500003681A430A6005E0027911440A680368B6
:102660009A430A60704700000004014030B5002220
:102670008B071C0F0F2303FA04F20B4B8C1053F83B
:1026800024309343084C8D1044F8253023468C1099
:1026900053F824308C07240F00FA04F42343024C2F
:1026A0008D1044F8253030BD080001402DE9F0417F
:1026B000024600250026002000230024002791F870
:1026C00003C00CF00F0591F803C00CF0100CBCF126
:1026D000000F03D091F802C04CEA050591F800C044
:1026E000BCF1000F31D0146800202BE04FF0010C3A
:1026F0000CFA00F3B1F800C00CEA03069E4220D1A8
:1027000083004FF00F0C0CFA03F7BC4305FA03FCEF
:102710004CEA040491F803C0BCF1280F06D14FF035
:10272000010C0CFA00FCC2F814C00AE091F803C0D6
:10273000BCF1480F05D14FF0010C0CFA00FCC2F8B7
:1027400010C0401C0828D1D31460B1F800C0BCF1FF
:10275000FF0F34DD546800202EE000F1080C4FF02C
:10276000010808FA0CF3B1F800C00CEA03069E4217
:1027700021D183004FF00F0C0CFA03F7BC4305FA8C
:1027800003FC4CEA040491F803C0BCF1280F05D106
:1027900000F1080C08FA0CF8C2F8148091F803C094
:1027A000BCF1480F07D100F1080C4FF0010808FAFE
:1027B0000CF8C2F81080401C0828CED35460BDE845
:1027C000F0810000F0B50A46002300240021002516
:1027D00000F00046B6F1004F02D11D4EF16901E054
:1027E0001B4E7168C0F3034583B200F44016B6F582
:1027F000401F08D121F07061154E766826F0706692
:10280000134F7E6012E000F48016B6F5801F06D1EB
:10281000032606FA05F4A14341F0706106E0460D77
:10282000360103FA06F6B14341F0706122B1460D5C
:10283000360103FA06F6314300F00046B6F1004FC8
:1028400002D1034EF16101E0014E7160F0BD000064
:1028500000000140416170470161704700BFFEE721
:102860004CF6CC4001490860704700000030004041
:1028700010B500F013F810BD70B505460C4645F2D2
:10288000555000F01FF8284600F010F8204600F0E0
:1028900013F800F003F8FFF7E3FF70BD4AF6AA2033
:1028A000014908607047000000300040014948605D
:1028B0007047000000300040014988607047000008
:1028C00000300040014908607047000000300040BF
:1028D00008B50121092001F029F91820ADF8000000
:1028E00010208DF8030002208DF80200694606488A
:1028F000FFF7DCFE18210448FFF7AEFF0121034873
:10290000FFF760FF08BD0000000C0140000230002E
:1029100008B500200E490880488000F081F80121A8
:10292000092001F003F94FF47070ADF80000102099
:102930008DF8030003208DF8020069460548FFF773
:10294000B5FE4FF470710348FFF784FF08BD000027
:1029500056010020000C014010B5C0210148FFF7CE
:102960007BFF10BD000C014010B580210348FFF72C
:1029700073FF40210148FFF76DFF10BD000C0140BF
:1029800010B540210348FFF767FF80210148FFF79A
:1029900061FF10BD000C014040F6B731884201D9FB
:1029A000084601E000B90020014A1080704700008D
:1029B000342C014010B54FF440710248FFF74CFF32
:1029C00010BD0000000C014010B54FF480710448A8
:1029D000FFF742FF4FF400710148FFF73BFF10BDC6
:1029E000000C014010B54FF400710448FFF734FFAC
:1029F0004FF480710148FFF72DFF10BD000C01401E
:102A000040F6B731884201D9084601E000B90020FC
:102A1000014A108070470000402C014000BFFEE7D3
:102A200010B502F03FFC02F0DFFB10BD704710B59F
:102A30004FF4A06000F03AF810BD000070B500211E
:102A400000230F22C47804B3154C246804F4E06416
:102A5000C4F5E064210AC1F10403CA40447804FAD1
:102A600003F184781440214309010E4C0678A155E6
:102A7000047804F01F050124AC4005786D11AD0009
:102A800005F1E025C5F8004109E0047804F01F05D0
:102A90000124AC40044D0678761145F8264070BDFF
:102AA0000CED00E000E400E080E100E002490143B9
:102AB000024A1160704700000000FA050CED00E0CA
:102AC0002DE9F04105460E461446002711480078CE
:102AD00018B112202070BDE8F0812878012808D0B4
:102AE000022807D0032802D0042804D100E000BF48
:102AF00000BF00BF02E001202070ECE700BFFDF73F
:102B0000FBFB07462E613846FDF7FAFB00202070DC
:102B100000BFE0E78D01002010B500F013F800F0D1
:102B2000CBFD00F0F3FD00F013FE00F095FD00F08A
:102B300063FE00F03FFE00F049FE00F0ABFB00F04A
:102B400007F810BD0020014908807047D00100201F
:102B50007047000006480078012808D10548007831
:102B6000FF2804D203480078401C024908707047CF
:102B7000950100208D01002010B500241748007831
:102B8000012829D1FDF7B8FB04461548007820B18B
:102B900013480078401E1249087011480078C0B9E7
:102BA00010480078A8B900F083FE0F480F49097853
:102BB00050F821000E4908600C4800780D4909784A
:102BC000884206D00C480068401C0B490860FDF79D
:102BD000B2FB2046FDF794FB10BD000095010020DC
:102BE0008D0100208E010020842100209001002012
:102BF000A40100208F0100207801002010B50024DE
:102C00000B480078012811D1FDF776FB04460948EE
:102C1000007840B908480078FF2804D206480078B8
:102C2000401C054908702046FDF76AFB10BD0000F6
:102C3000950100208D0100208E01002010B5002498
:102C400013480078012821D1FDF756FB04461148AE
:102C50000078C0B10F480078401E0E490870084641
:102C6000007860B90C48007828B92046FDF748FB89
:102C700000F0EAFD0AE02046FDF742FB06E02046B0
:102C8000FDF73EFB02E02046FDF73AFB10BD0000D9
:102C9000950100208E0100208D01002070B50546B1
:102CA00000261048007808B1002070BDFDF724FB15
:102CB00006460D480468006820B10B48006840686B
:102CC000094908603046FDF71BFB4CB1032020701A
:102CD00025810020606005A02061204600F0AEFC48
:102CE0002046E2E78D0100207C0100203F0000002B
:102CF0002DE9F04105460E461446002728780328A2
:102D000003D001202070BDE8F0812F48007810B179
:102D100002202070F7E72D48007810B10D202070B8
:102D2000F1E7FDF7E9FA0746288940B12889401EF6
:102D300028813846FDF7E4FA00202070E3E72448B4
:102D40000068007F40F001002149096808770020F1
:102D50001F49096848771E4800688661284600F0C8
:102D60002FFC3846FDF7CCFA00F06EFDFDF7C4FAF3
:102D7000074617480068407F20B1012809D0022883
:102D800006D102E0002020700BE00E20207008E049
:102D900000BF29460E48006800F0E0FB0A202070C2
:102DA00000BF00BF00200A49096808770849096880
:102DB000487707490968C8600549096808613846C5
:102DC000FDF79EFA00BF9EE78D0100208E010020D6
:102DD0009C01002070B5044600252078032801D00E
:102DE000012070BDFDF788FA0546A07A60B1002386
:102DF00001221946204600F06BFB2846FDF780FAB9
:102E000000F022FD0020ECE720894FF6FF71884298
:102E100007D22089401C20812846FDF771FA002046
:102E2000DFE72846FDF76CFA3320DAE710B50B48E8
:102E3000007890B900F03CFD094800780949087015
:102E400009480749097850F82100084908600846F0
:102E5000006807490860FDF756FA10BD950100208B
:102E6000900100208F01002084210020A401002077
:102E70009C01002010B50024022000F015F9FDF798
:102E80003BFA044600200B4908602046FDF738FA5B
:102E9000142000F009F9FDF72FFA044605480068F0
:102EA000054908600120054908702046FDF728FA09
:102EB00010BD000098010020840100208C0100203A
:102EC000704700002DE9FE4F06460F4690461C460F
:102ED0004FF00009FDF710FA81461F48007828B12D
:102EE0004846FDF70DFA3C20BDE8FE8F1B4850F820
:102EF000240060BB0120194941F824004846FDF731
:102F0000FFF9002342463946304600F02EF882464B
:102F10000020009001900346024651460290204650
:102F200000F0DCFC054635B90D48007801280CD1CD
:102F300000F08AFC09E0FDF7DFF98146002007492F
:102F400041F824004846FDF7DBF92846CCE748461F
:102F5000FDF7D6F92820C7E78D0100208421002045
:102F60009501002070477047704770B504461046C1
:102F70004FF080750560051F28462C606FF0010634
:102F8000051F28462E604FF01236051F28462E607A
:102F90004FF00336051F28462E604FF00236051FFE
:102FA00028462E607610051F28462E60051F2846ED
:102FB00029604FF01136051F28462E604FF010365D
:102FC000051F28462E604FF00936051F28462E6043
:102FD0004FF00836051F28462E604FF00736051FB4
:102FE00028462E604FF00636051F28462E604FF00B
:102FF0000536051F28462E604FF00436051F28466B
:103000002E6070BD2DE9F04105464FF00008FDF738
:1030100073F98046FF2D04D11E480068857F012684
:1030200007E01C480068807FA84201D1012600E02B
:103030000026194850F825402CB94046FDF760F9A4
:103040004820BDE8F081012C04D14046FDF758F935
:103050004320F6E794F820701048C05D94F82110E2
:1030600088430E49C8550846C05D30B994F822100F
:103070000B48007888430A490870207F40F0080018
:1030800020774046FDF73CF9012E01D100F0DCFB32
:103090000020D6E79C01002084210020920100201E
:1030A000910100207047000070B5054600261748C2
:1030B000007800B170BD1648007800B1FAE71DB382
:1030C000FDF71AF906461348006890F820401248A8
:1030D000005D1049096891F8211088430E49085590
:1030E0000846005D40B90B48006890F822100B4874
:1030F00000788843094908700648006885613046B1
:10310000FDF7FEF800F0A0FB00BFD3E78D01002023
:103110008E0100209C0100209201002091010020DE
:103120002DE9F04104460D4616461F461248007828
:1031300010B15520BDE8F0811048007808B1322068
:10314000F8E7B81CC82148434FF47A71B0FBF1F19D
:103150004FF461606043C5EB051200EB8200304420
:1031600000EBC00202EB001001EBC0084046FFF785
:103170009BFF0020DEE700008D0100208E01002073
:1031800070B5002600F06CF8FDF7B6F806462E483C
:103190000068401C2C4908603046FDF7B1F82B4808
:1031A000007801284DD12A48007820B1012804D0A8
:1031B000022809D103E001250BE0002509E00125E3
:1031C00001202349087004E00125002020490870EF
:1031D00000BF00BF05B970BD1E4804682EE0FDF7B2
:1031E0008BF80646A06928B3A069401EA061A069BB
:1031F00000BB207F00F0370030B1207F00F0C80016
:1032000020770120607701E000206077207F00F0C8
:10321000080078B92034A0780F49097808430E498E
:10322000087020780D49085C6178084314F820196B
:103230000A4A505464683046FDF762F8A07F1428AB
:10324000CDD100BFC7E70000B401002095010020E8
:10325000AC010020A8010020910100209201002073
:1032600010B506480088401C0449088008460088BC
:1032700018B10020088000F003F810BDD001002034
:1032800010B503480068FFF7A5FD0446204610BDB1
:10329000C4010020F8B57821284800F0A3FA4021A5
:1032A000274800F09FFA002514E0681C86B205EB61
:1032B0008500224901EBC00406EB860001EBC00744
:1032C00064202070002084F82500E7601DA02062A3
:1032D000681C85B2022DE8D305EB8500174901EB88
:1032E000C00464202070002084F82500E06015A050
:1032F0002062002014490860144908800320144902
:1033000008800E48134908600120FFF7C7FC1249E6
:1033100008600020FFF7C2FC104908606A4610A14F
:103320000D480068FFF7CCFB6A4612A10B48006805
:10333000FFF7C6FB00F028F8F8BD000000240020CD
:10334000782600203F000000BC010020BA010020C8
:10335000B8010020C8010020C0010020C4010020E5
:1033600075432F4F532D494920546D724C6F636B39
:103370000000000075432F4F532D494920546D72B2
:103380005369676E616C000010B50023024A19464C
:103390000248FFF797FD10BD742600200D34000889
:1033A00070B50B46032580F82550012B05D1154E2D
:1033B000C5693668354445610CE085692DB9114E03
:1033C000C56936683544456104E00E4E8569366846
:1033D00035444561057D05F007040B4D05EBC4013F
:1033E0000D682DB908600025C56001258D8006E0B7
:1033F0000A680860C26010618D886D1C8D80002590
:10340000056170BDBC0100207826002008B500BF12
:1034100000BF6A4600211A480068FFF769FCFFF701
:10342000EDFB18480068401C164908600846007803
:1034300000F00708144800EBC8073C681AE0E6688B
:10344000104960690968884213D1204600F01EF8CF
:1034500094F82400022804D101212046FFF7A0FFA0
:1034600002E0022084F82500656815B12046A168B5
:10347000A8473446002CE2D1FFF7E0FBC9E7000083
:10348000C4010020BC0100207826002030B5057D55
:1034900005F007040D4D05EBC4031D68854205D1F9
:1034A000C168196039B100250D6104E00169C26885
:1034B000CA6002B11161012580F825500025C56060
:1034C00005619D886D1E9D8030BD0000782600201E
:1034D0002DE9F04F05460F4690469946A87A1B49BC
:1034E0000E5C05F10B00805D11F800B00BEBC6001F
:1034F00000F0FF0A164850F82A400020A0616761DA
:10350000207F20EA0800207784F81D90207F00F0BB
:10351000080068B994F822000E49097808430D495B
:1035200008700D48805D94F8211008430A498855B9
:103530002946204600F012F8206920B12046216972
:1035400000F021F8E5605046BDE8F08F3A690008C8
:1035500084210020910100209201002010B590F8F4
:10356000202001F10B039B5C90F82140A34301F163
:103570000B04A35423469B5C23B98B7A90F822401A
:10358000A3438B7210BDF0B5024612F8204F957818
:103590005678203A0B4618680FE000F10B073F5DA4
:1035A000B74300F10B0C0CF8047067463F5D17B988
:1035B000877AAF4387721B1D18680028EDD1F0BDD4
:1035C00010B51B4A1268D060194A126892F8203070
:1035D00000F10B02D25C164B1B6893F821301A43A2
:1035E000134B1B6893F8204000F10B031A55827AA5
:1035F0000F4B1B6893F822301A4382720C4A1268F0
:1036000092F820100B4A525C094B1B6893F821304A
:103610009A43084B5A541A46525C42B9044A1268FB
:1036200092F82230044A12789A43034B1A7010BD64
:103630009C010020920100209101002001460022FF
:103640008A72002005E0002301F10B021354421C92
:10365000D0B20328F7D3704770B56421134800F047
:10366000C1F8002411E0601C85B204EB84000F490E
:1036700001EB800305EB850001EB8006002018704C
:103680005E600BA01861601C84B2042CEBD304EBC9
:103690008400064901EB800300201870586004A0E4
:1036A000186108460349086070BD0000201D002015
:1036B0003F0000007C01002000200A4908600A4900
:1036C00008700A4908700A4908700A4908700A49CE
:1036D00008600A4908600A4908600A4908600A49FE
:1036E00008707047B40100208D0100208E01002079
:1036F000960100209501002078010020980100200B
:1037000088010020840100208C01002000210A4A49
:103710001170002004E00021084A1154411CC8B275
:103720000328F8D30021064A1170064A1170064A90
:103730001160064A1160704791010020920100203B
:103740008F01002090010020A40100209C01002096
:1037500070B54FF4D871134800F044F85421124862
:1037600000F040F800230DE0581CC5B203EBC30085
:103770000C4901EB800405EBC50001EB8006666097
:10378000581CC3B20B2BEFD303EBC300054901EB6D
:103790008004002060600549086002480449086010
:1037A00070BD0000D821002084210020A801002045
:1037B000A001002010B51423024A00210248FFF79F
:1037C00081FB10BD80210020D939000810B51323DA
:1037D000024A00210248FFF775FB10BD801F002040
:1037E000013A000804E0002200F8012B4A1E91B2C1
:1037F0000029F8D1704700002DE9F04178211048E8
:10380000FFF7F0FF00240DE0601C86B204EB4400DB
:103810000B4901EBC00506EB460001EBC0072F602A
:10382000601C84B2042CEFD304EB4400044901EB88
:10383000C00500202860084602490860BDE8F08104
:1038400088230020B001002010B50024FCF754FDAF
:10385000044610480078C0B90F480078A8B900F0B5
:1038600027F80E480E49097850F821000D490860E4
:103870000B4800780C490978884206D00B4800684C
:10388000401C0A490860FCF74FFD2046FCF738FD54
:1038900010BD00008D0100208E0100208421002039
:1038A00090010020A40100208F0100207801002059
:1038B0000649074A1278885C0649095C034A515C4C
:1038C00001EBC001044A1170704700003A6900081A
:1038D0009101002092010020900100202DE9F84F75
:1038E00005460E4617469846DDE90BABDDF82890F5
:1038F00000200090FCF700FD009031480468002C87
:1039000058D054F8040F2E4908600098FCF7F8FCD2
:1039100044F8046CA576002020766076606100BFD4
:1039200000BF00BF00BF00BFE810207705F0070010
:10393000E076217F01208840A077E17E0120884049
:1039400060770020A060E0602061241F2046FFF720
:10395000B7FA2046FFF706FBFCF7CEFC00901948AB
:1039600040F825401848006860600020A0601648B4
:10397000006810B114480068846013480460203463
:10398000A078124909780843104908702078104936
:10399000085C6178084314F820190D4A50540D480A
:1039A0000078401C0B4908700098FCF7A9FC002027
:1039B000BDE8F88F0098FCF7A3FC4220F8E7000070
:1039C000A001002084210020A801002091010020F6
:1039D0009201002096010020002400BF00BFFCF7E8
:1039E0008BFC044605480068401C044908602046DA
:1039F000FCF786FCFFF7B7FAF1E70000980100201A
:103A0000002400BF02E02820FFF74EFB1848007892
:103A10000028F8D0174800686421B0FBF1F0154980
:103A200008600846006828B9002013490870FF2084
:103A3000FFF7E8FA00BFFCF75FFC04460F48006898
:103A40000F49086000200D4908602046FCF758FC2B
:103A50000B48006807490968B0FBF1F0C0F1640049
:103A600005490870FFF780FA1420FFF71DFBE2E715
:103A70008C0100208401002080010020980100209A
:103A80008801002008B50121082000F04FF84FF40C
:103A90006040ADF8000010208DF8030003208DF881
:103AA000020069460848FEF701FE4FF48050ADF869
:103AB000000028208DF8030003208DF802006946DD
:103AC0000148FEF7F3FD08BD000C014029B1064A8C
:103AD00052690243044B5A6104E0034A526982432B
:103AE000014B5A61704700000010024029B1064A9C
:103AF000D2690243044BDA6104E0034AD26982438B
:103B0000014BDA61704700000010024029B1064AFB
:103B100012690243044B1A6104E0034A12698243AA
:103B2000014B1A61704700000010024029B1064A9B
:103B300092690243044B9A6104E0034A926982430A
:103B4000014B9A61704700000010024029B1064AFB
:103B5000D2680243044BDA6004E0034AD26882432D
:103B6000014BDA60704700000010024030B50021C0
:103B70000022002400232D4D6D6805F00C0121B1B9
:103B8000042905D0082923D105E0294D056022E04C
:103B9000274D05601FE0254D6D6805F47012234D1B
:103BA0006D6805F48034022505EB92421CB9214D65
:103BB000554305600BE01D4D6D6805F400351DB1E2
:103BC0001C4D5543056002E0194D5543056002E068
:103BD000174D056000BF00BF144D6D6805F0F00182
:103BE0000909154D6B5C0568DD4045600F4D6D683A
:103BF00005F4E061090A104D6B5C4568DD408560A5
:103C00000A4D6D6805F46051C90A0B4D6B5C45683F
:103C1000DD40C560054D6D6805F44041890B074DD9
:103C20006B5CC568B5FBF3F5056130BD0010024063
:103C300000127A0000093D00640100207401002098
:103C400010B547214FF6FF7000F0E8F947214FF615
:103C5000FF7000F0B3FB10BD704710B500F002F824
:103C600010BD00000CB500200190009033480068A2
:103C700040F480303149086000BF3048006800F4EB
:103C8000003000900198401C0190009818B90198EC
:103C9000B0F5A06FF1D12948006800F4003010B1F0
:103CA0000120009001E0002000900098012843D1FD
:103CB0002348006840F01000214908600846006869
:103CC00020F0030008600846006840F00200086029
:103CD0001A484068194948600846406848600846E4
:103CE000406840F4806048600846406820F47C10DA
:103CF00048600846406840F4E8104860084600689C
:103D000040F08070086000BF0C48006800F0007050
:103D10000028F9D00948406820F0030007494860AE
:103D20000846406840F00200486000BF0348406811
:103D300000F00C000828F9D10CBD00000010024072
:103D400000200240042808D14FF0E021096941F029
:103D500004014FF0E022116107E04FF0E021096912
:103D600021F004014FF0E0221161704710B5FEF719
:103D7000F1FEFFF705FAFEF7FFFE10BD10B5134880
:103D8000006840F001001149086008464068104989
:103D900008400E494860084600680E4908400B4933
:103DA00008600846006820F48020086008464068E3
:103DB00020F4FE0048604FF41F008860FFF74DFFBD
:103DC0004FF000600449086010BD00000010024080
:103DD0000000FFF8FFFFF6FE08ED00E0F0B50C462E
:103DE000154600220021068C4FF6FE773E400684E1
:103DF000028B018C4FF60C7632407E1C06EA0316CD
:103E00002E433243104EB0420ED0104EB0420BD073
:103E1000B0F1804F08D00E4EB04205D00D4EB042EA
:103E200002D00D4EB04206D14FF6FD76314044F03F
:103E30000106314305E04FF6F576314044F00106C6
:103E4000314302830184F0BD002C01400034014065
:103E50000004004000080040000C0040F0B50C4693
:103E60001546002200210026078C4FF6EF7C07EA5A
:103E70000C070784028B018C4FF6FF7707EA0416C4
:103E800040F6FF473A404FF6FF7707EA03373A43D9
:103E90004FF6FF7707EA05273A43114FB8420ED095
:103EA000104FB8420BD0B0F1804F08D00E4FB8423F
:103EB00005D00E4FB84202D00D4FB84206D14FF692
:103EC000DF77394046F01007394305E04FF65F775A
:103ED000394044F01007394302830184F0BD0000EB
:103EE000002C014000340140000400400008004064
:103EF000000C0040F0B50C461546002200210026BB
:103F0000078C4FF6FF6C07EA0C070784828B018C45
:103F10004FF6FF7707EA04264FF60C773A404FF644
:103F2000FF7707EA03172F433A43114FB8420ED0E9
:103F3000104FB8420BD0B0F1804F08D00E4FB842AE
:103F400005D00E4FB84202D00D4FB84206D14FF601
:103F5000FF57394046F48077394305E04FF2FF5769
:103F6000394044F48077394382830184F0BD0000F6
:103F7000002C0140003401400004004000080040D3
:103F8000000C0040F0B50C4615460022002100262A
:103F9000078C4EF6FF7C07EA0C070784828B018CA6
:103FA0004FF6FF7707EA043640F6FF473A404FF6F0
:103FB000FF7707EA05273A434FF6FF7707EA03370B
:103FC0003A43114FB8420ED0104FB8420BD0B0F167
:103FD000804F08D00E4FB84205D00E4FB84202D0E5
:103FE0000D4FB84206D14DF6FF77394046F4805761
:103FF000394305E047F6FF57394044F480573943C9
:1040000082830184F0BD0000002C01400034014097
:104010000004004000080040000C004030B585B0AE
:1040200005460C4601210846FFF760FD01210420EA
:10403000FFF77CFD0F20ADF8100028208DF813004D
:1040400004A93248FEF732FB0F213048FEF702FC8C
:10405000ADF80850ADF804400020ADF80A00ADF806
:10406000060001A94FF0804001F06CF800202849BB
:1040700008804880012088800020C88008814FF097
:10408000804000F04BFE0420214908800020488039
:10409000012088800020C88008814FF0804000F017
:1040A0003DFE08201A4908800020488001208880B1
:1040B0000020C88008814FF0804000F02FFE0C20C7
:1040C0001349088000204880012088800020C88093
:1040D00008814FF0804000F021FE1C208DF8000088
:1040E00000208DF801008DF8020001208DF80300FA
:1040F0006846FEF7A3FC01221E21900700F064FE33
:104100000121880700F0D1FD05B030BD0008014055
:10411000681B002010B5FEF71DFD9748007800F0E1
:104120008000002845D10221480700F0E6FD002864
:104130003FD00221480700F0B5FD8F48007800F01D
:10414000400030B34FF0804000F0CAFD8B4908803A
:10415000084600888A490988884204DA4FF6FF70C9
:104160008849086002E0002086490860834800888A
:1041700083490988401A834909880844824908808C
:1041800000207D49087000214FF0804000F072FE51
:104190000FE04FF0804000F0A3FD79490880764899
:1041A000007840F04000744908700221480700F090
:1041B00061FE7648007800F08000002844D1042198
:1041C000080700F09AFD70B30421080700F06AFDAB
:1041D0006E48007800F0400030B34FF0804000F0AF
:1041E00082FD6B490880084600886A490988884230
:1041F00004DA4FF6FF706849086002E00020664963
:1042000008606348008863490988401A6249098840
:1042100008445D49488000205C49087000214FF047
:10422000804000F08BFE0FE04FF0804000F05BFD1F
:10423000584908805548007840F0400053490870BC
:104240000221480700F07AFE5448007800F0800010
:10425000002844D10821C80600F04FFD70B30821A2
:10426000C80600F01FFD4D48007800F0400030B354
:104270004FF0804000F03AFD494908800846008828
:1042800048490988884204DA4FF6FF7046490860B9
:1042900002E00020444908604148008841490988FB
:1042A000401A4149098808443749888000203B4921
:1042B000087000214FF0804000F0AAFE0FE04FF0A0
:1042C000804000F013FD374908803448007840F002
:1042D0004000324908700221480700F099FE334837
:1042E000007800F0800098BB1021880600F005FDE2
:1042F00070B31021880600F0D5FC2C48007800F03F
:10430000400030B34FF0804000F0F3FC28490880B3
:104310000846008827490988884204DA4FF6FF706A
:104320002549086002E000202349086020480088F1
:1043300020490988401A2049098808441249C88040
:1043400000201A49087000214FF0804000F0B4FEB0
:104350000FE04FF0804000F0CCFC16490880134875
:10436000007840F04000114908700221480700F031
:10437000A3FEFEF701FC10BDC4000020C800002011
:10438000C6000020B4000020481B0020CA00002006
:10439000CE000020CC000020B8000020D00000207B
:1043A000D4000020D2000020BC000020D600002055
:1043B000DA000020D8000020C000002030B585B011
:1043C00005460C4601210220FFF790FB01210C203D
:1043D000FFF7ACFBC020ADF8100028208DF81300CB
:1043E00004A93748FEF762F9C0213548FEF732FAD2
:1043F0000320ADF8100028208DF8130004A93148DF
:10440000FEF754F903212F48FEF724FAADF80850BF
:10441000ADF804400020ADF80A00ADF8060001A98F
:10442000294800F08FFE002028490880488001209C
:1044300088800020C8800881234800F06FFC042099
:104440002249088000204880012088800020C88000
:1044500008811D4800F062FC08201C4908800020EB
:104460004880012088800020C8800881164800F01C
:1044700055FC0C20154908800020488001208880C8
:104480000020C8800881104800F048FC1D208DF8ED
:10449000000000208DF801008DF8020001208DF849
:1044A00003006846FEF7CAFA01221E21064800F002
:1044B0008BFC0121044800F0F8FB05B030BD000082
:1044C00000080140000C014000040040721B002065
:1044D00010B5FEF73FFB9148007800F080000028FF
:1044E00042D102218E4800F008FC00283CD0022175
:1044F0008B4800F0D7FB8948007800F0400020B3DB
:10450000874800F0EDFB8749088008460088864907
:104510000988884204DA4FF6FF708449086002E097
:104520000020824908607F4800887F490988401A36
:104530007E49098808447E4908810020774908702F
:104540000021774800F096FC0EE0754800F0C8FBAB
:10455000754908807148007840F040006F49087044
:1045600002216F4800F086FC7248007800F080005D
:10457000002841D104216A4800F0BFFB60B3042148
:10458000674800F08FFB6B48007800F0400020B3D4
:10459000634800F0A8FB684908800846008867491E
:1045A0000988884204DA4FF6FF706549086002E026
:1045B0000020634908606048008860490988401A03
:1045C0005F49098808445A494881002059490870C0
:1045D0000021534800F0B2FC0EE0514800F083FB8C
:1045E000564908805348007840F04000514908700F
:1045F00002214B4800F0A2FC5248007800F08000F5
:10460000002841D10821464800F077FB60B308211B
:10461000434800F047FB4B48007800F0400020B3CF
:104620003F4800F063FB4849088008460088474936
:104630000988884204DA4FF6FF704549086002E0B5
:104640000020434908604048008840490988401AD2
:104650003F49098808443649888100203949087053
:1046600000212F4800F0D4FC0EE02D4800F03EFB66
:10467000364908803348007840F0400031490870DE
:104680000221274800F0C4FC3248007800F0800086
:1046900088BB1021224800F030FB60B31021204875
:1046A00000F000FB2B48007800F0400020B31C48CD
:1046B00000F01FFB28490880084600882749098820
:1046C000884204DA4FF6FF702549086002E00020B6
:1046D000234908602048008820490988401A204959
:1046E000098808441249C88100201A49087000212D
:1046F0000B4800F0E1FC0EE0094800F0FAFA174917
:1047000008801448007840F04000124908700221E7
:10471000034800F0D1FCFEF72FFA10BDEC0000209A
:1047200000040040F0000020EE000020DC0000202B
:10473000481B0020F2000020F6000020F4000020BA
:10474000E0000020F8000020FC000020FA0000201B
:10475000E4000020FE0000200201002000010020F3
:10476000E800002010B5FEF7F5F99148007800F058
:104770008000002842D102218E4800F0BEFA0028B5
:104780003CD002218B4800F08DFA8948007800F077
:10479000400020B3874800F0A3FA87490880084604
:1047A000008886490988884204DA4FF6FF708449F8
:1047B000086002E00020824908607F4800887F4945
:1047C0000988401A7E49098808447E4908820020E9
:1047D000774908700021774800F04CFB0EE07548DF
:1047E00000F07EFA754908807148007840F040007A
:1047F0006F49087002216F4800F03CFB7248007856
:1048000000F08000002841D104216A4800F075FAC8
:1048100060B30421674800F045FA6B48007800F067
:10482000400020B3634800F05EFA684908800846FB
:10483000008867490988884204DA4FF6FF706549A5
:10484000086002E000206349086060480088604911
:104850000988401A5F49098808445A49488200205B
:10486000594908700021534800F068FB0EE0514898
:1048700000F039FA564908805348007840F040006B
:104880005149087002214B4800F058FB524800780B
:1048900000F08000002841D10821464800F02DFAA0
:1048A00060B30821434800F0FDF94B48007800F060
:1048B000400020B33F4800F019FA484908800846F4
:1048C000008847490988884204DA4FF6FF70454955
:1048D000086002E0002043490860404800884049E1
:1048E0000988401A3F4909880844364988820020CF
:1048F0003949087000212F4800F08AFB0EE02D484E
:1049000000F0F4F9364908803348007840F0400060
:10491000314908700221274800F07AFB32480078BC
:1049200000F0800088BB1021224800F0E6F960B357
:104930001021204800F0B6F92B48007800F0400024
:1049400020B31C4800F0D5F92849088008460088A3
:1049500027490988884204DA4FF6FF702549086024
:1049600002E0002023490860204800882049098887
:10497000401A2049098808441249C88200201A496F
:10498000087000210B4800F097FB0EE0094800F08A
:10499000B0F9174908801448007840F040001249E7
:1049A00008700221034800F087FBFEF7E5F810BD10
:1049B000140100200008004018010020160100200A
:1049C00004010020481B00201A0100201E010020C5
:1049D0001C010020080100202001002024010020EB
:1049E000220100200C010020260100202A010020C5
:1049F000280100201001002010B5FEF7ABF8914807
:104A0000007800F08000002842D102218E4800F09A
:104A100074F900283CD002218B4800F043F9894802
:104A2000007800F0400020B3874800F059F987492A
:104A300008800846008886490988884204DA4FF6CB
:104A4000FF708449086002E00020824908607F48C6
:104A500000887F490988401A7E49098808447E49B0
:104A600008830020774908700021774800F002FA97
:104A70000EE0754800F034F97549088071480078F7
:104A800040F040006F49087002216F4800F0F2F9D1
:104A90007248007800F08000002841D104216A4863
:104AA00000F02BF960B30421674800F0FBF86B4875
:104AB000007800F0400020B3634800F014F9684922
:104AC00008800846008867490988884204DA4FF65A
:104AD000FF706549086002E0002063490860604893
:104AE000008860490988401A5F49098808445A4982
:104AF00048830020594908700021534800F01EFAED
:104B00000EE0514800F0EFF856490880534800780D
:104B100040F040005149087002214B4800F00EFA65
:104B20005248007800F08000002841D10821464812
:104B300000F0E3F860B30821434800F0B3F84B48B5
:104B4000007800F0400020B33F4800F0CFF848491B
:104B500008800846008847490988884204DA4FF6E9
:104B6000FF704549086002E0002043490860404862
:104B7000008840490988401A3F4909880844364955
:104B8000888300203949087000212F4800F040FA3E
:104B90000EE02D4800F0AAF8364908803348007826
:104BA00040F04000314908700221274800F030FAF7
:104BB0003248007800F0800088BB1021224800F0C5
:104BC0009CF860B31021204800F06CF82B48007866
:104BD00000F0400020B31C4800F08BF82849088002
:104BE0000846008827490988884204DA4FF6FF7092
:104BF0002549086002E00020234908602048008819
:104C000020490988401A2049098808441249C88364
:104C100000201A49087000210B4800F04DFA0EE000
:104C2000094800F066F8174908801448007840F0F9
:104C30004000124908700221034800F03DFAFDF7D8
:104C40009BFF10BD3C010020000C004040010020F3
:104C50003E0100202C010020481B002042010020C2
:104C600046010020440100203001002048010020BE
:104C70004C0100204A010020340100204E01002098
:104C800052010020500100203801002021B102888B
:104C900042F08002028004E002884FF67F731A40DF
:104CA00002807047CA430282704721B1028842F0F5
:104CB0000102028004E002884FF6FE731A4002806F
:104CC000704731B1B0F8442042F40042A0F84420CB
:104CD00005E0B0F84420C2F30E02A0F8442070476B
:104CE0000146888E70470146088F70470146888FBD
:104CF00070470146B1F84000704730B502460020C9
:104D000000230024158A05EA0103958905EA0104B8
:104D100013B10CB1012000E0002030BD70B5054694
:104D20000C46244885420ED0234885420BD0B5F16D
:104D3000804F08D02148854205D02148854202D0C5
:104D40002048854200D100E000BF208850B9238967
:104D5000A28861882846FFF741F8E188284600F0DC
:104D6000C5F925E0208804280AD12389A288618812
:104D70002846FFF773F8E188284600F0C0F917E0ED
:104D8000208808280AD12389A28861882846FFF74D
:104D9000B1F8E188284600F0BFF909E02389A2882C
:104DA00061882846FFF7EEF8E188284600F0BDF953
:104DB00070BD0000002C01400034014000040040A0
:104DC00000080040000C00401AB183890B43838126
:104DD00002E083898B4383817047000070B5002413
:104DE00000220023058C4FF6FE7635400584028CA8
:104DF0008388048B4FF68F752C40B51E2C400D8890
:104E00002C43751E2A400D892A434D882A43144D90
:104E1000A8420BD0134DA84208D0134DA84205D08C
:104E2000124DA84202D0124DA84213D14FF6F77589
:104E30002A404D892A434FF6FB752A408D882A4324
:104E40004FF6FF652B404FF6FF552B408D892B43C6
:104E5000CD892B4383800483CD888586028470BDF1
:104E6000002C01400034014000400140004401405A
:104E7000004801400A460021018C4FF6FD7319409D
:104E80001143018470470A460021018B4FF6F773E6
:104E9000194011430183704770B50024002200239C
:104EA000058C4FF6EF7635400584028C8388048BA1
:104EB00048F6FF752C404FF6FF452C400D884FF605
:104EC000FF7606EA05252C434FF6DF752A400D894B
:104ED00006EA05152A434D8806EA05152A43154DAD
:104EE000A84202D0144DA8421DD14FF67F752A402A
:104EF0004D894FF6FF7606EA05152A434FF6BF7532
:104F00002A408D8806EA05152A434FF6FF352B40C7
:104F10004FF2FF752B408D8906EA85052B43CD891D
:104F200006EA85052B4383800483CD8805870284A8
:104F300070BD0000002C0140003401400A460021F1
:104F4000018C4FF6DF7319404FF6FF7303EA02132B
:104F50001943018470470A460021018B4FF2FF7309
:104F600019404FF6FF7303EA022319430183704788
:104F700070B5002400220023058C4FF6FF663540F3
:104F80000584028C8388848B4FF68F752C404FF6F6
:104F9000FC752C400D882C434FF6FF552A400D8997
:104FA0004FF6FF7606EA05252A434D8806EA0525D1
:104FB0002A43154DA84202D0144DA8421DD14FF2EC
:104FC000FF752A404D894FF6FF7606EA05252A43EC
:104FD0004FF6FF352A408D8806EA05252A434EF60E
:104FE000FF752B404DF6FF752B408D8906EA0515A0
:104FF0002B43CD8906EA05152B4383808483CD8816
:105000008587028470BD0000002C014000340140FF
:105010000A460021018C4FF6FF5319404FF6FF73EB
:1050200003EA02231943018470470A460021818B59
:105030004FF6F773194011438183704770B5002212
:1050400000230024058C4EF6FF7635400584038C42
:105050008488828B48F6FF752A404FF6FF452A4028
:105060000D884FF6FF7606EA05252A434DF6FF75B3
:105070002B400D8906EA05352B434D8806EA053598
:105080002B430B4DA84202D00A4DA84208D14BF643
:10509000FF752C408D894FF6FF7606EA85152C4367
:1050A00084808283CD88A0F84050038470BD0000C6
:1050B000002C0140003401400A460021018C4DF6CD
:1050C000FF7319404FF6FF7303EA0233194301845B
:1050D00070470A460021818B4FF2FF7319404FF64B
:1050E000FF7303EA0223194381837047028B4FF653
:1050F000F3731A400283028B0A4302837047028BC8
:105100004FF2FF331A400283028B4FF6FF7303EA1C
:1051100001231A4302837047828B4FF6F3731A40C0
:105120008283828B0A4382837047828B4FF2FF33E4
:105130001A408283828B4FF6FF7303EA01231A43DE
:1051400082837047002202881D4B98420ED01D4B6F
:1051500098420BD0B0F1804F08D01B4B984205D03D
:105160001A4B984202D01A4B984204D14FF68F73D3
:105170001A404B881A43174B984207D0164B984257
:1051800004D04FF6FF431A40CB881A4302808B8825
:1051900083850B8803850A4B98420BD0094B9842B4
:1051A00008D00E4B984205D00D4B984202D00D4BC3
:1051B000984201D10B7A0386012383827047000055
:1051C000002C014000340140000400400008004071
:1051D000000C00400010004000140040004001405E
:1051E000004401400048014010B588B0002401216E
:1051F0000520FEF79BFC4FF41060ADF80000032083
:105200008DF8020018208DF8030069462348FDF749
:105210004DFA0121C802FEF789FC072440F6B73099
:10522000ADF81800ADF814400020ADF81A00ADF844
:10523000160005A91A48FFF785FF6020ADF80400A5
:105240000120ADF806000020ADF80800ADF80A0016
:10525000ADF80C00ADF80E00ADF81000ADF812007E
:1052600001A90F48FFF7BAFD08210D48FFF70BFE13
:1052700001A90B48FFF7E2FE08210948FFF729FFC3
:1052800001210748FFF702FD01210548FFF70DFD49
:1052900001210348FFF715FD08B010BD00080140CB
:1052A000002C014010B588B0002401210920FEF730
:1052B0003DFC4FF47070ADF8000003208DF8020043
:1052C00018208DF8030069462548FDF7EFF9012104
:1052D0000420FEF70BFC472440F6B730ADF8180069
:1052E000ADF814400020ADF81A00ADF8160005A97D
:1052F0001C48FFF727FF6020ADF804000120ADF83F
:1053000006000020ADF80A00ADF80C0001A9154810
:10531000FFF764FD08211348FFF7B5FD01A9114807
:10532000FFF7BAFD08210F48FFF715FE01A90D4848
:10533000FFF71EFE08210B48FFF777FE01A9094879
:10534000FFF77CFE08210748FFF7C3FE012105484F
:10535000FFF79CFC01210348FFF7A7FC08B010BD34
:10536000000C01400008004070B58CB006460C46A9
:10537000154601210846FEF7A9FB3046FDF702F865
:105380000194029510200390002004900590802045
:10539000069000200790089009904FF480500A90E2
:1053A00000200B9001A93046FDF792F80CB070BDBB
:1053B00010B50024FDF7CEFB40F225510A4800F05D
:1053C0000BF968B1084800F0C3F9C4B2204600F0F8
:1053D00033FC012804D105480088401C034908809B
:1053E000FDF7CAFB10BD0000003801409C00002002
:1053F00010B540F225510E4800F0EEF8B0B10C485F
:1054000000F0A6F9C4B20B480088C82808DA094899
:1054100001880088401C074A10800748445405E072
:105420000448008840F400400249088010BD000094
:105430000044004054010020581C002010B586B0E4
:10544000044601210420FEF771FB01214804FEF708
:105450004DFB2A4800F072F80420ADF8100003203C
:105460008DF8120018208DF8130004A92448FDF7C8
:105470001DF90820ADF8100004208DF8130004A9D0
:105480001F48FDF713F900940020ADF80400ADF8B3
:105490000600ADF80800ADF80C000C20ADF80A00CD
:1054A0006946164800F0E8F801228021134800F010
:1054B0003BF8144A1149091D1348FFF755FF012114
:1054C0000E4800F025F8012240F225510B4800F06B
:1054D000ADF826208DF8140002208DF81500032069
:1054E0008DF8160001208DF8170005A8FDF7A6FA23
:1054F00000200649088006B010BD000000440040AE
:1055000000080140901B0020800002405401002050
:1055100021B1828942F40052828104E082894DF6F1
:10552000FF731A40828170471AB1838A0B438382CA
:1055300002E0838A8B4383827047000010B50446E3
:105540002048844209D101218803FEF7FFFA002197
:105550004FF48040FEF7FAFA32E01B48844209D14A
:1055600001214804FEF7D2FA00214FF40030FEF783
:10557000CDFA25E01548844209D101218804FEF7BF
:10558000C5FA00214FF48020FEF7C0FA18E0104859
:10559000844209D10121C804FEF7B8FA00214FF472
:1055A0000020FEF7B3FA0BE00A48844208D101213B
:1055B0000805FEF7ABFA00214FF48010FEF7A6FABB
:1055C00010BD000000380140004400400048004089
:1055D000004C00400050004070B5024600240023FB
:1055E0000025002040F66A16B14200D100BFC1F389
:1055F000421501F01F03012606FA03F3012D02D123
:105600009689334006E0022D02D1168A334001E02C
:10561000968A33400C12012606FA04F416883440A8
:1056200013B10CB1012000E0002070BDF0B50346BD
:10563000002400260025002040F66A17B94200D158
:1056400000BF1846C1F3421401F01F06012707FAF4
:1056500006F5012C01D10C3004E0022C01D11030F0
:1056600000E014301AB107682F43076002E00768B2
:10567000AF430760F0BD00002DE9F04786B0054656
:105680000E460024A24600BFA1460027B08900B103
:1056900000BF2F462C8A4CF6FF700440F08804436C
:1056A0002C82AC894EF6F3100440B088318908434F
:1056B000718908430443AC81AC8A4FF6FF40044033
:1056C000B0890443AC8201A8FEF750FA1F48874214
:1056D00002D1DDF810A001E0DDF80CA0A88900F4EB
:1056E000004040B10AEBCA0000EB0A1031684900E3
:1056F000B0FBF1F807E00AEBCA0000EB0A103168D2
:105700008900B0FBF1F86420B8FBF0F00401200937
:10571000642101FB1089A88900F4004040B13220C7
:1057200000EBC900B0FBF1F000F00700044308E013
:10573000322000EB09106421B0FBF1F000F00F0003
:1057400004432C8106B0BDE8F0870000003801401A
:1057500001468888C0F30800704700BFFEE7490093
:1057600050EAC12018BF04204A0D18BF40F00100C4
:1057700040F2FF72B2EB515F08BF40F00200012817
:1057800008BF0520704730380A2801D20120704731
:105790000020704700BF704710B5044608480068F5
:1057A00000F05AFF074908600748006800F054FFFE
:1057B000064908600020024908600349086010BDDE
:1057C0009000002088000020940000208C00002021
:1057D00073E04FF47A70FDF7DFF8FDF7D1F84FF47E
:1057E0007A70FDF70DF9FDF7FDF800230522194643
:1057F0001846FDF795FC4FF4FA70FDF7CDF8FDF76C
:10580000B3F84FF4FA70FDF7FBF8FDF7DDF800236D
:10581000052219461846FDF783FC4FF47A70FDF710
:10582000BBF8FDF7ADF84FF47A70FDF7E9F8FDF736
:10583000D9F80023052219461846FDF771FC4FF4EC
:10584000FA70FDF7A9F8FDF78FF84FF4FA70FDF73D
:10585000D7F8FDF7B9F80023052219461846FDF7D9
:105860005FFC1423002211461046FDF759FC134833
:10587000FFF792FF1248406802281AD1104880684A
:1058800040F20E61884214D20D48806840F2AA515D
:1058900088420ED90A48406940F20E61884208D217
:1058A0000748406940F2AA51884202D900F064FDDD
:1058B00001E000F013FEFCF7DBFF8AE70AD7A33C08
:1058C000D40100201CB54948408840F29E718842AE
:1058D00003DB0846464988600DE04448408840F2B2
:1058E0001A41884203DC08464149886003E03F488A
:1058F00040883F4988603D48008840F29E71884258
:1059000003DB08463A4948610DE03848008840F218
:105910001A41884203DC08463549486103E03348B0
:105920000088334948613148808940F20E618842DD
:1059300003DD01202E4908600CE02C48808940F2EC
:10594000AA51884203DA00202949086002E00220B7
:10595000274908602548C08940F2D661884203DBA8
:105960000220234948600CE02048C08940F2E2410F
:10597000884203DC00201E49486002E001201C49E7
:10598000486040F2DC50019000906B4601AA19A1DA
:105990001A48FAF73BFE40F29E710198884203D301
:1059A0000846134988610BE040F21A410198884289
:1059B00003D808460E49886102E00D4901988861C4
:1059C00040F29E710098884203D308460849C86196
:1059D0000BE040F21A410098884203D80846044977
:1059E000C86102E002490098C8611CBD481B002044
:1059F000D40100202564202564000000E407002075
:105A000010B56FF00400FEF79DF9104800681049CA
:105A1000B0FBF1F00F4908700C4800680C49B0FB6E
:105A2000F1F441F28830444305200B4908804FF0DF
:105A3000E020006940F002004FF0E02108610846D4
:105A40004461006940F00100086110BDA000002021
:105A500000127A005A0100205C01002070B5044653
:105A60000E480078012811D10D480088844206DBD9
:105A70000B48008894FBF0F52846FDF715FB084815
:105A8000008894FBF0F100FB114084B24FF47A716E
:105A900004FB01F000F006F870BD00009501002045
:105AA0005C01002070B5034600224FF0E0267569C6
:105AB0000E4E367803FB06F400BF4FF0E026B169C6
:105AC00010E04FF0E026B06988420BD0884202D245
:105AD0000E1A324402E02E1A0E4432440146A2420B
