:020000040800F2
:10000000282E00203102000855240008DD210008B8
:10001000412400088B1E0008434F00080000000028
:10002000000000000000000000000000373600085B
:100030009B1E000800000000BF02000849370008AE
:100040004B0200084B0200084B0200084B0200085C
:100050004B0200084B0200084B0200084B0200084C
:100060004B0200084B0200084B0200084B0200083C
:100070004B0200084B0200084B0200084B0200082C
:100080004B0200084B0200084B0200084B0200081C
:100090004B0200084B0200084B0200084B0200080C
:1000A0004B0200084B0200084B0200084B020008FC
:1000B000F9390008B53D0008494000084B02000826
:1000C0004B0200084B0200084B0200084B020008DC
:1000D0004B0200081D4D00085D4D00084B02000852
:1000E0009D1E00084B0200084B0200084B0200084E
:1000F0004B0200084B0200084B0200084B020008AC
:100100004B0200084B020008DD4200084B020008C9
:100110004B0200084B0200084B0200084B0200088B
:100120004B0200084B0200084B0200084B0200087B
:1001300000F002F800F06DF80AA090E8000C82448C
:100140008344AAF10107DA4501D100F062F8AFF269
:10015000090EBAE80F0013F0010F18BFFB1A43F0A5
:1001600001031847D0780000F07800000A444FF0EF
:10017000000C10F8013B13F0070408BF10F8014B06
:100180001D1108BF10F8015B641E05D010F8016B4B
:10019000641E01F8016BF9D113F0080F1EBF10F8AF
:1001A000014BAD1C0C1B09D16D1E58BF01F801CBD2
:1001B000FAD505E014F8016B01F8016B6D1EF9D555
:1001C0009142D6D37047000000230024002500266A
:1001D000103A28BF78C1FBD8520728BF30C148BFAA
:1001E0000B607047752900F0C180002070471FB573
:1001F00000F0B8FD04000020002106F029FA401CA0
:1002000060600020002106F00DFAE0601FBD10B50F
:1002100010BD00F0E3FF1146FFF7E9FF05F0CCFA4F
:1002200001F030FA03B4FFF7F2FF03BC04F0F2FE72
:100230000948804709480047FEE7FEE7FEE7FEE77A
:10024000FEE7FEE7FEE7FEE7FEE7FEE704480549B6
:10025000054A064B70470000593700083101000875
:1002600028280020282E0020282A0020282A0020C4
:10027000EFF3108072B6704780F310887047204CFF
:10028000204D25604FF0000484F309881E4C4FF088
:10029000010525701D4C4FF08055256062B6FEE7C4
:1002A00030B41A4C4FF08055256030BC704730B4E4
:1002B000164C4FF08055256030BC704700BF72B6B9
:1002C000EFF3098028B1203880E8F00F1049096861
:1002D000086000B50F4880475DF804EB0E480F49F1
:1002E0000A7802700A480E490A680260106890E8AD
:1002F000F00F203080F309884EF0040E62B670478C
:1003000020ED00E00000FFFF3501002004ED00E0DB
:100310003C010020CD2A00082F01002030010020E0
:1003200044010020704700000FB4044910B503AA2F
:10033000029800F04BFA10BC5DF814FB000100209D
:100340000FB41CB5084B06AA7B446946009005987B
:1003500000F023FA04460020694600F031FA2046F6
:100360001CBC5DF814FB0000750400002DE9F04191
:100370000646002410687529314615A510D0AFF344
:100380000080002802DA404212A507E031688A079F
:1003900001D511A502E0490704D510A5012401E00B
:1003A000AFF3008000210A2306F1240707E0B0FB29
:1003B000F3F203FB1200303078541046491C002839
:1003C000F5D123462A463046BDE8F04100F087B912
:1003D000000000002D0000002B00000020000000A5
:1003E0002DE9F05F894604464FF0000ADFF874B14A
:1003F000FB44C0F820A02046E1688847002874D05C
:10040000252806D0D4E901219047206A401C2062AB
:10041000F1E700265F462046E16888472028054628
:1004200007DB312D05D2781910F8200C08B10643EE
:10043000F1E7B00701D526F00406C4F81CA0002798
:10044000C4F818A02A2D09D0284604F0DCFD38B3E2
:1004500004EB8708303DC8F8185019E059F8041B20
:10046000204604EB87029161E1688847012F054629
:1004700018D1E069002820DA26F020061DE0D8F81F
:10048000180000EB800005EB40003038C8F8180079
:100490002046E1688847054604F0B5FD0028EED106
:1004A000012F0AD02E2D08D12046E16888477F1CF5
:1004B0000546022F46F02006C4DBA069002803DAB7
:1004C000404246F00106A061F00701D026F0100678
:1004D0006C2D0BD0682D09D04C2D39D06A2D35D01C
:1004E000742D35D07A2D33D016E038E0E1682F46F0
:1004F00020468847B842054609D16C2F26D04FF4D4
:100500008060E168064320468847054604E06C2F7A
:100510001AD04FF4807006430DB3A5F1410019289D
:1005200002D8203546F400664A4629462046266011
:100530004E46FFF757FE80B101280BD0F61D26F07E
:10054000070000F1080956E74020E4E78020D8E7DB
:100550000020D6E706F104094DE7284652E7206A55
:10056000BDE8F09F9A7500000FB400B58DB010A9DA
:10057000099000910B904FF0FF300A9000200C90F2
:10058000064878440690064878446A4607900F99D2
:1005900009A800F085FB0DB05DF814FB3B070000D7
:1005A00053070000032A40F2308010F0030C00F0E3
:1005B000158011F8013BBCF1020F624498BF11F89D
:1005C00001CB00F8013B38BF11F8013BA2F1040256
:1005D00098BF00F801CB38BF00F8013B11F00303CE
:1005E00000F08E83083AC0F0088051F8043B083AC6
:1005F00051F804CBA0E80810F5E7121D5CBF51F8D4
:10060000043B40F8043BAFF30080D20724BF11F84D
:10061000013B11F801CB48BF11F8012B24BF00F8B2
:10062000013B00F801CB48BF00F8012B70474FF0A9
:1006300000020429C0F0128010F0030C00F01B80AF
:10064000CCF1040CBCF1020F18BF00F8012BA8BFBD
:1006500020F8022BA1EB0C0100F00DB85FEAC17C81
:1006600024BF00F8012B00F8012B48BF00F8012B34
:1006700070474FF0000200B5134694469646203965
:1006800022BFA0E80C50A0E80C50B1F12001BFF44B
:10069000F7AF090728BFA0E80C5048BF0CC05DF8B1
:1006A00004EB890028BF40F8042B08BF704748BFFF
:1006B00020F8022B11F0804F18BF00F8012B704773
:1006C000704770477047704710B500F04FFB0068E7
:1006D00010BD10B5044600F049FB046010BD2DE9C3
:1006E000F0470D4699469246044600F124080168F9
:1006F000880604D5E06921F01001216000E00120A6
:10070000A84201DD471B00E00027A1697A1902EB2E
:100710000900081AA0612078C00602D42046AFF371
:100720000080002608E0D4E901211AF8060090476D
:10073000206A401C761C20624E45F4DB2078C006FF
:100740000AD52046AFF3008006E0D4E9012130202D
:100750009047206A401C2062381EA7F10107F4DC94
:1007600007E0D4E9012118F805009047206A401CF1
:100770002062281EA5F10105F3DC2046AFF30080BE
:100780002078000602D50220BDE8F0870120FBE7B3
:1007900001694A1C02610878704700B58FB0CDE945
:1007A00001310021059105497944CDE90310114635
:1007B0006846FFF715FE0FB000BD0000E5FFFFFF24
:1007C0000A6802F8010B0A6070470000074B70B519
:1007D0000D467B44FFF7E1FF0446284600F0F6FC97
:1007E00010B14FF0FF3070BD204670BDEF4E0000DD
:1007F0002DE9FF4F064689B00878FF2806D0491C2E
:100800002D2805D000244FF0000908E000200CE05E
:100810000124F8E709EB8903491C00EB4309087838
:10082000FF28F7D114B1C9F10000814610780025E6
:100830002C46AA4629462D2801D02B2804D1521C2B
:100840002D2813D0002082468B461078FF280FD029
:100850004FF0000C0A21521CA5FB017804FB01811A
:1008600005FB0C11C5194BEB0104EEE70120EAE78B
:10087000002108464FF00000BAF1000F02D000EB53
:1008800080004008C0F38158B8F1010F01DD4FF03E
:10089000FF380C9809EB000755EA040009D04FF027
:1008A000020917F5FA7F0BDA4FEACA70C6E900B001
:1008B00012E04FEACA70C6E900B00DB0BDE8F08F93
:1008C000B7F5FA7F0DDDF0487844D0E90010C6E9AD
:1008D000001040EACA70706000F048FAC0F800905A
:1008E000EBE7391E02DAC8F1000200E0424600DA06
:1008F000794206A800F0FEFB06AB93E8070003ABC5
:1009000083E8070044F23E005BEA04010090584689
:1009100004D144F21E012C465D460091210C0904CD
:10092000014306D10099240444EA15442D041039EA
:10093000009104F07F41014306D10099240244EA6A
:1009400015642D020839009104F07041014306D16D
:100950000099240144EA15742D01091F009104F047
:100960004041014306D10099A40044EA9574AD00CA
:10097000891E009104F00041084304D100986D19CC
:100980006441401E009042466846002FCDE9014573
:1009900003A902DD01F043F901E001F018F9BAF111
:1009A000000F04460D4601D084F0004440F2FF776A
:1009B00024F00040284303D0C4F30A50B84212D1B7
:1009C00000F0D4F9C0F80090C4F30A50B8420AD13C
:1009D000AE487844D0E90010C6E9001004F00041A8
:1009E0000843706069E7C6E9005466E72DE9FF4FE8
:1009F0001F464FF0000A4FF0FF38454691B0D7E947
:100A00000146CDF83CA000F0ADF9C0680168405C3B
:100A10001090B96912986D1C8847396A81468847D9
:100A20000028F6D1B9F1FF3F0AD0002E24F4D0649B
:100A300011DDB9F12B0F08D0B9F12D0F0BD102E068
:100A4000404615B03AE744F48064B96912986D1CC9
:100A50008847761E8146600504A901D52D2000E057
:100A60002B20002E01F1010B0DF130088DF8100044
:100A70003FDDB9F1690F08D0B9F1490F05D0B9F1DF
:100A80006E0F02D0B9F14E0F1CD13B4601A8009564
:100A900080E85002DDE912126FF0020006F0DDFE80
:100AA000C11CCED10EE0B96912986D1C88478146F1
:100AB0001398761E44F4007405600F98401C002EB5
:100AC0000F9016DDB9F1300FEDD0B9F1780F02D0EB
:100AD000B9F1580F0DD10F9801280AD13B46CDE945
:100AE0000054DDE91212001F029606F0B4FEC11C8C
:100AF000A7D1109989453ED144F0800406E01399AE
:100B0000681CAAF1010A44F400740860B9696D1CFC
:100B10001298761E884730288146F0D02BE0109935
:100B2000894505D1200603D4761E44F0800418E0E0
:100B3000484604F068FA08B3761E0DF123018B4590
:100B400044F4007408D2A9F130000BF8010B200620
:100B500007D5AAF1010003E0200602D40AF1010042
:100B60008246A00502D51399681C0860B9691298DD
:100B70006D1C88478146002ED1DC53E0002E51DDEC
:100B8000B9F1650F02D0B9F1450F4BD1A00549D598
:100B9000B9696D1C1298761E24F440748847002EA3
:100BA00081460CDD2B2804D0B9F12D0F07D144F478
:100BB0008074B96912986D1C8847761E8146E005DD
:100BC00001D52D2100E02B2108F8011BCDF8008074
:100BD00021E0761E0DF13901884544F400740CD2F1
:100BE000A9F1300010F0FF0088F8000002D1009950
:100BF000884509D908F1010806E0E00501D5244837
:100C000001E042F20F708246B96912986D1C884764
:100C1000814613980560002E04DD484604F0F3F980
:100C20000028D6D1F96912988847FF2053468BF8DF
:100C3000000088F8000000200A900B9004AA0CA97C
:100C40000AA8FFF7D5FDA00502D46FF00100F8E671
:100C500014F0240F0AD0E00714D13868DDE90A1235
:100C6000031D3B600068C0E900120BE00AA968465A
:100C700004F072F9E00705D13868009A011D396067
:100C8000006802602846DCE6887100007E70000083
:100C9000F1D8FFFF026811441378016018467047CD
:100CA000D1600549794451610449794411620021B8
:100CB0001161114600F068B8EDFFFFFFC7000000AA
:100CC000426842B1016811F8013B23B1521EC0E9EC
:100CD0000012184670470121C160881E70474268A3
:100CE0005AB1C368016843B983688B4205D0491E75
:100CF000521CC0E90012002070474FF0FF307047CF
:100D000010B5203AC0F00B80B1E81850203AA0E8A6
:100D10001850B1E81850A0E81850BFF4F5AF5FEADA
:100D2000027C24BFB1E81850A0E8185044BF18C98D
:100D300018C0BDE810405FEA827C24BF51F8043B34
:100D400040F8043B08BF7047D20728BF31F8023B88
:100D500048BF11F8012B28BF20F8023B48BF00F81C
:100D6000012B704700487047E82700200048704773
:100D7000C827002010B5044600F056FA0068005D50
:100D800000F0010010BD00002DE9F34F4FF0000A04
:100D90000C4656468DB001200C9001F10C000B90D2
:100DA00062690B980121904705002DD0252D2CD08C
:100DB000216A8847C0B162690B9801219047216A76
:100DC00088470028F7D16269411E0B98904700E0E0
:100DD000761CA1690D988847216A88470028F7D1B9
:100DE000E1690D988847DBE7A1690D988847A8421B
:100DF000074601D1761CD3E7E1690D9888477F1C2F
:100E000002D1BAF1000F6FD068E162690B98002738
:100E10003D46394690472A2804D162690B98012142
:100E200090470125DFF8C88262690B98012190473D
:100E3000A0F130010A290AD24745E5DC07EB87011A
:100E400000EB4107303FDFD445F01005ECE7E90641
:100E500001D46FF000476C280AD04C2814D06828C1
:100E600015D06A280DD074281CD07A281AD01DE01D
:100E700062690B98012190476C2802D045F0040567
:100E800014E045F002050DE045F020050AE0626936
:100E90000B9801219047682802D045F0080505E02D
:100EA00045F4006562690B9801219047C4E9015738
:100EB00065283DD019DC582877D00CDC452837D080
:100EC00004DC252826D041289ED131E046282FD0A9
:100ED000472899D12CE05B287DD0612828D0632851
:100EE00079D0642823D157E0F3E06F2845D008DC9F
:100EF00066281DD067281BD0692821D06E2816D1FE
:100F000027E0702842D0732865D0752844D078280F
:100F10000DD14AE0A1690D988847252805463FF480
:100F200069AFE1690D9888476D1C3FF46AAFD5E061
:100F30000D9923466A466FF0010006F08AFCC2E074
:100F400045F0400023464FF000026060A80733D40C
:100F50003BE02068011D21600068290501D506706D
:100F60001EE7290701D506801AE7A90703D5F1175F
:100F7000C0E9006114E7066012E745F0400023462F
:100F80004FF008026060A80716D41EE040F60E017C
:100F900025EA0100606016E045F0400023464FF06E
:100FA0000A026060A80707D40FE045F040006060C7
:100FB000A80708D5234610220D996FF00100AFF362
:100FC000008080E007E0102223460D996FF00100B9
:100FD000AFF3008077E04FF0000963284F46C84622
:100FE0004B46CB4602D05B2806D038E0E80601D459
:100FF0000120A060012732E06269D4F80CB00B98A0
:10100000012190475E2807D14FF0010949466269E6
:10101000D4F80CB00B989047216939B900210B46E0
:1010200003AA42F82130491C0829FADBD8B3216908
:1010300049B308F1010862690B98012190475D28C6
:10104000F4D1B9F1000F09D0002003A951F82020F4
:10105000D24341F82020401C0828F7DB03AB20696D
:10106000002820794FEA40701ED05B462246CDF81A
:101070000080CDE901970D9900286FF0010020DA7A
:10108000AFF300801FE0C11700EBD16203A9531139
:1010900022F01F0201EB8301821A0B6801209040AD
:1010A00003430B60C7E719E00D99224600286FF053
:1010B0000100009702DAAFF3008004E0AFF3008094
:1010C00001E0AFF3008000280ADA401C06D10C983A
:1010D00020B14FF0FF300FB0BDE8F08F5046FAE777
:1010E000E90701D10AF1010A064400200C9057E6F5
:1010F000CCCCCC0C2DE9F047814616468AB032485C
:1011000078440DC88DE80D002F487844801C03AC4E
:101110000DC884E80D0041F69B303722014491FB55
:10112000F2F0A0F1800502FB10141B3C02D56442D2
:10113000012000E00020DFF890A080460027FA445C
:10114000AAF1BA0A0DE0E00709D03246684607EB7B
:1011500047010AEB810100F04EFD8DE807006410A5
:101160007F1C002CEFD1184F7F44A83F18E0E80700
:1011700014D007EB04100DF1180A90E80E008AE86D
:101180000E00C068F04201D198190890324606A9B5
:1011900003A800F030FD03AB83E807006D10641C6A
:1011A000002DE4D132466946B8F1000F03A802D001
:1011B00000F0F9FC01E000F01EFDC9E90001C9F8EA
:1011C00008200AB0BDE8F08718690000007B00F035
:1011D0008000704700487047C82700207546FFF719
:1011E000F9FFAE4605006946534620F007008546E4
:1011F00018B020B5FFF72AF8BDE820404FF00006F0
:101200004FF000074FF000084FF0000B21F00701EE
:10121000AC46ACE8C009ACE8C009ACE8C009ACE831
:10122000C0098D467047000010B5FFF79BFD001DFB
:1012300010BD00BF1D5400002DE9FF4F1F464FF0A9
:101240003C0987B04FF00042DDE9141001F10108BC
:10125000DDF858A002EA4050039000200490834635
:10126000054604460590B969461E08988847AAF1C4
:10127000010A0290BAF1000F37DD02982E2815D02E
:10128000102100F058FA00282ADB4FF0010B0499D6
:10129000014316D0B9F1000F0BDB4A46C11700F02D
:1012A00037FA05430C43A9F1040905E00120059034
:1012B00007E008B145F0010501200490059800B948
:1012C000361DB969089808F101088847BBF1000F7D
:1012D000AAF1010A0290CDD00999C1F80080C9E7AE
:1012E0000298702808D0502806D0F96908988847D5
:1012F000BBF1000F14D04FE0002002900120BBF1A1
:10130000000F049009D0B969089808F101088847CE
:10131000AAF10109B9F1000F07DCF96908988847BB
:101320006FF001000BB0BDE8F08F2B2804D02D2802
:101330000CD14FF0FF300490B969089808F101080A
:101340008847A9F10109B9F1000FE6DD411CE4D09D
:101350000A2100F0F0F90028DFDB029908F101080A
:1013600001EB810100EB41000290B96908988847C0
:101370000A2100F0E0F9099AA9F10109B9F1000F79
:10138000C2F8008001DD0028E7DAF969089888478B
:101390000499029800FB016655EA040004D004F0A9
:1013A0004041090002D006E0039898E0A40044EA16
:1013B0009574AD00B61E04F00041080002D16D190D
:1013C0006441761E159810F0240F03D04FF00B09DE
:1013D0005C4803E04FF028096FF07D0082465645D7
:1013E00007DAAAEB06018944B9F1410F01DD4FF09C
:1013F000410901200021A9F1010200F089F902460A
:1014000028400B462140084301D0012100E0002183
:10141000501E029143F1FF3128402140084301D082
:10142000012000E000200299834651EA0B014FD0D1
:10143000002108464FF00000039900F4400039B144
:1014400000EB80004FF4400100EBD07001EA600037
:101450008015012802DD4FF0FF3000E013D0401C62
:1014600036D0029860B3BBF1000F0CD14A46012080
:10147000002100F04DF928402140084301D001200F
:1014800000E00020E0B101204A46002100F040F9D0
:10149000034640190A4661412D1A8C4111D3B9F116
:1014A000400F09DD159810F0240F02D0AAF1340680
:1014B00003E0AAF1170600E0761C00254FF0004477
:1014C00006E05B1E42F1FF3220EA030521EA020436
:1014D000CAF10100B04206DA1B49039808430190A3
:1014E000002000900EE0039AC4F3D321E80A0A43D7
:1014F000164940EA44500A433146CDE900026846A5
:1015000003F076FD159810F0240F0BD01598C00746
:1015100015D13868DDE90012031D3B600068C0E9A1
:1015200000120CE002A8694603F016FD1598C007EA
:1015300005D13868029A011D396000680260404692
:10154000F0E6000002FCFFFF0000F07F0000F03F2B
:101550002DE9FF4F92461D4685B04FF00041DDE971
:10156000124BDDE914727F1E01EA4B50414940F0F5
:10157000FF4940EA0108002122F020004928049197
:1015800002D04E2828D04CE03BA0012607C88DE8A9
:101590000700A9690698641C88477F1E014606D487
:1015A0001DF8060018B121F0200181420BD0E96935
:1015B00006988847032E34D0082E32D06FF00100F1
:1015C00009B0BDE8F08F761C032E01D0082EE0D1C3
:1015D000601CCAF80000DCE7A9690698641C88470B
:1015E0007F1E2AD420F02000412826D1A969069820
:1015F000641C88477F1E20D420F020004E281CD178
:10160000A9690698641C88477F1E48F4002849F49D
:101610008009CAF8004001D4282806D0E969069854
:1016200088475FEACB7012D022E0A9690698641C53
:1016300088477F1E01D4002803DAE96906988847A5
:10164000BCE72928F1D1641CCAF80040E9E71BF087
:10165000240F07D028680499031D2B600068C0E997
:10166000001805E02868021D2A600068C0F8009094
:101670002046A5E70000F07F494E46494E4954599F
:10168000000000000446AFF300802046FEF7CAFDCC
:101690004FF0013C50F8042B51F8043B9A4221D101
:1016A000A2EB0C03934313EACC1317D150F8042B8D
:1016B00051F8043B9A4215D1A2EB0C03934313EA71
:1016C000CC130BD150F8042B51F8043B9A4209D1AA
:1016D000A2EB0C03934313EACC13DBD04FF00000D2
:1016E000704700BFD01A01BAB1FA81F101F01801B8
:1016F00022FA01F0CB40C1F12001DBB2C0B2C01A26
:101700002CFA01F3D11A914311EAC311E6D17047C3
:10171000B2F120030AD5C2F1200301FA02F120FA46
:1017200003F300FA02F041EA0301704700FA03F103
:101730004FF0000070473A2800D2303820F02002E5
:10174000412A01D3A2F13700884201D34FF0FF3084
:10175000704720F07F4C80EA030023F07F47ACEB1A
:10176000070303F57C5300F0004003F1FF032DE96C
:1017700080494FEA154B09B44FEA144325EA0B4E52
:1017800024EA03480FF2042606EB132749083E78A3
:101790005FEA320203FB0667C7F5000707FB06F6A0
:1017A0004FEA54374FEAD64606F1020607FB066CAD
:1017B000CCF1005C4FEA1C472CEA074C07FB06F40F
:1017C0000CFB06F504EB15464FEA961634BF0020D5
:1017D0004FF000404FEAD13706FB07FC4FEA1C4CA4
:1017E0000CFB0BF7D21B03FB0CF761EB07010CFBA7
:1017F0000EF7B0EB074072EB17420CFB08F734BF53
:10180000A2EB0742B2EB074261EB17414FEA0C44EF
:101810004FEA910706FB07FC4FEA1C4C0CFB0BF749
:10182000B0EBC74072EB573203FB0CF734BFA2EBAF
:10183000C742B2EBC74261EB57310CFB0EF7B0EB7E
:10184000C70072EB57720CFB08F734BFA2EBC7025C
:10185000B2EBC70261EB5771039F4FEA816141EA26
:10186000921104EBCC044FEAD1374FEA826206FBB7
:1018700007FC42EA90124FEA80604FEA1C4C0CFBD6
:101880000BF7D21B03FB0CF761EB07010CFB0EF708
:10189000B0EB074072EB17420CFB08F734BFA2EB2A
:1018A0000742B2EB074261EB17414FEA8C554FEA12
:1018B000910704EB9C2406FB07FC4FEA1C4C0CFB35
:1018C0000BF7B0EBC74072EB573203FB0CF734BF9A
:1018D000A2EBC742B2EBC74261EB57310CFB0EF7EC
:1018E000B0EBC70072EB57720CFB08F734BFA2EBEA
:1018F000C702B2EBC70261EB577115EB4C254FEAFB
:10190000816141EA92114FEA82624FEAD13742EA9D
:10191000901206FB07FC44F100044FEA80604FEA96
:101920001C4C0CFB0BF7D21B03FB0CF761EB070104
:101930000CFB0EF7B0EB074072EB17420CFB08F7FD
:1019400034BFA2EB0742B2EB074261EB174115EB44
:101950001C154FEA813141EA92414FEA823242EA54
:1019600090424FEA80304FEA0C7644F1000448EA96
:1019700003434EEA0B484FF0000EB2EB080C71EB3C
:10198000030724BF624639464EEB0E0E4FF0000BA4
:101990000018524149414BEB0B0BB2EB080C71EBB9
:1019A00003077BF1000B24BF624639464EEB0E0E57
:1019B0004FF0000B0018524149414BEB0B0BB2EBBF
:1019C000080C71EB03077BF1000B24BF624639461C
:1019D0004EEB0E0E51EA020718BF46F0010616EB59
:1019E0000E7655F1000254F1000103D5BDE88901DE
:1019F000BDE80088BDE88901B619BDE8004852413C
:101A000041EB0101A3F10103704780807F7E7D7C63
:101A10007B7A7978777676757473727171706F6E80
:101A20006E6D6C6C6B6A6A6968686766666564642B
:101A3000636362616160605F5F5E5E5D5D5C5C5BB5
:101A40005B5A5A5959585857575656555555545424
:101A5000535352525251515050504F4F4F4E4E4D82
:101A60004D4D4C4C4C4B4B4B4A4A4A4949494848CE
:101A7000484747474746464645454544444444430E
:101A800043434342424242414141000046EA064646
:101A9000A3F570534FEA164646EA42564FEAD22261
:101AA00042EA415210B54FEAD121A3F1010300F0FF
:101AB00017F820F0004000F1010C00F0004701EBA6
:101AC00000501146BCF5006F40EA070000D210BD7F
:101AD00002484FF0000140EA070010BD0000F07F0F
:101AE000002B26D4770021D01CB54FEA370703B46A
:101AF0004FF010004FF010014FF000000FBC0BF141
:101B0000010BBDE81040BBF1010F08BF5FEA1707EA
:101B100022BF12F1010211F101014FF0004143F126
:101B2000000300F0004043EA00007047F9D3570873
:101B3000DAE746EA064613F1400F4FEA16461FDD84
:101B400013F1200FDFBF16430A46002120335B420A
:101B5000C8D0C3F1200746EA064602FA07F74FEA63
:101B6000164646EA0706C3F1200722FA03F201FAF5
:101B700007F721FA03F14FF0000342EA0702B1E749
:101B800046EA020646EA06464FEA164646EA0106D5
:101B9000BCBF46EA0646360C4FF000034FF0000289
:101BA0004FF000019EE72DE9C048934630B491E81C
:101BB000380007C831EA400C48BF34EA430C03D56B
:101BC000FFF7C7FDFFF78CFFF0BCBDE800882DE9EB
:101BD000C048934630B491E8380007C831EA400C59
:101BE00048BF34EA430C03D5FFF7B3FDFFF74EFFC0
:101BF000F0BCBDE800882DE9C048934630B491E8B8
:101C0000380007C810F0804F08BF13F0804F03D191
:101C100000F019F8FFF764FFF0BCBDE800882DE97B
:101C2000C048934630B491E8380007C810F0804FA0
:101C300008BF13F0804F03D100F005F8FFF726FF2F
:101C4000F0BCBDE8008820F07F4780EA030023F065
:101C50007F4C07EB0C03A3F57C5300F00040A3F18D
:101C6000FE0392F0000F00F0B38095F0000F00F03B
:101C700077802DE901494FEA11404FEA144621EAE5
:101C8000004800FB06FC24EA064708FB06F607FBB3
:101C900008F800FB07F718EB06484CEB164C4FEA28
:101CA000124B18EB07484FEA15464CEB174022EA57
:101CB0000B4E0BFB06FC25EA06470EFB06F607FB60
:101CC0000EFE0BFB07F71EEB064E4CEB164C4FF0CF
:101CD00000061EEB074E4CEB174B18EB0B0840F1C0
:101CE000000018EB0E0B58EB000840F100008F1AB3
:101CF0004FF000013CBFC943661B14BFB5EB040C99
:101D000000213CBFC943F61B4FEA17444EEA8E0E32
:101D100027EA04454FEA1C4704FB07622CEA074CFC
:101D200005FB07F70CFB05F604FB0CFC16EB07465E
:101D300042EB174216EB0C4642EB1C421BEB06062D
:101D400058EB0202414146EA9E0601D5BDE80189F1
:101D5000B619524141EB0101A3F10103BDE801892C
:101D60004FEA14454FEA114724EA054621EA074C99
:101D700005FB07F406FB07F70CFB06F105FB0CFC63
:101D800011EB074144EB17444FEA124711EB0C41AA
:101D900044EB1C4422EA074C05FB07F206FB07F75D
:101DA0000CFB06F605FB0CFC16EB074642EB174254
:101DB00016EB0C4642EB1C456A1854F1000148BF73
:101DC0007047B619524141EB0101A3F1010370477D
:101DD00095F0000F37D04FEA11424FEA144721EA3D
:101DE000024624EA074C02FB07F106FB07F70CFB4F
:101DF00006F402FB0CFC14EB074441EB17414FEADD
:101E0000154714EB0C4441EB1C4125EA074C02FB3F
:101E100007F506FB07F70CFB06F602FB0CFC16EBBE
:101E2000074645EB174516EB0C4645EB1C421219CD
:101E300051F1000148BF7047B619524141EB010111
:101E4000A3F1010370474FEA14454FEA114724EA12
:101E5000054621EA074C05FB07F106FB07F70CFBDB
:101E600006F24FF0000605FB0CFC12EB074241EBBB
:101E7000174112EB0C4251EB1C4148BF70479218BE
:101E800041EB0101A3F10103704700BFFEE710B56C
:101E90000121402001F02EFB10BD704710B500F06D
:101EA0006DFB4FF4805000F043F848B14FF4805080
:101EB00000F038F81A48806A401C194988622BE003
:101EC0004FF4005000F034F848B14FF4005000F0E7
:101ED00029F81348C06A401C1149C8621CE04FF43D
:101EE000804000F025F848B14FF4804000F01AF827
:101EF0000B48006B401C0A4908630DE04FF400409A
:101F000000F016F840B14FF4004000F00BF8044820
:101F1000406B401C0249486300F042FB10BD0000CA
:101F20009801002001490860704700001404014036
:101F3000014600200022074B1B6803EA0102054B03
:101F400014331B680B4013B10AB1012000E00020DC
:101F50007047000000040140002123498279002AD3
:101F60003AD00A46126803689A430B461A600A1D63
:101F7000126803689A430B1D1A60027911440A68BB
:101F800003681A430A60184A0832126803689A43C1
:101F9000154B08331A601A1D126803689A43124BD6
:101FA0000C331A604279102A0ED11A1F1268036886
:101FB0001A430D4B08331A601A1D126803681A433E
:101FC000094B0C331A600DE00749427911440A6845
:101FD00003681A430A6005E0027911440A6803683D
:101FE0009A430A60704700000004014030B50022A7
:101FF0008B071C0F0F2303FA04F20B4B8C1053F8C2
:1020000024309343084C8D1044F8253023468C101F
:1020100053F824308C07240F00FA04F42343024CB5
:102020008D1044F8253030BD080001402DE9F04105
:10203000024600250026002000230024002791F8F6
:1020400003C00CF00F0591F803C00CF0100CBCF1AC
:10205000000F03D091F802C04CEA050591F800C0CA
:10206000BCF1000F31D0146800202BE04FF0010CC0
:102070000CFA00F3B1F800C00CEA03069E4220D12E
:1020800083004FF00F0C0CFA03F7BC4305FA03FC76
:102090004CEA040491F803C0BCF1280F06D14FF0BC
:1020A000010C0CFA00FCC2F814C00AE091F803C05D
:1020B000BCF1480F05D14FF0010C0CFA00FCC2F83E
:1020C00010C0401C0828D1D31460B1F800C0BCF186
:1020D000FF0F34DD546800202EE000F1080C4FF0B3
:1020E000010808FA0CF3B1F800C00CEA03069E429E
:1020F00021D183004FF00F0C0CFA03F7BC4305FA13
:1021000003FC4CEA040491F803C0BCF1280F05D18C
:1021100000F1080C08FA0CF8C2F8148091F803C01A
:10212000BCF1480F07D100F1080C4FF0010808FA84
:102130000CF8C2F81080401C0828CED35460BDE8CB
:10214000F0810000F0B50A4600230024002100259C
:1021500000F00046B6F1004F02D11D4EF16901E0DA
:102160001B4E7168C0F3034583B200F44016B6F508
:10217000401F08D121F07061154E766826F0706618
:10218000134F7E6012E000F48016B6F5801F06D172
:10219000032606FA05F4A14341F0706106E0460DFE
:1021A000360103FA06F6B14341F0706122B1460DE3
:1021B000360103FA06F6314300F00046B6F1004F4F
:1021C00002D1034EF16101E0014E7160F0BD0000EB
:1021D00000000140416170470161704700BFFEE7A8
:1021E0004CF6CC40014908607047000000300040C8
:1021F00010B500F013F810BD70B505460C4645F259
:10220000555000F01FF8284600F010F8204600F066
:1022100013F800F003F8FFF7E3FF70BD4AF6AA20B9
:1022200001490860704700000030004001494860E3
:10223000704700000030004001498860704700008E
:102240000030004001490860704700000030004045
:1022500008B50121092001F06DF91820ADF8000042
:1022600010208DF8030002208DF802006946064810
:10227000FFF7DCFE18210448FFF7AEFF01210348F9
:10228000FFF760FF08BD0000000C014000023000B5
:1022900008B500F0D7F80121112001F04BF94FF4F7
:1022A0007060ADF8000010208DF8030003208DF859
:1022B000020069460448FFF7B9FE4FF47061024816
:1022C000FFF788FF08BD00000010014010B54FF473
:1022D00080710248FFF77EFF10BD00000010014032
:1022E00042F22731884201D9084601E000B90020B6
:1022F0004FF080429086704710B54FF480710248CD
:10230000FFF76AFF10BD00000010014042F22731C4
:10231000884201D9084601E000B90020014A108036
:10232000704700003408004010B54FF400710248B7
:10233000FFF750FF10BD00000010014042F22731AE
:10234000884201D9084601E000B900204FF08042E0
:102350001087704710B54FF400710248FFF73CFF3B
:1023600010BD00000010014042F22731884201D91F
:10237000084601E000B90020014A108070470000C3
:102380003808004010B54FF480610248FFF724FF81
:1023900010BD00000010014042F22731884201D9EF
:1023A000084601E000B900204FF080429087704756
:1023B00010B54FF480610248FFF70CFF10BD00001C
:1023C0000010014042F22731884201D9084601E05D
:1023D00000B90020014A1080704700003C0800400E
:1023E00010B54FF400610248FFF7F6FE10BD000083
:1023F0000010014042F22731884201D9084601E02D
:1024000000B90020014A10807047000040000040E1
:1024100010B54FF400610248FFF7DCFE10BD00006C
:102420000010014042F22731884201D9084601E0FC
:1024300000B90020014A10807047000040080040A9
:1024400000BFFEE710B502F007FC02F03FFB02F010
:102450009BFB10BD704710B54FF4A06000F03AF838
:1024600010BD000070B5002100230F22C47804B312
:10247000154C246804F4E064C4F5E064210AC1F159
:102480000403CA40447804FA03F1847814402143D9
:1024900009010E4C0678A155047804F01F050124AB
:1024A000AC4005786D11AD0005F1E025C5F800419F
:1024B00009E0047804F01F050124AC40044D0678BF
:1024C000761145F8264070BD0CED00E000E400E018
:1024D00080E100E002490143024A116070470000B8
:1024E0000000FA050CED00E02DE9F04105460E462E
:1024F000144600271148007818B112202070BDE85A
:10250000F0812878012808D0022807D0032802D0BB
:10251000042804D100E000BF00BF00BF02E001209A
:102520002070ECE700BFFDF7A3FE07462E6138469A
:10253000FDF7A2FE0020207000BFE0E72D01002083
:1025400010B500F013F800F0CBFD00F0F3FD00F043
:1025500013FE00F095FD00F063FE00F03FFE00F07A
:1025600049FE00F0ABFB00F007F810BD0020014968
:10257000088070477001002070470000064800780E
:10258000012808D105480078FF2804D203480078C4
:10259000401C024908707047350100202D010020C1
:1025A00010B5002417480078012829D1FDF760FEF6
:1025B00004461548007820B113480078401E12499F
:1025C000087011480078C0B910480078A8B900F028
:1025D00083FE0F480F49097850F821000E49086022
:1025E0000C4800780D490978884206D00C480068EC
:1025F000401C0B490860FDF75AFE2046FDF73CFEE3
:1026000010BD0000350100202D0100202E0100200A
:102610009422002030010020440100202F010020DE
:102620001801002010B500240B480078012811D1B2
:10263000FDF71EFE04460948007840B908480078B6
:10264000FF2804D206480078401C0549087020463F
:10265000FDF712FE10BD0000350100202D01002005
:102660002E01002010B5002413480078012821D144
:10267000FDF7FEFD044611480078C0B10F48007810
:10268000401E0E4908700846007860B90C48007872
:1026900028B92046FDF7F0FD00F0EAFD0AE02046EB
:1026A000FDF7EAFD06E02046FDF7E6FD02E02046E4
:1026B000FDF7E2FD10BD0000350100202E010020D5
:1026C0002D01002070B5054600261048007808B19D
:1026D000002070BDFDF7CCFD06460D48046800687B
:1026E00020B10B4800684068094908603046FDF792
:1026F000C3FD4CB10320207025810020606005A03F
:102700002061204600F0AEFC2046E2E72D010020CB
:102710001C0100203F0000002DE9F04105460E4657
:10272000144600272878032803D001202070BDE834
:10273000F0812F48007810B102202070F7E72D4873
:10274000007810B10D202070F1E7FDF791FD0746EC
:10275000288940B12889401E28813846FDF78CFD24
:1027600000202070E3E724480068007F40F001006B
:1027700021490968087700201F49096848771E48E1
:1027800000688661284600F02FFC3846FDF774FD8E
:1027900000F06EFDFDF76CFD074617480068407FAE
:1027A00020B1012809D0022806D102E000202070C3
:1027B0000BE00E20207008E000BF29460E4800689C
:1027C00000F0E0FB0A20207000BF00BF00200A4993
:1027D0000968087708490968487707490968C8609F
:1027E0000549096808613846FDF746FD00BF9EE7C8
:1027F0002D0100202E0100203C01002070B5044670
:1028000000252078032801D0012070BDFDF730FDA0
:102810000546A07A60B1002301221946204600F047
:102820006BFB2846FDF728FD00F022FD0020ECE7B9
:1028300020894FF6FF71884207D22089401C2081F1
:102840002846FDF719FD0020DFE72846FDF714FDB7
:102850003320DAE710B50B48007890B900F03CFD62
:10286000094800780949087009480749097850F86B
:102870002100084908600846006807490860FDF71C
:10288000FEFC10BD35010020300100202F0100208A
:1028900094220020440100203C01002010B50024B7
:1028A000022000F015F9FDF7E3FC044600200B4977
:1028B00008602046FDF7E0FC142000F009F9FDF760
:1028C000D7FC044605480068054908600120054911
:1028D00008702046FDF7D0FC10BD00003801002034
:1028E000240100202C010020704700002DE9FE4F3C
:1028F00006460F4690461C464FF00009FDF7B8FC0F
:1029000081461F48007828B14846FDF7B5FC3C20B9
:10291000BDE8FE8F1B4850F8240060BB0120194918
:1029200041F824004846FDF7A7FC002342463946FB
:10293000304600F02EF882460020009001900346B9
:10294000024651460290204600F0DCFC054635B9AF
:102950000D48007801280CD100F08AFC09E0FDF751
:1029600087FC81460020074941F824004846FDF7CE
:1029700083FC2846CCE74846FDF77EFC2820C7E7C5
:102980002D0100209422002035010020704770475F
:10299000704770B5044610464FF080750560051FFE
:1029A00028462C606FF00106051F28462E604FF068
:1029B0001236051F28462E604FF00336051F2846A5
:1029C0002E604FF00236051F28462E607610051F38
:1029D00028462E60051F284629604FF01136051F36
:1029E00028462E604FF01036051F28462E604FF007
:1029F0000936051F28462E604FF00836051F284669
:102A00002E604FF00736051F28462E604FF0063621
:102A1000051F28462E604FF00536051F28462E60FC
:102A20004FF00436051F28462E6070BD2DE9F04199
:102A300005464FF00008FDF71BFC8046FF2D04D132
:102A40001E480068857F012607E01C480068807FDB
:102A5000A84201D1012600E00026194850F825407F
:102A60002CB94046FDF708FC4820BDE8F081012C58
:102A700004D14046FDF700FC4320F6E794F82070AF
:102A80001048C05D94F8211088430E49C855084687
:102A9000C05D30B994F822100B48007888430A4989
:102AA0000870207F40F0080020774046FDF7E4FBE7
:102AB000012E01D100F0DCFB0020D6E73C01002014
:102AC00094220020320100203101002070470000D4
:102AD00070B5054600261748007800B170BD16484D
:102AE000007800B1FAE71DB3FDF7C2FB06461348B4
:102AF000006890F820401248005D1049096891F87C
:102B0000211088430E4908550846005D40B90B481E
:102B1000006890F822100B48007888430949087033
:102B20000648006885613046FDF7A6FB00F0A0FB73
:102B300000BFD3E72D0100202E0100203C01002022
:102B400032010020310100202DE9F04104460D46FC
:102B500016461F461248007810B15520BDE8F08196
:102B60001048007808B13220F8E7B81CC821484363
:102B70004FF47A71B0FBF1F14FF461606043C5EB43
:102B8000051200EB8200304400EBC00202EB0010A3
:102B900001EBC0084046FFF79BFF0020DEE7000086
:102BA0002D0100202E01002070B5002600F06CF8E9
:102BB000FDF75EFB06462E480068401C2C49086065
:102BC0003046FDF759FB2B48007801284DD12A48A3
:102BD000007820B1012804D0022809D103E00125A2
:102BE0000BE0002509E0012501202349087004E0DD
:102BF000012500202049087000BF00BF05B970BD45
:102C00001E4804682EE0FDF733FB0646A06928B392
:102C1000A069401EA061A06900BB207F00F03700C2
:102C200030B1207F00F0C80020770120607701E0FC
:102C300000206077207F00F0080078B92034A07869
:102C40000F49097808430E49087020780D49085C3F
:102C50006178084314F820190A4A505464683046D1
:102C6000FDF70AFBA07F1428CDD100BFC7E7000005
:102C700054010020350100204C01002048010020B3
:102C8000310100203201002010B506480088401CA8
:102C9000044908800846008818B10020088000F028
:102CA00003F810BD7001002010B503480068FFF75D
:102CB000A5FD0446204610BD64010020F8B578212A
:102CC000284800F0A3FA4021274800F09FFA002589
:102CD00014E0681C86B205EB8500224901EBC004B4
:102CE00006EB860001EBC00764202070002084F80A
:102CF0002500E7601DA02062681C85B2022DE8D384
:102D000005EB8500174901EBC0046420207000200A
:102D100084F82500E06015A02062002014490860B6
:102D2000144908800320144908800E48134908609C
:102D30000120FFF7C7FC124908600020FFF7C2FC22
:102D4000104908606A4610A10D480068FFF7CCFBE7
:102D50006A4612A10B480068FFF7C6FB00F028F88E
:102D6000F8BD000010250020882700203F0000004B
:102D70005C0100205A010020580100206801002059
:102D8000600100206401002075432F4F532D4949F5
:102D900020546D724C6F636B0000000075432F4F21
:102DA000532D494920546D725369676E616C000060
:102DB00010B50023024A19460248FFF797FD10BDDF
:102DC00084270020352E000870B50B46032580F8B7
:102DD0002550012B05D1154EC5693668354445612E
:102DE0000CE085692DB9114EC569366835444561D9
:102DF00004E00E4E8569366835444561057D05F071
:102E000007040B4D05EBC4010D682DB908600025C2
:102E1000C56001258D8006E00A680860C260106107
:102E20008D886D1C8D800025056170BD5C010020C2
:102E30008827002008B500BF00BF6A4600211A4855
:102E40000068FFF769FCFFF7EDFB18480068401CBD
:102E5000164908600846007800F00708144800EB9F
:102E6000C8073C681AE0E66810496069096888424A
:102E700013D1204600F01EF894F82400022804D153
:102E800001212046FFF7A0FF02E0022084F8250080
:102E9000656815B12046A168A8473446002CE2D1E8
:102EA000FFF7E0FBC9E70000640100205C0100209F
:102EB0008827002030B5057D05F007040D4D05EB92
:102EC000C4031D68854205D1C168196039B1002568
:102ED0000D6104E00169C268CA6002B11161012597
:102EE00080F825500025C56005619D886D1E9D8078
:102EF00030BD0000882700202DE9F04F05460F4621
:102F000090469946A87A1B490E5C05F10B00805D3E
:102F100011F800B00BEBC60000F0FF0A164850F89D
:102F20002A400020A0616761207F20EA0800207706
:102F300084F81D90207F00F0080068B994F8220002
:102F40000E49097808430D4908700D48805D94F8D2
:102F5000211008430A4988552946204600F012F8F6
:102F6000206920B12046216900F021F8E560504633
:102F7000BDE8F08F8E7800089422002031010020F7
:102F80003201002010B590F8202001F10B039B5C6A
:102F900090F82140A34301F10B04A35423469B5C0A
:102FA00023B98B7A90F82240A3438B7210BDF0B501
:102FB000024612F8204F95785678203A0B4618684A
:102FC0000FE000F10B073F5DB74300F10B0C0CF86D
:102FD000047067463F5D17B9877AAF4387721B1D40
:102FE00018680028EDD1F0BD10B51B4A1268D060FA
:102FF000194A126892F8203000F10B02D25C164B8D
:103000001B6893F821301A43134B1B6893F8204038
:1030100000F10B031A55827A0F4B1B6893F822308C
:103020001A4382720C4A126892F820100B4A525CC2
:10303000094B1B6893F821309A43084B5A541A469F
:10304000525C42B9044A126892F82230044A12785B
:103050009A43034B1A7010BD3C010020320100203E
:1030600031010020014600228A72002005E0002381
:1030700001F10B021354421CD0B20328F7D370475E
:1030800070B56421134800F0C1F8002411E0601C01
:1030900085B204EB84000F4901EB800305EB85004A
:1030A00001EB8006002018705E600BA01861601CA8
:1030B00084B2042CEBD304EB8400064901EB8003BB
:1030C00000201870586004A0186108460349086081
:1030D00070BD0000301E00203F0000001C010020D9
:1030E00000200A4908600A4908700A4908700A491C
:1030F00008700A4908700A4908600A4908600A49C4
:1031000008600A4908600A490870704754010020A5
:103110002D0100202E010020360100203501002065
:10312000180100203801002028010020240100207F
:103130002C01002000210A4A1170002004E0002127
:10314000084A1154411CC8B20328F8D30021064A8A
:103150001170064A1170064A1160064A11607047E4
:1031600031010020320100202F0100203001002019
:10317000440100203C01002070B54FF4D871134881
:1031800000F044F85421124800F040F800230DE00C
:10319000581CC5B203EBC3000C4901EB800405EBDE
:1031A000C50001EB80066660581CC3B20B2BEFD341
:1031B00003EBC300054901EB800400206060054972
:1031C000086002480449086070BD0000E822002041
:1031D00094220020480100204001002010B5142353
:1031E000024A00210248FFF781FB10BD9022002017
:1031F0000134000810B51323024A00210248FFF7EA
:1032000075FB10BD902000202934000804E0002246
:1032100000F8012B4A1E91B20029F8D17047000036
:103220002DE9F04178211048FFF7F0FF00240DE070
:10323000601C86B204EB44000B4901EBC00506EBB1
:10324000460001EBC0072F60601C84B2042CEFD352
:1032500004EB4400044901EBC00500202860084647
:1032600002490860BDE8F081982400205001002048
:1032700010B50024FCF7FCFF044610480078C0B9E4
:103280000F480078A8B900F027F80E480E490978D1
:1032900050F821000D4908600B4800780C49097866
:1032A000884206D00B480068401C0A490860FCF7B9
:1032B000F7FF2046FCF7E0FF10BD00002D010020C5
:1032C0002E01002094220020300100204401002023
:1032D0002F010020180100200649074A1278885C57
:1032E0000649095C034A515C01EBC001044A1170B4
:1032F000704700008E780008310100203201002064
:10330000300100202DE9F84F05460E461746984635
:10331000DDE90BABDDF8289000200090FCF7A8FF5A
:10332000009031480468002C58D054F8040F2E49FE
:1033300008600098FCF7A0FF44F8046CA576002014
:1033400020766076606100BF00BF00BF00BF00BF95
:10335000E810207705F00700E076217F0120884003
:10336000A077E17E0120884060770020A060E060C7
:103370002061241F2046FFF7B7FA2046FFF706FB1F
:10338000FCF776FF0090194840F82540184800687F
:1033900060600020A0601648006810B11448006802
:1033A0008460134804602034A078124909780843E7
:1033B0001049087020781049085C6178084314F8B7
:1033C00020190D4A50540D480078401C0B490870D4
:1033D0000098FCF751FF0020BDE8F88F0098FCF73B
:1033E0004BFF4220F8E7000040010020942200201B
:1033F0004801002031010020320100203601002068
:10340000002400BF00BFFCF733FF044605480068F6
:10341000401C044908602046FCF72EFFFFF7B7FA6E
:10342000F1E7000038010020002400BF02E028205E
:10343000FFF74EFB184800780028F8D017480068BE
:103440006421B0FBF1F0154908600846006828B90E
:10345000002013490870FF20FFF7E8FA00BFFCF7CF
:1034600007FF04460F4800680F49086000200D4917
:1034700008602046FCF700FF0B4800680749096810
:10348000B0FBF1F0C0F1640005490870FFF780FA65
:103490001420FFF71DFBE2E72C010020240100208F
:1034A00020010020380100202801002008B501215A
:1034B000082000F03FF84FF46040ADF80000102005
:1034C0008DF8030003208DF8020069460848FEF7D6
:1034D000ADFD4FF48050ADF8000028208DF80300BA
:1034E00003208DF8020069460148FEF79FFD08BDE4
:1034F000000C014029B1064A52690243044B5A614B
:1035000004E0034A52698243014B5A61704700004C
:103510000010024029B1064AD2690243044BDA6125
:1035200004E0034AD2698243014BDA61704700002C
:103530000010024029B1064A92690243044B9A6185
:1035400004E0034A92698243014B9A61704700008C
:103550000010024030B500210022002400232D4D30
:103560006D6805F00C0121B1042905D0082923D18B
:1035700005E0294D056022E0274D05601FE0254D3F
:103580006D6805F47012234D6D6805F480340225D2
:1035900005EB92421CB9214D554305600BE01D4DD2
:1035A0006D6805F400351DB11C4D5543056002E002
:1035B000194D5543056002E0174D056000BF00BF7F
:1035C000144D6D6805F0F0010909154D6B5C056837
:1035D000DD4045600F4D6D6805F4E061090A104D4E
:1035E0006B5C4568DD4085600A4D6D6805F460518F
:1035F000C90A0B4D6B5C4568DD40C560054D6D68C3
:1036000005F44041890B074D6B5CC568B5FBF3F5CC
:10361000056130BD0010024000127A0000093D0033
:10362000040100201401002010B547214FF6FF705F
:1036300000F036FB10BD704710B500F001F810BD6A
:103640000CB50020019000903348006840F48030B1
:103650003149086000BF3048006800F40030009035
:103660000198401C0190009818B90198B0F5A06F1E
:10367000F1D12948006800F4003010B10120009019
:1036800001E0002000900098012843D12348006801
:1036900040F01000214908600846006820F003004F
:1036A00008600846006840F0020008601A48406858
:1036B000194948600846406848600846406840F438
:1036C000806048600846406820F47C1048600846E6
:1036D000406840F4E81048600846006840F0807098
:1036E000086000BF0C48006800F000700028F9D0A6
:1036F0000948406820F003000749486008464068D0
:1037000040F00200486000BF0348406800F00C0031
:103710000828F9D10CBD0000001002400020024032
:10372000042808D14FF0E021096941F004014FF06D
:10373000E022116107E04FF0E021096921F0040166
:103740004FF0E0221161704710B5FEF717FFFFF749
:103750002BFAFEF725FF10BD10B51348006840F0A6
:1037600001001149086008464068104908400E49A8
:103770004860084600680E4908400B490860084642
:10378000006820F4802008600846406820F4FE00AD
:1037900048604FF41F008860FFF74EFF4FF0006055
:1037A0000449086010BD0000001002400000FFF84E
:1037B000FFFFF6FE08ED00E0F0B50C4615460022CE
:1037C0000021068C4FF6FE773E400684028B018C6A
:1037D0004FF60C7632407E1C06EA03162E43324327
:1037E000104EB0420ED0104EB0420BD0B0F1804F10
:1037F00008D00E4EB04205D00D4EB04202D00D4E54
:10380000B04206D14FF6FD76314044F00106314317
:1038100005E04FF6F576314044F00106314302836E
:103820000184F0BD002C0140003401400004004040
:1038300000080040000C0040F0B50C461546002280
:1038400000210026078C4FF6EF7C07EA0C0707845F
:10385000028B018C4FF6FF7707EA041640F6FF470C
:103860003A404FF6FF7707EA03373A434FF6FF77C0
:1038700007EA05273A43114FB8420ED0104FB8421D
:103880000BD0B0F1804F08D00E4FB84205D00E4F8C
:10389000B84202D00D4FB84206D14FF6DF7739401B
:1038A00046F01007394305E04FF65F77394044F0A2
:1038B0001007394302830184F0BD0000002C014051
:1038C000003401400004004000080040000C0040AB
:1038D000F0B50C461546002200210026078C4FF655
:1038E000FF6C07EA0C070784828B018C4FF6FF7789
:1038F00007EA04264FF60C773A404FF6FF7707EABF
:1039000003172F433A43114FB8420ED0104FB8421D
:103910000BD0B0F1804F08D00E4FB84205D00E4FFB
:10392000B84202D00D4FB84206D14FF6FF5739408A
:1039300046F48077394305E04FF2FF57394044F4AD
:103940008077394382830184F0BD0000002C014060
:10395000003401400004004000080040000C00401A
:10396000F0B50C461546002200210026078C4EF6C5
:10397000FF7C07EA0C070784828B018C4FF6FF77E8
:1039800007EA043640F6FF473A404FF6FF7707EA6A
:1039900005273A434FF6FF7707EA03373A43114FBB
:1039A000B8420ED0104FB8420BD0B0F1804F08D0C3
:1039B0000E4FB84205D00E4FB84202D00D4FB8425C
:1039C00006D14DF6FF77394046F48057394305E07C
:1039D00047F6FF57394044F48057394382830184C6
:1039E000F0BD0000002C0140003401400004004004
:1039F00000080040000C004010B5FEF7BFFD9748DE
:103A0000007800F08000002845D10221480700F02E
:103A1000E6FD00283FD00221480700F0B5FD8F48A1
:103A2000007800F0400030B34FF0804000F0CAFD55
:103A30008B490880084600888A490988884204DA48
:103A40004FF6FF708849086002E000208649086050
:103A50008348008883490988401A834909880844B3
:103A60008249088000207D49087000214FF0804085
:103A700000F072FE0FE04FF0804000F0A3FD7949A6
:103A800008807648007840F04000744908700221B0
:103A9000480700F061FE7648007800F080000028BA
:103AA00044D10421080700F09AFD70B304210807EF
:103AB00000F06AFD6E48007800F0400030B34FF02F
:103AC000804000F082FD6B490880084600886A4902
:103AD0000988884204DA4FF6FF706849086002E0FE
:103AE0000020664908606348008863490988401AD5
:103AF0006249098808445D49488000205C49087093
:103B000000214FF0804000F08BFE0FE04FF080402E
:103B100000F05BFD584908805548007840F04000AF
:103B2000534908700221480700F07AFE5448007893
:103B300000F08000002844D10821C80600F04FFDA5
:103B400070B30821C80600F01FFD4D48007800F052
:103B5000400030B34FF0804000F03AFD4949088002
:103B60000846008848490988884204DA4FF6FF7001
:103B70004649086002E00020444908604148008846
:103B800041490988401A41490988084437498880D1
:103B900000203B49087000214FF0804000F0AAFE51
:103BA0000FE04FF0804000F013FD374908803448A3
:103BB000007840F04000324908700221480700F0C8
:103BC00099FE3348007800F0800098BB10218806E9
:103BD00000F005FD70B31021880600F0D5FC2C48DC
:103BE000007800F0400030B34FF0804000F0F3FC6C
:103BF000284908800846008827490988884204DA4D
:103C00004FF6FF702549086002E000202349086054
:103C10002048008820490988401A2049098808441A
:103C20001249C88000201A49087000214FF08040D6
:103C300000F0B4FE0FE04FF0804000F0CCFC1649DD
:103C400008801348007840F04000114908700221B4
:103C5000480700F0A3FEFEF7A3FC10BD680000209B
:103C60006C0000206A00002058000020541C002036
:103C70006E00002072000020700000205C00002018
:103C800074000020780000207600002060000020F2
:103C90007A0000207E0000207C00002064000020CC
:103CA00030B585B005460C4601210220FFF732FCF5
:103CB00001210C20FFF73EFCC020ADF810002820A9
:103CC0008DF8130004A93748FEF7B0F9C021354834
:103CD000FEF780FA0320ADF8100028208DF81300BD
:103CE00004A93148FEF7A2F903212F48FEF772FA22
:103CF000ADF80850ADF804400020ADF80A00ADF86A
:103D0000060001A9294800F08FFE002028490880FC
:103D10004880012088800020C8800881234800F066
:103D20006FFC042022490880002048800120888000
:103D30000020C88008811D4800F062FC08201C4952
:103D4000088000204880012088800020C8800881E9
:103D5000164800F055FC0C201549088000204880CA
:103D6000012088800020C8800881104800F048FCAD
:103D70001D208DF8000000208DF801008DF8020054
:103D800001208DF803006846FEF76CFB01221E211E
:103D9000064800F08BFC0121044800F0F8FB05B058
:103DA00030BD000000080140000C0140000400404C
:103DB0007E1C002010B5FEF7E1FB9148007800F072
:103DC0008000002842D102218E4800F008FC002823
:103DD0003CD002218B4800F0D7FB8948007800F0E6
:103DE000400020B3874800F0EDFB87490880084673
:103DF000008886490988884204DA4FF6FF708449B2
:103E0000086002E00020824908607F4800887F49FE
:103E10000988401A7E49098808447E4908810020A3
:103E2000774908700021774800F096FC0EE075484D
:103E300000F0C8FB754908807148007840F04000E8
:103E40006F49087002216F4800F086FC72480078C4
:103E500000F08000002841D104216A4800F0BFFB37
:103E600060B30421674800F08FFB6B48007800F0D6
:103E7000400020B3634800F0A8FB6849088008466A
:103E8000008867490988884204DA4FF6FF7065495F
:103E9000086002E0002063490860604800886049CB
:103EA0000988401A5F49098808445A494881002016
:103EB000594908700021534800F0B2FC0EE0514807
:103EC00000F083FB564908805348007840F04000DA
:103ED0005149087002214B4800F0A2FC524800787A
:103EE00000F08000002841D10821464800F077FB0F
:103EF00060B30821434800F047FB4B48007800F0CE
:103F0000400020B33F4800F063FB48490880084662
:103F1000008847490988884204DA4FF6FF7045490E
:103F2000086002E00020434908604048008840499A
:103F30000988401A3F490988084436498881002089
:103F40003949087000212F4800F0D4FC0EE02D48BC
:103F500000F03EFB364908803348007840F04000CE
:103F6000314908700221274800F0C4FC324800782B
:103F700000F0800088BB1021224800F030FB60B3C5
:103F80001021204800F000FB2B48007800F0400092
:103F900020B31C4800F01FFB284908800846008811
:103FA00027490988884204DA4FF6FF7025490860DE
:103FB00002E0002023490860204800882049098841
:103FC000401A2049098808441249C88100201A492A
:103FD000087000210B4800F0E1FC0EE0094800F0F9
:103FE000FAFA174908801448007840F04000124956
:103FF00008700221034800F0D1FCFEF7D1FA10BD91
:104000009000002000040040940000209200002056
:1040100080000020541C0020960000209A00002000
:1040200098000020840000209C000020A0000020B8
:104030009E00002088000020A2000020A600002092
:10404000A40000208C00002010B5FEF797FA9148DC
:10405000007800F08000002842D102218E4800F054
:10406000BEFA00283CD002218B4800F08DFA894826
:10407000007800F0400020B3874800F0A3FA874999
:1040800008800846008886490988884204DA4FF685
:10409000FF708449086002E00020824908607F4880
:1040A00000887F490988401A7E49098808447E496A
:1040B00008820020774908700021774800F04CFB07
:1040C0000EE0754800F07EFA754908807148007866
:1040D00040F040006F49087002216F4800F03CFB3F
:1040E0007248007800F08000002841D104216A481D
:1040F00000F075FA60B30421674800F045FA6B4898
:10410000007800F0400020B3634800F05EFA684990
:1041100008800846008867490988884204DA4FF613
:10412000FF706549086002E000206349086060484C
:10413000008860490988401A5F49098808445A493B
:1041400048820020594908700021534800F068FB5C
:104150000EE0514800F039FA56490880534800787B
:1041600040F040005149087002214B4800F058FBD4
:104170005248007800F08000002841D108214648CC
:1041800000F02DFA60B30821434800F0FDF94B48D8
:10419000007800F0400020B33F4800F019FA484989
:1041A00008800846008847490988884204DA4FF6A3
:1041B000FF704549086002E000204349086040481C
:1041C000008840490988401A3F490988084436490F
:1041D000888200203949087000212F4800F08AFBAE
:1041E0000EE02D4800F0F4F9364908803348007895
:1041F00040F04000314908700221274800F07AFB66
:104200003248007800F0800088BB1021224800F07E
:10421000E6F960B31021204800F0B6F92B48007889
:1042200000F0400020B31C4800F0D5F92849088070
:104230000846008827490988884204DA4FF6FF704B
:104240002549086002E000202349086020480088D2
:1042500020490988401A2049098808441249C8821F
:1042600000201A49087000210B4800F097FB0EE06F
:10427000094800F0B0F9174908801448007840F068
:104280004000124908700221034800F087FBFEF746
:1042900087F910BDB800002000080040BC000020D5
:1042A000BA000020A8000020541C0020BE000020FE
:1042B000C2000020C0000020AC000020C40000208C
:1042C000C8000020C6000020B0000020CA00002066
:1042D000CE000020CC000020B400002010B5FEF776
:1042E0004DF99148007800F08000002842D1022169
:1042F0008E4800F074F900283CD002218B4800F071
:1043000043F98948007800F0400020B3874800F066
:1043100059F98749088008460088864909888842F3
:1043200004DA4FF6FF708449086002E000208249F9
:1043300008607F4800887F490988401A7E490988BB
:1043400008447E4908830020774908700021774897
:1043500000F002FA0EE0754800F034F97549088063
:104360007148007840F040006F49087002216F48A2
:1043700000F0F2F97248007800F08000002841D186
:1043800004216A4800F02BF960B30421674800F06B
:10439000FBF86B48007800F0400020B3634800F061
:1043A00014F96849088008460088674909888842E6
:1043B00004DA4FF6FF706549086002E000206349A7
:1043C00008606048008860490988401A5F49098888
:1043D00008445A494883002059490870002153482D
:1043E00000F01EFA0EE0514800F0EFF85649088040
:1043F0005348007840F040005149087002214B4872
:1044000000F00EFA5248007800F08000002841D1F8
:104410000821464800F0E3F860B30821434800F063
:10442000B3F84B48007800F0400020B33F4800F05C
:10443000CFF84849088008460088474909888842DB
:1044400004DA4FF6FF704549086002E00020434956
:1044500008604048008840490988401A3F49098857
:1044600008443649888300203949087000212F48C4
:1044700000F040FA0EE02D4800F0AAF83649088016
:104480003348007840F04000314908700221274845
:1044900000F030FA3248007800F0800088BB10212C
:1044A000224800F09CF860B31021204800F06CF81E
:1044B0002B48007800F0400020B31C4800F08BF837
:1044C000284908800846008827490988884204DA74
:1044D0004FF6FF702549086002E00020234908607C
:1044E0002048008820490988401A20490988084442
:1044F0001249C88300201A49087000210B4800F0B7
:104500004DFA0EE0094800F066F817490880144893
:10451000007840F04000124908700221034800F082
:104520003DFAFEF73DF810BDE0000020000C004011
:10453000E4000020E2000020D0000020541C0020F5
:10454000E6000020EA000020E8000020D40000205F
:10455000EC000020F0000020EE000020D800002039
:10456000F2000020F6000020F4000020DC00002013
:1045700021B1028842F08002028004E002884FF6F6
:104580007F731A4002807047CA430282704721B18C
:10459000028842F00102028004E002884FF6FE73B6
:1045A0001A400280704731B1B0F8442042F4004212
:1045B000A0F8442005E0B0F84420C2F30E02A0F8B1
:1045C000442070470146888E70470146088F704727
:1045D0000146888F70470146B1F84000704730B5FA
:1045E0000246002000230024158A05EA010395896C
:1045F00005EA010413B10CB1012000E0002030BD38
:1046000070B505460C46244885420ED023488542A5
:104610000BD0B5F1804F08D02148854205D0214804
:10462000854202D02048854200D100E000BF2088AA
:1046300050B92389A28861882846FFF7BDF8E18830
:10464000284600F0C5F925E0208804280AD12389EE
:10465000A28861882846FFF7EFF8E188284600F035
:10466000C0F917E0208808280AD12389A288618828
:104670002846FFF72DF9E188284600F0BFF909E048
:104680002389A28861882846FFF76AF9E1882846CD
:1046900000F0BDF970BD0000002C01400034014065
:1046A0000004004000080040000C00401AB183895B
:1046B0000B43838102E083898B4383817047000031
:1046C00070B5002400220023058C4FF6FE7635409D
:1046D0000584028C8388048B4FF68F752C40B51EA1
:1046E0002C400D882C43751E2A400D892A434D8885
:1046F0002A43144DA8420BD0134DA84208D0134DA5
:10470000A84205D0124DA84202D0124DA84213D1A2
:104710004FF6F7752A404D892A434FF6FB752A401C
:104720008D882A434FF6FF652B404FF6FF552B40EF
:104730008D892B43CD892B4383800483CD88858647
:10474000028470BD002C0140003401400040014053
:1047500000440140004801400A460021018C4FF608
:10476000FD7319401143018470470A460021018BF3
:104770004FF6F773194011430183704770B5002459
:1047800000220023058C4FF6EF7635400584028C1D
:104790008388048B48F6FF752C404FF6FF452C406C
:1047A0000D884FF6FF7606EA05252C434FF6DF7598
:1047B0002A400D8906EA05152A434D8806EA0515A3
:1047C0002A43154DA84202D0144DA8421DD14FF6E0
:1047D0007F752A404D894FF6FF7606EA05152A4374
:1047E0004FF6BF752A408D8806EA05152A434FF615
:1047F000FF352B404FF2FF752B408D8906EA85056A
:104800002B43CD8906EA85052B4383800483CD881D
:104810000587028470BD0000002C01400034014077
:104820000A460021018C4FF6DF7319404FF6FF73E3
:1048300003EA02131943018470470A460021018BE1
:104840004FF2FF7319404FF6FF7303EA0223194337
:104850000183704770B5002400220023058C4FF6B9
:10486000FF6635400584028C8388848B4FF68F75F4
:104870002C404FF6FC752C400D882C434FF6FF550D
:104880002A400D894FF6FF7606EA05252A434D8812
:1048900006EA05252A43154DA84202D0144DA84228
:1048A0001DD14FF2FF752A404D894FF6FF7606EA7B
:1048B00005252A434FF6FF352A408D8806EA05254F
:1048C0002A434EF6FF752B404DF6FF752B408D8920
:1048D00006EA05152B43CD8906EA05152B4383808F
:1048E0008483CD888587028470BD0000002C014040
:1048F000003401400A460021018C4FF6FF53194055
:104900004FF6FF7303EA02231943018470470A46F6
:104910000021818B4FF6F773194011438183704753
:1049200070B5002200230024058C4EF6FF7635403A
:104930000584038C8488828B48F6FF752A404FF6E5
:10494000FF452A400D884FF6FF7606EA05252A43E3
:104950004DF6FF752B400D8906EA05352B434D8832
:1049600006EA05352B430B4DA84202D00A4DA8425A
:1049700008D14BF6FF752C408D894FF6FF7606EA7D
:1049800085152C4384808283CD88A0F84050038411
:1049900070BD0000002C0140003401400A46002197
:1049A000018C4DF6FF7319404FF6FF7303EA023393
:1049B0001943018470470A460021818B4FF2FF732F
:1049C00019404FF6FF7303EA0223194381837047AE
:1049D000028B4FF6F3731A400283028B0A43028361
:1049E0007047028B4FF2FF331A400283028B4FF65F
:1049F000FF7303EA01231A4302837047828B4FF649
:104A0000F3731A408283828B0A4382837047828BBE
:104A10004FF2FF331A408283828B4FF6FF7303EA13
:104A200001231A4382837047002202881D4B98425B
:104A30000ED01D4B98420BD0B0F1804F08D01B4BCD
:104A4000984205D01A4B984202D01A4B984204D192
:104A50004FF68F731A404B881A43174B984207D072
:104A6000164B984204D04FF6FF431A40CB881A43A6
:104A700002808B8883850B8803850A4B98420BD074
:104A8000094B984208D00E4B984205D00D4B9842E6
:104A900002D00D4B984201D10B7A03860123838209
:104AA00070470000002C0140003401400004004029
:104AB00000080040000C00400010004000140040BE
:104AC00000400140004401400048014010B588B05A
:104AD000002401210520FEF72DFD4FF41060ADF8F4
:104AE000000003208DF8020018208DF803006946AD
:104AF0002348FDF79BFA0121C802FEF71BFD07249E
:104B000042F22730ADF81800ADF814400020ADF89F
:104B10001A00ADF8160005A91A48FFF785FF6020B6
:104B2000ADF804000120ADF806000020ADF8080043
:104B3000ADF80A00ADF80C00ADF80E00ADF81000AD
:104B4000ADF8120001A90F48FFF7BAFD08210D4882
:104B5000FFF70BFE01A90B48FFF7E2FE0821094809
:104B6000FFF729FF01210748FFF702FD0121054852
:104B7000FFF70DFD01210348FFF715FD08B010BD3B
:104B800000080140002C014010B588B0002401212C
:104B90000846FEF7BFFC01210520FEF7CBFC0F20E5
:104BA000ADF8000003208DF8020018208DF80300F6
:104BB00069462848FDF73AFA01210846FEF7AAFCA3
:104BC000072442F22730ADF81800ADF81440002059
:104BD000ADF81A00ADF8160005A94FF08040FFF7B8
:104BE00023FF6020ADF804000120ADF8060000208E
:104BF000ADF80A00ADF80C0001A94FF08040FFF7B6
:104C00005FFD0821C806FFF7B0FD01A94FF0804005
:104C1000FFF7B4FD0821C806FFF70FFE01A94FF00A
:104C20008040FFF717FE0821C806FFF770FE01A9B4
:104C30004FF08040FFF774FE0821C806FFF7BBFE67
:104C400001218807FFF794FC01218807FFF79FFCEB
:104C500008B010BD0008014010B588B00024012143
:104C60000920FEF767FC4FF47070ADF800000320D8
:104C70008DF8020018208DF8030069462548FDF7DD
:104C8000D5F901210420FEF745FC072442F2273024
:104C9000ADF81800ADF814400020ADF81A00ADF8DA
:104CA000160005A91C48FFF7BFFE6020ADF8040000
:104CB0000120ADF806000020ADF80A00ADF80C00A8
:104CC00001A91548FFF7FCFC08211348FFF74DFD2B
:104CD00001A91148FFF752FD08210F48FFF7ADFD6C
:104CE00001A90D48FFF7B6FD08210B48FFF70FFE9D
:104CF00001A90948FFF714FE08210748FFF75BFEEA
:104D000001210548FFF734FC01210348FFF73FFC70
:104D100008B010BD000C01400008004010B5002490
:104D2000FDF72CFC40F225510A4800F049F868B123
:104D3000084800F001F9C4B2204601F0B1F801289A
:104D400004D105480088401C03490880FDF728FC71
:104D500010BD0000003801402C00002010B540F2CA
:104D600025510E4800F02CF8B0B10C4800F0E4F8E2
:104D7000C4B20B480088C82808DA094801880088AE
:104D8000401C074A10800748445405E00448008846
:104D900040F400400249088010BD0000004400407B
:104DA000F8000020681D002021B1828942F40052E1
:104DB000828104E082894DF6FF731A408281704738
:104DC00070B50246002400230025002040F66A1634
:104DD000B14200D100BFC1F3421501F01F0301260B
:104DE00006FA03F3012D02D19689334006E0022D25
:104DF00002D1168A334001E0968A33400C12012614
:104E000006FA04F41688344013B10CB1012000E016
:104E1000002070BDF0B503460024002600250020C8
:104E200040F66A17B94200D100BF1846C1F34214D8
:104E300001F01F06012707FA06F5012C01D10C30FD
:104E400004E0022C01D1103000E014301AB10768E0
:104E50002F43076002E00768AF430760F0BD000022
:104E60002DE9F04786B005460E460024A24600BF55
:104E7000A1460027B08900B100BF2F462C8A4CF60E
:104E8000FF700440F08804432C82AC894EF6F31086
:104E90000440B08831890843718908430443AC81D8
:104EA000AC8A4FF6FF400440B0890443AC8201A8AD
:104EB000FEF750FB1F48874202D1DDF810A001E049
:104EC000DDF80CA0A88900F4004040B10AEBCA004C
:104ED00000EB0A1031684900B0FBF1F807E00AEB7B
:104EE000CA0000EB0A1031688900B0FBF1F86420B9
:104EF000B8FBF0F004012009642101FB1089A889A6
:104F000000F4004040B1322000EBC900B0FBF1F0EA
:104F100000F00700044308E0322000EB0910642190
:104F2000B0FBF1F000F00F0004432C8106B0BDE8A7
:104F3000F08700000038014001468888C0F308006F
:104F4000704700BFFEE70000024A0020110702F090
:104F500052BC000001FDFFFF10B50446D1E900017D
:104F600000F002F8206010BD38B504460D466A46D0
:104F700000F0B6FB00987E30009000281FDC002275
:104F800013462046294601F0BFFD18D02046294689
:104F900001F074FB0446002140F608004FF00000C9
:104FA00040F60801014040F608004FF0000034F0E0
:104FB000004004BF0220FBF78CFB204638BD009860
:104FC000FF280DDB0220FBF784FB0022134620465E
:104FD000294601F053FF8CBF04484FF0FF4038BD15
:104FE00020462946BDE8384001F048BB000080FF5C
:104FF00010B504460A46D4E90003194600F09CFBAC
:10500000C4E9000110BD30380A2801D201207047E0
:105010000020704700BF70472DE9F84F91480168A4
:105020009148006802F0E4F800908E49886A02F026
:10503000F1F906468D480168304602F0D9F8054678
:10504000009902F033FA8749886300208862C86AB1
:1050500002F0E0F9064685480168304602F0C8F8DB
:105060000546009902F022FA7E49C8630020C86212
:10507000086B02F0CFF906467C480168304602F022
:10508000B7F80546009902F011FA76490864002045
:105090000863486B02F0BEF9064674480168304662
:1050A00002F0A6F80546009902F000FA6D4948643E
:1050B00000204863084690F8480020B90846806BF5
:1050C00080F000408863674890F8490028B9654837
:1050D000C06B80F000406349C863624890F84A00A2
:1050E00028B96048006C80F000405E4908645D4863
:1050F00090F84B0028B95B48406C80F0004059495B
:105100004864584AD16B906B02F004F8834601F072
:10511000D5FF074600224FF0804301F09DFB054676
:1051200001F0ACFA04464F4A516C106C01F0F2FFEA
:10513000834601F0C3FF074600224FF0804301F091
:105140008BFB054601F09AFA81464946204601F05C
:10515000E1FF834601F0B2FF054600224FF0804395
:1051600001F07AFB074601F089FA3E494860214682
:10517000484602F099FA05463D480168284602F083
:1051800037F838498860084600693A490860354B65
:1051900010331A1F38A13A48FBF7E6F900213548C9
:1051A000006802F0E7F807D12E490869002102F0F3
:1051B000E1F801D000F0C4F82A4A1432111F081F88
:1051C00000F060F8274801692948006802F06EF98C
:1051D000834601F073FF074600224FF0804301F041
:1051E0003BFB054601F04AFA82461E49C868514613
:1051F00002F05AFA1B49C864C868514602F054FAD2
:1052000018490865C868514601F084FF154948658A
:10521000C868514601F07EFF124988650846816BD7
:105220004166C16BC0F89C10016CC0F8D410416C91
:10523000C0F80C11C06C0B4908660846006DC1F837
:1052400098000846406DC1F8D0000846806DC1F84E
:10525000080101F017F8034A1169D06800F0B6FDA3
:10526000BDE8F88F98010020400000203C0000209D
:10527000340000201800002025662025660000006C
:10528000F00800202DE9F04104460D4616462B4A51
:10529000D2F84C11206802F0D5F904D22748D0F892
:1052A0004C0120600FE02548D0F84C0180F0004709
:1052B0003846216802F0C6F905D22048D0F84C01E2
:1052C00080F0004020601D4AD2F85411286802F096
:1052D000B9F904D21948D0F8540128600FE01748F2
:1052E000D0F8540180F000473846296802F0AAF946
:1052F00005D21248D0F8540180F0004028600F4ACF
:10530000D2F85C11306802F09DF904D20B48D0F855
:105310005C0130600FE00948D0F85C0180F0004784
:105320003846316802F08EF905D20448D0F85C01A5
:1053300080F000403060BDE8F0810000980100205E
:1053400000210C48C166024611675167C0F8A410DD
:10535000983211615161C0F8DC10002200F1D001D7
:105360000A614A610021C0F8141100200249086155
:105370004861704798010020A00200204948D0F8F9
:105380004011C0F88C10D0F84411C0F89010D0F83B
:105390004811C0F894100021C0F88010C0F88410A3
:1053A00000204049086600213E488166C1660246E9
:1053B000116751678167C1674166D0F84011C0F835
:1053C000C410D0F84411C0F8C810D0F84811C0F883
:1053D000CC100021C0F8B810C0F8BC100020114655
:1053E000C1F8980000211046C0F8A010C0F8A41021
:1053F00000229830026142619838C0F8B010C0F8BD
:10540000B410C0F89C10D0F84011C0F8FC10D0F8CF
:105410004411C0F80011D0F84811C0F8041100215F
:10542000C0F8F010C0F8F41000201E49C1F8D000F8
:1054300000211C48C0F8D810C0F8DC100020194921
:10544000D0310861486100211648C0F8E810C0F862
:10545000EC10C0F8D410D0F84011C0F83411D0F8D6
:105460004411C0F83811D0F84811C0F83C1100219F
:10547000C0F82811C0F82C1100200A49C1F8080111
:1054800000210848C0F81011C0F8141100F584720A
:1054900011615161C0F82011C0F82411C0F80C113D
:1054A00070470000980100200020224908834883AB
:1054B0008883C883012081F8480081F8490081F879
:1054C0004A0081F84B0042F22730FCF709FF42F214
:1054D0002730FCF733FF42F22730FCF75DFF42F242
:1054E0002730FCF787FF6423002211461046FDF7A2
:1054F0002BFB0020FCF7F4FE0020FCF71FFF002030
:10550000FCF74AFF0020FCF775FF11E0642300223E
:1055100011461046FDF718FB07480649086000F0E1
:105520001DFFFCF765FE05480068401C0349086044
:10553000ECE7000098010020CDCCCC3D30000020ED
:1055400010B56FF00400FEF7EBF810480068104942
:10555000B0FBF1F00F4908700C4800680C49B0FB33
:10556000F1F441F28830444305200B4908804FF0A4
:10557000E020006940F002004FF0E0210861084699
:105580004461006940F00100086110BD4400002042
:1055900000127A00FA000020FC00002070B50446DA
:1055A0000E480078012811D10D480088844206DB9E
:1055B0000B48008894FBF0F52846FDF789FA084867
:1055C000008894FBF0F100FB114084B24FF47A7133
:1055D00004FB01F000F006F870BD0000350100206A
:1055E000FC00002070B5034600224FF0E0267569EC
:1055F0000E4E367803FB06F400BF4FF0E026B1698B
:1056000010E04FF0E026B06988420BD0884202D209
:105610000E1A324402E02E1A0E4432440146A242CF
:1056200000D300E0EDE700BF70BD0000FA000020ED
:1056300008B53AE07823002211461046FDF784FAB7
:10564000FCF7D6FD19484068A0B91848406800909A
:105650001648436916A182681848FAF771FE84B2A9
:105660002146164800F0CCFC012802D11448FAF774
:105670005BFE1AE00D48406800900C4843690CA19D
:1056800082680E48FAF75CFE84B221460B4800F0AF
:10569000B7FC012802D10A48FAF746FEC8230022C7
:1056A00011461046FDF750FA00BFC3E7780100200D
:1056B00025752025752025750000000000070020B5
:1056C0006407002000BF054A128802F04002002A49
:1056D000F9D0C2B2014B1B1D1A807047003801403F
:1056E00010B5144600222260114A21F00043934273
:1056F000A8BF10BD53EA000208BF10BDB3F5801F5C
:10570000A8BF226807DA362202F075F86FF035027A
:1057100021F000432260DFF81CC06FF31E510CEB38
:1057200023531A4441F0FF5141F00051226010BD53
:105730000000F07F02FCFFFF2DE9F04106460C4619
:1057400040F2FF75174635EA145030D00022134658
:10575000304601F0D9F92AD03A463046214602F0C7
:105760004AF806460C4635EA145010D0002213467B
:10577000304601F0C9F91AD10220FAF7AAFFFFF763
:10578000E3FB0A46214662F31E01BDE8F0810220D8
:10579000FAF79FFF40F2013200204FF0E04102F0A3
:1057A0002AF80A46214662F31E01BDE8F081304620
:1057B0002146BDE8F081000010B5FFF7C1FEFCF7FF
:1057C0004AFEFCF7BDFE0A23044A00210448FDF707
:1057D0008DF8FDF73FF8002010BD0000500C0020B0
:1057E0004D6100080122124B1A8000201CE00021AC
:1057F000104A42F8200013E00E4A12F8202002F06E
:10580000010212B10C4A126800E00022094B53F861
:10581000203082EA5302074B43F820204A1C11B281
:105820000829E9DB421C10B2FF28E0DD70470000C8
:1058300024000020000300202000002070B5FE4856
:10584000B0F91800002846DBFB49486E002101F042
:10585000F9FE05D8F849086E002101F0F3FE1DD9C4
:10586000F549486E002101F0EDFD05D2F249086EC0
:10587000002101F0E7FD11D3EF4AD2F85011906BEF
:1058800001F0E0FD22D2EC48D0F8500180F0004455
:10589000E948816B204601F0D5FD17D20120E64989
:1058A00081F84800FCF728FD0020FCF719FDE249CB
:1058B000B1F9180001F091F921F00041054601F01D
:1058C0005FF984B22046FCF721FD4AE042F227301E
:1058D000FCF706FD45E0D849486E002101F0B2FE14
:1058E00005D8D549086E002101F0ACFE1DD9D2497A
:1058F000486E002101F0A6FD05D2CF49086E0021B7
:1059000001F0A0FD11D3CC4AD2F85011906B01F0F8
:1059100099FD22D2C848D0F8500180F00044C64812
:10592000816B204601F08EFD17D20020C24981F81C
:105930004800FCF7CBFC0020FCF7D2FCBE49B1F9D3
:10594000180001F04AF921F00041054601F018F96C
:1059500084B22046FCF7DAFC03E042F22730FCF781
:10596000BFFCB548B0F91A0000284ADBB249D1F8AB
:105970009C00002101F066FE06D8AF49D1F89800DE
:10598000002101F05FFE1FD9AB49D1F89C00002136
:1059900001F058FD06D2A849D1F89800002101F085
:1059A00051FD11D3A44AD2F85011D06B01F04AFD39
:1059B00022D2A148D0F8500180F000449E48C16B2B
:1059C000204601F03FFD17D20020FCF7B7FC012074
:1059D000994981F84900FCF7BDFC9749B1F91A00D3
:1059E00001F0FBF821F00041054601F0C9F884B24E
:1059F0002046FCF7B9FC4CE042F22730FCF79EFC55
:105A000047E08D49D1F89C00002101F01BFE05D82C
:105A10008949086E002101F015FE1ED98649D1F88A
:105A20009C00002101F00EFD05D28349086E002183
:105A300001F008FD11D3804AD2F85011D06B01F06B
:105A400001FD22D27C48D0F8500180F000447A4811
:105A5000C16B204601F0F6FC17D20020764981F890
:105A60004900FCF761FC0020FCF768FC7249B1F9C1
:105A70001A0001F0B2F821F00041054601F080F86B
:105A800084B22046FCF770FC03E042F22730FCF7BA
:105A900055FC6948B0F91C0000284ADB6649D1F87A
:105AA000D400002101F0CEFD06D86349D1F8D00022
:105AB000002101F0C7FD1FD95F49D1F8D4000021B2
:105AC00001F0C0FC06D25C49D1F8D000002101F001
:105AD000B9FC11D3584AD2F85011106C01F0B2FC45
