:020000040800F2
:10000000382A00202D02000821230008652200085C
:1000100015230008771E0008834700080000000031
:100020000000000000000000000000008D34000807
:100030007B1E000800000000BB020008A13500087C
:10004000470200084702000847020008470200086C
:10005000470200084702000847020008470200085C
:10006000470200084702000847020008470200084C
:10007000470200084702000847020008470200083C
:10008000470200084702000847020008470200082C
:10009000470200084702000847020008470200081C
:1000A000470200084702000847020008470200080C
:1000B00011360008B93800084D3B00084702000817
:1000C00047020008470200084702000847020008EC
:1000D00047020008614500089D45000847020008E6
:1000E0007D1E00084702000847020008470200087A
:1000F00047020008470200084702000847020008BC
:100100004702000847020008E13D000847020008D6
:10011000470200084702000847020008470200089B
:10012000470200084702000847020008470200088B
:1001300000F002F800F06AF80AA090E8000C82448F
:100140008344AAF10107DA4501D100F05FF8AFF26C
:10015000090EBAE80F0013F0010F18BFFB1A43F0A5
:1001600001031847EC6B00000C6C00000A444FF0D0
:10017000000C10F8013B13F0070408BF10F8014B06
:100180001D1108BF10F8015B641E05D010F8016B4B
:10019000641E01F8016BF9D113F0080F1EBF10F8AF
:1001A000014BAD1C0C1B09D16D1E58BF01F801CBD2
:1001B000FAD505E014F8016B01F8016B6D1EF9D555
:1001C0009142D6D37047000000230024002500266A
:1001D000103A28BF78C1FBD8520728BF30C148BFAA
:1001E0000B607047002070471FB500F0BFFD040092
:1001F0000020002105F064FC401C6060002000210C
:1002000005F048FCE0601FBD10B510BD00F0EAFF2E
:100210001146FFF7E9FF04F0DDFE01F037FA03B401
:10022000FFF7F2FF03BC04F015FB0000094880470C
:1002300009480047FEE7FEE7FEE7FEE7FEE7FEE7C8
:10024000FEE7FEE7FEE7FEE704480549054A064BE0
:1002500070470000B1350008310100083824002043
:10026000382A00203826002038260020EFF310809E
:1002700072B6704780F310887047204C204D25607F
:100280004FF0000484F309881E4C4FF001052570DF
:100290001D4C4FF08055256062B6FEE730B41A4C15
:1002A0004FF08055256030BC704730B4164C4FF08D
:1002B0008055256030BC704700BF72B6EFF30980EF
:1002C00028B1203880E8F00F10490968086000B5AF
:1002D0000F4880475DF804EB0E480F490A7802701A
:1002E0000A480E490A680260106890E8F00F203052
:1002F00080F309884EF0040E62B6704720ED00E0EE
:100300000000FFFF3D01002004ED00E0440100205B
:100310009929000837010020380100204C010020F5
:10032000704700000FB4044910B503AA029800F00A
:1003300043FA10BC5DF814FB080100202DE9F05FC2
:10034000894604464FF0000ADFF874B1FB44C0F858
:1003500020A02046E1688847002874D0252806D0D0
:10036000D4E901219047206A401C2062F1E7002671
:100370005F462046E16888472028054607DB312D87
:1003800005D2781910F8200C08B10643F1E7B00740
:1003900001D526F00406C4F81CA00027C4F818A054
:1003A0002A2D09D0284604F04EFA38B304EB87080A
:1003B000303DC8F8185019E059F8041B204604EBEA
:1003C00087029161E1688847012F054618D1E069ED
:1003D000002820DA26F020061DE0D8F8180000EBEF
:1003E000800005EB40003038C8F818002046E1686E
:1003F0008847054604F027FA0028EED1012F0AD0DD
:100400002E2D08D12046E16888477F1C0546022F23
:1004100046F02006C4DBA069002803DA404246F01B
:100420000106A061F00701D026F010066C2D0BD05C
:10043000682D09D04C2D39D06A2D35D0742D35D08A
:100440007A2D33D016E038E0E1682F462046884701
:10045000B842054609D16C2F26D04FF48060E16880
:10046000064320468847054604E06C2F1AD04FF417
:10047000807006430DB3A5F14100192802D820353C
:1004800046F400664A462946204626604E46FFF757
:10049000A9FE80B101280BD0F61D26F0070000F15F
:1004A000080956E74020E4E78020D8E70020D6E797
:1004B00006F104094DE7284652E7206ABDE8F09F9F
:1004C0005A6900000FB400B58DB010A909900091D1
:1004D0000B904FF0FF300A9000200C9006487844B3
:1004E0000690064878446A4607900F9909A800F0DC
:1004F000DBFB0DB05DF814FBE7070000FF07000011
:100500002DE9FF5F1D464FF0FF3B91464FF000087D
:100510005F46D5E90146A96901987F1C8847296A89
:10052000824688470028F6D1BAF1FF3F0CD0002E52
:1005300024F4C06419DD600614D5BAF12B0F09D07C
:10054000BAF12D0F0ED103E0584604B0BDE8F09F7C
:1005500044F48064A96901987F1C8847761E82460E
:10056000002E02DDBAF1300F03D0B9F1000F26D012
:1005700032E0A969761E01987F1C44F40074884714
:10058000002E824605DDBAF1780F06D0BAF1580F79
:1005900003D0B9F1000F10D01EE0B9F1000F02D066
:1005A000B9F1100F18D1A969761E01987F1C24F4A7
:1005B000007488478246102002E0082000E00A20EC
:1005C000814609E0A96908FB0908761E01987F1C8D
:1005D00044F4007488478246002E05DD49465046A3
:1005E00000F0FCF80028EDDAE96901988847A005D9
:1005F00002D46FF00100A8E7E00725D1600613D50B
:10060000600502D5C8F1000000E0404629680A1DD7
:100610002A600968220501D5087015E0220701D576
:10062000088011E008600FE02868011D296000685B
:10063000210502D580F8008006E0210702D5A0F848
:10064000008001E0C0F8008038467EE7032A40F2CF
:10065000308010F0030C00F0158011F8013BBCF164
:10066000020F624498BF11F801CB00F8013B38BF7C
:1006700011F8013BA2F1040298BF00F801CB38BF8A
:1006800000F8013B11F0030300F03E83083AC0F08C
:10069000088051F8043B083A51F804CBA0E8081050
:1006A000F5E7121D5CBF51F8043B40F8043BAFF383
:1006B0000080D20724BF11F8013B11F801CB48BFDD
:1006C00011F8012B24BF00F8013B00F801CB48BF13
:1006D00000F8012B70474FF000020429C0F012808F
:1006E00010F0030C00F01B80CCF1040CBCF1020FE5
:1006F00018BF00F8012BA8BF20F8022BA1EB0C01BA
:1007000000F00DB85FEAC17C24BF00F8012B00F8AF
:10071000012B48BF00F8012B70474FF0000200B5D5
:10072000134694469646203922BFA0E80C50A0E814
:100730000C50B1F12001BFF4F7AF090728BFA0E8C2
:100740000C5048BF0CC05DF804EB890028BF40F88E
:10075000042B08BF704748BF20F8022B11F0804FD0
:1007600018BF00F8012B70477047704770477047FB
:1007700010B500F0FFFA006810BD10B5044600F097
:10078000F9FA046010BD000001694A1C0261087892
:10079000704700B58FB0CDE90131002105910549C1
:1007A0007944CDE9031011466846FFF7C7FD0FB045
:1007B00000BD0000E5FFFFFF074B70B50D467B4411
:1007C000FFF7E7FF0446284600F004FD10B14FF0A4
:1007D000FF3070BD204670BD5F4500003A2800D252
:1007E000303820F02002412A01D3A2F1370088429C
:1007F00001D34FF0FF3070472DE9FF4F064689B017
:100800000878FF2806D0491C2D2805D000244FF079
:10081000000908E000200CE00124F8E709EB890357
:10082000491C00EB43090878FF28F7D114B1C9F13E
:1008300000008146107800252C46AA4629462D281E
:1008400001D02B2804D1521C2D2813D00020824621
:100850008B461078FF280FD04FF0000C0A21521C55
:10086000A5FB017804FB018105FB0C11C5194BEBBD
:100870000104EEE70120EAE7002108464FF00000FE
:10088000BAF1000F02D000EB80004008C0F381589D
:10089000B8F1010F01DD4FF0FF380C9809EB0007AC
:1008A00055EA040009D04FF0020917F5FA7F0BDA78
:1008B0004FEACA70C6E900B012E04FEACA70C6E952
:1008C00000B00DB0BDE8F08FB7F5FA7F0DDDF04850
:1008D0007844D0E90010C6E9001040EACA707060A0
:1008E00000F048FAC0F80090EBE7391E02DAC8F1D0
:1008F000000200E0424600DA794206A800F0FEFB62
:1009000006AB93E8070003AB83E8070044F23E0020
:100910005BEA04010090584604D144F21E012C46C3
:100920005D460091210C0904014306D1009924047D
:1009300044EA15442D041039009104F07F4101432D
:1009400006D10099240244EA15642D020839009169
:1009500004F07041014306D10099240144EA157462
:100960002D01091F009104F04041014306D1009977
:10097000A40044EA9574AD00891E009104F0004182
:10098000084304D100986D196441401E009042460E
:100990006846002FCDE9014503A902DD01F035F9D4
:1009A00001E001F00AF9BAF1000F04460D4601D04A
:1009B00084F0004440F2FF7724F00040284303D045
:1009C000C4F30A50B84212D100F0D4F9C0F8009034
:1009D000C4F30A50B8420AD1AE487844D0E90010B6
:1009E000C6E9001004F000410843706069E7C6E9F9
:1009F000005466E72DE9FF4F1F464FF0000A4FF005
:100A0000FF38454691B0D7E90146CDF83CA000F04B
:100A1000ADF9C0680168405C1090B96912986D1C0E
:100A20008847396A814688470028F6D1B9F1FF3FE7
:100A30000AD0002E24F4D06411DDB9F12B0F08D0B8
:100A4000B9F12D0F0BD102E0404615B03AE744F45E
:100A50008064B96912986D1C8847761E81466005CE
:100A600004A901D52D2000E02B20002E01F1010B5F
:100A70000DF130088DF810003FDDB9F1690F08D095
:100A8000B9F1490F05D0B9F16E0F02D0B9F14E0F8F
:100A90001CD13B4601A8009580E85002DDE9121206
:100AA0006FF0020006F067F8C11CCED10EE0B96904
:100AB00012986D1C884781461398761E44F4007482
:100AC00005600F98401C002E0F9016DDB9F1300F15
:100AD000EDD0B9F1780F02D0B9F1580F0DD10F98C0
:100AE00001280AD13B46CDE90054DDE91212001F6E
:100AF000029606F03EF8C11CA7D1109989453ED157
:100B000044F0800406E01399681CAAF1010A44F439
:100B100000740860B9696D1C1298761E88473028E9
:100B20008146F0D02BE01099894505D1200603D4E9
:100B3000761E44F0800418E0484603F084FE08B3B3
:100B4000761E0DF123018B4544F4007408D2A9F1FF
:100B500030000BF8010B200607D5AAF1010003E0D5
:100B6000200602D40AF101008246A00502D513999D
:100B7000681C0860B96912986D1C88478146002E70
:100B8000D1DC53E0002E51DDB9F1650F02D0B9F18F
:100B9000450F4BD1A00549D5B9696D1C1298761E39
:100BA00024F440748847002E81460CDD2B2804D0A5
:100BB000B9F12D0F07D144F48074B96912986D1CF6
:100BC0008847761E8146E00501D52D2100E02B21C6
:100BD00008F8011BCDF8008021E0761E0DF13901E7
:100BE000884544F400740CD2A9F1300010F0FF00E5
:100BF00088F8000002D10099884509D908F1010858
:100C000006E0E00501D5244801E042F20F7082467B
:100C1000B96912986D1C8847814613980560002EAB
:100C200004DD484603F00FFE0028D6D1F96912987A
:100C30008847FF2053468BF8000088F8000000200A
:100C40000A900B9004AA0CA90AA8FFF7D5FDA005ED
:100C500002D46FF00100F8E614F0240F0AD0E00788
:100C600014D13868DDE90A12031D3B600068C0E951
:100C700000120BE00AA9684603F08EFDE00705D1DB
:100C80003868009A011D3960006802602846DCE679
:100C90009C64000092630000F1D8FFFF02681144D9
:100CA0001378016018467047D16005497944516155
:100CB00004497944116200211161114600F068B8BD
:100CC000EDFFFFFFC7000000426842B1016811F864
:100CD000013B23B1521EC0E90012184670470121A2
:100CE000C160881E704742685AB1C368016843B941
:100CF00083688B4205D0491E521CC0E900120020B7
:100D000070474FF0FF30704710B5203AC0F00B80AD
:100D1000B1E81850203AA0E81850B1E81850A0E8FF
:100D20001850BFF4F5AF5FEA027C24BFB1E8185059
:100D3000A0E8185044BF18C918C0BDE810405FEAC9
:100D4000827C24BF51F8043B40F8043B08BF704745
:100D5000D20728BF31F8023B48BF11F8012B28BF4A
:100D600020F8023B48BF00F8012B7047004870474D
:100D7000F823002000487047D823002010B504460F
:100D800000F056FA0068005D00F0010010BD0000A0
:100D90002DE9F34F4FF0000A0C4656468DB0012066
:100DA0000C9001F10C000B9062690B9801219047A7
:100DB00005002DD0252D2CD0216A8847C0B162694D
:100DC0000B9801219047216A88470028F7D1626972
:100DD000411E0B98904700E0761CA1690D9888474A
:100DE000216A88470028F7D1E1690D988847DBE739
:100DF000A1690D988847A842074601D1761CD3E720
:100E0000E1690D9888477F1C02D1BAF1000F6FD0BD
:100E100068E162690B9800273D46394690472A28C9
:100E200004D162690B98012190470125DFF8C8823F
:100E300062690B9801219047A0F130010A290AD27A
:100E40004745E5DC07EB870100EB4107303FDFD486
:100E500045F01005ECE7E90601D46FF000476C2877
:100E60000AD04C2814D0682815D06A280DD07428D0
:100E70001CD07A281AD01DE062690B980121904796
:100E80006C2802D045F0040514E045F002050DE0A1
:100E900045F020050AE062690B9801219047682817
:100EA00002D045F0080505E045F4006562690B983D
:100EB00001219047C4E9015765283DD019DC582825
:100EC00077D00CDC452837D004DC252826D04128F3
:100ED0009ED131E046282FD0472899D12CE05B28BD
:100EE0007DD0612828D0632879D0642823D157E0A9
:100EF000F3E06F2845D008DC66281DD067281BD09A
:100F0000692821D06E2816D127E0702842D0732896
:100F100065D0752844D078280DD14AE0A1690D9894
:100F20008847252805463FF469AFE1690D98884751
:100F30006D1C3FF46AAFD5E00D9923466A466FF009
:100F4000010005F014FEC2E045F0400023464FF0DA
:100F500000026060A80733D43BE02068011D2160D7
:100F60000068290501D506701EE7290701D506800E
:100F70001AE7A90703D5F117C0E9006114E7066075
:100F800012E745F0400023464FF008026060A807D2
:100F900016D41EE040F60E0125EA0100606016E05E
:100FA00045F0400023464FF00A026060A80707D4CE
:100FB0000FE045F040006060A80708D523461022E6
:100FC0000D996FF00100AFF3008080E007E0102280
:100FD00023460D996FF00100FFF792FA77E04FF08A
:100FE000000963284F46C8464B46CB4602D05B28D3
:100FF00006D038E0E80601D40120A060012732E0E5
:101000006269D4F80CB00B98012190475E2807D193
:101010004FF0010949466269D4F80CB00B9890472B
:10102000216939B900210B4603AA42F82130491C35
:101030000829FADBD8B3216949B308F101086269CC
:101040000B98012190475D28F4D1B9F1000F09D028
:10105000002003A951F82020D24341F82020401C51
:101060000828F7DB03AB2069002820794FEA40709D
:101070001ED05B462246CDF80080CDE901970D9940
:1010800000286FF0010020DAAFF300801FE0C117E5
:1010900000EBD16203A9531122F01F0201EB83017F
:1010A000821A0B680120904003430B60C7E719E0E8
:1010B0000D99224600286FF00100009702DAAFF385
:1010C000008004E0AFF3008001E0AFF3008000286F
:1010D0000ADA401C06D10C9820B14FF0FF300FB057
:1010E000BDE8F08F5046FAE7E90701D10AF1010A9D
:1010F000064400200C9057E6CCCCCC0C2DE9F047F0
:10110000814616468AB0324878440DC88DE80D00F5
:101110002F487844801C03AC0DC884E80D0041F6CC
:101120009B303722014491FBF2F0A0F1800502FBD5
:1011300010141B3C02D56442012000E00020DFF8BF
:1011400090A080460027FA44AAF1BA0A0DE0E00711
:1011500009D03246684607EB47010AEB810100F0EF
:1011600040FD8DE8070064107F1C002CEFD1184F64
:101170007F44A83F18E0E80714D007EB04100DF1F6
:10118000180A90E80E008AE80E00C068F04201D10B
:1011900098190890324606A903A800F022FD03AB77
:1011A00083E807006D10641C002DE4D132466946C7
:1011B000B8F1000F03A802D000F0EBFC01E000F052
:1011C00010FDC9E90001C9F808200AB0BDE8F087A0
:1011D0002C5C0000007B00F08000704700487047E6
:1011E000D82300207546FFF7F9FFAE460500694693
:1011F000534620F00700854618B020B5FFF724F8C5
:10120000BDE820404FF000064FF000074FF0000807
:101210004FF0000B21F00701AC46ACE8C009ACE888
:10122000C009ACE8C009ACE8C0098D4670470000B1
:1012300010B5FFF79BFD001D10BD00BF85480000E5
:101240002DE9FF4F1F464FF03C0987B04FF0004299
:10125000DDE9141001F10108DDF858A002EA405060
:101260000390002004908346054604460590B96922
:10127000461E08988847AAF1010A0290BAF1000FA9
:1012800037DD02982E2815D01021FFF7A7FA002885
:101290002ADB4FF0010B0499014316D0B9F1000F7E
:1012A0000BDB4A46C11700F037FA05430C43A9F19E
:1012B000040905E00120059007E008B145F00105AB
:1012C00001200490059800B9361DB969089808F105
:1012D00001088847BBF1000FAAF1010A0290CDD0A6
:1012E0000999C1F80080C9E70298702808D05028F1
:1012F00006D0F96908988847BBF1000F14D04FE079
:10130000002002900120BBF1000F049009D0B969C0
:10131000089808F101088847AAF10109B9F1000FFE
:1013200007DCF969089888476FF001000BB0BDE849
:10133000F08F2B2804D02D280CD14FF0FF300490D3
:10134000B969089808F101088847A9F10109B9F1BC
:10135000000FE6DD411CE4D00A21FFF73FFA002828
:10136000DFDB029908F1010801EB810100EB41008C
:101370000290B969089888470A21FFF72FFA099A5D
:10138000A9F10109B9F1000FC2F8008001DD0028C0
:10139000E7DAF969089888470499029800FB016622
:1013A00055EA040004D004F04041090002D006E0F0
:1013B000039898E0A40044EA9574AD00B61E04F0CA
:1013C0000041080002D16D196441761E159810F095
:1013D000240F03D04FF00B095C4803E04FF02809BD
:1013E0006FF07D008246564507DAAAEB0601894474
:1013F000B9F1410F01DD4FF0410901200021A9F1B0
:10140000010200F089F9024628400B4621400843BA
:1014100001D0012100E00021501E029143F1FF3173
:1014200028402140084301D0012000E0002002991B
:10143000834651EA0B014FD0002108464FF00000CF
:10144000039900F4400039B100EB80004FF44001F3
:1014500000EBD07001EA60008015012802DD4FF03A
:10146000FF3000E013D0401C36D0029860B3BBF1CF
:10147000000F0CD14A460120002100F04DF9284010
:101480002140084301D0012000E00020E0B101200C
:101490004A46002100F040F9034640190A466141DE
:1014A0002D1A8C4111D3B9F1400F09DD159810F0B8
:1014B000240F02D0AAF1340603E0AAF1170600E0D7
:1014C000761C00254FF0004406E05B1E42F1FF321F
:1014D00020EA030521EA0204CAF10100B04206DA5B
:1014E0001B49039808430190002000900EE0039AE6
:1014F000C4F3D321E80A0A43164940EA44500A4398
:101500003146CDE90002684603F092F9159810F0D3
:10151000240F0BD01598C00715D13868DDE90012EB
:10152000031D3B600068C0E900120CE002A8694698
:1015300003F032F91598C00705D13868029A011DE9
:101540003960006802604046F0E6000002FCFFFFE0
:101550000000F07F0000F03F2DE9FF4F92461D464E
:1015600085B04FF00041DDE9124BDDE914727F1EBA
:1015700001EA4B50414940F0FF4940EA010800218F
:1015800022F020004928049102D04E2828D04CE0B7
:101590003BA0012607C88DE80700A9690698641CCE
:1015A00088477F1E014606D41DF8060018B121F0B9
:1015B000200181420BD0E96906988847032E34D078
:1015C000082E32D06FF0010009B0BDE8F08F761C14
:1015D000032E01D0082EE0D1601CCAF80000DCE721
:1015E000A9690698641C88477F1E2AD420F0200031
:1015F000412826D1A9690698641C88477F1E20D4FB
:1016000020F020004E281CD1A9690698641C884748
:101610007F1E48F4002849F48009CAF8004001D42C
:10162000282806D0E969069888475FEACB7012D06F
:1016300022E0A9690698641C88477F1E01D400280F
:1016400003DAE96906988847BCE72928F1D1641CC8
:10165000CAF80040E9E71BF0240F07D02868049976
:10166000031D2B600068C0E9001805E02868021D12
:101670002A600068C0F800902046A5E70000F07FCF
:10168000494E46494E495459000000000446AFF304
:1016900000802046FEF7C3FD4FF0013C50F8042BBC
:1016A00051F8043B9A4221D1A2EB0C03934313EA75
:1016B000CC1317D150F8042B51F8043B9A4215D1A2
:1016C000A2EB0C03934313EACC130BD150F8042B79
:1016D00051F8043B9A4209D1A2EB0C03934313EA5D
:1016E000CC13DBD04FF00000704700BFD01A01BA16
:1016F000B1FA81F101F0180122FA01F0CB40C1F1F9
:101700002001DBB2C0B2C01A2CFA01F3D11A914306
:1017100011EAC311E6D17047B2F120030AD5C2F134
:10172000200301FA02F120FA03F300FA02F041EA81
:101730000301704700FA03F14FF00000704720F0FA
:101740007F4C80EA030023F07F47ACEB070303F5EF
:101750007C5300F0004003F1FF032DE980494FEA7C
:10176000154B09B44FEA144325EA0B4E24EA03480B
:101770000FF2042606EB132749083E785FEA32028F
:1017800003FB0667C7F5000707FB06F64FEA543769
:101790004FEAD64606F1020607FB066CCCF1005C68
:1017A0004FEA1C472CEA074C07FB06F40CFB06F536
:1017B00004EB15464FEA961634BF00204FF0004068
:1017C0004FEAD13706FB07FC4FEA1C4C0CFB0BF72A
:1017D000D21B03FB0CF761EB07010CFB0EF7B0EB20
:1017E000074072EB17420CFB08F734BFA2EB07422D
:1017F000B2EB074261EB17414FEA0C444FEA910705
:1018000006FB07FC4FEA1C4C0CFB0BF7B0EBC74088
:1018100072EB573203FB0CF734BFA2EBC742B2EBBB
:10182000C74261EB57310CFB0EF7B0EBC70072EB10
:1018300057720CFB08F734BFA2EBC702B2EBC7022A
:1018400061EB5771039F4FEA816141EA921104EB0A
:10185000CC044FEAD1374FEA826206FB07FC42EA2A
:1018600090124FEA80604FEA1C4C0CFB0BF7D21B26
:1018700003FB0CF761EB07010CFB0EF7B0EB074025
:1018800072EB17420CFB08F734BFA2EB0742B2EB36
:10189000074261EB17414FEA8C554FEA910704EB81
:1018A0009C2406FB07FC4FEA1C4C0CFB0BF7B0EB2F
:1018B000C74072EB573203FB0CF734BFA2EBC742B1
:1018C000B2EBC74261EB57310CFB0EF7B0EBC70030
:1018D00072EB57720CFB08F734BFA2EBC702B2EBF6
:1018E000C70261EB577115EB4C254FEA816141EA64
:1018F00092114FEA82624FEAD13742EA901206FB18
:1019000007FC44F100044FEA80604FEA1C4C0CFBDA
:101910000BF7D21B03FB0CF761EB07010CFB0EF777
:10192000B0EB074072EB17420CFB08F734BFA2EB99
:101930000742B2EB074261EB174115EB1C154FEA6A
:10194000813141EA92414FEA823242EA90424FEAC3
:1019500080304FEA0C7644F1000448EA03434EEA33
:101960000B484FF0000EB2EB080C71EB030724BFDD
:10197000624639464EEB0E0E4FF0000B00185241F6
:1019800049414BEB0B0BB2EB080C71EB03077BF1FE
:10199000000B24BF624639464EEB0E0E4FF0000B93
:1019A0000018524149414BEB0B0BB2EB080C71EBA9
:1019B00003077BF1000B24BF624639464EEB0E0E47
:1019C00051EA020718BF46F0010616EB0E7655F1F4
:1019D000000254F1000103D5BDE88901BDE800888B
:1019E000BDE88901B619BDE80048524141EB01014B
:1019F000A3F10103704780807F7E7D7C7B7A7978BC
:101A0000777676757473727171706F6E6E6D6C6CC3
:101A10006B6A6A6968686766666564646363626165
:101A20006160605F5F5E5E5D5D5C5C5B5B5A5A59E6
:101A30005958585757565655555554545353525252
:101A40005251515050504F4F4F4E4E4D4D4D4C4CAA
:101A50004C4B4B4B4A4A4A494949484848474747F3
:101A60004746464645454544444444434343434230
:101A7000424242414141000046EA0646A3F5705306
:101A80004FEA164646EA42564FEAD22242EA41520D
:101A900010B54FEAD121A3F1010300F017F820F0AF
:101AA000004000F1010C00F0004701EB005011462E
:101AB000BCF5006F40EA070000D210BD02484FF0AD
:101AC000000140EA070010BD0000F07F002B26D483
:101AD000770021D01CB54FEA370703B44FF0100050
:101AE0004FF010014FF000000FBC0BF1010BBDE8EF
:101AF0001040BBF1010F08BF5FEA170722BF12F1C8
:101B0000010211F101014FF0004143F1000300F027
:101B1000004043EA00007047F9D35708DAE746EA85
:101B2000064613F1400F4FEA16461FDD13F1200F52
:101B3000DFBF16430A46002120335B42C8D0C3F101
:101B4000200746EA064602FA07F74FEA164646EA33
:101B50000706C3F1200722FA03F201FA07F721FA78
:101B600003F14FF0000342EA0702B1E746EA02063A
:101B700046EA06464FEA164646EA0106BCBF46EA72
:101B80000646360C4FF000034FF000024FF0000104
:101B90009EE72DE9C048934630B491E8380007C865
:101BA00031EA400C48BF34EA430C03D5FFF7C7FDC8
:101BB000FFF78CFFF0BCBDE800882DE9C0489346D4
:101BC00030B491E8380007C831EA400C48BF34EA25
:101BD000430C03D5FFF7B3FDFFF74EFFF0BCBDE8A4
:101BE00000882DE9C048934630B491E8380007C812
:101BF00010F0804F08BF13F0804F03D100F019F8A8
:101C0000FFF764FFF0BCBDE800882DE9C0489346AB
:101C100030B491E8380007C810F0804F08BF13F0C7
:101C2000804F03D100F005F8FFF726FFF0BCBDE8B8
:101C3000008820F07F4780EA030023F07F4C07EB09
:101C40000C03A3F57C5300F00040A3F1FE0392F0D7
:101C5000000F00F0B38095F0000F00F077802DE9C1
:101C600001494FEA11404FEA144621EA004800FBBF
:101C700006FC24EA064708FB06F607FB08F800FB0B
:101C800007F718EB06484CEB164C4FEA124B18EBD3
:101C900007484FEA15464CEB174022EA0B4E0BFB68
:101CA00006FC25EA06470EFB06F607FB0EFE0BFBBD
:101CB00007F71EEB064E4CEB164C4FF000061EEBE2
:101CC000074E4CEB174B18EB0B0840F1000018EBDC
:101CD0000E0B58EB000840F100008F1A4FF0000186
:101CE0003CBFC943661B14BFB5EB040C00213CBFCD
:101CF000C943F61B4FEA17444EEA8E0E27EA044505
:101D00004FEA1C4704FB07622CEA074C05FB07F768
:101D10000CFB05F604FB0CFC16EB074642EB1742E6
:101D200016EB0C4642EB1C421BEB060658EB02027C
:101D3000414146EA9E0601D5BDE80189B6195241E6
:101D400041EB0101A3F10103BDE801894FEA14450C
:101D50004FEA114724EA054621EA074C05FB07F440
:101D600006FB07F70CFB06F105FB0CFC11EB07412A
:101D700044EB17444FEA124711EB0C4144EB1C446F
:101D800022EA074C05FB07F206FB07F70CFB06F6F9
:101D900005FB0CFC16EB074642EB174216EB0C4614
:101DA00042EB1C456A1854F1000148BF7047B61950
:101DB000524141EB0101A3F10103704795F0000F7F
:101DC00037D04FEA11424FEA144721EA024624EA8B
:101DD000074C02FB07F106FB07F70CFB06F402FBBE
:101DE0000CFC14EB074441EB17414FEA154714EB89
:101DF0000C4441EB1C4125EA074C02FB07F506FBAE
:101E000007F70CFB06F602FB0CFC16EB074645EB4E
:101E1000174516EB0C4645EB1C42121951F1000117
:101E200048BF7047B619524141EB0101A3F10103CC
:101E300070474FEA14454FEA114724EA054621EA64
:101E4000074C05FB07F106FB07F70CFB06F24FF00A
:101E5000000605FB0CFC12EB074241EB174112EBAD
:101E60000C4251EB1C4148BF7047921841EB0101F5
:101E7000A3F10103704700BFFEE7704710B500F003
:101E8000E3FA4FF4805000F0D7F868B34FF4805075
:101E900000F0CCF800BF1021614800F0D6F988B1FD
:101EA0004FF480515F4800F0D0F928B15E48006BD4
:101EB000401E5D49086316E05B48006B401C5A49B0
:101EC000086310E04FF48051564800F0BEF928B185
:101ED0005548006B401C5449086304E05248006BAD
:101EE000401E5149086300BF4FF4005000F0A4F8B1
:101EF00068B34FF4005000F099F800BF2021484823
:101F000000F0A3F988B14FF40051464800F09DF964
:101F100028B14548406B401E4349486316E042489B
:101F2000406B401C4049486310E04FF400513D486D
:101F300000F08BF928B13C48406B401C3A4948639B
:101F400004E03948406B401E3749486300BF4FF4F6
:101F5000004000F071F868B34FF4004000F066F8FC
:101F600000BF80212E4800F070F988B14FF4004185
:101F70002C4800F06AF928B12B48C06B401C2A4954
:101F8000C86316E02848C06B401E2749C86310E0AC
:101F90004FF40041234800F058F928B12248C06BA3
:101FA000401E2149C86304E01F48C06B401C1E4905
:101FB000C86300BF4FF4804000F03EF868B34FF4B0
:101FC000804000F033F800BF4021154800F03DF993
:101FD00088B14FF48041134800F037F928B1124816
:101FE000806B401C1049886316E00F48806B401ED0
:101FF0000D49886310E04FF480410A4800F025F94C
:1020000028B10948806B401E0749886304E00648F0
:10201000806B401C0449886300BF00F027FA10BDA4
:1020200000100140000C0140A0010020014908609F
:102030007047000014040140014600200022074BB5
:102040001B6803EA0102054B14331B680B4013B1F4
:102050000AB1012000E000207047000000040140A8
:10206000002123498279002A3AD00A46126803687F
:102070009A430B461A600A1D126803689A430B1DA7
:102080001A60027911440A6803681A430A60184A00
:102090000832126803689A43154B08331A601A1DF8
:1020A000126803689A43124B0C331A604279102A63
:1020B0000ED11A1F126803681A430D4B08331A60B9
:1020C0001A1D126803681A43094B0C331A600DE09D
:1020D0000749427911440A6803681A430A6005E017
:1020E000027911440A6803689A430A607047000045
:1020F0000004014030B500228B071C0F0F2303FAA8
:1021000004F20B4B8C1053F824309343084C8D1081
:1021100044F8253023468C1053F824308C07240FC4
:1021200000FA04F42343024C8D1044F8253030BDEE
:10213000080001402DE9F04102460025002600205C
:1021400000230024002791F803C00CF00F0591F83C
:1021500003C00CF0100CBCF1000F03D091F802C0CA
:102160004CEA050591F800C0BCF1000F31D01468AD
:1021700000202BE04FF0010C0CFA00F3B1F800C086
:102180000CEA03069E4220D183004FF00F0C0CFA9C
:1021900003F7BC4305FA03FC4CEA040491F803C0BE
:1021A000BCF1280F06D14FF0010C0CFA00FCC2F86C
:1021B00014C00AE091F803C0BCF1480F05D14FF0FC
:1021C000010C0CFA00FCC2F810C0401C0828D1D346
:1021D0001460B1F800C0BCF1FF0F34DD546800207A
:1021E0002EE000F1080C4FF0010808FA0CF3B1F8EA
:1021F00000C00CEA03069E4221D183004FF00F0C71
:102200000CFA03F7BC4305FA03FC4CEA040491F80A
:1022100003C0BCF1280F05D100F1080C08FA0CF836
:10222000C2F8148091F803C0BCF1480F07D100F147
:10223000080C4FF0010808FA0CF8C2F81080401C96
:102240000828CED35460BDE8F08102460020936890
:102250000B400BB1012000E0002070474161704746
:102260000161704700BFFEE74CF6CC4001490860B1
:10227000704700000030004010B500F013F810BDAA
:1022800070B505460C4645F2555000F01FF828463B
:1022900000F010F8204600F013F800F003F8FFF704
:1022A000E3FF70BD4AF6AA200149086070470000AC
:1022B0000030004001494860704700000030004095
:1022C0000149886070470000003000400149086003
:1022D000704700000030004008B500F01DF80121F3
:1022E000112001F059F84FF47F40ADF800001020A4
:1022F0008DF8030003208DF8020069460448FFF7BB
:1023000019FF4FF47F410248FFF7A8FF08BD000006
:102310000010014000BFFEE710B502F0BFF810BD8D
:10232000704710B54FF4A06000F03AF810BD0000FF
:1023300070B5002100230F22C47804B3154C246823
:1023400004F4E064C4F5E064210AC1F10403CA4066
:10235000447804FA03F184781440214309010E4CB7
:102360000678A155047804F01F050124AC400578D7
:102370006D11AD0005F1E025C5F8004109E00478D4
:1023800004F01F050124AC40044D0678761145F891
:10239000264070BD0CED00E000E400E080E100E0CC
:1023A00002490143024A1160704700000000FA052B
:1023B0000CED00E02DE9F04105460E4614460027DD
:1023C0001148007818B112202070BDE8F0812878FB
:1023D000012808D0022807D0032802D0042804D1FD
:1023E00000E000BF00BF00BF02E001202070ECE76A
:1023F00000BFFDF73BFF07462E613846FDF73AFF69
:102400000020207000BFE0E73501002010B500F08B
:1024100013F800F0CBFD00F0F3FD00F013FE00F028
:1024200095FD00F063FE00F03FFE00F049FE00F075
:10243000ABFB00F007F810BD002001490880704791
:10244000780100207047000006480078012808D174
:1024500005480078FF2804D203480078401C024950
:10246000087070473D0100203501002010B50024A0
:1024700017480078012829D1FDF7F8FE04461548D1
:10248000007820B113480078401E124908701148A6
:102490000078C0B910480078A8B900F083FE0F4852
:1024A0000F49097850F821000E4908600C4800785F
:1024B0000D490978884206D00C480068401C0B4939
:1024C0000860FDF7F2FE2046FDF7D4FE10BD0000C7
:1024D0003D0100203501002036010020A41E00200F
:1024E000380100204C01002037010020200100208D
:1024F00010B500240B480078012811D1FDF7B6FE75
:1025000004460948007840B908480078FF2804D2FA
:1025100006480078401C054908702046FDF7AAFED1
:1025200010BD00003D0100203501002036010020D3
:1025300010B5002413480078012821D1FDF796FE3C
:10254000044611480078C0B10F480078401E0E497B
:1025500008700846007860B90C48007828B9204611
:10256000FDF788FE00F0EAFD0AE02046FDF782FE56
:1025700006E02046FDF77EFE02E02046FDF77AFEEB
:1025800010BD00003D010020360100203501002073
:1025900070B5054600261048007808B1002070BDCF
:1025A000FDF764FE06460D480468006820B10B483C
:1025B00000684068094908603046FDF75BFE4CB191
:1025C0000320207025810020606005A02061204646
:1025D00000F0AEFC2046E2E7350100202401002097
:1025E0003F0000002DE9F04105460E461446002745
:1025F0002878032803D001202070BDE8F0812F48FF
:10260000007810B102202070F7E72D48007810B153
:102610000D202070F1E7FDF729FE0746288940B11B
:102620002889401E28813846FDF724FE00202070AE
:10263000E3E724480068007F40F001002149096871
:10264000087700201F49096848771E48006886619E
:10265000284600F02FFC3846FDF70CFE00F06EFD1A
:10266000FDF704FE074617480068407F20B10128A7
:1026700009D0022806D102E0002020700BE00E20D5
:10268000207008E000BF29460E48006800F0E0FB1B
:102690000A20207000BF00BF00200A49096808779F
:1026A00008490968487707490968C8600549096801
:1026B00008613846FDF7DEFD00BF9EE735010020CA
:1026C000360100204401002070B504460025207822
:1026D000032801D0012070BDFDF7C8FD0546A07A92
:1026E00060B1002301221946204600F06BFB28460A
:1026F000FDF7C0FD00F022FD0020ECE720894FF639
:10270000FF71884207D22089401C20812846FDF7AE
:10271000B1FD0020DFE72846FDF7ACFD3320DAE706
:1027200010B50B48007890B900F03CFD09480078DE
:102730000949087009480749097850F821000849F3
:1027400008600846006807490860FDF796FD10BD5F
:102750003D0100203801002037010020A41E002088
:102760004C0100204401002010B50024022000F09C
:1027700015F9FDF77BFD044600200B490860204653
:10278000FDF778FD142000F009F9FDF76FFD044610
:102790000548006805490860012005490870204681
:1027A000FDF768FD10BD0000400100202C01002055
:1027B00034010020704700002DE9FE4F06460F4609
:1027C00090461C464FF00009FDF750FD81461F481A
:1027D000007828B14846FDF74DFD3C20BDE8FE8F4E
:1027E0001B4850F8240060BB0120194941F824001F
:1027F0004846FDF73FFD002342463946304600F08B
:102800002EF8824600200090019003460246514671
:102810000290204600F0DCFC054635B90D480078F2
:1028200001280CD100F08AFC09E0FDF71FFD81466C
:102830000020074941F824004846FDF71BFD2846C3
:10284000CCE74846FDF716FD2820C7E735010020F4
:10285000A41E00203D01002070477047704770B5EE
:10286000044610464FF080750560051F28462C6011
:102870006FF00106051F28462E604FF01236051F27
:1028800028462E604FF00336051F28462E604FF075
:102890000236051F28462E607610051F28462E603A
:1028A000051F284629604FF01136051F28462E6067
:1028B0004FF01036051F28462E604FF00936051FD1
:1028C00028462E604FF00836051F28462E604FF030
:1028D0000736051F28462E604FF00636051F28468E
:1028E0002E604FF00536051F28462E604FF0043647
:1028F000051F28462E6070BD2DE9F04105464FF0BA
:102900000008FDF7B3FC8046FF2D04D11E48006887
:10291000857F012607E01C480068807FA84201D11E
:10292000012600E00026194850F825402CB9404601
:10293000FDF7A0FC4820BDE8F081012C04D1404601
:10294000FDF798FC4320F6E794F820701048C05D2E
:1029500094F8211088430E49C8550846C05D30B927
:1029600094F822100B48007888430A490870207FA9
:1029700040F0080020774046FDF77CFC012E01D195
:1029800000F0DCFB0020D6E744010020A41E00205C
:102990003A010020390100207047000070B505465B
:1029A00000261748007800B170BD1648007800B1C5
:1029B000FAE71DB3FDF75AFC06461348006890F885
:1029C00020401248005D1049096891F821108843A1
:1029D0000E4908550846005D40B90B48006890F85C
:1029E00022100B480078884309490870064800689F
:1029F00085613046FDF73EFC00F0A0FB00BFD3E749
:102A00003501002036010020440100203A01002059
:102A1000390100202DE9F04104460D4616461F46B7
:102A20001248007810B15520BDE8F08110480078B8
:102A300008B13220F8E7B81CC82148434FF47A7136
:102A4000B0FBF1F14FF461606043C5EB051200EBA0
:102A50008200304400EBC00202EB001001EBC00822
:102A60004046FFF79BFF0020DEE700003501002015
:102A70003601002070B5002600F06CF8FDF7F6FB7B
:102A800006462E480068401C2C4908603046FDF779
:102A9000F1FB2B48007801284DD12A48007820B15D
:102AA000012804D0022809D103E001250BE000250C
:102AB00009E0012501202349087004E001250020D8
:102AC0002049087000BF00BF05B970BD1E480468EA
:102AD0002EE0FDF7CBFB0646A06928B3A069401E97
:102AE000A061A06900BB207F00F0370030B1207FDB
:102AF00000F0C80020770120607701E000206077B7
:102B0000207F00F0080078B92034A0780F490978B8
:102B100008430E49087020780D49085C6178084325
:102B200014F820190A4A505464683046FDF7A2FB95
:102B3000A07F1428CDD100BFC7E700005C010020B2
:102B40003D010020540100205001002039010020E7
:102B50003A01002010B506480088401C044908804E
:102B60000846008818B10020088000F003F810BD66
:102B70007801002010B503480068FFF7A5FD044662
:102B8000204610BD6C010020F8B57821284800F0DF
:102B9000A3FA4021274800F09FFA002514E0681CA2
:102BA00086B205EB8500224901EBC00406EB8600E6
:102BB00001EBC00764202070002084F82500E76046
:102BC0001DA02062681C85B2022DE8D305EB8500AC
:102BD000174901EBC00464202070002084F8250010
:102BE000E06015A0206200201449086014490880A4
:102BF0000320144908800E48134908600120FFF79C
:102C0000C7FC124908600020FFF7C2FC10490860A9
:102C10006A4610A10D480068FFF7CCFB6A4612A176
:102C20000B480068FFF7C6FB00F028F8F8BD00006D
:102C300020210020982300203F0000006401002094
:102C40006201002060010020700100206801002066
:102C50006C01002075432F4F532D494920546D724C
:102C60004C6F636B0000000075432F4F532D494993
:102C700020546D725369676E616C000010B50023BB
:102C8000024A19460248FFF797FD10BD9423002021
:102C9000012D000870B50B46032580F82550012B47
:102CA00005D1154EC5693668354445610CE0856926
:102CB0002DB9114EC56936683544456104E00E4EA4
:102CC0008569366835444561057D05F007040B4D7F
:102CD00005EBC4010D682DB908600025C56001250C
:102CE0008D8006E00A680860C26010618D886D1CE6
:102CF0008D800025056170BD6401002098230020AF
:102D000008B500BF00BF6A4600211A480068FFF7F7
:102D100069FCFFF7EDFB18480068401C1649086085
:102D20000846007800F00708144800EBC8073C6824
:102D30001AE0E668104960690968884213D12046A4
:102D400000F01EF894F82400022804D10121204646
:102D5000FFF7A0FF02E0022084F82500656815B1A6
:102D60002046A168A8473446002CE2D1FFF7E0FBDB
:102D7000C9E700006C0100206401002098230020B6
:102D800030B5057D05F007040D4D05EBC4031D6846
:102D9000854205D1C168196039B100250D6104E093
:102DA0000169C268CA6002B11161012580F825502D
:102DB0000025C56005619D886D1E9D8030BD0000A9
:102DC000982300202DE9F04F05460F46904699467E
:102DD000A87A1B490E5C05F10B00805D11F800B06C
:102DE0000BEBC60000F0FF0A164850F82A400020FE
:102DF000A0616761207F20EA0800207784F81D9099
:102E0000207F00F0080068B994F822000E49097884
:102E100008430D4908700D48805D94F8211008435F
:102E20000A4988552946204600F012F8206920B149
:102E30002046216900F021F8E5605046BDE8F08F9A
:102E4000AA6B0008A41E0020390100203A010020CE
:102E500010B590F8202001F10B039B5C90F8214005
:102E6000A34301F10B04A35423469B5C23B98B7A43
:102E700090F82240A3438B7210BDF0B5024612F8C1
:102E8000204F95785678203A0B4618680FE000F1ED
:102E90000B073F5DB74300F10B0C0CF8047067465D
:102EA0003F5D17B9877AAF4387721B1D18680028EA
:102EB000EDD1F0BD10B51B4A1268D060194A1268F6
:102EC00092F8203000F10B02D25C164B1B6893F88D
:102ED00021301A43134B1B6893F8204000F10B0379
:102EE0001A55827A0F4B1B6893F822301A4382726C
:102EF0000C4A126892F820100B4A525C094B1B686E
:102F000093F821309A43084B5A541A46525C42B9FE
:102F1000044A126892F82230044A12789A43034B0A
:102F20001A7010BD440100203A0100203901002030
:102F3000014600228A72002005E0002301F10B0205
:102F40001354421CD0B20328F7D3704770B56421E4
:102F5000134800F0C1F8002411E0601C85B204EBB6
:102F600084000F4901EB800305EB850001EB80062F
:102F7000002018705E600BA01861601C84B2042CE5
:102F8000EBD304EB8400064901EB800300201870AA
:102F9000586004A0186108460349086070BD00002D
:102FA000401A00203F0000002401002000200A49B0
:102FB00008600A4908700A4908700A4908700A49F5
:102FC00008700A4908600A4908600A4908600A4905
:102FD00008600A49087070475C0100203501002034
:102FE000360100203E0100203D010020200100208C
:102FF00040010020300100202C010020340100207D
:1030000000210A4A1170002004E00021084A1154EE
:10301000411CC8B20328F8D30021064A1170064AA1
:103020001170064A1160064A11607047390100208C
:103030003A01002037010020380100204C01002017
:103040004401002070B54FF4D871134800F044F8E3
:103050005421124800F040F800230DE0581CC5B27E
:1030600003EBC3000C4901EB800405EBC50001EB49
:1030700080066660581CC3B20B2BEFD303EBC30072
:10308000054901EB800400206060054908600248A2
:103090000449086070BD0000F81E0020A41E002036
:1030A000500100204801002010B51423024A0021DD
:1030B0000248FFF781FB10BDA01E0020CD320008A2
:1030C00010B51323024A00210248FFF775FB10BD1B
:1030D000A01C0020F532000804E0002200F8012BBB
:1030E0004A1E91B20029F8D1704700002DE9F04145
:1030F00078211048FFF7F0FF00240DE0601C86B235
:1031000004EB44000B4901EBC00506EB460001EB64
:10311000C0072F60601C84B2042CEFD304EB440082
:10312000044901EBC00500202860084602490860F8
:10313000BDE8F081A82000205801002010B500242F
:10314000FDF794F8044610480078C0B90F4800789D
:10315000A8B900F027F80E480E49097850F8210068
:103160000D4908600B4800780C490978884206D060
:103170000B480068401C0A490860FDF78FF820469C
:10318000FDF778F810BD0000350100203601002061
:10319000A41E0020380100204C010020370100202F
:1031A000200100200649074A1278885C0649095C1C
:1031B000034A515C01EBC001044A117070470000E2
:1031C000AA6B0008390100203A01002038010020D4
:1031D0002DE9F84F05460E4617469846DDE90BAB3C
:1031E000DDF8289000200090FDF740F8009031486D
:1031F0000468002C58D054F8040F2E490860009839
:10320000FDF738F844F8046CA57600202076607647
:10321000606100BF00BF00BF00BF00BFE8102077A3
:1032200005F00700E076217F01208840A077E17E4D
:103230000120884060770020A060E0602061241FAA
:103240002046FFF7B7FA2046FFF706FBFDF70EF81A
:103250000090194840F82540184800686060002038
:10326000A0601648006810B11448006884601348D4
:1032700004602034A0781249097808431049087086
:1032800020781049085C6178084314F820190D4A29
:1032900050540D480078401C0B4908700098FCF70A
:1032A000E9FF0020BDE8F88F0098FCF7E3FF42201B
:1032B000F8E7000048010020A41E00205001002073
:1032C000390100203A0100203E010020002400BF07
:1032D00000BFFCF7CBFF044605480068401C0449CA
:1032E00008602046FCF7C6FFFFF7B7FAF1E70000D9
:1032F00040010020002400BF02E02820FFF74EFB21
:10330000184800780028F8D0174800686421B0FBFE
:10331000F1F0154908600846006828B900201349F3
:103320000870FF20FFF7E8FA00BFFCF79FFF044694
:103330000F4800680F49086000200D4908602046CA
:10334000FCF798FF0B48006807490968B0FBF1F0EB
:10335000C0F1640005490870FFF780FA1420FFF7F8
:103360001DFBE2E7340100202C0100202801002091
:10337000400100203001002029B1064AD2690243F1
:10338000044BDA6104E0034AD2698243014BDA61FB
:10339000704700000010024029B1064A92690243BA
:1033A000044B9A6104E0034A92698243014B9A619B
:1033B000704700000010024030B5002100220024B8
:1033C00000232D4D6D6805F00C0121B1042905D0B5
:1033D000082923D105E0294D056022E0274D05602D
:1033E0001FE0254D6D6805F47012234D6D6805F4DE
:1033F0008034022505EB92421CB9214D55430560EE
:103400000BE01D4D6D6805F400351DB11C4D554395
:10341000056002E0194D5543056002E0174D056057
:1034200000BF00BF144D6D6805F0F0010909154D8E
:103430006B5C0568DD4045600F4D6D6805F4E0612B
:10344000090A104D6B5C4568DD4085600A4D6D686A
:1034500005F46051C90A0B4D6B5C4568DD40C560E1
:10346000054D6D6805F44041890B074D6B5CC568DF
:10347000B5FBF3F5056130BD0010024000127A0083
:1034800000093D000C0100201C010020704710B510
:1034900000F002F810BD00000CB500200190009073
:1034A0003348006840F480303149086000BF30483C
:1034B000006800F4003000900198401C01900098D2
:1034C00018B90198B0F5A06FF1D12948006800F44F
:1034D000003010B10120009001E000200090009821
:1034E000012843D12348006840F0100021490860BA
:1034F0000846006820F0030008600846006840F0B5
:10350000020008601A484068194948600846406847
:1035100048600846406840F480604860084640685B
:1035200020F47C1048600846406840F4E810486089
:103530000846006840F08070086000BF0C480068D2
:1035400000F000700028F9D00948406820F003001E
:10355000074948600846406840F00200486000BFE4
:103560000348406800F00C000828F9D10CBD0000A9
:103570000010024000200240042808D14FF0E02152
:10358000096941F004014FF0E022116107E04FF0BA
:10359000E021096921F004014FF0E0221161704738
:1035A00010B5FEF751FFFFF765FAFEF75FFF10BD9C
:1035B00010B51348006840F0010011490860084642
:1035C0004068104908400E494860084600680E49A6
:1035D00008400B4908600846006820F48020086015
:1035E0000846406820F4FE0048604FF41F008860E1
:1035F000FFF74DFF4FF000600449086010BD000068
:10360000001002400000FFF8FFFFF6FE08ED00E0AA
:1036100010B5FEF719FF9748007800F080000028E9
:1036200045D10221480700F04DFD00283FD002217E
:10363000480700F02BFD8F48007800F0400030B3C1
:103640004FF0804000F031FD8B490880084600882B
:103650008A490988884204DA4FF6FF708849086071
:1036600002E0002086490860834800888349098871
:10367000401A8349098808448249088000207D490E
:10368000087000214FF0804000F07AFD0FE04FF00D
:10369000804000F00AFD794908807648007840F0C3
:1036A0004000744908700221480700F069FD76481F
:1036B000007800F08000002844D10421080700F0C1
:1036C00001FD70B30421080700F0E0FC6E480078AB
:1036D00000F0400030B34FF0804000F0E9FC6B494F
:1036E0000880084600886A490988884204DA4FF64B
:1036F000FF706849086002E000206649086063487E
:10370000008863490988401A6249098808445D496C
:10371000488000205C49087000214FF0804000F094
:1037200093FD0FE04FF0804000F0C2FC5849088044
:103730005548007840F0400053490870022148077E
:1037400000F082FD5448007800F08000002844D149
:103750000821C80600F0B6FC70B30821C80600F0C6
:1037600095FC4D48007800F0400030B34FF08040A9
:1037700000F0A1FC494908800846008848490988AA
:10378000884204DA4FF6FF704649086002E00020E4
:10379000444908604148008841490988401A414924
:1037A000098808443749888000203B490870002177
:1037B0004FF0804000F0B2FD0FE04FF0804000F08D
:1037C0007AFC374908803448007840F0400032499C
:1037D00008700221480700F0A1FD3348007800F08E
:1037E000800098BB1021880600F06CFC70B310219B
:1037F000880600F04BFC2C48007800F0400030B305
:103800004FF0804000F05AFC2849088008460088A4
:1038100027490988884204DA4FF6FF702549086075
:1038200002E00020234908602048008820490988D8
:10383000401A2049098808441249C88000201A49C2
:10384000087000214FF0804000F0BCFD0FE04FF009
:10385000804000F033FC164908801348007840F09F
:103860004000114908700221480700F0ABFDFEF747
:10387000FDFD10BD700000207400002072000020CB
:103880006000002064180020760000207A000020EC
:1038900078000020640000207C00002080000020D0
:1038A0007E000020680000208200002086000020AA
:1038B000840000206C00002010B5FEF7C5FD914883
:1038C000007800F08000002842D102218E4800F0EC
:1038D000F9FB00283CD002218B4800F0D7FB894837
:1038E000007800F0400020B3874800F0DEFB8749F5
:1038F00008800846008886490988884204DA4FF61D
:10390000FF708449086002E00020824908607F4817
:1039100000887F490988401A7E49098808447E4901
:1039200008810020774908700021774800F028FCC2
:103930000EE0754800F0B9FB7549088071480078C1
:1039400040F040006F49087002216F4800F018FCF9
:103950007248007800F08000002841D104216A48B4
:1039600000F0B0FB60B30421674800F08FFB6B48A8
:10397000007800F0400020B3634800F099FB6849EC
:1039800008800846008867490988884204DA4FF6AB
:10399000FF706549086002E00020634908606048E4
:1039A000008860490988401A5F49098808445A49D3
:1039B00048810020594908700021534800F044FC18
:1039C0000EE0514800F074FB5649088053480078D7
:1039D00040F040005149087002214B4800F034FC8F
:1039E0005248007800F08000002841D10821464864
:1039F00000F068FB60B30821434800F047FB4B48E8
:103A0000007800F0400020B33F4800F054FB4849E4
:103A100008800846008847490988884204DA4FF63A
:103A2000FF704549086002E00020434908604048B3
:103A3000008840490988401A3F49098808443649A6
:103A4000888100203949087000212F4800F066FC69
:103A50000EE02D4800F02FFB3649088033480078EF
:103A600040F04000314908700221274800F056FC20
:103A70003248007800F0800088BB1021224800F016
:103A800021FB60B31021204800F000FB2B48007898
:103A900000F0400020B31C4800F010FB28490880CB
:103AA0000846008827490988884204DA4FF6FF70E3
:103AB0002549086002E0002023490860204800886A
:103AC00020490988401A2049098808441249C881B8
:103AD00000201A49087000210B4800F073FC0EE02A
:103AE000094800F0EBFA174908801448007840F0C4
:103AF0004000124908700221034800F063FCFEF701
:103B0000B5FC10BD98000020000400409C0000207F
:103B10009A00002088000020641800209E000020E9
:103B2000A2000020A00000208C000020A4000020A3
:103B3000A8000020A600002090000020AA0000207D
:103B4000AE000020AC0000209400002010B5FEF76D
:103B50007BFC9148007800F08000002842D10221CF
:103B60008E4800F0AFFA00283CD002218B4800F0CC
:103B70008DFA8948007800F0400020B3874800F0B3
:103B800094FA87490880084600888649098888424F
:103B900004DA4FF6FF708449086002E00020824991
:103BA00008607F4800887F490988401A7E49098853
:103BB00008447E4908820020774908700021774830
:103BC00000F0DEFA0EE0754800F06FFA75490880E3
:103BD0007148007840F040006F49087002216F483A
:103BE00000F0CEFA7248007800F08000002841D141
:103BF00004216A4800F066FA60B30421674800F0C7
:103C000045FA6B48007800F0400020B3634800F0AC
:103C10004FFA684908800846008867490988884241
:103C200004DA4FF6FF706549086002E0002063493E
:103C300008606048008860490988401A5F4909881F
:103C400008445A49488200205949087000215348C5
:103C500000F0FAFA0EE0514800F02AFA56490880BE
:103C60005348007840F040005149087002214B4809
:103C700000F0EAFA5248007800F08000002841D1B4
:103C80000821464800F01EFA60B30821434800F0BE
:103C9000FDF94B48007800F0400020B33F4800F0A9
:103CA0000AFA484908800846008847490988884236
:103CB00004DA4FF6FF704549086002E000204349EE
:103CC00008604048008840490988401A3F490988EF
:103CD00008443649888200203949087000212F485D
:103CE00000F01CFB0EE02D4800F0E5F93649088095
:103CF0003348007840F040003149087002212748DD
:103D000000F00CFB3248007800F0800088BB1021E6
:103D1000224800F0D7F960B31021204800F0B6F92E
:103D20002B48007800F0400020B31C4800F0C6F992
:103D3000284908800846008827490988884204DA0B
:103D40004FF6FF702549086002E000202349086013
:103D50002048008820490988401A204909880844D9
:103D60001249C88200201A49087000210B4800F04F
:103D700029FB0EE0094800F0A1F917490880144812
:103D8000007840F04000124908700221034800F01A
:103D900019FBFEF76BFB10BDC000002000080040BF
:103DA000C4000020C2000020B000002064180020E1
:103DB000C6000020CA000020C8000020B400002077
:103DC000CC000020D0000020CE000020B800002051
:103DD000D2000020D6000020D4000020BC0000202B
:103DE00010B5FEF731FB9148007800F08000002804
:103DF00042D102218E4800F065F900283CD0022112
:103E00008B4800F043F98948007800F0400020B367
:103E1000874800F04AF987490880084600888649A3
:103E20000988884204DA4FF6FF708449086002E08E
:103E30000020824908607F4800887F490988401A2D
:103E40007E49098808447E49088300207749087024
:103E50000021774800F094F90EE0754800F025F94C
:103E6000754908807148007840F040006F4908703B
:103E700002216F4800F084F97248007800F0800059
:103E8000002841D104216A4800F01CF960B30421E4
:103E9000674800F0FBF86B48007800F0400020B362
:103EA000634800F005F968490880084600886749BA
:103EB0000988884204DA4FF6FF706549086002E01D
:103EC0000020634908606048008860490988401AFA
:103ED0005F49098808445A494883002059490870B5
:103EE0000021534800F0B0F90EE0514800F0E0F82E
:103EF000564908805348007840F040005149087006
:103F000002214B4800F0A0F95248007800F08000F0
:103F1000002841D10821464800F0D4F860B30821B8
:103F2000434800F0B3F84B48007800F0400020B35D
:103F30003F4800F0C0F848490880084600884749D3
:103F40000988884204DA4FF6FF704549086002E0AC
:103F50000020434908604048008840490988401AC9
:103F60003F49098808443649888300203949087048
:103F700000212F4800F0D2F90EE02D4800F09BF808
:103F8000364908803348007840F0400031490870D5
:103F90000221274800F0C2F93248007800F0800082
:103FA00088BB1021224800F08DF860B31021204812
:103FB00000F06CF82B48007800F0400020B31C485B
:103FC00000F07CF8284908800846008827490988BD
:103FD000884204DA4FF6FF702549086002E00020AD
:103FE000234908602048008820490988401A204950
:103FF000098808441249C88300201A490870002122
:104000000B4800F0DFF90EE0094800F057F81749B7
:1040100008801448007840F04000124908700221DE
:10402000034800F0CFF9FEF721FA10BDE8000020A8
:10403000000C0040EC000020EA000020D800002026
:1040400064180020EE000020F2000020F0000020A4
:10405000DC000020F4000020F8000020F600002022
:10406000E0000020FA000020FE000020FC000020FC
:10407000E400002021B1028842F08002028004E0C6
:1040800002884FF67F731A4002807047CA4302824B
:10409000704721B1028842F00102028004E00288E8
:1040A0004FF6FE731A40028070470146888E7047B3
:1040B0000146088F70470146888F70470146B1F866
:1040C0004000704730B50246002000230024158AC6
:1040D00005EA0103958905EA010413B10CB1012039
:1040E00000E0002030BD000070B500240022002355
:1040F000058C4FF6FE7635400584028C8388048B50
:104100004FF68F752C40B51E2C400D882C43751E24
:104110002A400D892A434D882A43144DA8420BD0CA
:10412000134DA84208D0134DA84205D0124DA84205
:1041300002D0124DA84213D14FF6F7752A404D898F
:104140002A434FF6FB752A408D882A434FF6FF65B8
:104150002B404FF6FF552B408D892B43CD892B43A8
:1041600083800483CD888586028470BD002C014045
:10417000003401400040014000440140004801403B
:104180000A460021018C4FF6FD731940114301844A
:1041900070470A460021018B4FF6F773194011430F
:1041A0000183704770B5002400220023058C4FF670
:1041B000EF7635400584028C8388048B48F6FF75C2
:1041C0002C404FF6FF452C400D884FF6FF7606EA4F
:1041D00005252C434FF6DF752A400D8906EA0515A3
:1041E0002A434D8806EA05152A43154DA84202D0F8
:1041F000144DA8421DD14FF67F752A404D894FF6C8
:10420000FF7606EA05152A434FF6BF752A408D88CA
:1042100006EA05152A434FF6FF352B404FF2FF758E
:104220002B408D8906EA85052B43CD8906EA850555
:104230002B4383800483CD880587028470BD0000F2
:10424000002C0140003401400A460021018C4FF649
:10425000DF7319404FF6FF7303EA02131943018419
:1042600070470A460021018B4FF2FF7319404FF649
:10427000FF7303EA022319430183704770B50024DA
:1042800000220023058C4FF6FF6635400584028C22
:104290008388848B4FF68F752C404FF6FC752C402D
:1042A0000D882C434FF6FF552A400D894FF6FF76B7
:1042B00006EA05252A434D8806EA05252A43154DB9
:1042C000A84202D0144DA8421DD14FF2FF752A40DA
:1042D0004D894FF6FF7606EA05252A434FF6FF354E
:1042E0002A408D8806EA05252A434EF6FF752B40A5
:1042F0004DF6FF752B408D8906EA05152B43CD89B8
:1043000006EA05152B4383808483CD888587028444
:1043100070BD0000002C0140003401400A4600211D
:10432000018C4FF6FF5319404FF6FF7303EA022347
:104330001943018470470A460021818B4FF6F773B9
:10434000194011438183704770B500220023002477
:10435000058C4EF6FF7635400584038C8488828B6D
:1043600048F6FF752A404FF6FF452A400D884FF664
:10437000FF7606EA05252A434DF6FF752B400D8989
:1043800006EA05352B434D8806EA05352B430B4DD0
:10439000A84202D00A4DA84208D14BF6FF752C4026
:1043A0008D894FF6FF7606EA85152C43848082833B
:1043B000CD88A0F84050038470BD0000002C01405F
:1043C000003401400A460021018C4DF6FF7319406C
:1043D0004FF6FF7303EA02331943018470470A461C
:1043E0000021818B4FF2FF7319404FF6FF7303EAF0
:1043F0000223194381837047002202881D4B984293
:104400000ED01D4B98420BD0B0F1804F08D01B4B03
:10441000984205D01A4B984202D01A4B984204D1C8
:104420004FF68F731A404B881A43174B984207D0A8
:10443000164B984204D04FF6FF431A40CB881A43DC
:1044400002808B8883850B8803850A4B98420BD0AA
:10445000094B984208D00E4B984205D00D4B98421C
:1044600002D00D4B984201D10B7A0386012383823F
:1044700070470000002C014000340140000400405F
:1044800000080040000C00400010004000140040F4
:1044900000400140004401400048014010B588B090
:1044A000002401210920FEF777FF4FF47070ADF86A
:1044B000000003208DF8020018208DF803006946E3
:1044C0002548FDF737FE01210420FEF755FF07249C
:1044D00042F22730ADF81800ADF814400020ADF8D6
:1044E0001A00ADF8160005A91C48FFF785FF6020EB
:1044F000ADF804000120ADF806000020ADF80A0078
:10450000ADF80C0001A91548FFF7EEFD082113488E
:10451000FFF73FFE01A91148FFF744FE08210F48AD
:10452000FFF79FFE01A90D48FFF7A8FE08210B48E1
:10453000FFF701FF01A90948FFF706FF0821074817
:10454000FFF74DFF01210548FFF794FD01210348C6
:10455000FFF79FFD08B010BD000C014000080040AF
:1045600010B50024FDF770FF40F22551094800F016
:1045700047F858B1074800F0FFF8C4B2204600F0F1
:10458000EFFE012802D1002003490860FDF76EFF0D
:1045900010BD000000380140A001002010B540F21D
:1045A00025510E4800F02CF8B0B10C4800F0E4F8AA
:1045B000C4B20B480088C82808DA09480188008876
:1045C000401C074A10800748445405E0044800880E
:1045D00040F400400249088010BD00000044004043
:1045E000000100207819002021B1828942F4005294
:1045F000828104E082894DF6FF731A408281704700
:1046000070B50246002400230025002040F66A16FB
:10461000B14200D100BFC1F3421501F01F030126D2
:1046200006FA03F3012D02D19689334006E0022DEC
:1046300002D1168A334001E0968A33400C120126DB
:1046400006FA04F41688344013B10CB1012000E0DE
:10465000002070BDF0B50346002400260025002090
:1046600040F66A17B94200D100BF1846C1F34214A0
:1046700001F01F06012707FA06F5012C01D10C30C5
:1046800004E0022C01D1103000E014301AB10768A8
:104690002F43076002E00768AF430760F0BD0000EA
:1046A0002DE9F04786B005460E460024A24600BF1D
:1046B000A1460027B08900B100BF2F462C8A4CF6D6
:1046C000FF700440F08804432C82AC894EF6F3104E
:1046D0000440B08831890843718908430443AC81A0
:1046E000AC8A4FF6FF400440B0890443AC8201A875
:1046F000FEF762FE1F48874202D1DDF810A001E0FC
:10470000DDF80CA0A88900F4004040B10AEBCA0013
:1047100000EB0A1031684900B0FBF1F807E00AEB42
:10472000CA0000EB0A1031688900B0FBF1F8642080
:10473000B8FBF0F004012009642101FB1089A8896D
:1047400000F4004040B1322000EBC900B0FBF1F0B2
:1047500000F00700044308E0322000EB0910642158
:10476000B0FBF1F000F00F0004432C8106B0BDE86F
:10477000F08700000038014001468888C0F3080037
:10478000704700BFFEE70000024A0020110702F058
:10479000C0B9000001FDFFFF10B50446D1E90001DA
:1047A00000F002F8206010BD38B504460D466A4698
:1047B00000F0C4FA00987E30009000281FDC002230
:1047C00013462046294601F0D7FB18D0204629463B
:1047D00001F08CF90446002140F608004FF000007B
:1047E00040F60801014040F608004FF0000034F0A8
:1047F000004004BF0220FBF7C0FF204638BD0098F0
:10480000FF280DDB0220FBF7B8FF002213462046ED
:10481000294601F0C1FC8CBF04484FF0FF4038BD71
:1048200020462946BDE8384001F060B9000080FF0D
:1048300010B504460A46D4E90003194600F01AFBF5
:10484000C4E9000110BD30380A2801D201207047A8
:104850000020704700BF70472DE9FC5F82488168E7
:104860008248006801F052FE01907F49086B01F018
:104870005FFF06467E480168304601F047FE054668
:10488000019901F0A1FF7849086400200863486B92
:1048900001F04EFF064676480168304601F036FECC
:1048A0000546019901F090FF6F4948640020486374
:1048B000886B01F03DFF06466D480168304601F007
:1048C00025FE0546019901F07FFF674988640020B5
:1048D0008863C86B01F02CFF0646654801683046C6
:1048E00001F014FE0546019901F06EFF5E49C864AF
:1048F0000020C8630846806C5E4908605A4A516CC3
:10490000106C01F095FD834601F066FD074600221C
:104910004FF0804301F0D8F9054601F0E7F804466E
:10492000514AD16C906C01F083FD834601F054FD37
:10493000074600224FF0804301F0C6F9054601F01A
:10494000D5F881464946204601F072FD834601F0C4
:1049500043FD054600224FF0804301F0B5F90746BC
:1049600001F0C4F84049C8602146484602F02AF8E0
:10497000054641480168284601F0C8FD3A490861EA
:104980000846C0683D4908603748006948603648B5
:1049900080693B4908603448001D00F114031A1F68
:1049A00038A100903A48FBF78DFD0021344800689B
:1049B00001F06EFE07D12C498869002101F068FEE4
:1049C00001D000F0C5F8284A1C32111F081F00F062
:1049D00061F8254881692848006801F0F5FE8346A2
:1049E00001F0FAFC074600224FF0804301F06CF919
:1049F000054601F07BF882461B494869514601F0A3
:104A0000E1FF194948654869514601F0DBFF164945
:104A100088654869514601F00BFD1349C86548692E
:104A2000514601F005FD104908660846016CC16653
:104A3000416CC0F8A410816CC0F8DC10C16CC0F8E7
:104A40001411406D084988660846806DC1F8A000C1
:104A50000846C06DC1F8D8000846006EC1F81001C4
:104A600000F02AFCBDE8FC9FA001002048000020C7
:104A700044000020180000203C0000202A000020F4
:104A80001C0000202566202566202564000000000B
:104A9000000900202DE9F04104460D4616462B4A38
:104AA000D2F85411206801F05BFF04D22748D0F8F7
:104AB000540120600FE02548D0F8540180F00047F1
:104AC0003846216801F04CFF05D22048D0F8540147
:104AD00080F0004020601D4AD2F85C11286801F087
:104AE0003FFF04D21948D0F85C0128600FE0174856
:104AF000D0F85C0180F000473846296801F030FFAB
:104B000005D21248D0F85C0180F0004028600F4ABE
:104B1000D2F86411306801F023FF04D20B48D0F8BA
:104B2000640130600FE00948D0F8640180F000476C
:104B30003846316801F014FF05D20448D0F864010A
:104B400080F000403060BDE8F0810000A00100204E
:104B500000210C48416702469167D167C0F8AC104C
:104B6000A03211615161C0F8E410002200F1D801B7
:104B70000A614A610021C0F81C1100200249086145
:104B800048617047A0010020B002002000201549B4
:104B9000088448848884C884012081F8500081F802
:104BA000510081F8520081F8530000F001F900F043
:104BB000AFF900F035F900F0E3F964230022114663
:104BC0001046FDF727FF0CE0052300221146104692
:104BD000FDF720FF04480349886000F0F5FDFDF76C
:104BE0004BFBF1E7A00100200AD7A33B10B56FF003
:104BF0000400FEF7C1FC104800681049B0FBF1F05A
:104C00000F4908700C4800680C49B0FBF1F441F200
:104C10008830444305200B4908804FF0E0200069AC
:104C200040F002004FF0E02108610846446100694D
:104C300040F00100086110BD4C00002000127A0015
:104C4000020100200401002070B504460E480078DF
:104C5000012811D10D480088844206DB0B480088EA
:104C600094FBF0F52846FDF799FE0848008894FB70
:104C7000F0F100FB114084B24FF47A7104FB01F0B3
:104C800000F006F870BD00003D0100200401002086
:104C900070B5034600224FF0E02675690E4E367857
:104CA00003FB06F400BF4FF0E026B16910E04FF0BF
:104CB000E026B06988420BD0884202D20E1A3244F4
:104CC00002E02E1A0E4432440146A24200D300E014
:104CD000EDE700BF70BD00000201002019E01423C1
:104CE000002211461046FDF795FEFDF7C5FA09486A
:104CF00009490A6802604968416000200549487214
:104D00000821044800F0DCFB012802D10348FBF72E
:104D100009FBE4E7100700202A00002074070020A8
:104D200000BF054A128802F04002002AF9D0C2B240
:104D3000014B1B1D1A8070470038014010B5144606
:104D400000222260114A21F000439342A8BF10BD07
:104D500053EA000208BF10BDB3F5801FA8BF226848
:104D600007DA362201F0D5FE6FF0350221F000435C
:104D70002260DFF81CC06FF31E510CEB23531A4462
:104D800041F0FF5141F00051226010BD0000F07F62
:104D900002FCFFFF10B54FF400410448FDF760FA34
:104DA0004FF480410148FDF759FA10BD0010014051
:104DB00010B54FF480410448FDF750FA4FF400411C
:104DC0000148FDF74BFA10BD0010014010B54FF43B
:104DD00080410448FDF744FA4FF400410148FDF7D3
:104DE0003DFA10BD0010014042F22731884201D93E
:104DF000084601E000B90020014A10807047000019
:104E00004008004010B54FF400610448FDF728FA4F
:104E10004FF480610148FDF721FA10BD00100140F8
:104E200010B54FF480610448FDF718FA4FF40061A3
:104E30000148FDF713FA10BD0010014010B54FF402
:104E400080610448FDF70CFA4FF400610148FDF75A
:104E500005FA10BD0010014042F22731884201D905
:104E6000084601E000B90020014A108070470000A8
:104E7000380800402DE9F04106460C4640F2FF7527
:104E8000174635EA145030D000221346304601F060
:104E900073F82AD03A463046214601F03AFE0646DB
:104EA0000C4635EA145010D000221346304601F06B
:104EB00063F81AD10220FBF760FCFFF765FC0A4695
:104EC000214662F31E01BDE8F0810220FBF755FC8C
:104ED00040F2013200204FF0E04101F01AFE0A4694
:104EE000214662F31E01BDE8F08130462146BDE84F
:104EF000F081000010B54FF400510448FDF7B0F9FF
:104F00004FF480510148FDF7A9F910BD0010014090
:104F100010B54FF480510448FDF7A0F94FF400514B
:104F20000148FDF79BF910BD0010014010B54FF48A
:104F300080510448FDF794F94FF400510148FDF702
:104F40008DF910BD0010014042F22731884201D98D
:104F5000084601E000B90020014A108070470000B7
:104F60003C08004010B54FF400710448FDF778F993
:104F70004FF480710148FDF771F910BD0010014038
:104F800010B54FF480710448FDF768F94FF40071D3
:104F90000148FDF763F910BD0010014010B54FF452
:104FA00080710448FDF75CF94FF400710148FDF78A
:104FB00055F910BD0010014042F22731884201D955
:104FC000084601E000B90020014A10807047000047
:104FD0003408004010B5FFF709FEFDF7A2F9FDF710
:104FE00015FA0A23044A00210448FDF7E5FBFDF702
:104FF00097FB002010BD0000600C00200D5600083B
:105000000122124B1A8000201CE00021104A42F8B5
:10501000200013E00E4A12F8202002F0010212B123
:105020000C4A126800E00022094B53F8203082EA53
:105030005302074B43F820204A1C11B20829E9DB30
:10504000421C10B2FF28E0DD70470000280000205D
:10505000100300202400002070B55C48B0F9200047
:10506000002814DB0120594981F85000FFF75EFF4A
:105070005649B1F9200000F0E8FF21F00041054653
:1050800000F0B6FF84B22046FFF75EFF13E0002079
:105090004E4981F85000FFF72DFF4C49B1F920002F
:1050A00000F0D3FF21F00041054600F0A1FF84B2DB
:1050B0002046FFF749FF4548B0F92200002814DBDD
:1050C0000120424981F85100FFF780FE3F49B1F9C4
:1050D000220000F0BAFF21F00041054600F088FFF1
:1050E00084B22046FFF780FE13E00020374981F8A4
:1050F0005100FFF74FFE3549B1F9220000F0A5FF3E
:1051000021F00041054600F073FF84B22046FFF70E
:105110006BFE2E48B0F92400002814DB01202B4937
:1051200081F85200FFF73AFF2849B1F9240000F056
:105130008CFF21F00041054600F05AFF84B2204662
:10514000FFF73AFF13E00020204981F85200FFF7F3
:1051500009FF1E49B1F9240000F077FF21F000415A
:10516000054600F045FF84B22046FFF725FF1748AB
:10517000B0F92600002814DB0120144981F85300FF
:10518000FFF75CFE1149B1F9260000F05EFF21F047
:105190000041054600F02CFF84B22046FFF75CFE7C
:1051A00013E00020094981F85300FFF72BFE07495F
:1051B000B1F9260000F049FF21F00041054600F05A
:1051C00017FF84B22046FFF747FE70BDA001002004
:1051D00008B501211120FEF7DFF8FF20ADF800002F
:1051E00028208DF8030003208DF80200694604484A
:1051F000FCF7A0FFFF210248FDF730F808BD0000D2
:10520000001001402DE9F0478246DAE9000101F083
:10521000D9FBCAF82000DAF82C10DAF8200001F0E7
:10522000D3FACAF80800DAF83010DAF8200001F0F2
:10523000CBFA064601F0D0F88046DAE9046332463C
:1052400000F086FC04460D460022194B20462946F4
:1052500000F012FF06D90022164B2046294600F026
:105260009BFF01D8CAE90445DAE90421104600F0A1
:105270003DFCCAF80C00DAE9080101F0A3FB064680
:10528000DAF8341001F0A0FACAF81800DAE90201DD
:1052900001F0CEF80646DAF8181001F0C9F8CAF89D
:1052A0001C00DAF82000CAF82400BDE8F0870000EE
:1052B0008093C1408093C1C070B52749486901F00F
:1052C0008BF804460022134600F056FE14D1224902
:1052D000886901F081F804460022134600F04CFE74
:1052E0000AD11D484068012806D100201A490884C7
:1052F00048848884C8842BE017486830FFF782FF11
:105300001548A030FFF77EFF1348D830FFF77AFF2B
:105310001248FFF777FF1049D1F8840001F0ECF94B
:1053200000B20D490884D1F8BC0001F0E5F900B2E3
:1053300009494884D1F8F40001F0DEF900B20649C9
:105340008884D1F82C0101F0D7F900B20249C88451
:10535000FFF782FE70BD0000A0010020B002002017
:105360002DE9F041CCB005465248007828B97D2D92
:1053700003D000204CB0BDE8F0814E4801780078A1
:10538000401C4C4A1070C62091FBF0F200FB12103A
:1053900049496AB20A547E2D01D00020EAE7002470
:1053A00044480078C62801DD0020E3E7012035E00D
:1053B0004149095C7F2907D03F490B5C2146621CAB
:1053C00094B233AA535427E03B4A411C515C41B983
:1053D0007D232146621C94B233AA5354411C88B2E7
:1053E0001AE0354A411C515C012908D17E2321462F
:1053F000621C94B233AA5354411C88B20CE02E4A6A
:10540000411C515C022907D17F232146621C94B2C2
:1054100033AA5354411C88B2411C88B225490978EB
:10542000491E8142C4DCC82101A8FBF776F9002699
:105430007D223146761C01A84254002008E033A9A1
:105440000B5C3146721C96B201AA5354411C88B2BF
:10545000211F8142F3DC7E223046711C8EB201A9ED
:105460000A5432B2002000F077FA0746201F33A911
:10547000085C0106E01E33AA105C41EA0041A01E50
:10548000105C41EA0020611E515C40EA0108B84509
:1054900005D1224633A90948FBF7D8F803E00020DC
:1054A0000449087066E7002004490855014908705E
:1054B00001205FE7330000203A08002000090020A7
:1054C0002DE9F043B3B004468946002609F10600F1
:1054D000642803DD002033B0BDE8F083C82101A8B3
:1054E000FBF71BF94FF000087D22414608F1010847
:1054F00001A8425409E03046711C8EB2225C40463D
:10550000411C1FFA81F801A90A54A05D0028F2D1BC
:105510007E224046411C1FFA81F801A90A540FFA65
:1055200088F2002000F018FA07463A0E3046711C47
:105530008EB22254C7F307423046711C8EB22254F9
:10554000C7F307223046711C8EB222543046711CBC
:105550008EB22754C6212C48FBF7BDF87D202A497E
:1055600008700125002041E0215C7D290DD0215CDF
:105570007E290AD0215C7F2907D0215C4BB22946C5
:105580006A1C95B2204A53542EE0215C7D290CD12F
:105590007F2329466A1C95B21B4A5354002329468F
:1055A0006A1C95B2184A53541EE0215C7E290CD126
:1055B0007F2329466A1C95B2134A53540123294676
:1055C0006A1C95B2104A53540EE0215C7F290BD11E
:1055D0007F2329466A1C95B20B4A5354022329465D
:1055E0006A1C95B2084A5354411C88B2B042BBDBD6
:1055F0007E222946681C85B2034842540020024995
:105600004855012067E700007407002070B5044684
:10561000002500BFFDF7A8F8FAF728FE0546052388
:105620000F4A00210F48FDF7C7F807230E4A002153
:105630000E48FDF7C1F809230D4A00210D48FDF77A
:10564000BBF80020FCF7A4FF0B49086000F084F8C9
:105650000A20FDF751F92846FAF70CFE70BD00004C
:10566000601000208D4B0008601400207D5600085B
:1056700060180020DD4C00083400002016E00C48C3
:105680000068401C0A490860084600680A2807DBD1
:1056900064210848FBF71FF800200549486188612C
:1056A0006423002211461046FDF7B4F9E7E7000035
:1056B000A00100200009002010B586B00446012199
:1056C00044F20400FDF768FE4FF40070ADF81400DA
:1056D00003208DF8160018208DF8170005A91C4826
:1056E000FCF728FD4FF48060ADF8140004208DF81D
:1056F000170005A91648FCF71DFD25208DF80000B0
:1057000003208DF801008DF8020001208DF80300C0
:105710006846FCF70DFE01940020ADF80800ADF8D6
:105720000A00ADF80C00ADF810000C20ADF80E002A
:1057300001A90848FEF7B4FF012240F225510548AF
:10574000FEF788FF01210348FEF74EFF06B010BDAB
:10575000000801400038014010B5FDF729FF4FF463
:10576000A060FCF71DFEFFF741FA1E20FFF76CFA60
:10577000FCF7B2FD40F271210420FCF781FD0A48DC
:105780000A490860FFF724FD00F004F900F020F852
:105790000020074908604FF4E130FFF78DFF05A0B6
:1057A000FAF7C0FD10BD0000E1FAB341040000208B
:1057B000A0010020496E697469616C697A65206F87
:1057C000766572210D0A000010B5FFF745F810BD8F
:1057D0005C485D49C1F848015C48C1F84C015C482F
:1057E000C1F850014FF07E50C861C1F864015948BA
:1057F000C1F86801C1F854010020C1F858014FF008
:105800007E50C1F85C010020C1F860010846D0F864
:105810004811C0F89410D0F84C11C0F89810D0F886
:105820005011C0F89C100021C0F88810C0F88C10EE
:1058300000204549886600214348016741670022EE
:105840008267C267C0F88010C0F88410C166D0F8C3
:10585000480180F000413C48C0F8CC10D0F84C0121
:1058600080F000413848C0F8D010D0F8500180F0E6
:1058700000413548C0F8D4100021C0F8C010C0F86D
:10588000C41000203049C1F8A00000212E48C0F803
:10589000A810C0F8AC1000F1A00211615161C0F86D
:1058A000B810C0F8BC10C0F8A410D0F84811C0F867
:1058B0000411D0F84C11C0F80811D0F85011C0F8FC
:1058C0000C110021C0F8F810C0F8FC1000201E498F
:1058D000C1F8D80000211C48C0F8E010C0F8E4105E
:1058E000383211615161C0F8F010C0F8F410C0F8FE
:1058F000DC10D0F84811C0F83C11D0F84C11C0F8B9
:105900004011D0F85011C0F844110021C0F83011F6
:10591000C0F8341100200C49C1F8100100210A48D8
:10592000C0F81811C0F81C11002200F588710A6136
:105930004A610021C0F82811C0F82C11C0F81411D8
:10594000704700000060EAC6A001002000803BC54F
:1059500000409CC5CDCCCC3D70B504460D461646E6
:105960000A48008808B9FFF74BFBE443002009E030
:10597000295C6140C9B2064A52F8211081EA142418
:10598000411C08B2B042F3DBE04370BD28000020A8
:10599000100300201FB501210920FDF7FDFC4FF485
:1059A0007040ADF80C0028208DF80F0003208DF812
:1059B0000E0003A93648FCF7BDFB0C210120FCF7C3
:1059C00099FB4FF48050FCF731FB00208DF8080064
:1059D00010208DF809000002019001208DF80A00C6
:1059E00001A8FCF73DFB0D210120FCF783FB4FF4E0
:1059F0000050FCF71BFB00208DF8080010208DF8EC
:105A000009004002019001208DF80A0001A8FCF76E
:105A100027FB0E210120FCF76DFB4FF48040FCF7C3
:105A200005FB00208DF8080010208DF80900800289
:105A3000019001208DF80A0001A8FCF711FB0F214D
:105A40000120FCF757FB4FF40040FCF7EFFA002071
:105A50008DF8080010208DF80900C0020190012087
:105A60008DF80A0001A8FCF7FBFA28208DF8000049
:105A700003208DF8010000208DF8020001208DF830
:105A800003006846FCF754FC6846FCF751FC1FBD58
:105A9000000C014010B500290AD00878002807D072
:105AA00005487844FBF7F8FD002801D0002010BD20
:105AB0000248784410BD0000D6120000CE1200004B
:105AC00010B500290AD00878002807D00548784486
:105AD000FBF7E2FD002801D0002010BD0248784409
